{
  "_format": "hh-sol-artifact-1",
  "contractName": "EnygmaDvp",
  "sourceName": "contracts/core/contracts/EnygmaDvp.sol",
  "abi": [
    {
      "inputs": [
        {
          "internalType": "address",
          "name": "hashContractAddress",
          "type": "address"
        },
        {
          "internalType": "address",
          "name": "genericVerifierContractAddress",
          "type": "address"
        }
      ],
      "stateMutability": "nonpayable",
      "type": "constructor"
    },
    {
      "inputs": [],
      "name": "AuctionAlreadyExists",
      "type": "error"
    },
    {
      "inputs": [],
      "name": "AuctionIdMismatch",
      "type": "error"
    },
    {
      "inputs": [],
      "name": "AuctionStateMismatch",
      "type": "error"
    },
    {
      "inputs": [
        {
          "internalType": "uint256",
          "name": "",
          "type": "uint256"
        },
        {
          "internalType": "uint256",
          "name": "",
          "type": "uint256"
        }
      ],
      "name": "AuditorAlreadyRegistered",
      "type": "error"
    },
    {
      "inputs": [
        {
          "internalType": "uint256",
          "name": "",
          "type": "uint256"
        }
      ],
      "name": "AuditorNotRegistered",
      "type": "error"
    },
    {
      "inputs": [],
      "name": "BidStateMismatch",
      "type": "error"
    },
    {
      "inputs": [],
      "name": "BlindedBidMismatch",
      "type": "error"
    },
    {
      "inputs": [],
      "name": "BrokerAlreadyRegistered",
      "type": "error"
    },
    {
      "inputs": [],
      "name": "FungibleDeliveryVault",
      "type": "error"
    },
    {
      "inputs": [],
      "name": "GroupFungibilityMismatch",
      "type": "error"
    },
    {
      "inputs": [],
      "name": "GroupIdOutOfRange",
      "type": "error"
    },
    {
      "inputs": [],
      "name": "GroupMembershipMismatch",
      "type": "error"
    },
    {
      "inputs": [],
      "name": "GroupPairAlreadyRegistered",
      "type": "error"
    },
    {
      "inputs": [],
      "name": "InvalidChallenge",
      "type": "error"
    },
    {
      "inputs": [],
      "name": "InvalidDeliveryMessage",
      "type": "error"
    },
    {
      "inputs": [],
      "name": "InvalidExchangeGroupPair",
      "type": "error"
    },
    {
      "inputs": [],
      "name": "InvalidMerkleRoot",
      "type": "error"
    },
    {
      "inputs": [],
      "name": "InvalidNullifier",
      "type": "error"
    },
    {
      "inputs": [],
      "name": "InvalidNumberOfInputs",
      "type": "error"
    },
    {
      "inputs": [],
      "name": "InvalidNumberOfOutputs",
      "type": "error"
    },
    {
      "inputs": [],
      "name": "InvalidOpening",
      "type": "error"
    },
    {
      "inputs": [],
      "name": "InvalidPartialProofReceipt",
      "type": "error"
    },
    {
      "inputs": [],
      "name": "InvalidPaymentMessage",
      "type": "error"
    },
    {
      "inputs": [],
      "name": "InvalidPublicKey",
      "type": "error"
    },
    {
      "inputs": [],
      "name": "InvalidSalt",
      "type": "error"
    },
    {
      "inputs": [],
      "name": "InvalidStatementSize",
      "type": "error"
    },
    {
      "inputs": [],
      "name": "InvalidSwapGroupPair",
      "type": "error"
    },
    {
      "inputs": [],
      "name": "InvalidVaultId",
      "type": "error"
    },
    {
      "inputs": [],
      "name": "JoinSplitWithSameCommitments",
      "type": "error"
    },
    {
      "inputs": [],
      "name": "NonFungiblePaymentVault",
      "type": "error"
    },
    {
      "inputs": [],
      "name": "NotImplemented",
      "type": "error"
    },
    {
      "inputs": [],
      "name": "NotWinningBidsCountMismatch",
      "type": "error"
    },
    {
      "inputs": [],
      "name": "PrivateMintVerifierNotRegistered",
      "type": "error"
    },
    {
      "inputs": [],
      "name": "PublicSignalMismatch",
      "type": "error"
    },
    {
      "inputs": [],
      "name": "RottenChallenge",
      "type": "error"
    },
    {
      "inputs": [],
      "name": "SwapDeadlineExpired",
      "type": "error"
    },
    {
      "inputs": [],
      "name": "SwapDeadlineMustBeInFuture",
      "type": "error"
    },
    {
      "inputs": [],
      "name": "SwapNotExpiredYet",
      "type": "error"
    },
    {
      "inputs": [],
      "name": "SwapNotFound",
      "type": "error"
    },
    {
      "inputs": [],
      "name": "WinningBidOpeningMismatch",
      "type": "error"
    },
    {
      "anonymous": false,
      "inputs": [
        {
          "indexed": true,
          "internalType": "uint256",
          "name": "onchainId",
          "type": "uint256"
        },
        {
          "indexed": true,
          "internalType": "uint256",
          "name": "offchainId",
          "type": "uint256"
        },
        {
          "indexed": true,
          "internalType": "uint256",
          "name": "groupId",
          "type": "uint256"
        },
        {
          "indexed": false,
          "internalType": "uint256[2]",
          "name": "publicKey",
          "type": "uint256[2]"
        }
      ],
      "name": "AuditorRegistered",
      "type": "event"
    },
    {
      "anonymous": false,
      "inputs": [
        {
          "indexed": true,
          "internalType": "uint256",
          "name": "onchainId",
          "type": "uint256"
        }
      ],
      "name": "AuditorUnregistered",
      "type": "event"
    },
    {
      "anonymous": false,
      "inputs": [
        {
          "indexed": true,
          "internalType": "uint256",
          "name": "vaultId",
          "type": "uint256"
        },
        {
          "indexed": true,
          "internalType": "uint256",
          "name": "blindedBrokerPublicKey",
          "type": "uint256"
        }
      ],
      "name": "BrokerRegistered",
      "type": "event"
    },
    {
      "anonymous": false,
      "inputs": [
        {
          "indexed": true,
          "internalType": "uint256",
          "name": "assetId",
          "type": "uint256"
        },
        {
          "indexed": true,
          "internalType": "uint256",
          "name": "treeNumber",
          "type": "uint256"
        },
        {
          "indexed": true,
          "internalType": "uint256",
          "name": "nullifier",
          "type": "uint256"
        }
      ],
      "name": "CoinLocked",
      "type": "event"
    },
    {
      "anonymous": false,
      "inputs": [
        {
          "indexed": true,
          "internalType": "uint256",
          "name": "assetId",
          "type": "uint256"
        },
        {
          "indexed": true,
          "internalType": "uint256",
          "name": "treeNumber",
          "type": "uint256"
        },
        {
          "indexed": true,
          "internalType": "uint256",
          "name": "nullifier",
          "type": "uint256"
        }
      ],
      "name": "CoinUnlocked",
      "type": "event"
    },
    {
      "anonymous": false,
      "inputs": [
        {
          "indexed": true,
          "internalType": "uint256",
          "name": "beacon",
          "type": "uint256"
        },
        {
          "indexed": true,
          "internalType": "uint256",
          "name": "blindedBrokerPublicKey",
          "type": "uint256"
        }
      ],
      "name": "LegitBrokerReceipt",
      "type": "event"
    },
    {
      "anonymous": false,
      "inputs": [
        {
          "indexed": true,
          "internalType": "uint256",
          "name": "vaultId",
          "type": "uint256"
        },
        {
          "indexed": true,
          "internalType": "uint256",
          "name": "commitment",
          "type": "uint256"
        },
        {
          "indexed": false,
          "internalType": "bytes",
          "name": "ctxt",
          "type": "bytes"
        },
        {
          "indexed": false,
          "internalType": "bytes",
          "name": "encTxData",
          "type": "bytes"
        }
      ],
      "name": "Payment",
      "type": "event"
    },
    {
      "anonymous": false,
      "inputs": [
        {
          "indexed": true,
          "internalType": "uint256",
          "name": "vaultId",
          "type": "uint256"
        },
        {
          "indexed": true,
          "internalType": "uint256",
          "name": "groupId",
          "type": "uint256"
        },
        {
          "indexed": true,
          "internalType": "uint256",
          "name": "targetReceiptId",
          "type": "uint256"
        },
        {
          "components": [
            {
              "components": [
                {
                  "components": [
                    {
                      "internalType": "uint256",
                      "name": "x",
                      "type": "uint256"
                    },
                    {
                      "internalType": "uint256",
                      "name": "y",
                      "type": "uint256"
                    }
                  ],
                  "internalType": "struct IEnygmaDvp.G1Point",
                  "name": "a",
                  "type": "tuple"
                },
                {
                  "components": [
                    {
                      "internalType": "uint256[2]",
                      "name": "x",
                      "type": "uint256[2]"
                    },
                    {
                      "internalType": "uint256[2]",
                      "name": "y",
                      "type": "uint256[2]"
                    }
                  ],
                  "internalType": "struct IEnygmaDvp.G2Point",
                  "name": "b",
                  "type": "tuple"
                },
                {
                  "components": [
                    {
                      "internalType": "uint256",
                      "name": "x",
                      "type": "uint256"
                    },
                    {
                      "internalType": "uint256",
                      "name": "y",
                      "type": "uint256"
                    }
                  ],
                  "internalType": "struct IEnygmaDvp.G1Point",
                  "name": "c",
                  "type": "tuple"
                }
              ],
              "internalType": "struct IEnygmaDvp.SnarkProof",
              "name": "proof",
              "type": "tuple"
            },
            {
              "internalType": "uint256[]",
              "name": "statement",
              "type": "uint256[]"
            },
            {
              "internalType": "uint256",
              "name": "numberOfInputs",
              "type": "uint256"
            },
            {
              "internalType": "uint256",
              "name": "numberOfOutputs",
              "type": "uint256"
            }
          ],
          "indexed": false,
          "internalType": "struct IEnygmaDvp.ProofReceipt",
          "name": "pendingProof",
          "type": "tuple"
        }
      ],
      "name": "PendingProofAddedToVault",
      "type": "event"
    },
    {
      "anonymous": false,
      "inputs": [
        {
          "indexed": true,
          "internalType": "uint256",
          "name": "vaultId",
          "type": "uint256"
        },
        {
          "indexed": true,
          "internalType": "uint256",
          "name": "commitment",
          "type": "uint256"
        },
        {
          "indexed": true,
          "internalType": "uint256",
          "name": "cipherText",
          "type": "uint256"
        }
      ],
      "name": "PrivateMint",
      "type": "event"
    },
    {
      "anonymous": false,
      "inputs": [
        {
          "indexed": true,
          "internalType": "bytes32",
          "name": "role",
          "type": "bytes32"
        },
        {
          "indexed": true,
          "internalType": "bytes32",
          "name": "previousAdminRole",
          "type": "bytes32"
        },
        {
          "indexed": true,
          "internalType": "bytes32",
          "name": "newAdminRole",
          "type": "bytes32"
        }
      ],
      "name": "RoleAdminChanged",
      "type": "event"
    },
    {
      "anonymous": false,
      "inputs": [
        {
          "indexed": true,
          "internalType": "bytes32",
          "name": "role",
          "type": "bytes32"
        },
        {
          "indexed": true,
          "internalType": "address",
          "name": "account",
          "type": "address"
        },
        {
          "indexed": true,
          "internalType": "address",
          "name": "sender",
          "type": "address"
        }
      ],
      "name": "RoleGranted",
      "type": "event"
    },
    {
      "anonymous": false,
      "inputs": [
        {
          "indexed": true,
          "internalType": "bytes32",
          "name": "role",
          "type": "bytes32"
        },
        {
          "indexed": true,
          "internalType": "address",
          "name": "account",
          "type": "address"
        },
        {
          "indexed": true,
          "internalType": "address",
          "name": "sender",
          "type": "address"
        }
      ],
      "name": "RoleRevoked",
      "type": "event"
    },
    {
      "anonymous": false,
      "inputs": [
        {
          "indexed": true,
          "internalType": "uint256",
          "name": "receiptId1",
          "type": "uint256"
        },
        {
          "indexed": true,
          "internalType": "uint256",
          "name": "receiptId2",
          "type": "uint256"
        }
      ],
      "name": "Settled",
      "type": "event"
    },
    {
      "anonymous": false,
      "inputs": [
        {
          "indexed": true,
          "internalType": "uint256",
          "name": "swapId",
          "type": "uint256"
        },
        {
          "indexed": true,
          "internalType": "uint256",
          "name": "commitA",
          "type": "uint256"
        },
        {
          "indexed": true,
          "internalType": "uint256",
          "name": "commitB",
          "type": "uint256"
        },
        {
          "indexed": false,
          "internalType": "uint256",
          "name": "deadline",
          "type": "uint256"
        }
      ],
      "name": "SwapInitiated",
      "type": "event"
    },
    {
      "anonymous": false,
      "inputs": [
        {
          "indexed": true,
          "internalType": "uint256",
          "name": "pendingReceiptId",
          "type": "uint256"
        }
      ],
      "name": "SwapTimedOut",
      "type": "event"
    },
    {
      "anonymous": false,
      "inputs": [
        {
          "indexed": true,
          "internalType": "uint256",
          "name": "vaultId",
          "type": "uint256"
        },
        {
          "indexed": true,
          "internalType": "uint256",
          "name": "tokenUniqueId",
          "type": "uint256"
        },
        {
          "indexed": true,
          "internalType": "uint256",
          "name": "groupId",
          "type": "uint256"
        }
      ],
      "name": "TokenAddedToGroup",
      "type": "event"
    },
    {
      "anonymous": false,
      "inputs": [
        {
          "indexed": true,
          "internalType": "uint256",
          "name": "vaultId",
          "type": "uint256"
        },
        {
          "indexed": true,
          "internalType": "uint256",
          "name": "groupId",
          "type": "uint256"
        }
      ],
      "name": "VaultAddedToGroup",
      "type": "event"
    },
    {
      "anonymous": false,
      "inputs": [
        {
          "indexed": true,
          "internalType": "uint256",
          "name": "challenge",
          "type": "uint256"
        },
        {
          "indexed": true,
          "internalType": "uint256",
          "name": "assetId",
          "type": "uint256"
        },
        {
          "indexed": true,
          "internalType": "uint256",
          "name": "tokenId",
          "type": "uint256"
        },
        {
          "indexed": false,
          "internalType": "uint256",
          "name": "amountOrOne",
          "type": "uint256"
        },
        {
          "indexed": false,
          "internalType": "address",
          "name": "assetAddress",
          "type": "address"
        },
        {
          "indexed": false,
          "internalType": "address",
          "name": "senderAddress",
          "type": "address"
        }
      ],
      "name": "VerifyOwnershipReceipt",
      "type": "event"
    },
    {
      "inputs": [],
      "name": "DEFAULT_ADMIN_ROLE",
      "outputs": [
        {
          "internalType": "bytes32",
          "name": "",
          "type": "bytes32"
        }
      ],
      "stateMutability": "view",
      "type": "function"
    },
    {
      "inputs": [],
      "name": "DEFAULT_AUCTION_ROLE",
      "outputs": [
        {
          "internalType": "bytes32",
          "name": "",
          "type": "bytes32"
        }
      ],
      "stateMutability": "view",
      "type": "function"
    },
    {
      "inputs": [],
      "name": "DEFAULT_OWNER_ROLE",
      "outputs": [
        {
          "internalType": "bytes32",
          "name": "",
          "type": "bytes32"
        }
      ],
      "stateMutability": "view",
      "type": "function"
    },
    {
      "inputs": [],
      "name": "VK_ID_AUCTION_BID",
      "outputs": [
        {
          "internalType": "uint256",
          "name": "",
          "type": "uint256"
        }
      ],
      "stateMutability": "view",
      "type": "function"
    },
    {
      "inputs": [],
      "name": "VK_ID_AUCTION_INIT",
      "outputs": [
        {
          "internalType": "uint256",
          "name": "",
          "type": "uint256"
        }
      ],
      "stateMutability": "view",
      "type": "function"
    },
    {
      "inputs": [],
      "name": "VK_ID_AUCTION_NOT_WINNING_BID",
      "outputs": [
        {
          "internalType": "uint256",
          "name": "",
          "type": "uint256"
        }
      ],
      "stateMutability": "view",
      "type": "function"
    },
    {
      "inputs": [],
      "name": "VK_ID_AUCTION_PRIVATE_OPENING",
      "outputs": [
        {
          "internalType": "uint256",
          "name": "",
          "type": "uint256"
        }
      ],
      "stateMutability": "view",
      "type": "function"
    },
    {
      "inputs": [],
      "name": "VK_ID_BROKER_REGISTRATION",
      "outputs": [
        {
          "internalType": "uint256",
          "name": "",
          "type": "uint256"
        }
      ],
      "stateMutability": "view",
      "type": "function"
    },
    {
      "inputs": [],
      "name": "VK_ID_LEGIT_BROKER",
      "outputs": [
        {
          "internalType": "uint256",
          "name": "",
          "type": "uint256"
        }
      ],
      "stateMutability": "view",
      "type": "function"
    },
    {
      "inputs": [
        {
          "internalType": "uint256",
          "name": "vaultId",
          "type": "uint256"
        },
        {
          "internalType": "uint256[]",
          "name": "uniqueIdParams",
          "type": "uint256[]"
        },
        {
          "internalType": "uint256",
          "name": "groupId",
          "type": "uint256"
        }
      ],
      "name": "addTokenToGroup",
      "outputs": [
        {
          "internalType": "bool",
          "name": "",
          "type": "bool"
        }
      ],
      "stateMutability": "nonpayable",
      "type": "function"
    },
    {
      "inputs": [
        {
          "internalType": "uint256",
          "name": "vaultId",
          "type": "uint256"
        },
        {
          "internalType": "uint256",
          "name": "groupId",
          "type": "uint256"
        }
      ],
      "name": "addVaultToGroup",
      "outputs": [
        {
          "internalType": "bool",
          "name": "",
          "type": "bool"
        }
      ],
      "stateMutability": "nonpayable",
      "type": "function"
    },
    {
      "inputs": [
        {
          "internalType": "address",
          "name": "",
          "type": "address"
        }
      ],
      "name": "authorizedRelayers",
      "outputs": [
        {
          "internalType": "bool",
          "name": "",
          "type": "bool"
        }
      ],
      "stateMutability": "view",
      "type": "function"
    },
    {
      "inputs": [
        {
          "internalType": "uint256",
          "name": "challenge_",
          "type": "uint256"
        }
      ],
      "name": "checkAndRegisterChallenge",
      "outputs": [
        {
          "internalType": "bool",
          "name": "",
          "type": "bool"
        }
      ],
      "stateMutability": "nonpayable",
      "type": "function"
    },
    {
      "inputs": [
        {
          "internalType": "uint256",
          "name": "pendingReceiptId",
          "type": "uint256"
        }
      ],
      "name": "claimSwapTimeout",
      "outputs": [
        {
          "internalType": "bool",
          "name": "",
          "type": "bool"
        }
      ],
      "stateMutability": "nonpayable",
      "type": "function"
    },
    {
      "inputs": [
        {
          "internalType": "address",
          "name": "relayer",
          "type": "address"
        }
      ],
      "name": "deregisterRelayer",
      "outputs": [
        {
          "internalType": "bool",
          "name": "",
          "type": "bool"
        }
      ],
      "stateMutability": "nonpayable",
      "type": "function"
    },
    {
      "inputs": [],
      "name": "enygmaVault",
      "outputs": [
        {
          "internalType": "address",
          "name": "",
          "type": "address"
        }
      ],
      "stateMutability": "view",
      "type": "function"
    },
    {
      "inputs": [],
      "name": "erc1155Vault",
      "outputs": [
        {
          "internalType": "address",
          "name": "",
          "type": "address"
        }
      ],
      "stateMutability": "view",
      "type": "function"
    },
    {
      "inputs": [],
      "name": "erc20Vault",
      "outputs": [
        {
          "internalType": "address",
          "name": "",
          "type": "address"
        }
      ],
      "stateMutability": "view",
      "type": "function"
    },
    {
      "inputs": [],
      "name": "erc721Vault",
      "outputs": [
        {
          "internalType": "address",
          "name": "",
          "type": "address"
        }
      ],
      "stateMutability": "view",
      "type": "function"
    },
    {
      "inputs": [
        {
          "components": [
            {
              "components": [
                {
                  "components": [
                    {
                      "internalType": "uint256",
                      "name": "x",
                      "type": "uint256"
                    },
                    {
                      "internalType": "uint256",
                      "name": "y",
                      "type": "uint256"
                    }
                  ],
                  "internalType": "struct IEnygmaDvp.G1Point",
                  "name": "a",
                  "type": "tuple"
                },
                {
                  "components": [
                    {
                      "internalType": "uint256[2]",
                      "name": "x",
                      "type": "uint256[2]"
                    },
                    {
                      "internalType": "uint256[2]",
                      "name": "y",
                      "type": "uint256[2]"
                    }
                  ],
                  "internalType": "struct IEnygmaDvp.G2Point",
                  "name": "b",
                  "type": "tuple"
                },
                {
                  "components": [
                    {
                      "internalType": "uint256",
                      "name": "x",
                      "type": "uint256"
                    },
                    {
                      "internalType": "uint256",
                      "name": "y",
                      "type": "uint256"
                    }
                  ],
                  "internalType": "struct IEnygmaDvp.G1Point",
                  "name": "c",
                  "type": "tuple"
                }
              ],
              "internalType": "struct IEnygmaDvp.SnarkProof",
              "name": "proof",
              "type": "tuple"
            },
            {
              "internalType": "uint256[]",
              "name": "statement",
              "type": "uint256[]"
            },
            {
              "internalType": "uint256",
              "name": "numberOfInputs",
              "type": "uint256"
            },
            {
              "internalType": "uint256",
              "name": "numberOfOutputs",
              "type": "uint256"
            }
          ],
          "internalType": "struct IEnygmaDvp.ProofReceipt",
          "name": "paymentReceipt1",
          "type": "tuple"
        },
        {
          "components": [
            {
              "components": [
                {
                  "components": [
                    {
                      "internalType": "uint256",
                      "name": "x",
                      "type": "uint256"
                    },
                    {
                      "internalType": "uint256",
                      "name": "y",
                      "type": "uint256"
                    }
                  ],
                  "internalType": "struct IEnygmaDvp.G1Point",
                  "name": "a",
                  "type": "tuple"
                },
                {
                  "components": [
                    {
                      "internalType": "uint256[2]",
                      "name": "x",
                      "type": "uint256[2]"
                    },
                    {
                      "internalType": "uint256[2]",
                      "name": "y",
                      "type": "uint256[2]"
                    }
                  ],
                  "internalType": "struct IEnygmaDvp.G2Point",
                  "name": "b",
                  "type": "tuple"
                },
                {
                  "components": [
                    {
                      "internalType": "uint256",
                      "name": "x",
                      "type": "uint256"
                    },
                    {
                      "internalType": "uint256",
                      "name": "y",
                      "type": "uint256"
                    }
                  ],
                  "internalType": "struct IEnygmaDvp.G1Point",
                  "name": "c",
                  "type": "tuple"
                }
              ],
              "internalType": "struct IEnygmaDvp.SnarkProof",
              "name": "proof",
              "type": "tuple"
            },
            {
              "internalType": "uint256[]",
              "name": "statement",
              "type": "uint256[]"
            },
            {
              "internalType": "uint256",
              "name": "numberOfInputs",
              "type": "uint256"
            },
            {
              "internalType": "uint256",
              "name": "numberOfOutputs",
              "type": "uint256"
            }
          ],
          "internalType": "struct IEnygmaDvp.ProofReceipt",
          "name": "paymentReceipt2",
          "type": "tuple"
        },
        {
          "internalType": "uint256",
          "name": "paymentVaultId1",
          "type": "uint256"
        },
        {
          "internalType": "uint256",
          "name": "paymentVaultId2",
          "type": "uint256"
        }
      ],
      "name": "exchange",
      "outputs": [
        {
          "internalType": "bool",
          "name": "",
          "type": "bool"
        }
      ],
      "stateMutability": "nonpayable",
      "type": "function"
    },
    {
      "inputs": [
        {
          "components": [
            {
              "components": [
                {
                  "components": [
                    {
                      "internalType": "uint256",
                      "name": "x",
                      "type": "uint256"
                    },
                    {
                      "internalType": "uint256",
                      "name": "y",
                      "type": "uint256"
                    }
                  ],
                  "internalType": "struct IEnygmaDvp.G1Point",
                  "name": "a",
                  "type": "tuple"
                },
                {
                  "components": [
                    {
                      "internalType": "uint256[2]",
                      "name": "x",
                      "type": "uint256[2]"
                    },
                    {
                      "internalType": "uint256[2]",
                      "name": "y",
                      "type": "uint256[2]"
                    }
                  ],
                  "internalType": "struct IEnygmaDvp.G2Point",
                  "name": "b",
                  "type": "tuple"
                },
                {
                  "components": [
                    {
                      "internalType": "uint256",
                      "name": "x",
                      "type": "uint256"
                    },
                    {
                      "internalType": "uint256",
                      "name": "y",
                      "type": "uint256"
                    }
                  ],
                  "internalType": "struct IEnygmaDvp.G1Point",
                  "name": "c",
                  "type": "tuple"
                }
              ],
              "internalType": "struct IEnygmaDvp.SnarkProof",
              "name": "proof",
              "type": "tuple"
            },
            {
              "internalType": "uint256[]",
              "name": "statement",
              "type": "uint256[]"
            },
            {
              "internalType": "uint256",
              "name": "numberOfInputs",
              "type": "uint256"
            },
            {
              "internalType": "uint256",
              "name": "numberOfOutputs",
              "type": "uint256"
            }
          ],
          "internalType": "struct IEnygmaDvp.ProofReceipt",
          "name": "receipt1",
          "type": "tuple"
        },
        {
          "components": [
            {
              "components": [
                {
                  "components": [
                    {
                      "internalType": "uint256",
                      "name": "x",
                      "type": "uint256"
                    },
                    {
                      "internalType": "uint256",
                      "name": "y",
                      "type": "uint256"
                    }
                  ],
                  "internalType": "struct IEnygmaDvp.G1Point",
                  "name": "a",
                  "type": "tuple"
                },
                {
                  "components": [
                    {
                      "internalType": "uint256[2]",
                      "name": "x",
                      "type": "uint256[2]"
                    },
                    {
                      "internalType": "uint256[2]",
                      "name": "y",
                      "type": "uint256[2]"
                    }
                  ],
                  "internalType": "struct IEnygmaDvp.G2Point",
                  "name": "b",
                  "type": "tuple"
                },
                {
                  "components": [
                    {
                      "internalType": "uint256",
                      "name": "x",
                      "type": "uint256"
                    },
                    {
                      "internalType": "uint256",
                      "name": "y",
                      "type": "uint256"
                    }
                  ],
                  "internalType": "struct IEnygmaDvp.G1Point",
                  "name": "c",
                  "type": "tuple"
                }
              ],
              "internalType": "struct IEnygmaDvp.SnarkProof",
              "name": "proof",
              "type": "tuple"
            },
            {
              "internalType": "uint256[]",
              "name": "statement",
              "type": "uint256[]"
            },
            {
              "internalType": "uint256",
              "name": "numberOfInputs",
              "type": "uint256"
            },
            {
              "internalType": "uint256",
              "name": "numberOfOutputs",
              "type": "uint256"
            }
          ],
          "internalType": "struct IEnygmaDvp.ProofReceipt",
          "name": "receipt2",
          "type": "tuple"
        },
        {
          "internalType": "uint256",
          "name": "vaultId1",
          "type": "uint256"
        },
        {
          "internalType": "uint256",
          "name": "vaultId2",
          "type": "uint256"
        },
        {
          "internalType": "uint256",
          "name": "groupId1",
          "type": "uint256"
        },
        {
          "internalType": "uint256",
          "name": "groupId2",
          "type": "uint256"
        }
      ],
      "name": "exchangeOnGroupPair",
      "outputs": [
        {
          "internalType": "bool",
          "name": "",
          "type": "bool"
        }
      ],
      "stateMutability": "nonpayable",
      "type": "function"
    },
    {
      "inputs": [
        {
          "internalType": "bytes32",
          "name": "role",
          "type": "bytes32"
        }
      ],
      "name": "getRoleAdmin",
      "outputs": [
        {
          "internalType": "bytes32",
          "name": "",
          "type": "bytes32"
        }
      ],
      "stateMutability": "view",
      "type": "function"
    },
    {
      "inputs": [
        {
          "internalType": "bytes32",
          "name": "role",
          "type": "bytes32"
        },
        {
          "internalType": "address",
          "name": "account",
          "type": "address"
        }
      ],
      "name": "grantRole",
      "outputs": [],
      "stateMutability": "nonpayable",
      "type": "function"
    },
    {
      "inputs": [
        {
          "internalType": "uint256",
          "name": "groupId1",
          "type": "uint256"
        },
        {
          "internalType": "uint256",
          "name": "groupId2",
          "type": "uint256"
        }
      ],
      "name": "groupPairId",
      "outputs": [
        {
          "internalType": "uint256",
          "name": "",
          "type": "uint256"
        }
      ],
      "stateMutability": "pure",
      "type": "function"
    },
    {
      "inputs": [
        {
          "internalType": "bytes32",
          "name": "role",
          "type": "bytes32"
        },
        {
          "internalType": "address",
          "name": "account",
          "type": "address"
        }
      ],
      "name": "hasRole",
      "outputs": [
        {
          "internalType": "bool",
          "name": "",
          "type": "bool"
        }
      ],
      "stateMutability": "view",
      "type": "function"
    },
    {
      "inputs": [],
      "name": "hashContractAddress",
      "outputs": [
        {
          "internalType": "address",
          "name": "",
          "type": "address"
        }
      ],
      "stateMutability": "view",
      "type": "function"
    },
    {
      "inputs": [
        {
          "internalType": "address",
          "name": "verifierAddress",
          "type": "address"
        }
      ],
      "name": "initializeDvp",
      "outputs": [
        {
          "internalType": "bool",
          "name": "",
          "type": "bool"
        }
      ],
      "stateMutability": "nonpayable",
      "type": "function"
    },
    {
      "inputs": [
        {
          "internalType": "uint256[2]",
          "name": "publicKey",
          "type": "uint256[2]"
        }
      ],
      "name": "isAuditorRegistered",
      "outputs": [
        {
          "internalType": "bool",
          "name": "",
          "type": "bool"
        }
      ],
      "stateMutability": "view",
      "type": "function"
    },
    {
      "inputs": [
        {
          "internalType": "uint256",
          "name": "vaultId",
          "type": "uint256"
        },
        {
          "components": [
            {
              "components": [
                {
                  "components": [
                    {
                      "internalType": "uint256",
                      "name": "x",
                      "type": "uint256"
                    },
                    {
                      "internalType": "uint256",
                      "name": "y",
                      "type": "uint256"
                    }
                  ],
                  "internalType": "struct IEnygmaDvp.G1Point",
                  "name": "a",
                  "type": "tuple"
                },
                {
                  "components": [
                    {
                      "internalType": "uint256[2]",
                      "name": "x",
                      "type": "uint256[2]"
                    },
                    {
                      "internalType": "uint256[2]",
                      "name": "y",
                      "type": "uint256[2]"
                    }
                  ],
                  "internalType": "struct IEnygmaDvp.G2Point",
                  "name": "b",
                  "type": "tuple"
                },
                {
                  "components": [
                    {
                      "internalType": "uint256",
                      "name": "x",
                      "type": "uint256"
                    },
                    {
                      "internalType": "uint256",
                      "name": "y",
                      "type": "uint256"
                    }
                  ],
                  "internalType": "struct IEnygmaDvp.G1Point",
                  "name": "c",
                  "type": "tuple"
                }
              ],
              "internalType": "struct IEnygmaDvp.SnarkProof",
              "name": "proof",
              "type": "tuple"
            },
            {
              "internalType": "uint256[]",
              "name": "statement",
              "type": "uint256[]"
            },
            {
              "internalType": "uint256",
              "name": "numberOfInputs",
              "type": "uint256"
            },
            {
              "internalType": "uint256",
              "name": "numberOfOutputs",
              "type": "uint256"
            }
          ],
          "internalType": "struct IEnygmaDvp.ProofReceipt",
          "name": "receipt",
          "type": "tuple"
        },
        {
          "internalType": "uint256",
          "name": "groupId",
          "type": "uint256"
        }
      ],
      "name": "isMemberOfFromProofReceipt",
      "outputs": [
        {
          "internalType": "bool",
          "name": "",
          "type": "bool"
        }
      ],
      "stateMutability": "view",
      "type": "function"
    },
    {
      "inputs": [
        {
          "internalType": "uint256",
          "name": "vaultId",
          "type": "uint256"
        },
        {
          "internalType": "uint256[]",
          "name": "uniqueIdParams",
          "type": "uint256[]"
        },
        {
          "internalType": "uint256",
          "name": "groupId",
          "type": "uint256"
        }
      ],
      "name": "isTokenMemberOf",
      "outputs": [
        {
          "internalType": "bool",
          "name": "",
          "type": "bool"
        }
      ],
      "stateMutability": "view",
      "type": "function"
    },
    {
      "inputs": [
        {
          "internalType": "uint256",
          "name": "groupId1",
          "type": "uint256"
        },
        {
          "internalType": "uint256",
          "name": "groupId2",
          "type": "uint256"
        }
      ],
      "name": "isValidExchangeGroupPair",
      "outputs": [
        {
          "internalType": "bool",
          "name": "",
          "type": "bool"
        }
      ],
      "stateMutability": "view",
      "type": "function"
    },
    {
      "inputs": [
        {
          "internalType": "uint256",
          "name": "groupId1",
          "type": "uint256"
        },
        {
          "internalType": "uint256",
          "name": "groupId2",
          "type": "uint256"
        }
      ],
      "name": "isValidSwapGroupPair",
      "outputs": [
        {
          "internalType": "bool",
          "name": "",
          "type": "bool"
        }
      ],
      "stateMutability": "view",
      "type": "function"
    },
    {
      "inputs": [
        {
          "internalType": "uint256",
          "name": "vaultId",
          "type": "uint256"
        },
        {
          "internalType": "uint256",
          "name": "groupId",
          "type": "uint256"
        }
      ],
      "name": "isVaultMemberOf",
      "outputs": [
        {
          "internalType": "bool",
          "name": "",
          "type": "bool"
        }
      ],
      "stateMutability": "view",
      "type": "function"
    },
    {
      "inputs": [
        {
          "components": [
            {
              "components": [
                {
                  "components": [
                    {
                      "internalType": "uint256",
                      "name": "x",
                      "type": "uint256"
                    },
                    {
                      "internalType": "uint256",
                      "name": "y",
                      "type": "uint256"
                    }
                  ],
                  "internalType": "struct IEnygmaDvp.G1Point",
                  "name": "a",
                  "type": "tuple"
                },
                {
                  "components": [
                    {
                      "internalType": "uint256[2]",
                      "name": "x",
                      "type": "uint256[2]"
                    },
                    {
                      "internalType": "uint256[2]",
                      "name": "y",
                      "type": "uint256[2]"
                    }
                  ],
                  "internalType": "struct IEnygmaDvp.G2Point",
                  "name": "b",
                  "type": "tuple"
                },
                {
                  "components": [
                    {
                      "internalType": "uint256",
                      "name": "x",
                      "type": "uint256"
                    },
                    {
                      "internalType": "uint256",
                      "name": "y",
                      "type": "uint256"
                    }
                  ],
                  "internalType": "struct IEnygmaDvp.G1Point",
                  "name": "c",
                  "type": "tuple"
                }
              ],
              "internalType": "struct IEnygmaDvp.SnarkProof",
              "name": "proof",
              "type": "tuple"
            },
            {
              "internalType": "uint256[]",
              "name": "statement",
              "type": "uint256[]"
            },
            {
              "internalType": "uint256",
              "name": "numberOfInputs",
              "type": "uint256"
            },
            {
              "internalType": "uint256",
              "name": "numberOfOutputs",
              "type": "uint256"
            }
          ],
          "internalType": "struct IEnygmaDvp.ProofReceipt",
          "name": "receipt",
          "type": "tuple"
        },
        {
          "internalType": "uint256",
          "name": "vaultId",
          "type": "uint256"
        }
      ],
      "name": "lockReceiptNullifiers",
      "outputs": [
        {
          "internalType": "bool",
          "name": "",
          "type": "bool"
        }
      ],
      "stateMutability": "nonpayable",
      "type": "function"
    },
    {
      "inputs": [],
      "name": "name",
      "outputs": [
        {
          "internalType": "string",
          "name": "",
          "type": "string"
        }
      ],
      "stateMutability": "view",
      "type": "function"
    },
    {
      "inputs": [
        {
          "components": [
            {
              "components": [
                {
                  "components": [
                    {
                      "internalType": "uint256",
                      "name": "x",
                      "type": "uint256"
                    },
                    {
                      "internalType": "uint256",
                      "name": "y",
                      "type": "uint256"
                    }
                  ],
                  "internalType": "struct IEnygmaDvp.G1Point",
                  "name": "a",
                  "type": "tuple"
                },
                {
                  "components": [
                    {
                      "internalType": "uint256[2]",
                      "name": "x",
                      "type": "uint256[2]"
                    },
                    {
                      "internalType": "uint256[2]",
                      "name": "y",
                      "type": "uint256[2]"
                    }
                  ],
                  "internalType": "struct IEnygmaDvp.G2Point",
                  "name": "b",
                  "type": "tuple"
                },
                {
                  "components": [
                    {
                      "internalType": "uint256",
                      "name": "x",
                      "type": "uint256"
                    },
                    {
                      "internalType": "uint256",
                      "name": "y",
                      "type": "uint256"
                    }
                  ],
                  "internalType": "struct IEnygmaDvp.G1Point",
                  "name": "c",
                  "type": "tuple"
                }
              ],
              "internalType": "struct IEnygmaDvp.SnarkProof",
              "name": "proof",
              "type": "tuple"
            },
            {
              "internalType": "uint256[]",
              "name": "statement",
              "type": "uint256[]"
            },
            {
              "internalType": "uint256",
              "name": "numberOfInputs",
              "type": "uint256"
            },
            {
              "internalType": "uint256",
              "name": "numberOfOutputs",
              "type": "uint256"
            }
          ],
          "internalType": "struct IEnygmaDvp.ProofReceipt",
          "name": "receipt",
          "type": "tuple"
        },
        {
          "internalType": "uint256",
          "name": "vaultId",
          "type": "uint256"
        },
        {
          "internalType": "bytes[]",
          "name": "ctxts",
          "type": "bytes[]"
        },
        {
          "internalType": "bytes[]",
          "name": "encTxDatas",
          "type": "bytes[]"
        }
      ],
      "name": "payment",
      "outputs": [
        {
          "internalType": "bool",
          "name": "",
          "type": "bool"
        }
      ],
      "stateMutability": "nonpayable",
      "type": "function"
    },
    {
      "inputs": [
        {
          "internalType": "uint256",
          "name": "vaultId",
          "type": "uint256"
        },
        {
          "internalType": "uint256",
          "name": "commitment",
          "type": "uint256"
        },
        {
          "components": [
            {
              "internalType": "uint256[8]",
              "name": "proof",
              "type": "uint256[8]"
            },
            {
              "internalType": "uint256[4]",
              "name": "public_signal",
              "type": "uint256[4]"
            }
          ],
          "internalType": "struct IEnygmaDvp.EnygmaPrivateMintProof",
          "name": "proof",
          "type": "tuple"
        }
      ],
      "name": "privateMint",
      "outputs": [
        {
          "internalType": "bool",
          "name": "",
          "type": "bool"
        }
      ],
      "stateMutability": "nonpayable",
      "type": "function"
    },
    {
      "inputs": [
        {
          "internalType": "address",
          "name": "assetGroupContractAddress",
          "type": "address"
        },
        {
          "internalType": "string",
          "name": "assetGroupName",
          "type": "string"
        },
        {
          "internalType": "bool",
          "name": "isAssetGroupFungible",
          "type": "bool"
        },
        {
          "internalType": "uint256",
          "name": "treeDepth",
          "type": "uint256"
        }
      ],
      "name": "registerAssetGroup",
      "outputs": [
        {
          "internalType": "bool",
          "name": "",
          "type": "bool"
        }
      ],
      "stateMutability": "nonpayable",
      "type": "function"
    },
    {
      "inputs": [
        {
          "internalType": "uint256",
          "name": "auditorOffchainId",
          "type": "uint256"
        },
        {
          "internalType": "uint256",
          "name": "auditorGroupId",
          "type": "uint256"
        },
        {
          "internalType": "uint256[2]",
          "name": "auditorPublicKey",
          "type": "uint256[2]"
        }
      ],
      "name": "registerAuditor",
      "outputs": [
        {
          "internalType": "bool",
          "name": "",
          "type": "bool"
        }
      ],
      "stateMutability": "nonpayable",
      "type": "function"
    },
    {
      "inputs": [
        {
          "components": [
            {
              "components": [
                {
                  "components": [
                    {
                      "internalType": "uint256",
                      "name": "x",
                      "type": "uint256"
                    },
                    {
                      "internalType": "uint256",
                      "name": "y",
                      "type": "uint256"
                    }
                  ],
                  "internalType": "struct IEnygmaDvp.G1Point",
                  "name": "a",
                  "type": "tuple"
                },
                {
                  "components": [
                    {
                      "internalType": "uint256[2]",
                      "name": "x",
                      "type": "uint256[2]"
                    },
                    {
                      "internalType": "uint256[2]",
                      "name": "y",
                      "type": "uint256[2]"
                    }
                  ],
                  "internalType": "struct IEnygmaDvp.G2Point",
                  "name": "b",
                  "type": "tuple"
                },
                {
                  "components": [
                    {
                      "internalType": "uint256",
                      "name": "x",
                      "type": "uint256"
                    },
                    {
                      "internalType": "uint256",
                      "name": "y",
                      "type": "uint256"
                    }
                  ],
                  "internalType": "struct IEnygmaDvp.G1Point",
                  "name": "c",
                  "type": "tuple"
                }
              ],
              "internalType": "struct IEnygmaDvp.SnarkProof",
              "name": "proof",
              "type": "tuple"
            },
            {
              "internalType": "uint256[]",
              "name": "statement",
              "type": "uint256[]"
            },
            {
              "internalType": "uint256",
              "name": "numberOfInputs",
              "type": "uint256"
            },
            {
              "internalType": "uint256",
              "name": "numberOfOutputs",
              "type": "uint256"
            }
          ],
          "internalType": "struct IEnygmaDvp.ProofReceipt",
          "name": "brokerRegistrationProof",
          "type": "tuple"
        }
      ],
      "name": "registerBroker",
      "outputs": [
        {
          "internalType": "bool",
          "name": "",
          "type": "bool"
        }
      ],
      "stateMutability": "nonpayable",
      "type": "function"
    },
    {
      "inputs": [
        {
          "internalType": "address",
          "name": "enygmaAuctionContractAddress",
          "type": "address"
        }
      ],
      "name": "registerEnygmaAuction",
      "outputs": [
        {
          "internalType": "bool",
          "name": "",
          "type": "bool"
        }
      ],
      "stateMutability": "nonpayable",
      "type": "function"
    },
    {
      "inputs": [
        {
          "internalType": "uint256",
          "name": "groupId1",
          "type": "uint256"
        },
        {
          "internalType": "uint256",
          "name": "groupId2",
          "type": "uint256"
        }
      ],
      "name": "registerExchangeGroupPair",
      "outputs": [
        {
          "internalType": "bool",
          "name": "",
          "type": "bool"
        }
      ],
      "stateMutability": "nonpayable",
      "type": "function"
    },
    {
      "inputs": [
        {
          "components": [
            {
              "components": [
                {
                  "internalType": "uint256",
                  "name": "x",
                  "type": "uint256"
                },
                {
                  "internalType": "uint256",
                  "name": "y",
                  "type": "uint256"
                }
              ],
              "internalType": "struct IEnygmaDvp.G1Point",
              "name": "alpha1",
              "type": "tuple"
            },
            {
              "components": [
                {
                  "internalType": "uint256[2]",
                  "name": "x",
                  "type": "uint256[2]"
                },
                {
                  "internalType": "uint256[2]",
                  "name": "y",
                  "type": "uint256[2]"
                }
              ],
              "internalType": "struct IEnygmaDvp.G2Point",
              "name": "beta2",
              "type": "tuple"
            },
            {
              "components": [
                {
                  "internalType": "uint256[2]",
                  "name": "x",
                  "type": "uint256[2]"
                },
                {
                  "internalType": "uint256[2]",
                  "name": "y",
                  "type": "uint256[2]"
                }
              ],
              "internalType": "struct IEnygmaDvp.G2Point",
              "name": "gamma2",
              "type": "tuple"
            },
            {
              "components": [
                {
                  "internalType": "uint256[2]",
                  "name": "x",
                  "type": "uint256[2]"
                },
                {
                  "internalType": "uint256[2]",
                  "name": "y",
                  "type": "uint256[2]"
                }
              ],
              "internalType": "struct IEnygmaDvp.G2Point",
              "name": "delta2",
              "type": "tuple"
            },
            {
              "components": [
                {
                  "internalType": "uint256",
                  "name": "x",
                  "type": "uint256"
                },
                {
                  "internalType": "uint256",
                  "name": "y",
                  "type": "uint256"
                }
              ],
              "internalType": "struct IEnygmaDvp.G1Point[]",
              "name": "ic",
              "type": "tuple[]"
            }
          ],
          "internalType": "struct IEnygmaDvp.VerifyingKey",
          "name": "vk_",
          "type": "tuple"
        }
      ],
      "name": "registerNewVerificationKey",
      "outputs": [
        {
          "internalType": "bool",
          "name": "",
          "type": "bool"
        }
      ],
      "stateMutability": "nonpayable",
      "type": "function"
    },
    {
      "inputs": [
        {
          "internalType": "address",
          "name": "privateMintVerifierAddress",
          "type": "address"
        }
      ],
      "name": "registerPrivateMintVerifier",
      "outputs": [
        {
          "internalType": "bool",
          "name": "",
          "type": "bool"
        }
      ],
      "stateMutability": "nonpayable",
      "type": "function"
    },
    {
      "inputs": [
        {
          "internalType": "address",
          "name": "relayer",
          "type": "address"
        }
      ],
      "name": "registerRelayer",
      "outputs": [
        {
          "internalType": "bool",
          "name": "",
          "type": "bool"
        }
      ],
      "stateMutability": "nonpayable",
      "type": "function"
    },
    {
      "inputs": [
        {
          "internalType": "uint256",
          "name": "groupId1",
          "type": "uint256"
        },
        {
          "internalType": "uint256",
          "name": "groupId2",
          "type": "uint256"
        }
      ],
      "name": "registerSwapGroupPair",
      "outputs": [
        {
          "internalType": "bool",
          "name": "",
          "type": "bool"
        }
      ],
      "stateMutability": "nonpayable",
      "type": "function"
    },
    {
      "inputs": [
        {
          "internalType": "address",
          "name": "vaultContractAddress",
          "type": "address"
        },
        {
          "internalType": "address",
          "name": "assetContractAddress",
          "type": "address"
        },
        {
          "internalType": "uint256",
          "name": "vaultIdentifiersCount",
          "type": "uint256"
        },
        {
          "internalType": "uint256",
          "name": "treeDepth",
          "type": "uint256"
        }
      ],
      "name": "registerVault",
      "outputs": [
        {
          "internalType": "bool",
          "name": "",
          "type": "bool"
        }
      ],
      "stateMutability": "nonpayable",
      "type": "function"
    },
    {
      "inputs": [
        {
          "internalType": "bytes32",
          "name": "role",
          "type": "bytes32"
        },
        {
          "internalType": "address",
          "name": "account",
          "type": "address"
        }
      ],
      "name": "renounceRole",
      "outputs": [],
      "stateMutability": "nonpayable",
      "type": "function"
    },
    {
      "inputs": [
        {
          "internalType": "bytes32",
          "name": "role",
          "type": "bytes32"
        },
        {
          "internalType": "address",
          "name": "account",
          "type": "address"
        }
      ],
      "name": "revokeRole",
      "outputs": [],
      "stateMutability": "nonpayable",
      "type": "function"
    },
    {
      "inputs": [
        {
          "components": [
            {
              "components": [
                {
                  "components": [
                    {
                      "internalType": "uint256",
                      "name": "x",
                      "type": "uint256"
                    },
                    {
                      "internalType": "uint256",
                      "name": "y",
                      "type": "uint256"
                    }
                  ],
                  "internalType": "struct IEnygmaDvp.G1Point",
                  "name": "a",
                  "type": "tuple"
                },
                {
                  "components": [
                    {
                      "internalType": "uint256[2]",
                      "name": "x",
                      "type": "uint256[2]"
                    },
                    {
                      "internalType": "uint256[2]",
                      "name": "y",
                      "type": "uint256[2]"
                    }
                  ],
                  "internalType": "struct IEnygmaDvp.G2Point",
                  "name": "b",
                  "type": "tuple"
                },
                {
                  "components": [
                    {
                      "internalType": "uint256",
                      "name": "x",
                      "type": "uint256"
                    },
                    {
                      "internalType": "uint256",
                      "name": "y",
                      "type": "uint256"
                    }
                  ],
                  "internalType": "struct IEnygmaDvp.G1Point",
                  "name": "c",
                  "type": "tuple"
                }
              ],
              "internalType": "struct IEnygmaDvp.SnarkProof",
              "name": "proof",
              "type": "tuple"
            },
            {
              "internalType": "uint256[]",
              "name": "statement",
              "type": "uint256[]"
            },
            {
              "internalType": "uint256",
              "name": "numberOfInputs",
              "type": "uint256"
            },
            {
              "internalType": "uint256",
              "name": "numberOfOutputs",
              "type": "uint256"
            }
          ],
          "internalType": "struct IEnygmaDvp.ProofReceipt",
          "name": "receipt",
          "type": "tuple"
        },
        {
          "internalType": "uint256",
          "name": "vaultId",
          "type": "uint256"
        },
        {
          "internalType": "uint256",
          "name": "groupId",
          "type": "uint256"
        },
        {
          "internalType": "uint256",
          "name": "deadline",
          "type": "uint256"
        },
        {
          "internalType": "uint256",
          "name": "revertCommitA",
          "type": "uint256"
        }
      ],
      "name": "submitPartialSettlement",
      "outputs": [
        {
          "internalType": "bool",
          "name": "",
          "type": "bool"
        }
      ],
      "stateMutability": "nonpayable",
      "type": "function"
    },
    {
      "inputs": [
        {
          "internalType": "bytes4",
          "name": "interfaceId",
          "type": "bytes4"
        }
      ],
      "name": "supportsInterface",
      "outputs": [
        {
          "internalType": "bool",
          "name": "",
          "type": "bool"
        }
      ],
      "stateMutability": "view",
      "type": "function"
    },
    {
      "inputs": [
        {
          "components": [
            {
              "components": [
                {
                  "components": [
                    {
                      "internalType": "uint256",
                      "name": "x",
                      "type": "uint256"
                    },
                    {
                      "internalType": "uint256",
                      "name": "y",
                      "type": "uint256"
                    }
                  ],
                  "internalType": "struct IEnygmaDvp.G1Point",
                  "name": "a",
                  "type": "tuple"
                },
                {
                  "components": [
                    {
                      "internalType": "uint256[2]",
                      "name": "x",
                      "type": "uint256[2]"
                    },
                    {
                      "internalType": "uint256[2]",
                      "name": "y",
                      "type": "uint256[2]"
                    }
                  ],
                  "internalType": "struct IEnygmaDvp.G2Point",
                  "name": "b",
                  "type": "tuple"
                },
                {
                  "components": [
                    {
                      "internalType": "uint256",
                      "name": "x",
                      "type": "uint256"
                    },
                    {
                      "internalType": "uint256",
                      "name": "y",
                      "type": "uint256"
                    }
                  ],
                  "internalType": "struct IEnygmaDvp.G1Point",
                  "name": "c",
                  "type": "tuple"
                }
              ],
              "internalType": "struct IEnygmaDvp.SnarkProof",
              "name": "proof",
              "type": "tuple"
            },
            {
              "internalType": "uint256[]",
              "name": "statement",
              "type": "uint256[]"
            },
            {
              "internalType": "uint256",
              "name": "numberOfInputs",
              "type": "uint256"
            },
            {
              "internalType": "uint256",
              "name": "numberOfOutputs",
              "type": "uint256"
            }
          ],
          "internalType": "struct IEnygmaDvp.ProofReceipt",
          "name": "paymentReceipt",
          "type": "tuple"
        },
        {
          "components": [
            {
              "components": [
                {
                  "components": [
                    {
                      "internalType": "uint256",
                      "name": "x",
                      "type": "uint256"
                    },
                    {
                      "internalType": "uint256",
                      "name": "y",
                      "type": "uint256"
                    }
                  ],
                  "internalType": "struct IEnygmaDvp.G1Point",
                  "name": "a",
                  "type": "tuple"
                },
                {
                  "components": [
                    {
                      "internalType": "uint256[2]",
                      "name": "x",
                      "type": "uint256[2]"
                    },
                    {
                      "internalType": "uint256[2]",
                      "name": "y",
                      "type": "uint256[2]"
                    }
                  ],
                  "internalType": "struct IEnygmaDvp.G2Point",
                  "name": "b",
                  "type": "tuple"
                },
                {
                  "components": [
                    {
                      "internalType": "uint256",
                      "name": "x",
                      "type": "uint256"
                    },
                    {
                      "internalType": "uint256",
                      "name": "y",
                      "type": "uint256"
                    }
                  ],
                  "internalType": "struct IEnygmaDvp.G1Point",
                  "name": "c",
                  "type": "tuple"
                }
              ],
              "internalType": "struct IEnygmaDvp.SnarkProof",
              "name": "proof",
              "type": "tuple"
            },
            {
              "internalType": "uint256[]",
              "name": "statement",
              "type": "uint256[]"
            },
            {
              "internalType": "uint256",
              "name": "numberOfInputs",
              "type": "uint256"
            },
            {
              "internalType": "uint256",
              "name": "numberOfOutputs",
              "type": "uint256"
            }
          ],
          "internalType": "struct IEnygmaDvp.ProofReceipt",
          "name": "deliveryReceipt",
          "type": "tuple"
        },
        {
          "internalType": "uint256",
          "name": "paymentVaultId",
          "type": "uint256"
        },
        {
          "internalType": "uint256",
          "name": "deliveryVaultId",
          "type": "uint256"
        }
      ],
      "name": "swap",
      "outputs": [
        {
          "internalType": "bool",
          "name": "",
          "type": "bool"
        }
      ],
      "stateMutability": "nonpayable",
      "type": "function"
    },
    {
      "inputs": [
        {
          "components": [
            {
              "components": [
                {
                  "components": [
                    {
                      "internalType": "uint256",
                      "name": "x",
                      "type": "uint256"
                    },
                    {
                      "internalType": "uint256",
                      "name": "y",
                      "type": "uint256"
                    }
                  ],
                  "internalType": "struct IEnygmaDvp.G1Point",
                  "name": "a",
                  "type": "tuple"
                },
                {
                  "components": [
                    {
                      "internalType": "uint256[2]",
                      "name": "x",
                      "type": "uint256[2]"
                    },
                    {
                      "internalType": "uint256[2]",
                      "name": "y",
                      "type": "uint256[2]"
                    }
                  ],
                  "internalType": "struct IEnygmaDvp.G2Point",
                  "name": "b",
                  "type": "tuple"
                },
                {
                  "components": [
                    {
                      "internalType": "uint256",
                      "name": "x",
                      "type": "uint256"
                    },
                    {
                      "internalType": "uint256",
                      "name": "y",
                      "type": "uint256"
                    }
                  ],
                  "internalType": "struct IEnygmaDvp.G1Point",
                  "name": "c",
                  "type": "tuple"
                }
              ],
              "internalType": "struct IEnygmaDvp.SnarkProof",
              "name": "proof",
              "type": "tuple"
            },
            {
              "internalType": "uint256[]",
              "name": "statement",
              "type": "uint256[]"
            },
            {
              "internalType": "uint256",
              "name": "numberOfInputs",
              "type": "uint256"
            },
            {
              "internalType": "uint256",
              "name": "numberOfOutputs",
              "type": "uint256"
            }
          ],
          "internalType": "struct IEnygmaDvp.ProofReceipt",
          "name": "receipt1",
          "type": "tuple"
        },
        {
          "components": [
            {
              "components": [
                {
                  "components": [
                    {
                      "internalType": "uint256",
                      "name": "x",
                      "type": "uint256"
                    },
                    {
                      "internalType": "uint256",
                      "name": "y",
                      "type": "uint256"
                    }
                  ],
                  "internalType": "struct IEnygmaDvp.G1Point",
                  "name": "a",
                  "type": "tuple"
                },
                {
                  "components": [
                    {
                      "internalType": "uint256[2]",
                      "name": "x",
                      "type": "uint256[2]"
                    },
                    {
                      "internalType": "uint256[2]",
                      "name": "y",
                      "type": "uint256[2]"
                    }
                  ],
                  "internalType": "struct IEnygmaDvp.G2Point",
                  "name": "b",
                  "type": "tuple"
                },
                {
                  "components": [
                    {
                      "internalType": "uint256",
                      "name": "x",
                      "type": "uint256"
                    },
                    {
                      "internalType": "uint256",
                      "name": "y",
                      "type": "uint256"
                    }
                  ],
                  "internalType": "struct IEnygmaDvp.G1Point",
                  "name": "c",
                  "type": "tuple"
                }
              ],
              "internalType": "struct IEnygmaDvp.SnarkProof",
              "name": "proof",
              "type": "tuple"
            },
            {
              "internalType": "uint256[]",
              "name": "statement",
              "type": "uint256[]"
            },
            {
              "internalType": "uint256",
              "name": "numberOfInputs",
              "type": "uint256"
            },
            {
              "internalType": "uint256",
              "name": "numberOfOutputs",
              "type": "uint256"
            }
          ],
          "internalType": "struct IEnygmaDvp.ProofReceipt",
          "name": "receipt2",
          "type": "tuple"
        },
        {
          "internalType": "uint256",
          "name": "vaultId1",
          "type": "uint256"
        },
        {
          "internalType": "uint256",
          "name": "vaultId2",
          "type": "uint256"
        },
        {
          "internalType": "uint256",
          "name": "groupId1",
          "type": "uint256"
        },
        {
          "internalType": "uint256",
          "name": "groupId2",
          "type": "uint256"
        }
      ],
      "name": "swapOnGroupPair",
      "outputs": [
        {
          "internalType": "bool",
          "name": "",
          "type": "bool"
        }
      ],
      "stateMutability": "nonpayable",
      "type": "function"
    },
    {
      "inputs": [
        {
          "components": [
            {
              "components": [
                {
                  "components": [
                    {
                      "internalType": "uint256",
                      "name": "x",
                      "type": "uint256"
                    },
                    {
                      "internalType": "uint256",
                      "name": "y",
                      "type": "uint256"
                    }
                  ],
                  "internalType": "struct IEnygmaDvp.G1Point",
                  "name": "a",
                  "type": "tuple"
                },
                {
                  "components": [
                    {
                      "internalType": "uint256[2]",
                      "name": "x",
                      "type": "uint256[2]"
                    },
                    {
                      "internalType": "uint256[2]",
                      "name": "y",
                      "type": "uint256[2]"
                    }
                  ],
                  "internalType": "struct IEnygmaDvp.G2Point",
                  "name": "b",
                  "type": "tuple"
                },
                {
                  "components": [
                    {
                      "internalType": "uint256",
                      "name": "x",
                      "type": "uint256"
                    },
                    {
                      "internalType": "uint256",
                      "name": "y",
                      "type": "uint256"
                    }
                  ],
                  "internalType": "struct IEnygmaDvp.G1Point",
                  "name": "c",
                  "type": "tuple"
                }
              ],
              "internalType": "struct IEnygmaDvp.SnarkProof",
              "name": "proof",
              "type": "tuple"
            },
            {
              "internalType": "uint256[]",
              "name": "statement",
              "type": "uint256[]"
            },
            {
              "internalType": "uint256",
              "name": "numberOfInputs",
              "type": "uint256"
            },
            {
              "internalType": "uint256",
              "name": "numberOfOutputs",
              "type": "uint256"
            }
          ],
          "internalType": "struct IEnygmaDvp.ProofReceipt",
          "name": "receipt",
          "type": "tuple"
        },
        {
          "internalType": "uint256",
          "name": "vaultId",
          "type": "uint256"
        }
      ],
      "name": "unlockReceiptNullifiers",
      "outputs": [
        {
          "internalType": "bool",
          "name": "",
          "type": "bool"
        }
      ],
      "stateMutability": "nonpayable",
      "type": "function"
    },
    {
      "inputs": [
        {
          "internalType": "uint256",
          "name": "auditorOnchainId",
          "type": "uint256"
        }
      ],
      "name": "unregisterAuditor",
      "outputs": [
        {
          "internalType": "bool",
          "name": "",
          "type": "bool"
        }
      ],
      "stateMutability": "nonpayable",
      "type": "function"
    },
    {
      "inputs": [
        {
          "internalType": "uint256",
          "name": "treeId",
          "type": "uint256"
        }
      ],
      "name": "vaultById",
      "outputs": [
        {
          "internalType": "address",
          "name": "",
          "type": "address"
        }
      ],
      "stateMutability": "view",
      "type": "function"
    },
    {
      "inputs": [],
      "name": "verifierContractAddress",
      "outputs": [
        {
          "internalType": "address",
          "name": "",
          "type": "address"
        }
      ],
      "stateMutability": "view",
      "type": "function"
    },
    {
      "inputs": [
        {
          "components": [
            {
              "components": [
                {
                  "components": [
                    {
                      "internalType": "uint256",
                      "name": "x",
                      "type": "uint256"
                    },
                    {
                      "internalType": "uint256",
                      "name": "y",
                      "type": "uint256"
                    }
                  ],
                  "internalType": "struct IEnygmaDvp.G1Point",
                  "name": "a",
                  "type": "tuple"
                },
                {
                  "components": [
                    {
                      "internalType": "uint256[2]",
                      "name": "x",
                      "type": "uint256[2]"
                    },
                    {
                      "internalType": "uint256[2]",
                      "name": "y",
                      "type": "uint256[2]"
                    }
                  ],
                  "internalType": "struct IEnygmaDvp.G2Point",
                  "name": "b",
                  "type": "tuple"
                },
                {
                  "components": [
                    {
                      "internalType": "uint256",
                      "name": "x",
                      "type": "uint256"
                    },
                    {
                      "internalType": "uint256",
                      "name": "y",
                      "type": "uint256"
                    }
                  ],
                  "internalType": "struct IEnygmaDvp.G1Point",
                  "name": "c",
                  "type": "tuple"
                }
              ],
              "internalType": "struct IEnygmaDvp.SnarkProof",
              "name": "proof",
              "type": "tuple"
            },
            {
              "internalType": "uint256[]",
              "name": "statement",
              "type": "uint256[]"
            },
            {
              "internalType": "uint256",
              "name": "numberOfInputs",
              "type": "uint256"
            },
            {
              "internalType": "uint256",
              "name": "numberOfOutputs",
              "type": "uint256"
            }
          ],
          "internalType": "struct IEnygmaDvp.ProofReceipt",
          "name": "receipt",
          "type": "tuple"
        }
      ],
      "name": "verifyLegitBrokerReceipt",
      "outputs": [
        {
          "internalType": "bool",
          "name": "",
          "type": "bool"
        }
      ],
      "stateMutability": "nonpayable",
      "type": "function"
    }
  ],
  "bytecode": "0x6080346200030f576001600160401b0390620050d3601f38829003908101601f1916830190848211848310176200024857808491604094859485528339810103126200030f57620000508262000331565b9062000060602080940162000331565b60019283548481811c9116801562000304575b86821014620002ee57601f8111620002ca575b507f456e79676d6144565020736d61727420636f6e747261637400000000000000308455600280546001600160a01b03199081166001600160a01b03938416179091556003805490911692821692909217909155815190620000e88262000314565b6103e89182815285810192617d0091823686375188811162000248576801000000000000000094858211620002485760075482600755808310620002a9575b506007600052886000208860005b84811062000294575050505050845190620001508262000314565b8152868101913683375192878411620002485783116200024857600d5483600d5580841062000273575b5090600d60005285600020908560005b8581106200025e57505050505050805183810190686f776e6572526f6c6560b81b825260098152828101958187109087111762000248578583525190209283600052600081528160002033600052815260ff82600020541615620001f6575b614d738581620003608239f35b8360005260008152816000209033600052526000209060ff19825416179055339033907f2f8788117e7eff1d82e926ec794901d17c78024a50270940304540a733656f0d600080a438808080620001e9565b634e487b7160e01b600052604160045260246000fd5b8883865116950194818501550186906200018a565b6200028d90600d6000528488600020918201910162000346565b386200017a565b8b888551169401938184015501899062000135565b620002c3906007600052838b600020918201910162000346565b3862000127565b620002e79085600052601f87600020910160051c81019062000346565b3862000086565b634e487b7160e01b600052602260045260246000fd5b90607f169062000073565b600080fd5b617d2081019081106001600160401b038211176200024857604052565b51906001600160a01b03821682036200030f57565b81811062000352575050565b600081556001016200034656fe608080604052600436101561001357600080fd5b600090813560e01c9081628f47d114613b4d5750806301ffc9a714613aac57806306fdde0314613998578063090f92211461393257806312ea8b4e146137a557806315b0669f146136575780631727c0b01461363b5780632302ffb2146131c4578063248a9ca31461319857806329e295c51461315b5780632afaaa941461313f5780632f2ff15d1461308c5780632f92454314612f4457806332f19a5c14612f0d57806336568abe14612e6d5780633b8162b714612e525780633cd6f55e14612ddd5780634cc7037b14612dbd5780634d4b988614612cf55780634e2a00d914612ca0578063536d0844146127df57806356f1612f14612790578063577ba0fa1461262d57806360f6b132146125b257806379275a771461255c5780637aa288a0146124c05780637c4bdb0e146123715780637e96a3d91461231b578063816c33f0146122ff5780638ee9cb45146122a757806391d148541461225b57806394f1bd0714612144578063961cafa814611fb4578063977701cf14611e2d5780639f42f00d14611e01578063a217fddf14611de5578063a30886bf14611c55578063ab3b038714611c39578063b02047d814611c0d578063b8b249c614611b5a578063b8e5e99b14611b30578063bbaadd6014611841578063bc6c36bf146115d5578063c0bb46d61461157f578063c7ac5b4514611454578063c7b50db0146113ad578063c92fc245146112ce578063cbf4410d14611109578063d547741f146110c7578063d59472ca146110ad578063d5a279eb14610fc7578063decb20f814610b2d578063df657fdf14610b11578063e37347e614610ac5578063e7a782be14610a67578063f3d5b09314610a4b578063f588b15714610a245763f8580bd21461029e57600080fd5b34610a215760a0366003190112610a215760043567ffffffffffffffff8111610a1d576102cf903690600401613d85565b9060408201918251926001600160ff1b0384168403610a09578360011b600101600111610a095761030790518460011b600101614175565b926103246103186020840151614056565b51946020840151614073565b519084158015610a01575b6109d7576001600160a01b036020610348602435613fb4565b905490604051809481936327c61f5160e01b835285600484015282610370602482018c614244565b039360031b1c165afa80156105f5576109b8575b506001600160a01b0361039860443561401f565b90549060031b1c16602060405180926316eae40960e01b825260243560048301526040602483015281806103cf604482018a614244565b03915afa9081156105f5578591610999575b501561098857848452600f60205260408420600201548203610697575050828252600f6020526004604083200154421161066d578190838252600f60205260408220906001825492015494836001600160a01b0361043e85613fb4565b90549060031b1c16602460405180978193637d16374960e01b83528660048401525af19384156105f5578594610649575b506001600160a01b0361048184613fb4565b90549060031b1c166020604051809263b253740d60e01b82528260048301528189816104b0602482018c614244565b03925af1801561061f5761062a575b508452600f6020526104f86040852060066000918281558260018201558260028201558260038201558260048201558260058201550155565b6001600160a01b036105098661401f565b90549060031b1c1660405160208160048163544e172d60e11b958682525afa90811561061f578691610600575b5061055c57509160209491610552936044359260243591614320565b505b604051908152f35b9490919260206001600160a01b0361057560443561401f565b90549060031b1c169660046040518099819382525afa80156105f55760209686916105c8575b506105b7576105b1936044359360243592614320565b50610554565b6105b1936044359360243592614144565b6105e89150873d89116105ee575b6105e08183613c0e565b810190614087565b3861059b565b503d6105d6565b6040513d87823e3d90fd5b610619915060203d6020116105ee576105e08183613c0e565b38610536565b6040513d88823e3d90fd5b6106429060203d6020116105ee576105e08183613c0e565b50386104bf565b6106669194503d8087833e61065e8183613c0e565b81019061441e565b923861046f565b60046040517f5c91fe3b000000000000000000000000000000000000000000000000000000008152fd5b9391909342606435111561095e576106b99060011b6001016020830151614073565b516001600160a01b036002541690604051906106d482613bd6565b86825260843560208301526040820152836060820152604051907fac490f260000000000000000000000000000000000000000000000000000000082526004820186905b6004821061094857505050602081608481855afa9081156105f5578591610914575b5060405161078b9260209261074e83613bf2565b82526064358383015260405180809581947f29a5f2f6000000000000000000000000000000000000000000000000000000008352600483016142f2565b03915afa9081156109095784916108d2575b50848452600f6020526040842060243581556044356001820155836002820155606435600482015581600582015560066084359101556001600160a01b036107e6602435613fb4565b90549060031b1c16602060405180927f7718e23a00000000000000000000000000000000000000000000000000000000825282600483015281888161082e602482018a614244565b03925af180156105f557916020969185936108b5575b507f8e423e515555b636ada542b287e7098e2f08ab4fe7c93834f12c78f9cbdc09d8876040516064358152a4604051908482527f40cbdcc4d566454c1ff6ef8ce0ff1022e3839161cd4641c383b64c28cc1436ab60443592806108ad6024359489830190614244565b0390a4610554565b6108cb90883d8a116105ee576105e08183613c0e565b5038610844565b90506020813d602011610901575b816108ed60209383613c0e565b810103126108fc57513861079d565b600080fd5b3d91506108e0565b6040513d86823e3d90fd5b90506020813d602011610940575b8161092f60209383613c0e565b810103126108fc575161078b61073a565b3d9150610922565b6020806001928551815201930191019091610718565b60046040517f6e72fb05000000000000000000000000000000000000000000000000000000008152fd5b60046040516302c723f960e11b8152fd5b6109b2915060203d6020116105ee576105e08183613c0e565b386103e1565b6109d09060203d6020116105ee576105e08183613c0e565b5038610384565b60046040517fc32e0148000000000000000000000000000000000000000000000000000000008152fd5b50811561032f565b602483634e487b7160e01b81526011600452fd5b5080fd5b80fd5b5034610a215780600319360112610a215760206001600160a01b0360045416604051908152f35b5034610a215780600319360112610a21576020604051600c8152f35b5034610a21576020366003190112610a21576001600160a01b03610a89613e75565b610a9b610a94613ed8565b3390614569565b1673ffffffffffffffffffffffffffffffffffffffff196006541617600655602060405160018152f35b5034610a21576020366003190112610a21576040906001600160a01b03610aea613e75565b610af5610a94613ed8565b16815260126020522060ff198154169055602060405160018152f35b5034610a215780600319360112610a2157602060405160088152f35b5034610a21576020366003190112610a215760043567ffffffffffffffff8111610a1d57610b5f903690600401613d85565b906002604083015110610f9d576060820151610f7357610b826020830151614063565b516020830151805160021015610f5d57606001516040840151808060011b0460021481151715610f49578060011b600301600311610f4957600381029080820460031490151715610f4957600301600311610a0957610be09061401f565b91906001600160a01b03928391549060031b1c16602060405180926316eae40960e01b8252846004830152604060248301528180610c21604482018b614244565b03915afa908115610909578491610f2a575b501561098857610c438291613fb4565b90549060031b1c16602060405180927f85841432000000000000000000000000000000000000000000000000000000008252826004830152818681610c8b602482018b614244565b03925af18015610f1f5791602091610ceb93610f02575b5060045416845190610cd78387015192604051958694859384936345c2f37f60e11b8552600b60048601526024850190614210565b61014061012484015261014483019061409f565b03915afa8015610ef757610ed8575b50610d086020830151614063565b516040830151600381029080820460031490151715610a095760030180600311610a0957610d3a906020850151614073565b51918281526010602052600960408220015415600014610eae57828152601060205260408120845160208151805184550151600183015560208101518051845b60028110610e9757505060200151835b60028110610e805750506040602091015180516006840155015160078201556008810194602081015180519067ffffffffffffffff8211610e6c57680100000000000000008211610e6c576020908854838a55808410610e52575b50019684526020842096845b828110610e3e575050506040810151600983015560600151600a909101557fc721fb519482fab66604e05e7929747c245d19169d1046e78a02f7cbf99cda059080a3602060405160018152f35b60019060208351930192818b015501610df1565b898752828720610e669181019085016142db565b38610de5565b602485634e487b7160e01b81526041600452fd5b600190602083519301926004828701015501610d8a565b600190602083519301926002828801015501610d7a565b60046040517fe75467fd000000000000000000000000000000000000000000000000000000008152fd5b610ef09060203d6020116105ee576105e08183613c0e565b5038610cfa565b6040513d84823e3d90fd5b610f1890833d85116105ee576105e08183613c0e565b5038610ca2565b6040513d85823e3d90fd5b610f43915060203d6020116105ee576105e08183613c0e565b38610c33565b602484634e487b7160e01b81526011600452fd5b634e487b7160e01b600052603260045260246000fd5b60046040517f090d6454000000000000000000000000000000000000000000000000000000008152fd5b60046040517f647ce72c000000000000000000000000000000000000000000000000000000008152fd5b5034610a215760209081600319360112610a215760043567ffffffffffffffff8111610a1d57610ffb903690600401613d85565b8281016110538461100c8351614056565b51926110188151614063565b5194610cd76001600160a01b03600454169151925192604051958694859384936345c2f37f60e11b8552600c60048601526024850190614210565b03915afa801561090957611090575b507f78dd8c3ba670aacf126fdf991710d8ae9559838134b7e2f38d45911b7bd423776040519380a360018152f35b6110a690853d87116105ee576105e08183613c0e565b5038611062565b5034610a215760206105546110c136613f6d565b9061454b565b5034610a21576040366003190112610a21576111066004356110e7613e8b565b908084528360205261110160016040862001543390614569565b614865565b80f35b5034610a215760209081600319360112610a2157600435808252600f835260408220600481015480156112a45742111561127a57826024915461114b81613fb4565b6001600160a01b039391939485945491836040519788948593637d16374960e01b85528b600486015260031b1c165af19283156105f5579286926111c8928795869361125a575b5061119c90613fb4565b90549060031b1c169060405194858094819363b253740d60e01b83528760048401526024830190614244565b03925af18015610f1f5761123d575b50808252600f83526112106040832060066000918281558260018201558260028201558260038201558260048201558260058201550155565b7fa4f53350978922541101263e4e8d8f84a6c19e205e8112979df7b6dfa25ca7df6040519280a260018152f35b61125390843d86116105ee576105e08183613c0e565b50386111d7565b61119c919350611273903d8089833e61065e8183613c0e565b9290611192565b60046040517f3507ffd6000000000000000000000000000000000000000000000000000000008152fd5b60046040517f5ec69df0000000000000000000000000000000000000000000000000000000008152fd5b5034610a21576020366003190112610a21576112e8613e75565b906112f4610a94613ed8565b60206001600160a01b038093166044600554948273ffffffffffffffffffffffffffffffffffffffff198716176005558481600254169160045416938160405198899687957f742fa6f50000000000000000000000000000000000000000000000000000000087526004870152602486015216175af19081156113a15750611382575b602060405160018152f35b61139a9060203d6020116105ee576105e08183613c0e565b5038611377565b604051903d90823e3d90fd5b5034610a21576020366003190112610a21578060206113ca613e75565b6113d5610a94613ed8565b60246001600160a01b0380921684600454938273ffffffffffffffffffffffffffffffffffffffff19861617600455600354169160405197889586947f8c2a4d53000000000000000000000000000000000000000000000000000000008652600486015216175af19081156113a1575061138257602060405160018152f35b5034610a21576080366003190112610a2157806020611471613e75565b60e461147b613e8b565b91611487610a94613ed8565b6114b66008549161149783613fb4565b9091906001600160a01b038084549260031b9316831b921b1916179055565b6114bf81613fb4565b96906001600160a01b039788915490826002541683600454168460055416916040519c8d9a8b997f1708ed61000000000000000000000000000000000000000000000000000000008b5260048b015260443560248b01521660448901526064356064890152608488015260a487015260c486015260031b1c165af19081156113a15750611560575b611552600854614284565b600855602060405160018152f35b6115789060203d6020116105ee576105e08183613c0e565b5038611547565b5034610a215780600319360112610a215760075460011015610f5d57600760005260206001600160a01b037fa66cc928b5edb82af9bd49922954155ab7b0942694bea4ce44661d9a8736c6895416604051908152f35b5034610a2157602090600319908282360112610a21576004359167ffffffffffffffff9081841161183d576101e08091853603011261183d5760405160a0810181811084821117611827576040526116303686600401613cdf565b815261163f3660448701613d4c565b948682019586526116533660c48301613d4c565b9360408301948552611669366101448401613d4c565b91606084019283526101c48101359182116118235701903660238301121561181f5760048201359161169a83613c30565b926116a86040519485613c0e565b80845260248a85019160061b8301019136831161181b579060248b98969a979594939201905b8282106117f2575050509686929161176d61175699608084019283526116f5610a94613ed8565b6117616001600160a01b0360045416976040519c8d9a7f12ad43aa000000000000000000000000000000000000000000000000000000008c528c60048d01528c6102048d0198518d60248251910152015160448d01525160648c01906141f0565b5160e48a01906141f0565b516101648801906141f0565b51916101e48601528151809152856102248601920190835b8181106117cb575050509083809203925af19081156113a157506117ae575b5060405160018152f35b6117c490823d84116105ee576105e08183613c0e565b50386117a4565b825180518552880151888501528a978a975089955060409094019390920191600101611785565b9760409192939495979a96986118083685613cdf565b81520191018a97959996949392916116ce565b8880fd5b8580fd5b8680fd5b634e487b7160e01b600052604160045260246000fd5b8280fd5b5034610a21576080366003190112610a215767ffffffffffffffff60043581811161183d57611874903690600401613d85565b90604435818111611b2c5761188d903690600401613f83565b9091606435908111611b28576118a7903690600401613f83565b606085015115610f735760608501518303610f735760608501518103610f73576118d2602435613fb4565b90546001600160a01b039160031b1c811615611afe576118f3602435613fb4565b90549060031b1c166040516327c61f5160e01b81526020600482015260208180611920602482018b614244565b0381855afa8015611ad457611adf575b50604051630ba22c1360e41b81526020600482015260208180611956602482018b614244565b03818b865af18015611ad457611ab5575b50602060405180926342eb971f60e11b8252826004830152818a8161198f602482018d614244565b03925af18015611aaa57611a8b575b5060408501519586600302966003880403611a77576001966001019081600111611a7757956020810193929190885b6119dc57602060405160018152f35b6060810151881015611a7257888888611a687f225e95c6b313300e24ebc1ca82e4d6af0f0476862e52f4d19a2300eaa78583e9611a31859d8c611a2a8d51611a24848d614175565b90614073565b519561434e565b611a3c868b8d61434e565b611a56604096929651948594604086526040860191614390565b90838203602085015260243596614390565b0390a301976119cd565b611377565b80634e487b7160e01b602492526011600452fd5b611aa39060203d6020116105ee576105e08183613c0e565b503861199e565b6040513d89823e3d90fd5b611acd9060203d6020116105ee576105e08183613c0e565b5038611967565b6040513d8a823e3d90fd5b611af79060203d6020116105ee576105e08183613c0e565b5038611930565b60046040517f19d2ee13000000000000000000000000000000000000000000000000000000008152fd5b8480fd5b8380fd5b5034610a21576020611b50611b4436613f16565b94939093929192614320565b6040519015158152f35b5034610a21576020366003190112610a215760043590611b7b610a94613ed8565b8181526011602052604081206002810190815415600014611bc757602484604051907f494760830000000000000000000000000000000000000000000000000000000082526004820152fd5b82916004827f368b4b23dfa2c5bf6dd7ee4303c8bed712aba2a8ce553f7f9781dc2056e199cd95611c00945584600182015501906142db565b80a2602060405160018152f35b5034610a215760ff6040602092611c266110c136613f6d565b8152600b84522054166040519015158152f35b5034610a215780600319360112610a21576020604051600b8152f35b5034610a2157611c6436613f6d565b9091600e5480841090811591611dda575b50611db057611c838361401f565b6001600160a01b039491549460405163544e172d60e11b92838252816004818560209b8c9560031b1c165afa9081156105f5578591611d93575b5015611d4c578590611cce8661401f565b90549060031b1c169160046040518094819382525afa908115610f1f578391611d76575b50611d4c5760409283519085820192835284820152838152611d1381613bba565b5190208152600a835220805460ff811615611d39576004604051631f7c56b760e21b8152fd5b60019060ff191617905560405160018152f35b60046040517f5b1ed59f000000000000000000000000000000000000000000000000000000008152fd5b611d8d9150853d87116105ee576105e08183613c0e565b38611cf2565b611daa9150873d89116105ee576105e08183613c0e565b38611cbd565b60046040517f0eda9461000000000000000000000000000000000000000000000000000000008152fd5b905082101538611c75565b5034610a215780600319360112610a2157602090604051908152f35b5034610a215760ff6040602092611e1a6110c136613f6d565b8152600a84522054166040519015158152f35b5034610a21576080366003190112610a215760243560043536606312156108fc5760405192611e5b84613bf2565b6084843682116108fc576044905b828210611fa457505050611e7e610a94613ed8565b8351936020948582015160405190878201928352604082015260408152611ea481613bba565b5190209182815260118652600290600260408220015415600014611f6d5760405190611ecf82613bba565b808252878201928184526040830160408051611eea81613bf2565b36903787845288855285815286835260118a52604083209351845560019451600185015551915b818110611f5a575050505050611f4e7ffcd227d6493fed2db050968ecc93ebcf6bde9054733712fc92263419b075554c91604051918291826142f2565b0390a460405160018152f35b8251848201830155918901918401611f11565b60448587604051917fd7d49d8500000000000000000000000000000000000000000000000000000000835260048301526024820152fd5b8135815260209182019101611e69565b5034610a2157611fc336613ca8565b604093929193519060c0820182811067ffffffffffffffff821117611827576040526005825260209460a0368785013760019081805b612114575b50505061200d6120509161401f565b939092866001600160a01b039454918561202685613fb4565b90549060031b1c16604051808097819463c695cea960e01b8352866004840152602483019061409f565b03915afa92831561061f57908793929187936120df575b5093604492939460405196879586947fdbc617970000000000000000000000000000000000000000000000000000000086526004860152602485015260031b1c165afa9182156113a157916120c2575b506040519015158152f35b6120d99150823d84116105ee576105e08183613c0e565b386120b7565b8093508491943d831161210d575b6120f78183613c0e565b810103126108fc57905186929091906044612067565b503d6120ed565b815181101561213f5790828261212b829484614073565b516121368289614073565b52019091611ff9565b611ffe565b5034610a215761215336613f6d565b9091600e5480841090811591612250575b50611db0576121728361401f565b6001600160a01b039491549460405163544e172d60e11b92838252816004818560209b8c9560031b1c165afa9081156105f5578591612233575b5015611d4c5785906121bd8661401f565b90549060031b1c169160046040518094819382525afa908115610f1f578391612216575b5015611d4c576040926121f39161454b565b8152600b835220805460ff811615611d39576004604051631f7c56b760e21b8152fd5b61222d9150853d87116105ee576105e08183613c0e565b386121e1565b61224a9150873d89116105ee576105e08183613c0e565b386121ac565b905082101538612164565b5034610a21576040366003190112610a21576001600160a01b03604061227f613e8b565b92600435815280602052209116600052602052602060ff604060002054166040519015158152f35b5034610a21576040366003190112610a215736602312156108fc576040516122ce81613bf2565b6044813682116108fc576020926004905b8382106122f05784611b5084614293565b813581529084019084016122df565b5034610a215780600319360112610a2157602060405160098152f35b5034610a215780600319360112610a215760075460031015610f5d57600760005260206001600160a01b037fa66cc928b5edb82af9bd49922954155ab7b0942694bea4ce44661d9a8736c68b5416604051908152f35b5034610a21576080366003190112610a215761238b613e75565b67ffffffffffffffff9160243591838311610a1d5736602384011215610a1d57826004013593841161182757602093604051936123d186601f19601f8501160186613c0e565b8185523660248383010111611b2c57818492602488930183880137850101526044359283151580940361183d57849161246b9161240f610a94613ed8565b846001600160a01b03600e54612428856114978361401f565b604051988996879586937f787b25430000000000000000000000000000000000000000000000000000000085526004850152608060248501526084840190613b95565b90604483015260643560648301520393165af19081156113a157506124a3575b50612497600e54614284565b600e5560405160018152f35b6124b990823d84116105ee576105e08183613c0e565b503861248b565b5034610a21576060366003190112610a215760243567ffffffffffffffff8111610a1d576124f2903690600401613d85565b602061253961250260443561401f565b9054936001600160a01b036040519586809581946316eae40960e01b83526004356004840152604060248401526044830190614244565b039360031b1c165afa908115610ef757602092916120c257506040519015158152f35b5034610a215780600319360112610a215760075460021015610f5d57600760005260206001600160a01b037fa66cc928b5edb82af9bd49922954155ab7b0942694bea4ce44661d9a8736c68a5416604051908152f35b5034610a21576125d0602060246125c836613f6d565b93909361401f565b919054936001600160a01b0360405195869485937f5949f44f000000000000000000000000000000000000000000000000000000008552600485015260031b1c165afa908115610ef757602092916120c257506040519015158152f35b5034610a215761263c36613ea1565b9190338252602090601260205261265960ff6040852054166140d3565b610120810135926001946001600160ff1b038516850361277c5784861b860190818711610a0957825b86811061269457602088604051908152f35b61269d82613fb4565b905461010087018a6126af828a614182565b90868301809311612768576001600160a01b036126f78a898f98978f968f96916126e260449a6126e9936126f1956141b8565b3598614182565b929093614175565b916141b8565b359460405197889687957f7628c0430000000000000000000000000000000000000000000000000000000087526004870152602486015260031b1c165af180156105f5579089929161274b575b5001612682565b61276190883d8a116105ee576105e08183613c0e565b5038612744565b60248a634e487b7160e01b81526011600452fd5b602482634e487b7160e01b81526011600452fd5b5034610a21576020366003190112610a21576040906001600160a01b036127b5613e75565b6127c0610a94613ed8565b168152601260205220600160ff19825416179055602060405160018152f35b5034610a21576127ee36613e26565b9190604051602081019060008252600060408201526040815261281081613bba565b519020600052600b60205260ff6040600020541615612c76576040840180516001600160ff1b0381168103612c605760011b60010180600111612c6057612858915190614175565b604083015180600302906003820403612c605760010180600111612c60576128926128866020880151614056565b51916020860151614073565b5103612c4f576128b46128a86020850151614056565b51916020870151614073565b5103612c3f576001600160a01b036128cb82613fb4565b90549060031b1c16926001600160a01b036128e582613fb4565b90549060031b1c169160206001600160a01b03612900613feb565b90549060031b1c16916040519283916316eae40960e01b83526004830152604060248301528180612934604482018c614244565b03915afa908115612b5c57600091612c20575b5015610988576040516327c61f5160e01b81526020600482015260208180612972602482018a614244565b0381885afa8015612b5c57612c01575b5060206001600160a01b03612995613feb565b90549060031b1c16916040519283916316eae40960e01b835260048301526040602483015281806129c96044820189614244565b03915afa908115612b5c57600091612be2575b5015610988576040516327c61f5160e01b81526020600482015260208180612a076024820187614244565b0381855afa8015612b5c57612bc3575b50604051630ba22c1360e41b908181526020600482015260208180612a3f602482018a614244565b03816000895af18015612b5c57612ba4575b506040519081526020600482015260208180612a706024820187614244565b03816000865af18015612b5c57612b85575b50604051906020826342eb971f60e11b9283825282600483015281600081612aad602482018a614244565b03925af1918215612b5c57602092612b68575b50604051938491825282600483015281600081612ae0602482018a614244565b03925af1918215612b5c5760208092612b0492612b0d95612b3f575b500151614056565b51920151614056565b51907ff5b268a3ff315cc44ccceeef86259c9e8eef81ceecb14001543809115380dd62600080a3602060405160018152f35b612b5590833d85116105ee576105e08183613c0e565b5086612afc565b6040513d6000823e3d90fd5b612b7e90833d85116105ee576105e08183613c0e565b5085612ac0565b612b9d9060203d6020116105ee576105e08183613c0e565b5084612a82565b612bbc9060203d6020116105ee576105e08183613c0e565b5085612a51565b612bdb9060203d6020116105ee576105e08183613c0e565b5084612a17565b612bfb915060203d6020116105ee576105e08183613c0e565b856129dc565b612c199060203d6020116105ee576105e08183613c0e565b5085612982565b612c39915060203d6020116105ee576105e08183613c0e565b86612947565b600460405162db044b60e11b8152fd5b6004604051632d9a390160e01b8152fd5b634e487b7160e01b600052601160045260246000fd5b60046040517fc24f9db6000000000000000000000000000000000000000000000000000000008152fd5b5034610a215780600319360112610a21576020604051818101907f41756374696f6e526f6c650000000000000000000000000000000000000000008252600b8152612cea81613bf2565b519020604051908152f35b5034610a21576001600160a01b0390612d0d36613f6d565b90612d19610a94613ed8565b60206024612d268461401f565b919054918660405198899485937fde45599000000000000000000000000000000000000000000000000000000000855288600486015260031b1c165af1938415610f1f57602094612da0575b507f68c771c05d01f5c53189e3a23bc1fac5a3453efcd0992bddf8f390b581c2389c6040519380a360018152f35b612db690853d87116105ee576105e08183613c0e565b5038612d72565b5034610a21576020611b50612dd136613f16565b94939093929192614144565b5034610a21576020366003190112610a215760043590818152600960205260ff604082205416612e28576040918152600960205220600160ff19825416179055602060405160018152f35b60046040517f488197f2000000000000000000000000000000000000000000000000000000008152fd5b5034610a215780600319360112610a21576020610554613ed8565b5034610a21576040366003190112610a2157612e87613e8b565b336001600160a01b03821603612ea35761110690600435614865565b608460405162461bcd60e51b815260206004820152602f60248201527f416363657373436f6e74726f6c3a2063616e206f6e6c792072656e6f756e636560448201527f20726f6c657320666f722073656c6600000000000000000000000000000000006064820152fd5b5034610a21576020366003190112610a215760206001600160a01b03612f34600435613fb4565b9190546040519260031b1c168152f35b5034610a2157612f5336613ea1565b91338152612f7660209360128552612f7160ff6040852054166140d3565b613fb4565b90546040519363b253740d60e01b8552856004860152803560248601528581013560448601526040808201606487013760406080820160a487013760c081013560e486015260e0810135610104860152610100810135601e1982360301811215611b285781019086823592019067ffffffffffffffff831161181f578260051b91823603811361182357610160610124890152836101848901527f07ffffffffffffffffffffffffffffffffffffffffffffffffffffffffffffff6101a494116118235787948486856101408b9683988f9c9a976001600160a01b03988601376101208101356101448501520135610164830152810103019460031b1c165af19081156113a157506117ae575060405160018152f35b5034610a21576040366003190112610a21576004356130a9613e8b565b818352826020526130c260016040852001543390614569565b818352826020526001600160a01b03604084209116908160005260205260ff60406000205416156130f1578280f35b8183528260205260408320816000526020526040600020600160ff1982541617905533917f2f8788117e7eff1d82e926ec794901d17c78024a50270940304540a733656f0d8480a438808280f35b5034610a215780600319360112610a2157602060405160068152f35b5034610a21576020366003190112610a215760ff60406020926001600160a01b03613184613e75565b168152601284522054166040519015158152f35b5034610a21576020366003190112610a2157600160406020926004358152808452200154604051908152f35b5034610a21576131d336613e26565b92919060405193602094858101906000825260016040820152604081526131f981613bba565b519020600052600a855260ff6040600020541615613611576040840180516001600160ff1b0381168103612c605760011b60010180600111612c6057613240915190614175565b93604084015180600302906003820403612c60576001019283600111612c60578682019561326e8751614056565b5161327d898801968751614073565b5103612c4f576132996132908651614056565b51918851614073565b5103612c3f576132a881613fb4565b91906001600160a01b03928391549060031b1c1691806132c786613fb4565b90549060031b1c1694816132d9613feb565b90549060031b1c16926040516316eae40960e01b9182825260048201528b816024966040888301528180613310604482018d614244565b03915afa908115612b5c576000916135f4575b501561098857604051926327c61f5160e01b938481528c60048201528c818061334e8982018c614244565b03818a5afa8015612b5c576135d7575b50600d54600110156135c257908b91600d6000527fd7b6990105719101dabeb77144f2a3385c8033acd3af97e9423a695e81ad1eb654166040519384928352600483015260408683015281806133b88d6044830190614244565b03915afa908115612b5c576000916135a5575b5015610988576040519081528860048201528881806133ec8582018b614244565b0381885afa8015612b5c57613588575b50604051630ba22c1360e41b9081815289600482015289818061342186820189614244565b03816000885af18015612b5c5761356b575b5060405190815288600482015288818061344f8582018b614244565b03816000895af18015612b5c5761354e575b508760405180958160008161348a6342eb971f60e11b9c8d835287600484015288830190614244565b03925af18015612b5c576134bd968995600092613531575b50604051978895869485938452886004850152830190614244565b03925af1908115612b5c576134e4926134dc92613514575b5051614056565b519151614056565b51907ff5b268a3ff315cc44ccceeef86259c9e8eef81ceecb14001543809115380dd62600080a360405160018152f35b61352a90863d88116105ee576105e08183613c0e565b50856134d5565b61354790873d89116105ee576105e08183613c0e565b508a6134a2565b61356490893d8b116105ee576105e08183613c0e565b5088613461565b613581908a3d8c116105ee576105e08183613c0e565b5089613433565b61359e90893d8b116105ee576105e08183613c0e565b50886133fc565b6135bc91508a3d8c116105ee576105e08183613c0e565b8a6133cb565b84634e487b7160e01b60005260326004526000fd5b6135ed908d803d106105ee576105e08183613c0e565b508c61335e565b61360b91508c8d3d106105ee576105e08183613c0e565b8c613323565b60046040517f1165fddf000000000000000000000000000000000000000000000000000000008152fd5b5034610a215780600319360112610a2157602060405160078152f35b5034610a21576136c39061366a36613ca8565b91613676610a94613ed8565b61367f8361401f565b6001600160a01b039154908261369485613fb4565b90549060031b1c1694604051809663c695cea960e01b8252818060209c8d95866004840152602483019061409f565b03915afa948515611aaa57908892918896613772575b506044908860405195869485937f533422950000000000000000000000000000000000000000000000000000000085528960048601528a602486015260031b1c165af180156105f557613755575b507f0d4ed26c1e8d7e7f1953cc13b4883a9dc52f61c721ba4703fe07c994af193b6c6040519480a460018152f35b61376b90863d88116105ee576105e08183613c0e565b5038613727565b8381949297503d831161379e575b61378a8183613c0e565b810103126108fc57604488925195906136d9565b503d613780565b5034610a21576101c0366003190112610a215760043560243591610180604319360112610a21576137d7610a94613ed8565b6137e082613fb4565b90546001600160a01b03949160031b1c841615611afe578360065416803b1561183d578261018491604051928380927f235725110000000000000000000000000000000000000000000000000000000082526101006044600484013760806101446101048401375afa8015610f1f57613912575b506138f88293946101a43583877f21f3bc5173d6a26c3ddddac56260d542b91d2d9f3fd4d9a1b3ff26af23b0ceae8780a46040519061389282613bf2565b600182526138b360209788958636818701376138ad85614056565b52613fb4565b90549060031b1c16906040519586809481937f1ed2bfde000000000000000000000000000000000000000000000000000000008352876004840152602483019061409f565b03925af19081156113a157506117ae575060405160018152f35b67ffffffffffffffff8195939511610e6c576040529092906138f8613854565b5034610a215780600319360112610a215760075415613984576007905260206001600160a01b037fa66cc928b5edb82af9bd49922954155ab7b0942694bea4ce44661d9a8736c6885416604051908152f35b80634e487b7160e01b602492526032600452fd5b5034610a215780600319360112610a21576040519080600191600154928360011c9260018516948515613aa2575b6020958686108114613a8e57858852879493929187908215613a6c575050600114613a12575b50506139fa92500383613c0e565b613a0e604051928284938452830190613b95565b0390f35b90859250600182527fb10e2d527612073b26eecdfd717e6a320cf44b4afac2b0732d9fcbe2b7fa0cf65b858310613a545750506139fa935082010138806139ec565b80548389018501528794508693909201918101613a3c565b92509350506139fa94915060ff191682840152151560051b82010138806139ec565b602483634e487b7160e01b81526022600452fd5b93607f16936139c6565b5034610a21576020366003190112610a21576004357fffffffff000000000000000000000000000000000000000000000000000000008116809103610a1d57807f7965db0b0000000000000000000000000000000000000000000000000000000060209214908115613b2357506040519015158152f35b7f01ffc9a700000000000000000000000000000000000000000000000000000000915014826120b7565b905034610a1d5781600319360112610a1d576020906001600160a01b03600254168152f35b60005b838110613b855750506000910152565b8181015183820152602001613b75565b90602091613bae81518092818552858086019101613b72565b601f01601f1916010190565b6060810190811067ffffffffffffffff82111761182757604052565b6080810190811067ffffffffffffffff82111761182757604052565b6040810190811067ffffffffffffffff82111761182757604052565b90601f8019910116810190811067ffffffffffffffff82111761182757604052565b67ffffffffffffffff81116118275760051b60200190565b9080601f830112156108fc576020908235613c6281613c30565b93613c706040519586613c0e565b81855260208086019260051b8201019283116108fc57602001905b828210613c99575050505090565b81358152908301908301613c8b565b9060606003198301126108fc57600435916024359067ffffffffffffffff82116108fc57613cd891600401613c48565b9060443590565b91908260409103126108fc57604051613cf781613bf2565b6020808294803584520135910152565b9080601f830112156108fc5760405191613d2083613bf2565b8290604081019283116108fc57905b828210613d3c5750505090565b8135815260209182019101613d2f565b91906080838203126108fc576020613d8060405192613d6a84613bf2565b60408496613d788382613d07565b865201613d07565b910152565b91908281039261016084126108fc5760405191613da183613bd6565b82946101008091126108fc57604051613db981613bba565b613dc38385613cdf565b8152613dd28360408601613d4c565b6020820152613de48360c08601613cdf565b604082015284528201359167ffffffffffffffff83116108fc57613e0f610140926060948301613c48565b602085015261012081013560408501520135910152565b9060806003198301126108fc5767ffffffffffffffff6004358181116108fc5783613e5391600401613d85565b926024359182116108fc57613e6a91600401613d85565b906044359060643590565b600435906001600160a01b03821682036108fc57565b602435906001600160a01b03821682036108fc57565b600319906040818301126108fc576004359167ffffffffffffffff83116108fc5782610160920301126108fc576004019060243590565b60405160208101907f6f776e6572526f6c650000000000000000000000000000000000000000000000825260098152613f1081613bf2565b51902090565b9060c06003198301126108fc5767ffffffffffffffff6004358181116108fc5783613f4391600401613d85565b926024359182116108fc57613f5a91600401613d85565b9060443590606435906084359060a43590565b60409060031901126108fc576004359060243590565b9181601f840112156108fc5782359167ffffffffffffffff83116108fc576020808501948460051b0101116108fc57565b600754811015610f5d5760076000527fa66cc928b5edb82af9bd49922954155ab7b0942694bea4ce44661d9a8736c6880190600090565b600d5415610f5d57600d6000527fd7b6990105719101dabeb77144f2a3385c8033acd3af97e9423a695e81ad1eb590600090565b600d54811015610f5d57600d6000527fd7b6990105719101dabeb77144f2a3385c8033acd3af97e9423a695e81ad1eb50190600090565b805115610f5d5760200190565b805160011015610f5d5760400190565b8051821015610f5d5760209160051b010190565b908160209103126108fc575180151581036108fc5790565b90815180825260208080930193019160005b8281106140bf575050505090565b8351855293810193928101926001016140b1565b156140da57565b608460405162461bcd60e51b815260206004820152602e60248201527f456e79676d614476703a2063616c6c6572206973206e6f7420616e206175746860448201527f6f72697a65642072656c617965720000000000000000000000000000000000006064820152fd5b9493929190614153858561454b565b600052600b60205260ff6040600020541615612c7657614172956148da565b90565b91908201809211612c6057565b903590601e19813603018212156108fc570180359067ffffffffffffffff82116108fc57602001918160051b360383136108fc57565b9190811015610f5d5760051b0190565b6000915b600283106141d957505050565b6001908251815260208091019201920191906141cc565b906040602061420e936142048482516141c8565b01519101906141c8565b565b6020604060e0928281518051875201518386015261423483820151838701906141f0565b0151805160c08501520151910152565b90610140606061427061016061425b858751614210565b6020860151908061010087015285019061409f565b936040810151610120850152015191015290565b6000198114612c605760010190565b6020815191015160405190602082019283526040820152604081526142b781613bba565b519020600090815260116020526040902060020154156142d657600190565b600090565b8181106142e6575050565b600081556001016142db565b6040810192916000915b6002831061430957505050565b6001908251815260208091019201920191906142fc565b949392919061432f858561454b565b600052600a60205260ff604060002054161561361157614172956148da565b9190811015610f5d5760051b81013590601e19813603018212156108fc57019081359167ffffffffffffffff83116108fc5760200182360381136108fc579190565b908060209392818452848401376000828201840152601f01601f1916010190565b91908260409103126108fc576040516143c981613bf2565b6020808294805184520151910152565b9080601f830112156108fc57604051916143f283613bf2565b8290604081019283116108fc57905b82821061440e5750505090565b8151815260209182019101614401565b919060209283818303126108fc57805167ffffffffffffffff918282116108fc5701908183039261016084126108fc5760409182519461445d86613bd6565b610100908181126108fc57608085519161447683613bba565b61448086896143b1565b8352603f1901126108fc57845161449681613bf2565b6144a2858789016143d9565b81526144b185608089016143d9565b8a820152898201526144c68460c088016143b1565b8582015286528401519081116108fc5783019080601f830112156108fc5781516144ef81613c30565b926144fc85519485613c0e565b818452888085019260051b8201019283116108fc578801905b82821061453c57505050839495610140940152610120820151908401520151606082015290565b81518152908801908801614515565b906040519060208201928352604082015260408152613f1081613bba565b6000908082526020918083526040936001600160a01b03858320911690818352845260ff85832054161561459e575050505050565b8451926145aa84613bba565b602a8452848401908636833784511561485157603082538451926001936001101561483d576078602187015360295b8481116147c65750614784578651926145f184613bd6565b6042845286840194606036873784511561398457603086538451600110156139845790607860218601536041915b81831161471d575050506146db576146d79386936146bb936146ac6048946146779a519a8b957f416363657373436f6e74726f6c3a206163636f756e74200000000000000000008c8801525180926037880190613b72565b8401917f206973206d697373696e6720726f6c6520000000000000000000000000000000603784015251809386840190613b72565b01036028810187520185613c0e565b5192839262461bcd60e51b845260048401526024830190613b95565b0390fd5b60648587519062461bcd60e51b825280600483015260248201527f537472696e67733a20686578206c656e67746820696e73756666696369656e746044820152fd5b909192600f81166010811015614770577f3031323334353637383961626364656600000000000000000000000000000000901a61475a8588614d2c565b5360041c92801561277c5760001901919061461f565b602483634e487b7160e01b81526032600452fd5b60648688519062461bcd60e51b825280600483015260248201527f537472696e67733a20686578206c656e67746820696e73756666696369656e746044820152fd5b90600f81166010811015614829577f3031323334353637383961626364656600000000000000000000000000000000901a6148018389614d2c565b5360041c90801561481557600019016145d9565b602486634e487b7160e01b81526011600452fd5b602487634e487b7160e01b81526032600452fd5b602485634e487b7160e01b81526032600452fd5b602484634e487b7160e01b81526032600452fd5b90600091808352826020526001600160a01b036040842092169182845260205260ff60408420541661489657505050565b80835282602052604083208284526020526040832060ff1981541690557ff6391f5c32d9c69d2a47ea670b442974b53935d1edc7fd64eb21e047a839171b339380a4565b9492919092604091828701968751976001986001600160ff1b0381168103612c6057891b8901808a11612c6057614912915190614175565b968487015180600302906003820403612c6057890196878a11612c6057602096878401996149408b51614056565b5161494f8a85019b8c51614073565b5103614d1c5761496b6149628b51614056565b51918c51614073565b5103614d0d579084939291614981889796613fb4565b96906001600160a01b03978891549060031b1c1696806149b2816149a486613fb4565b90549060031b1c169661401f565b90549060031b1c169189518c816316eae40960e01b9586825260049b8c83015260249e8f83015281806149e98d6044830190614244565b03915afa908115614d0257600091614ce5575b5015614cd6579087939291614a2e8d898c8f8f51809581948293876327c61f5160e01b9e8f8652850152830190614244565b03915afa8015614ccb5791614a4c918f959493614cae575b5061401f565b90549060031b1c168a519384928352898301528a8c8301528180614a736044820189614244565b03915afa908115614c5a57600091614c91575b5015614c825786519081528885820152888180614aa58b820186614244565b0381865afa8015614c3257614c65575b508551630ba22c1360e41b908181528986820152898180614ad88c820189614244565b038160008b5af18015614c5a57614c3d575b5086519081528885820152888180614b048b820186614244565b03816000875af18015614c32578894936000938b93614b4493614c15575b5089519485809481936342eb971f60e11b9a8b8452888d850152830190614244565b03925af18015614c0a5792614b7889969493600093889795614bed575b508851998a97889687958652850152830190614244565b03925af1908115614be3575091614b9b93916134dc93614bc5575b505051614056565b51907ff5b268a3ff315cc44ccceeef86259c9e8eef81ceecb14001543809115380dd62600080a390565b81614bdb92903d106105ee576105e08183613c0e565b503880614b93565b513d6000823e3d90fd5b614c0390883d8a116105ee576105e08183613c0e565b5038614b61565b86513d6000823e3d90fd5b614c2b90853d87116105ee576105e08183613c0e565b5038614b22565b87513d6000823e3d90fd5b614c53908a3d8c116105ee576105e08183613c0e565b5038614aea565b88513d6000823e3d90fd5b614c7b90893d8b116105ee576105e08183613c0e565b5038614ab5565b8487516302c723f960e11b8152fd5b614ca891508a3d8c116105ee576105e08183613c0e565b38614a86565b614cc490863d88116105ee576105e08183613c0e565b5038614a46565b8c513d6000823e3d90fd5b878a516302c723f960e11b8152fd5b614cfc91508d803d106105ee576105e08183613c0e565b386149fc565b8b513d6000823e3d90fd5b6004875162db044b60e11b8152fd5b60048851632d9a390160e01b8152fd5b908151811015610f5d57016020019056fea2646970667358221220c016917b40842091b53aaa1c48a88bc24cb84df5beb7316f2c7f1c837778e20b64736f6c63430008180033",
  "linkReferences": {},
  "deployedLinkReferences": {}
}