{
  "_format": "hh-sol-artifact-1",
  "contractName": "EnygmaDvp",
  "sourceName": "contracts/core/contracts/EnygmaDvp.sol",
  "abi": [
    {
      "inputs": [
        {
          "internalType": "address",
          "name": "hashContractAddress",
          "type": "address"
        },
        {
          "internalType": "address",
          "name": "genericVerifierContractAddress",
          "type": "address"
        }
      ],
      "stateMutability": "nonpayable",
      "type": "constructor"
    },
    {
      "inputs": [],
      "name": "AuctionAlreadyExists",
      "type": "error"
    },
    {
      "inputs": [],
      "name": "AuctionIdMismatch",
      "type": "error"
    },
    {
      "inputs": [],
      "name": "AuctionStateMismatch",
      "type": "error"
    },
    {
      "inputs": [
        {
          "internalType": "uint256",
          "name": "",
          "type": "uint256"
        },
        {
          "internalType": "uint256",
          "name": "",
          "type": "uint256"
        }
      ],
      "name": "AuditorAlreadyRegistered",
      "type": "error"
    },
    {
      "inputs": [
        {
          "internalType": "uint256",
          "name": "",
          "type": "uint256"
        }
      ],
      "name": "AuditorNotRegistered",
      "type": "error"
    },
    {
      "inputs": [],
      "name": "BidStateMismatch",
      "type": "error"
    },
    {
      "inputs": [],
      "name": "BlindedBidMismatch",
      "type": "error"
    },
    {
      "inputs": [],
      "name": "BrokerAlreadyRegistered",
      "type": "error"
    },
    {
      "inputs": [],
      "name": "FungibleDeliveryVault",
      "type": "error"
    },
    {
      "inputs": [],
      "name": "GroupFungibilityMismatch",
      "type": "error"
    },
    {
      "inputs": [],
      "name": "GroupIdOutOfRange",
      "type": "error"
    },
    {
      "inputs": [],
      "name": "GroupMembershipMismatch",
      "type": "error"
    },
    {
      "inputs": [],
      "name": "GroupPairAlreadyRegistered",
      "type": "error"
    },
    {
      "inputs": [],
      "name": "InvalidChallenge",
      "type": "error"
    },
    {
      "inputs": [],
      "name": "InvalidDeliveryMessage",
      "type": "error"
    },
    {
      "inputs": [],
      "name": "InvalidExchangeGroupPair",
      "type": "error"
    },
    {
      "inputs": [],
      "name": "InvalidMerkleRoot",
      "type": "error"
    },
    {
      "inputs": [],
      "name": "InvalidNullifier",
      "type": "error"
    },
    {
      "inputs": [],
      "name": "InvalidNumberOfInputs",
      "type": "error"
    },
    {
      "inputs": [],
      "name": "InvalidNumberOfOutputs",
      "type": "error"
    },
    {
      "inputs": [],
      "name": "InvalidOpening",
      "type": "error"
    },
    {
      "inputs": [],
      "name": "InvalidPartialProofReceipt",
      "type": "error"
    },
    {
      "inputs": [],
      "name": "InvalidPaymentMessage",
      "type": "error"
    },
    {
      "inputs": [],
      "name": "InvalidPublicKey",
      "type": "error"
    },
    {
      "inputs": [],
      "name": "InvalidSalt",
      "type": "error"
    },
    {
      "inputs": [],
      "name": "InvalidStatementSize",
      "type": "error"
    },
    {
      "inputs": [],
      "name": "InvalidSwapGroupPair",
      "type": "error"
    },
    {
      "inputs": [],
      "name": "InvalidVaultId",
      "type": "error"
    },
    {
      "inputs": [],
      "name": "JoinSplitWithSameCommitments",
      "type": "error"
    },
    {
      "inputs": [],
      "name": "NonFungiblePaymentVault",
      "type": "error"
    },
    {
      "inputs": [],
      "name": "NotImplemented",
      "type": "error"
    },
    {
      "inputs": [],
      "name": "NotWinningBidsCountMismatch",
      "type": "error"
    },
    {
      "inputs": [],
      "name": "PrivateMintVerifierNotRegistered",
      "type": "error"
    },
    {
      "inputs": [],
      "name": "PublicSignalMismatch",
      "type": "error"
    },
    {
      "inputs": [],
      "name": "RottenChallenge",
      "type": "error"
    },
    {
      "inputs": [],
      "name": "SwapDeadlineExpired",
      "type": "error"
    },
    {
      "inputs": [],
      "name": "SwapDeadlineMustBeInFuture",
      "type": "error"
    },
    {
      "inputs": [],
      "name": "SwapNotExpiredYet",
      "type": "error"
    },
    {
      "inputs": [],
      "name": "SwapNotFound",
      "type": "error"
    },
    {
      "inputs": [],
      "name": "WinningBidOpeningMismatch",
      "type": "error"
    },
    {
      "anonymous": false,
      "inputs": [
        {
          "indexed": true,
          "internalType": "uint256",
          "name": "onchainId",
          "type": "uint256"
        },
        {
          "indexed": true,
          "internalType": "uint256",
          "name": "offchainId",
          "type": "uint256"
        },
        {
          "indexed": true,
          "internalType": "uint256",
          "name": "groupId",
          "type": "uint256"
        },
        {
          "indexed": false,
          "internalType": "uint256[2]",
          "name": "publicKey",
          "type": "uint256[2]"
        }
      ],
      "name": "AuditorRegistered",
      "type": "event"
    },
    {
      "anonymous": false,
      "inputs": [
        {
          "indexed": true,
          "internalType": "uint256",
          "name": "onchainId",
          "type": "uint256"
        }
      ],
      "name": "AuditorUnregistered",
      "type": "event"
    },
    {
      "anonymous": false,
      "inputs": [
        {
          "indexed": true,
          "internalType": "uint256",
          "name": "vaultId",
          "type": "uint256"
        },
        {
          "indexed": true,
          "internalType": "uint256",
          "name": "blindedBrokerPublicKey",
          "type": "uint256"
        }
      ],
      "name": "BrokerRegistered",
      "type": "event"
    },
    {
      "anonymous": false,
      "inputs": [
        {
          "indexed": true,
          "internalType": "uint256",
          "name": "assetId",
          "type": "uint256"
        },
        {
          "indexed": true,
          "internalType": "uint256",
          "name": "treeNumber",
          "type": "uint256"
        },
        {
          "indexed": true,
          "internalType": "uint256",
          "name": "nullifier",
          "type": "uint256"
        }
      ],
      "name": "CoinLocked",
      "type": "event"
    },
    {
      "anonymous": false,
      "inputs": [
        {
          "indexed": true,
          "internalType": "uint256",
          "name": "assetId",
          "type": "uint256"
        },
        {
          "indexed": true,
          "internalType": "uint256",
          "name": "treeNumber",
          "type": "uint256"
        },
        {
          "indexed": true,
          "internalType": "uint256",
          "name": "nullifier",
          "type": "uint256"
        }
      ],
      "name": "CoinUnlocked",
      "type": "event"
    },
    {
      "anonymous": false,
      "inputs": [
        {
          "indexed": true,
          "internalType": "uint256",
          "name": "beacon",
          "type": "uint256"
        },
        {
          "indexed": true,
          "internalType": "uint256",
          "name": "blindedBrokerPublicKey",
          "type": "uint256"
        }
      ],
      "name": "LegitBrokerReceipt",
      "type": "event"
    },
    {
      "anonymous": false,
      "inputs": [
        {
          "indexed": true,
          "internalType": "uint256",
          "name": "vaultId",
          "type": "uint256"
        },
        {
          "indexed": true,
          "internalType": "uint256",
          "name": "commitment",
          "type": "uint256"
        },
        {
          "indexed": false,
          "internalType": "bytes",
          "name": "ctxt",
          "type": "bytes"
        },
        {
          "indexed": false,
          "internalType": "bytes",
          "name": "encTxData",
          "type": "bytes"
        }
      ],
      "name": "Payment",
      "type": "event"
    },
    {
      "anonymous": false,
      "inputs": [
        {
          "indexed": true,
          "internalType": "uint256",
          "name": "vaultId",
          "type": "uint256"
        },
        {
          "indexed": true,
          "internalType": "uint256",
          "name": "groupId",
          "type": "uint256"
        },
        {
          "indexed": true,
          "internalType": "uint256",
          "name": "targetReceiptId",
          "type": "uint256"
        },
        {
          "components": [
            {
              "components": [
                {
                  "components": [
                    {
                      "internalType": "uint256",
                      "name": "x",
                      "type": "uint256"
                    },
                    {
                      "internalType": "uint256",
                      "name": "y",
                      "type": "uint256"
                    }
                  ],
                  "internalType": "struct IEnygmaDvp.G1Point",
                  "name": "a",
                  "type": "tuple"
                },
                {
                  "components": [
                    {
                      "internalType": "uint256[2]",
                      "name": "x",
                      "type": "uint256[2]"
                    },
                    {
                      "internalType": "uint256[2]",
                      "name": "y",
                      "type": "uint256[2]"
                    }
                  ],
                  "internalType": "struct IEnygmaDvp.G2Point",
                  "name": "b",
                  "type": "tuple"
                },
                {
                  "components": [
                    {
                      "internalType": "uint256",
                      "name": "x",
                      "type": "uint256"
                    },
                    {
                      "internalType": "uint256",
                      "name": "y",
                      "type": "uint256"
                    }
                  ],
                  "internalType": "struct IEnygmaDvp.G1Point",
                  "name": "c",
                  "type": "tuple"
                }
              ],
              "internalType": "struct IEnygmaDvp.SnarkProof",
              "name": "proof",
              "type": "tuple"
            },
            {
              "internalType": "uint256[]",
              "name": "statement",
              "type": "uint256[]"
            },
            {
              "internalType": "uint256",
              "name": "numberOfInputs",
              "type": "uint256"
            },
            {
              "internalType": "uint256",
              "name": "numberOfOutputs",
              "type": "uint256"
            }
          ],
          "indexed": false,
          "internalType": "struct IEnygmaDvp.ProofReceipt",
          "name": "pendingProof",
          "type": "tuple"
        }
      ],
      "name": "PendingProofAddedToVault",
      "type": "event"
    },
    {
      "anonymous": false,
      "inputs": [
        {
          "indexed": true,
          "internalType": "uint256",
          "name": "vaultId",
          "type": "uint256"
        },
        {
          "indexed": true,
          "internalType": "uint256",
          "name": "commitment",
          "type": "uint256"
        },
        {
          "indexed": true,
          "internalType": "uint256",
          "name": "cipherText",
          "type": "uint256"
        }
      ],
      "name": "PrivateMint",
      "type": "event"
    },
    {
      "anonymous": false,
      "inputs": [
        {
          "indexed": true,
          "internalType": "bytes32",
          "name": "role",
          "type": "bytes32"
        },
        {
          "indexed": true,
          "internalType": "bytes32",
          "name": "previousAdminRole",
          "type": "bytes32"
        },
        {
          "indexed": true,
          "internalType": "bytes32",
          "name": "newAdminRole",
          "type": "bytes32"
        }
      ],
      "name": "RoleAdminChanged",
      "type": "event"
    },
    {
      "anonymous": false,
      "inputs": [
        {
          "indexed": true,
          "internalType": "bytes32",
          "name": "role",
          "type": "bytes32"
        },
        {
          "indexed": true,
          "internalType": "address",
          "name": "account",
          "type": "address"
        },
        {
          "indexed": true,
          "internalType": "address",
          "name": "sender",
          "type": "address"
        }
      ],
      "name": "RoleGranted",
      "type": "event"
    },
    {
      "anonymous": false,
      "inputs": [
        {
          "indexed": true,
          "internalType": "bytes32",
          "name": "role",
          "type": "bytes32"
        },
        {
          "indexed": true,
          "internalType": "address",
          "name": "account",
          "type": "address"
        },
        {
          "indexed": true,
          "internalType": "address",
          "name": "sender",
          "type": "address"
        }
      ],
      "name": "RoleRevoked",
      "type": "event"
    },
    {
      "anonymous": false,
      "inputs": [
        {
          "indexed": true,
          "internalType": "uint256",
          "name": "receiptId1",
          "type": "uint256"
        },
        {
          "indexed": true,
          "internalType": "uint256",
          "name": "receiptId2",
          "type": "uint256"
        }
      ],
      "name": "Settled",
      "type": "event"
    },
    {
      "anonymous": false,
      "inputs": [
        {
          "indexed": true,
          "internalType": "uint256",
          "name": "swapId",
          "type": "uint256"
        },
        {
          "indexed": true,
          "internalType": "uint256",
          "name": "commitA",
          "type": "uint256"
        },
        {
          "indexed": true,
          "internalType": "uint256",
          "name": "commitB",
          "type": "uint256"
        },
        {
          "indexed": false,
          "internalType": "uint256",
          "name": "deadline",
          "type": "uint256"
        }
      ],
      "name": "SwapInitiated",
      "type": "event"
    },
    {
      "anonymous": false,
      "inputs": [
        {
          "indexed": true,
          "internalType": "uint256",
          "name": "pendingReceiptId",
          "type": "uint256"
        }
      ],
      "name": "SwapTimedOut",
      "type": "event"
    },
    {
      "anonymous": false,
      "inputs": [
        {
          "indexed": true,
          "internalType": "uint256",
          "name": "vaultId",
          "type": "uint256"
        },
        {
          "indexed": true,
          "internalType": "uint256",
          "name": "tokenUniqueId",
          "type": "uint256"
        },
        {
          "indexed": true,
          "internalType": "uint256",
          "name": "groupId",
          "type": "uint256"
        }
      ],
      "name": "TokenAddedToGroup",
      "type": "event"
    },
    {
      "anonymous": false,
      "inputs": [
        {
          "indexed": true,
          "internalType": "uint256",
          "name": "vaultId",
          "type": "uint256"
        },
        {
          "indexed": true,
          "internalType": "uint256",
          "name": "groupId",
          "type": "uint256"
        }
      ],
      "name": "VaultAddedToGroup",
      "type": "event"
    },
    {
      "anonymous": false,
      "inputs": [
        {
          "indexed": true,
          "internalType": "uint256",
          "name": "challenge",
          "type": "uint256"
        },
        {
          "indexed": true,
          "internalType": "uint256",
          "name": "assetId",
          "type": "uint256"
        },
        {
          "indexed": true,
          "internalType": "uint256",
          "name": "tokenId",
          "type": "uint256"
        },
        {
          "indexed": false,
          "internalType": "uint256",
          "name": "amountOrOne",
          "type": "uint256"
        },
        {
          "indexed": false,
          "internalType": "address",
          "name": "assetAddress",
          "type": "address"
        },
        {
          "indexed": false,
          "internalType": "address",
          "name": "senderAddress",
          "type": "address"
        }
      ],
      "name": "VerifyOwnershipReceipt",
      "type": "event"
    },
    {
      "inputs": [],
      "name": "DEFAULT_ADMIN_ROLE",
      "outputs": [
        {
          "internalType": "bytes32",
          "name": "",
          "type": "bytes32"
        }
      ],
      "stateMutability": "view",
      "type": "function"
    },
    {
      "inputs": [],
      "name": "DEFAULT_AUCTION_ROLE",
      "outputs": [
        {
          "internalType": "bytes32",
          "name": "",
          "type": "bytes32"
        }
      ],
      "stateMutability": "view",
      "type": "function"
    },
    {
      "inputs": [],
      "name": "DEFAULT_OWNER_ROLE",
      "outputs": [
        {
          "internalType": "bytes32",
          "name": "",
          "type": "bytes32"
        }
      ],
      "stateMutability": "view",
      "type": "function"
    },
    {
      "inputs": [],
      "name": "VK_ID_AUCTION_BID",
      "outputs": [
        {
          "internalType": "uint256",
          "name": "",
          "type": "uint256"
        }
      ],
      "stateMutability": "view",
      "type": "function"
    },
    {
      "inputs": [],
      "name": "VK_ID_AUCTION_INIT",
      "outputs": [
        {
          "internalType": "uint256",
          "name": "",
          "type": "uint256"
        }
      ],
      "stateMutability": "view",
      "type": "function"
    },
    {
      "inputs": [],
      "name": "VK_ID_AUCTION_NOT_WINNING_BID",
      "outputs": [
        {
          "internalType": "uint256",
          "name": "",
          "type": "uint256"
        }
      ],
      "stateMutability": "view",
      "type": "function"
    },
    {
      "inputs": [],
      "name": "VK_ID_AUCTION_PRIVATE_OPENING",
      "outputs": [
        {
          "internalType": "uint256",
          "name": "",
          "type": "uint256"
        }
      ],
      "stateMutability": "view",
      "type": "function"
    },
    {
      "inputs": [],
      "name": "VK_ID_BROKER_REGISTRATION",
      "outputs": [
        {
          "internalType": "uint256",
          "name": "",
          "type": "uint256"
        }
      ],
      "stateMutability": "view",
      "type": "function"
    },
    {
      "inputs": [],
      "name": "VK_ID_LEGIT_BROKER",
      "outputs": [
        {
          "internalType": "uint256",
          "name": "",
          "type": "uint256"
        }
      ],
      "stateMutability": "view",
      "type": "function"
    },
    {
      "inputs": [
        {
          "internalType": "uint256",
          "name": "vaultId",
          "type": "uint256"
        },
        {
          "internalType": "uint256[]",
          "name": "uniqueIdParams",
          "type": "uint256[]"
        },
        {
          "internalType": "uint256",
          "name": "groupId",
          "type": "uint256"
        }
      ],
      "name": "addTokenToGroup",
      "outputs": [
        {
          "internalType": "bool",
          "name": "",
          "type": "bool"
        }
      ],
      "stateMutability": "nonpayable",
      "type": "function"
    },
    {
      "inputs": [
        {
          "internalType": "uint256",
          "name": "vaultId",
          "type": "uint256"
        },
        {
          "internalType": "uint256",
          "name": "groupId",
          "type": "uint256"
        }
      ],
      "name": "addVaultToGroup",
      "outputs": [
        {
          "internalType": "bool",
          "name": "",
          "type": "bool"
        }
      ],
      "stateMutability": "nonpayable",
      "type": "function"
    },
    {
      "inputs": [
        {
          "internalType": "address",
          "name": "",
          "type": "address"
        }
      ],
      "name": "authorizedRelayers",
      "outputs": [
        {
          "internalType": "bool",
          "name": "",
          "type": "bool"
        }
      ],
      "stateMutability": "view",
      "type": "function"
    },
    {
      "inputs": [
        {
          "internalType": "uint256",
          "name": "challenge_",
          "type": "uint256"
        }
      ],
      "name": "checkAndRegisterChallenge",
      "outputs": [
        {
          "internalType": "bool",
          "name": "",
          "type": "bool"
        }
      ],
      "stateMutability": "nonpayable",
      "type": "function"
    },
    {
      "inputs": [
        {
          "internalType": "uint256",
          "name": "pendingReceiptId",
          "type": "uint256"
        }
      ],
      "name": "claimSwapTimeout",
      "outputs": [
        {
          "internalType": "bool",
          "name": "",
          "type": "bool"
        }
      ],
      "stateMutability": "nonpayable",
      "type": "function"
    },
    {
      "inputs": [
        {
          "internalType": "address",
          "name": "relayer",
          "type": "address"
        }
      ],
      "name": "deregisterRelayer",
      "outputs": [
        {
          "internalType": "bool",
          "name": "",
          "type": "bool"
        }
      ],
      "stateMutability": "nonpayable",
      "type": "function"
    },
    {
      "inputs": [],
      "name": "enygmaVault",
      "outputs": [
        {
          "internalType": "address",
          "name": "",
          "type": "address"
        }
      ],
      "stateMutability": "view",
      "type": "function"
    },
    {
      "inputs": [],
      "name": "erc1155Vault",
      "outputs": [
        {
          "internalType": "address",
          "name": "",
          "type": "address"
        }
      ],
      "stateMutability": "view",
      "type": "function"
    },
    {
      "inputs": [],
      "name": "erc20Vault",
      "outputs": [
        {
          "internalType": "address",
          "name": "",
          "type": "address"
        }
      ],
      "stateMutability": "view",
      "type": "function"
    },
    {
      "inputs": [],
      "name": "erc721Vault",
      "outputs": [
        {
          "internalType": "address",
          "name": "",
          "type": "address"
        }
      ],
      "stateMutability": "view",
      "type": "function"
    },
    {
      "inputs": [
        {
          "components": [
            {
              "components": [
                {
                  "components": [
                    {
                      "internalType": "uint256",
                      "name": "x",
                      "type": "uint256"
                    },
                    {
                      "internalType": "uint256",
                      "name": "y",
                      "type": "uint256"
                    }
                  ],
                  "internalType": "struct IEnygmaDvp.G1Point",
                  "name": "a",
                  "type": "tuple"
                },
                {
                  "components": [
                    {
                      "internalType": "uint256[2]",
                      "name": "x",
                      "type": "uint256[2]"
                    },
                    {
                      "internalType": "uint256[2]",
                      "name": "y",
                      "type": "uint256[2]"
                    }
                  ],
                  "internalType": "struct IEnygmaDvp.G2Point",
                  "name": "b",
                  "type": "tuple"
                },
                {
                  "components": [
                    {
                      "internalType": "uint256",
                      "name": "x",
                      "type": "uint256"
                    },
                    {
                      "internalType": "uint256",
                      "name": "y",
                      "type": "uint256"
                    }
                  ],
                  "internalType": "struct IEnygmaDvp.G1Point",
                  "name": "c",
                  "type": "tuple"
                }
              ],
              "internalType": "struct IEnygmaDvp.SnarkProof",
              "name": "proof",
              "type": "tuple"
            },
            {
              "internalType": "uint256[]",
              "name": "statement",
              "type": "uint256[]"
            },
            {
              "internalType": "uint256",
              "name": "numberOfInputs",
              "type": "uint256"
            },
            {
              "internalType": "uint256",
              "name": "numberOfOutputs",
              "type": "uint256"
            }
          ],
          "internalType": "struct IEnygmaDvp.ProofReceipt",
          "name": "paymentReceipt1",
          "type": "tuple"
        },
        {
          "components": [
            {
              "components": [
                {
                  "components": [
                    {
                      "internalType": "uint256",
                      "name": "x",
                      "type": "uint256"
                    },
                    {
                      "internalType": "uint256",
                      "name": "y",
                      "type": "uint256"
                    }
                  ],
                  "internalType": "struct IEnygmaDvp.G1Point",
                  "name": "a",
                  "type": "tuple"
                },
                {
                  "components": [
                    {
                      "internalType": "uint256[2]",
                      "name": "x",
                      "type": "uint256[2]"
                    },
                    {
                      "internalType": "uint256[2]",
                      "name": "y",
                      "type": "uint256[2]"
                    }
                  ],
                  "internalType": "struct IEnygmaDvp.G2Point",
                  "name": "b",
                  "type": "tuple"
                },
                {
                  "components": [
                    {
                      "internalType": "uint256",
                      "name": "x",
                      "type": "uint256"
                    },
                    {
                      "internalType": "uint256",
                      "name": "y",
                      "type": "uint256"
                    }
                  ],
                  "internalType": "struct IEnygmaDvp.G1Point",
                  "name": "c",
                  "type": "tuple"
                }
              ],
              "internalType": "struct IEnygmaDvp.SnarkProof",
              "name": "proof",
              "type": "tuple"
            },
            {
              "internalType": "uint256[]",
              "name": "statement",
              "type": "uint256[]"
            },
            {
              "internalType": "uint256",
              "name": "numberOfInputs",
              "type": "uint256"
            },
            {
              "internalType": "uint256",
              "name": "numberOfOutputs",
              "type": "uint256"
            }
          ],
          "internalType": "struct IEnygmaDvp.ProofReceipt",
          "name": "paymentReceipt2",
          "type": "tuple"
        },
        {
          "internalType": "uint256",
          "name": "paymentVaultId1",
          "type": "uint256"
        },
        {
          "internalType": "uint256",
          "name": "paymentVaultId2",
          "type": "uint256"
        }
      ],
      "name": "exchange",
      "outputs": [
        {
          "internalType": "bool",
          "name": "",
          "type": "bool"
        }
      ],
      "stateMutability": "nonpayable",
      "type": "function"
    },
    {
      "inputs": [
        {
          "components": [
            {
              "components": [
                {
                  "components": [
                    {
                      "internalType": "uint256",
                      "name": "x",
                      "type": "uint256"
                    },
                    {
                      "internalType": "uint256",
                      "name": "y",
                      "type": "uint256"
                    }
                  ],
                  "internalType": "struct IEnygmaDvp.G1Point",
                  "name": "a",
                  "type": "tuple"
                },
                {
                  "components": [
                    {
                      "internalType": "uint256[2]",
                      "name": "x",
                      "type": "uint256[2]"
                    },
                    {
                      "internalType": "uint256[2]",
                      "name": "y",
                      "type": "uint256[2]"
                    }
                  ],
                  "internalType": "struct IEnygmaDvp.G2Point",
                  "name": "b",
                  "type": "tuple"
                },
                {
                  "components": [
                    {
                      "internalType": "uint256",
                      "name": "x",
                      "type": "uint256"
                    },
                    {
                      "internalType": "uint256",
                      "name": "y",
                      "type": "uint256"
                    }
                  ],
                  "internalType": "struct IEnygmaDvp.G1Point",
                  "name": "c",
                  "type": "tuple"
                }
              ],
              "internalType": "struct IEnygmaDvp.SnarkProof",
              "name": "proof",
              "type": "tuple"
            },
            {
              "internalType": "uint256[]",
              "name": "statement",
              "type": "uint256[]"
            },
            {
              "internalType": "uint256",
              "name": "numberOfInputs",
              "type": "uint256"
            },
            {
              "internalType": "uint256",
              "name": "numberOfOutputs",
              "type": "uint256"
            }
          ],
          "internalType": "struct IEnygmaDvp.ProofReceipt",
          "name": "receipt1",
          "type": "tuple"
        },
        {
          "components": [
            {
              "components": [
                {
                  "components": [
                    {
                      "internalType": "uint256",
                      "name": "x",
                      "type": "uint256"
                    },
                    {
                      "internalType": "uint256",
                      "name": "y",
                      "type": "uint256"
                    }
                  ],
                  "internalType": "struct IEnygmaDvp.G1Point",
                  "name": "a",
                  "type": "tuple"
                },
                {
                  "components": [
                    {
                      "internalType": "uint256[2]",
                      "name": "x",
                      "type": "uint256[2]"
                    },
                    {
                      "internalType": "uint256[2]",
                      "name": "y",
                      "type": "uint256[2]"
                    }
                  ],
                  "internalType": "struct IEnygmaDvp.G2Point",
                  "name": "b",
                  "type": "tuple"
                },
                {
                  "components": [
                    {
                      "internalType": "uint256",
                      "name": "x",
                      "type": "uint256"
                    },
                    {
                      "internalType": "uint256",
                      "name": "y",
                      "type": "uint256"
                    }
                  ],
                  "internalType": "struct IEnygmaDvp.G1Point",
                  "name": "c",
                  "type": "tuple"
                }
              ],
              "internalType": "struct IEnygmaDvp.SnarkProof",
              "name": "proof",
              "type": "tuple"
            },
            {
              "internalType": "uint256[]",
              "name": "statement",
              "type": "uint256[]"
            },
            {
              "internalType": "uint256",
              "name": "numberOfInputs",
              "type": "uint256"
            },
            {
              "internalType": "uint256",
              "name": "numberOfOutputs",
              "type": "uint256"
            }
          ],
          "internalType": "struct IEnygmaDvp.ProofReceipt",
          "name": "receipt2",
          "type": "tuple"
        },
        {
          "internalType": "uint256",
          "name": "vaultId1",
          "type": "uint256"
        },
        {
          "internalType": "uint256",
          "name": "vaultId2",
          "type": "uint256"
        },
        {
          "internalType": "uint256",
          "name": "groupId1",
          "type": "uint256"
        },
        {
          "internalType": "uint256",
          "name": "groupId2",
          "type": "uint256"
        }
      ],
      "name": "exchangeOnGroupPair",
      "outputs": [
        {
          "internalType": "bool",
          "name": "",
          "type": "bool"
        }
      ],
      "stateMutability": "nonpayable",
      "type": "function"
    },
    {
      "inputs": [
        {
          "internalType": "bytes32",
          "name": "role",
          "type": "bytes32"
        }
      ],
      "name": "getRoleAdmin",
      "outputs": [
        {
          "internalType": "bytes32",
          "name": "",
          "type": "bytes32"
        }
      ],
      "stateMutability": "view",
      "type": "function"
    },
    {
      "inputs": [
        {
          "internalType": "bytes32",
          "name": "role",
          "type": "bytes32"
        },
        {
          "internalType": "address",
          "name": "account",
          "type": "address"
        }
      ],
      "name": "grantRole",
      "outputs": [],
      "stateMutability": "nonpayable",
      "type": "function"
    },
    {
      "inputs": [
        {
          "internalType": "uint256",
          "name": "groupId1",
          "type": "uint256"
        },
        {
          "internalType": "uint256",
          "name": "groupId2",
          "type": "uint256"
        }
      ],
      "name": "groupPairId",
      "outputs": [
        {
          "internalType": "uint256",
          "name": "",
          "type": "uint256"
        }
      ],
      "stateMutability": "pure",
      "type": "function"
    },
    {
      "inputs": [
        {
          "internalType": "bytes32",
          "name": "role",
          "type": "bytes32"
        },
        {
          "internalType": "address",
          "name": "account",
          "type": "address"
        }
      ],
      "name": "hasRole",
      "outputs": [
        {
          "internalType": "bool",
          "name": "",
          "type": "bool"
        }
      ],
      "stateMutability": "view",
      "type": "function"
    },
    {
      "inputs": [],
      "name": "hashContractAddress",
      "outputs": [
        {
          "internalType": "address",
          "name": "",
          "type": "address"
        }
      ],
      "stateMutability": "view",
      "type": "function"
    },
    {
      "inputs": [
        {
          "internalType": "address",
          "name": "verifierAddress",
          "type": "address"
        }
      ],
      "name": "initializeDvp",
      "outputs": [
        {
          "internalType": "bool",
          "name": "",
          "type": "bool"
        }
      ],
      "stateMutability": "nonpayable",
      "type": "function"
    },
    {
      "inputs": [
        {
          "internalType": "uint256[2]",
          "name": "publicKey",
          "type": "uint256[2]"
        }
      ],
      "name": "isAuditorRegistered",
      "outputs": [
        {
          "internalType": "bool",
          "name": "",
          "type": "bool"
        }
      ],
      "stateMutability": "view",
      "type": "function"
    },
    {
      "inputs": [
        {
          "internalType": "uint256",
          "name": "vaultId",
          "type": "uint256"
        },
        {
          "components": [
            {
              "components": [
                {
                  "components": [
                    {
                      "internalType": "uint256",
                      "name": "x",
                      "type": "uint256"
                    },
                    {
                      "internalType": "uint256",
                      "name": "y",
                      "type": "uint256"
                    }
                  ],
                  "internalType": "struct IEnygmaDvp.G1Point",
                  "name": "a",
                  "type": "tuple"
                },
                {
                  "components": [
                    {
                      "internalType": "uint256[2]",
                      "name": "x",
                      "type": "uint256[2]"
                    },
                    {
                      "internalType": "uint256[2]",
                      "name": "y",
                      "type": "uint256[2]"
                    }
                  ],
                  "internalType": "struct IEnygmaDvp.G2Point",
                  "name": "b",
                  "type": "tuple"
                },
                {
                  "components": [
                    {
                      "internalType": "uint256",
                      "name": "x",
                      "type": "uint256"
                    },
                    {
                      "internalType": "uint256",
                      "name": "y",
                      "type": "uint256"
                    }
                  ],
                  "internalType": "struct IEnygmaDvp.G1Point",
                  "name": "c",
                  "type": "tuple"
                }
              ],
              "internalType": "struct IEnygmaDvp.SnarkProof",
              "name": "proof",
              "type": "tuple"
            },
            {
              "internalType": "uint256[]",
              "name": "statement",
              "type": "uint256[]"
            },
            {
              "internalType": "uint256",
              "name": "numberOfInputs",
              "type": "uint256"
            },
            {
              "internalType": "uint256",
              "name": "numberOfOutputs",
              "type": "uint256"
            }
          ],
          "internalType": "struct IEnygmaDvp.ProofReceipt",
          "name": "receipt",
          "type": "tuple"
        },
        {
          "internalType": "uint256",
          "name": "groupId",
          "type": "uint256"
        }
      ],
      "name": "isMemberOfFromProofReceipt",
      "outputs": [
        {
          "internalType": "bool",
          "name": "",
          "type": "bool"
        }
      ],
      "stateMutability": "view",
      "type": "function"
    },
    {
      "inputs": [
        {
          "internalType": "uint256",
          "name": "vaultId",
          "type": "uint256"
        },
        {
          "internalType": "uint256[]",
          "name": "uniqueIdParams",
          "type": "uint256[]"
        },
        {
          "internalType": "uint256",
          "name": "groupId",
          "type": "uint256"
        }
      ],
      "name": "isTokenMemberOf",
      "outputs": [
        {
          "internalType": "bool",
          "name": "",
          "type": "bool"
        }
      ],
      "stateMutability": "view",
      "type": "function"
    },
    {
      "inputs": [
        {
          "internalType": "uint256",
          "name": "groupId1",
          "type": "uint256"
        },
        {
          "internalType": "uint256",
          "name": "groupId2",
          "type": "uint256"
        }
      ],
      "name": "isValidExchangeGroupPair",
      "outputs": [
        {
          "internalType": "bool",
          "name": "",
          "type": "bool"
        }
      ],
      "stateMutability": "view",
      "type": "function"
    },
    {
      "inputs": [
        {
          "internalType": "uint256",
          "name": "groupId1",
          "type": "uint256"
        },
        {
          "internalType": "uint256",
          "name": "groupId2",
          "type": "uint256"
        }
      ],
      "name": "isValidSwapGroupPair",
      "outputs": [
        {
          "internalType": "bool",
          "name": "",
          "type": "bool"
        }
      ],
      "stateMutability": "view",
      "type": "function"
    },
    {
      "inputs": [
        {
          "internalType": "uint256",
          "name": "vaultId",
          "type": "uint256"
        },
        {
          "internalType": "uint256",
          "name": "groupId",
          "type": "uint256"
        }
      ],
      "name": "isVaultMemberOf",
      "outputs": [
        {
          "internalType": "bool",
          "name": "",
          "type": "bool"
        }
      ],
      "stateMutability": "view",
      "type": "function"
    },
    {
      "inputs": [
        {
          "components": [
            {
              "components": [
                {
                  "components": [
                    {
                      "internalType": "uint256",
                      "name": "x",
                      "type": "uint256"
                    },
                    {
                      "internalType": "uint256",
                      "name": "y",
                      "type": "uint256"
                    }
                  ],
                  "internalType": "struct IEnygmaDvp.G1Point",
                  "name": "a",
                  "type": "tuple"
                },
                {
                  "components": [
                    {
                      "internalType": "uint256[2]",
                      "name": "x",
                      "type": "uint256[2]"
                    },
                    {
                      "internalType": "uint256[2]",
                      "name": "y",
                      "type": "uint256[2]"
                    }
                  ],
                  "internalType": "struct IEnygmaDvp.G2Point",
                  "name": "b",
                  "type": "tuple"
                },
                {
                  "components": [
                    {
                      "internalType": "uint256",
                      "name": "x",
                      "type": "uint256"
                    },
                    {
                      "internalType": "uint256",
                      "name": "y",
                      "type": "uint256"
                    }
                  ],
                  "internalType": "struct IEnygmaDvp.G1Point",
                  "name": "c",
                  "type": "tuple"
                }
              ],
              "internalType": "struct IEnygmaDvp.SnarkProof",
              "name": "proof",
              "type": "tuple"
            },
            {
              "internalType": "uint256[]",
              "name": "statement",
              "type": "uint256[]"
            },
            {
              "internalType": "uint256",
              "name": "numberOfInputs",
              "type": "uint256"
            },
            {
              "internalType": "uint256",
              "name": "numberOfOutputs",
              "type": "uint256"
            }
          ],
          "internalType": "struct IEnygmaDvp.ProofReceipt",
          "name": "receipt",
          "type": "tuple"
        },
        {
          "internalType": "uint256",
          "name": "vaultId",
          "type": "uint256"
        }
      ],
      "name": "lockReceiptNullifiers",
      "outputs": [
        {
          "internalType": "bool",
          "name": "",
          "type": "bool"
        }
      ],
      "stateMutability": "nonpayable",
      "type": "function"
    },
    {
      "inputs": [],
      "name": "name",
      "outputs": [
        {
          "internalType": "string",
          "name": "",
          "type": "string"
        }
      ],
      "stateMutability": "view",
      "type": "function"
    },
    {
      "inputs": [
        {
          "components": [
            {
              "components": [
                {
                  "components": [
                    {
                      "internalType": "uint256",
                      "name": "x",
                      "type": "uint256"
                    },
                    {
                      "internalType": "uint256",
                      "name": "y",
                      "type": "uint256"
                    }
                  ],
                  "internalType": "struct IEnygmaDvp.G1Point",
                  "name": "a",
                  "type": "tuple"
                },
                {
                  "components": [
                    {
                      "internalType": "uint256[2]",
                      "name": "x",
                      "type": "uint256[2]"
                    },
                    {
                      "internalType": "uint256[2]",
                      "name": "y",
                      "type": "uint256[2]"
                    }
                  ],
                  "internalType": "struct IEnygmaDvp.G2Point",
                  "name": "b",
                  "type": "tuple"
                },
                {
                  "components": [
                    {
                      "internalType": "uint256",
                      "name": "x",
                      "type": "uint256"
                    },
                    {
                      "internalType": "uint256",
                      "name": "y",
                      "type": "uint256"
                    }
                  ],
                  "internalType": "struct IEnygmaDvp.G1Point",
                  "name": "c",
                  "type": "tuple"
                }
              ],
              "internalType": "struct IEnygmaDvp.SnarkProof",
              "name": "proof",
              "type": "tuple"
            },
            {
              "internalType": "uint256[]",
              "name": "statement",
              "type": "uint256[]"
            },
            {
              "internalType": "uint256",
              "name": "numberOfInputs",
              "type": "uint256"
            },
            {
              "internalType": "uint256",
              "name": "numberOfOutputs",
              "type": "uint256"
            }
          ],
          "internalType": "struct IEnygmaDvp.ProofReceipt",
          "name": "receipt",
          "type": "tuple"
        },
        {
          "internalType": "uint256",
          "name": "vaultId",
          "type": "uint256"
        },
        {
          "internalType": "bytes",
          "name": "ctxt",
          "type": "bytes"
        },
        {
          "internalType": "bytes",
          "name": "encTxData",
          "type": "bytes"
        }
      ],
      "name": "payment",
      "outputs": [
        {
          "internalType": "bool",
          "name": "",
          "type": "bool"
        }
      ],
      "stateMutability": "nonpayable",
      "type": "function"
    },
    {
      "inputs": [
        {
          "internalType": "uint256",
          "name": "vaultId",
          "type": "uint256"
        },
        {
          "internalType": "uint256",
          "name": "commitment",
          "type": "uint256"
        },
        {
          "components": [
            {
              "internalType": "uint256[8]",
              "name": "proof",
              "type": "uint256[8]"
            },
            {
              "internalType": "uint256[4]",
              "name": "public_signal",
              "type": "uint256[4]"
            }
          ],
          "internalType": "struct IEnygmaDvp.EnygmaPrivateMintProof",
          "name": "proof",
          "type": "tuple"
        }
      ],
      "name": "privateMint",
      "outputs": [
        {
          "internalType": "bool",
          "name": "",
          "type": "bool"
        }
      ],
      "stateMutability": "nonpayable",
      "type": "function"
    },
    {
      "inputs": [
        {
          "internalType": "address",
          "name": "assetGroupContractAddress",
          "type": "address"
        },
        {
          "internalType": "string",
          "name": "assetGroupName",
          "type": "string"
        },
        {
          "internalType": "bool",
          "name": "isAssetGroupFungible",
          "type": "bool"
        },
        {
          "internalType": "uint256",
          "name": "treeDepth",
          "type": "uint256"
        }
      ],
      "name": "registerAssetGroup",
      "outputs": [
        {
          "internalType": "bool",
          "name": "",
          "type": "bool"
        }
      ],
      "stateMutability": "nonpayable",
      "type": "function"
    },
    {
      "inputs": [
        {
          "internalType": "uint256",
          "name": "auditorOffchainId",
          "type": "uint256"
        },
        {
          "internalType": "uint256",
          "name": "auditorGroupId",
          "type": "uint256"
        },
        {
          "internalType": "uint256[2]",
          "name": "auditorPublicKey",
          "type": "uint256[2]"
        }
      ],
      "name": "registerAuditor",
      "outputs": [
        {
          "internalType": "bool",
          "name": "",
          "type": "bool"
        }
      ],
      "stateMutability": "nonpayable",
      "type": "function"
    },
    {
      "inputs": [
        {
          "components": [
            {
              "components": [
                {
                  "components": [
                    {
                      "internalType": "uint256",
                      "name": "x",
                      "type": "uint256"
                    },
                    {
                      "internalType": "uint256",
                      "name": "y",
                      "type": "uint256"
                    }
                  ],
                  "internalType": "struct IEnygmaDvp.G1Point",
                  "name": "a",
                  "type": "tuple"
                },
                {
                  "components": [
                    {
                      "internalType": "uint256[2]",
                      "name": "x",
                      "type": "uint256[2]"
                    },
                    {
                      "internalType": "uint256[2]",
                      "name": "y",
                      "type": "uint256[2]"
                    }
                  ],
                  "internalType": "struct IEnygmaDvp.G2Point",
                  "name": "b",
                  "type": "tuple"
                },
                {
                  "components": [
                    {
                      "internalType": "uint256",
                      "name": "x",
                      "type": "uint256"
                    },
                    {
                      "internalType": "uint256",
                      "name": "y",
                      "type": "uint256"
                    }
                  ],
                  "internalType": "struct IEnygmaDvp.G1Point",
                  "name": "c",
                  "type": "tuple"
                }
              ],
              "internalType": "struct IEnygmaDvp.SnarkProof",
              "name": "proof",
              "type": "tuple"
            },
            {
              "internalType": "uint256[]",
              "name": "statement",
              "type": "uint256[]"
            },
            {
              "internalType": "uint256",
              "name": "numberOfInputs",
              "type": "uint256"
            },
            {
              "internalType": "uint256",
              "name": "numberOfOutputs",
              "type": "uint256"
            }
          ],
          "internalType": "struct IEnygmaDvp.ProofReceipt",
          "name": "brokerRegistrationProof",
          "type": "tuple"
        }
      ],
      "name": "registerBroker",
      "outputs": [
        {
          "internalType": "bool",
          "name": "",
          "type": "bool"
        }
      ],
      "stateMutability": "nonpayable",
      "type": "function"
    },
    {
      "inputs": [
        {
          "internalType": "address",
          "name": "enygmaAuctionContractAddress",
          "type": "address"
        }
      ],
      "name": "registerEnygmaAuction",
      "outputs": [
        {
          "internalType": "bool",
          "name": "",
          "type": "bool"
        }
      ],
      "stateMutability": "nonpayable",
      "type": "function"
    },
    {
      "inputs": [
        {
          "internalType": "uint256",
          "name": "groupId1",
          "type": "uint256"
        },
        {
          "internalType": "uint256",
          "name": "groupId2",
          "type": "uint256"
        }
      ],
      "name": "registerExchangeGroupPair",
      "outputs": [
        {
          "internalType": "bool",
          "name": "",
          "type": "bool"
        }
      ],
      "stateMutability": "nonpayable",
      "type": "function"
    },
    {
      "inputs": [
        {
          "components": [
            {
              "components": [
                {
                  "internalType": "uint256",
                  "name": "x",
                  "type": "uint256"
                },
                {
                  "internalType": "uint256",
                  "name": "y",
                  "type": "uint256"
                }
              ],
              "internalType": "struct IEnygmaDvp.G1Point",
              "name": "alpha1",
              "type": "tuple"
            },
            {
              "components": [
                {
                  "internalType": "uint256[2]",
                  "name": "x",
                  "type": "uint256[2]"
                },
                {
                  "internalType": "uint256[2]",
                  "name": "y",
                  "type": "uint256[2]"
                }
              ],
              "internalType": "struct IEnygmaDvp.G2Point",
              "name": "beta2",
              "type": "tuple"
            },
            {
              "components": [
                {
                  "internalType": "uint256[2]",
                  "name": "x",
                  "type": "uint256[2]"
                },
                {
                  "internalType": "uint256[2]",
                  "name": "y",
                  "type": "uint256[2]"
                }
              ],
              "internalType": "struct IEnygmaDvp.G2Point",
              "name": "gamma2",
              "type": "tuple"
            },
            {
              "components": [
                {
                  "internalType": "uint256[2]",
                  "name": "x",
                  "type": "uint256[2]"
                },
                {
                  "internalType": "uint256[2]",
                  "name": "y",
                  "type": "uint256[2]"
                }
              ],
              "internalType": "struct IEnygmaDvp.G2Point",
              "name": "delta2",
              "type": "tuple"
            },
            {
              "components": [
                {
                  "internalType": "uint256",
                  "name": "x",
                  "type": "uint256"
                },
                {
                  "internalType": "uint256",
                  "name": "y",
                  "type": "uint256"
                }
              ],
              "internalType": "struct IEnygmaDvp.G1Point[]",
              "name": "ic",
              "type": "tuple[]"
            }
          ],
          "internalType": "struct IEnygmaDvp.VerifyingKey",
          "name": "vk_",
          "type": "tuple"
        }
      ],
      "name": "registerNewVerificationKey",
      "outputs": [
        {
          "internalType": "bool",
          "name": "",
          "type": "bool"
        }
      ],
      "stateMutability": "nonpayable",
      "type": "function"
    },
    {
      "inputs": [
        {
          "internalType": "address",
          "name": "privateMintVerifierAddress",
          "type": "address"
        }
      ],
      "name": "registerPrivateMintVerifier",
      "outputs": [
        {
          "internalType": "bool",
          "name": "",
          "type": "bool"
        }
      ],
      "stateMutability": "nonpayable",
      "type": "function"
    },
    {
      "inputs": [
        {
          "internalType": "address",
          "name": "relayer",
          "type": "address"
        }
      ],
      "name": "registerRelayer",
      "outputs": [
        {
          "internalType": "bool",
          "name": "",
          "type": "bool"
        }
      ],
      "stateMutability": "nonpayable",
      "type": "function"
    },
    {
      "inputs": [
        {
          "internalType": "uint256",
          "name": "groupId1",
          "type": "uint256"
        },
        {
          "internalType": "uint256",
          "name": "groupId2",
          "type": "uint256"
        }
      ],
      "name": "registerSwapGroupPair",
      "outputs": [
        {
          "internalType": "bool",
          "name": "",
          "type": "bool"
        }
      ],
      "stateMutability": "nonpayable",
      "type": "function"
    },
    {
      "inputs": [
        {
          "internalType": "address",
          "name": "vaultContractAddress",
          "type": "address"
        },
        {
          "internalType": "address",
          "name": "assetContractAddress",
          "type": "address"
        },
        {
          "internalType": "uint256",
          "name": "vaultIdentifiersCount",
          "type": "uint256"
        },
        {
          "internalType": "uint256",
          "name": "treeDepth",
          "type": "uint256"
        }
      ],
      "name": "registerVault",
      "outputs": [
        {
          "internalType": "bool",
          "name": "",
          "type": "bool"
        }
      ],
      "stateMutability": "nonpayable",
      "type": "function"
    },
    {
      "inputs": [
        {
          "internalType": "bytes32",
          "name": "role",
          "type": "bytes32"
        },
        {
          "internalType": "address",
          "name": "account",
          "type": "address"
        }
      ],
      "name": "renounceRole",
      "outputs": [],
      "stateMutability": "nonpayable",
      "type": "function"
    },
    {
      "inputs": [
        {
          "internalType": "bytes32",
          "name": "role",
          "type": "bytes32"
        },
        {
          "internalType": "address",
          "name": "account",
          "type": "address"
        }
      ],
      "name": "revokeRole",
      "outputs": [],
      "stateMutability": "nonpayable",
      "type": "function"
    },
    {
      "inputs": [
        {
          "components": [
            {
              "components": [
                {
                  "components": [
                    {
                      "internalType": "uint256",
                      "name": "x",
                      "type": "uint256"
                    },
                    {
                      "internalType": "uint256",
                      "name": "y",
                      "type": "uint256"
                    }
                  ],
                  "internalType": "struct IEnygmaDvp.G1Point",
                  "name": "a",
                  "type": "tuple"
                },
                {
                  "components": [
                    {
                      "internalType": "uint256[2]",
                      "name": "x",
                      "type": "uint256[2]"
                    },
                    {
                      "internalType": "uint256[2]",
                      "name": "y",
                      "type": "uint256[2]"
                    }
                  ],
                  "internalType": "struct IEnygmaDvp.G2Point",
                  "name": "b",
                  "type": "tuple"
                },
                {
                  "components": [
                    {
                      "internalType": "uint256",
                      "name": "x",
                      "type": "uint256"
                    },
                    {
                      "internalType": "uint256",
                      "name": "y",
                      "type": "uint256"
                    }
                  ],
                  "internalType": "struct IEnygmaDvp.G1Point",
                  "name": "c",
                  "type": "tuple"
                }
              ],
              "internalType": "struct IEnygmaDvp.SnarkProof",
              "name": "proof",
              "type": "tuple"
            },
            {
              "internalType": "uint256[]",
              "name": "statement",
              "type": "uint256[]"
            },
            {
              "internalType": "uint256",
              "name": "numberOfInputs",
              "type": "uint256"
            },
            {
              "internalType": "uint256",
              "name": "numberOfOutputs",
              "type": "uint256"
            }
          ],
          "internalType": "struct IEnygmaDvp.ProofReceipt",
          "name": "receipt",
          "type": "tuple"
        },
        {
          "internalType": "uint256",
          "name": "vaultId",
          "type": "uint256"
        },
        {
          "internalType": "uint256",
          "name": "groupId",
          "type": "uint256"
        },
        {
          "internalType": "uint256",
          "name": "deadline",
          "type": "uint256"
        },
        {
          "internalType": "uint256",
          "name": "revertCommitA",
          "type": "uint256"
        }
      ],
      "name": "submitPartialSettlement",
      "outputs": [
        {
          "internalType": "bool",
          "name": "",
          "type": "bool"
        }
      ],
      "stateMutability": "nonpayable",
      "type": "function"
    },
    {
      "inputs": [
        {
          "internalType": "bytes4",
          "name": "interfaceId",
          "type": "bytes4"
        }
      ],
      "name": "supportsInterface",
      "outputs": [
        {
          "internalType": "bool",
          "name": "",
          "type": "bool"
        }
      ],
      "stateMutability": "view",
      "type": "function"
    },
    {
      "inputs": [
        {
          "components": [
            {
              "components": [
                {
                  "components": [
                    {
                      "internalType": "uint256",
                      "name": "x",
                      "type": "uint256"
                    },
                    {
                      "internalType": "uint256",
                      "name": "y",
                      "type": "uint256"
                    }
                  ],
                  "internalType": "struct IEnygmaDvp.G1Point",
                  "name": "a",
                  "type": "tuple"
                },
                {
                  "components": [
                    {
                      "internalType": "uint256[2]",
                      "name": "x",
                      "type": "uint256[2]"
                    },
                    {
                      "internalType": "uint256[2]",
                      "name": "y",
                      "type": "uint256[2]"
                    }
                  ],
                  "internalType": "struct IEnygmaDvp.G2Point",
                  "name": "b",
                  "type": "tuple"
                },
                {
                  "components": [
                    {
                      "internalType": "uint256",
                      "name": "x",
                      "type": "uint256"
                    },
                    {
                      "internalType": "uint256",
                      "name": "y",
                      "type": "uint256"
                    }
                  ],
                  "internalType": "struct IEnygmaDvp.G1Point",
                  "name": "c",
                  "type": "tuple"
                }
              ],
              "internalType": "struct IEnygmaDvp.SnarkProof",
              "name": "proof",
              "type": "tuple"
            },
            {
              "internalType": "uint256[]",
              "name": "statement",
              "type": "uint256[]"
            },
            {
              "internalType": "uint256",
              "name": "numberOfInputs",
              "type": "uint256"
            },
            {
              "internalType": "uint256",
              "name": "numberOfOutputs",
              "type": "uint256"
            }
          ],
          "internalType": "struct IEnygmaDvp.ProofReceipt",
          "name": "paymentReceipt",
          "type": "tuple"
        },
        {
          "components": [
            {
              "components": [
                {
                  "components": [
                    {
                      "internalType": "uint256",
                      "name": "x",
                      "type": "uint256"
                    },
                    {
                      "internalType": "uint256",
                      "name": "y",
                      "type": "uint256"
                    }
                  ],
                  "internalType": "struct IEnygmaDvp.G1Point",
                  "name": "a",
                  "type": "tuple"
                },
                {
                  "components": [
                    {
                      "internalType": "uint256[2]",
                      "name": "x",
                      "type": "uint256[2]"
                    },
                    {
                      "internalType": "uint256[2]",
                      "name": "y",
                      "type": "uint256[2]"
                    }
                  ],
                  "internalType": "struct IEnygmaDvp.G2Point",
                  "name": "b",
                  "type": "tuple"
                },
                {
                  "components": [
                    {
                      "internalType": "uint256",
                      "name": "x",
                      "type": "uint256"
                    },
                    {
                      "internalType": "uint256",
                      "name": "y",
                      "type": "uint256"
                    }
                  ],
                  "internalType": "struct IEnygmaDvp.G1Point",
                  "name": "c",
                  "type": "tuple"
                }
              ],
              "internalType": "struct IEnygmaDvp.SnarkProof",
              "name": "proof",
              "type": "tuple"
            },
            {
              "internalType": "uint256[]",
              "name": "statement",
              "type": "uint256[]"
            },
            {
              "internalType": "uint256",
              "name": "numberOfInputs",
              "type": "uint256"
            },
            {
              "internalType": "uint256",
              "name": "numberOfOutputs",
              "type": "uint256"
            }
          ],
          "internalType": "struct IEnygmaDvp.ProofReceipt",
          "name": "deliveryReceipt",
          "type": "tuple"
        },
        {
          "internalType": "uint256",
          "name": "paymentVaultId",
          "type": "uint256"
        },
        {
          "internalType": "uint256",
          "name": "deliveryVaultId",
          "type": "uint256"
        }
      ],
      "name": "swap",
      "outputs": [
        {
          "internalType": "bool",
          "name": "",
          "type": "bool"
        }
      ],
      "stateMutability": "nonpayable",
      "type": "function"
    },
    {
      "inputs": [
        {
          "components": [
            {
              "components": [
                {
                  "components": [
                    {
                      "internalType": "uint256",
                      "name": "x",
                      "type": "uint256"
                    },
                    {
                      "internalType": "uint256",
                      "name": "y",
                      "type": "uint256"
                    }
                  ],
                  "internalType": "struct IEnygmaDvp.G1Point",
                  "name": "a",
                  "type": "tuple"
                },
                {
                  "components": [
                    {
                      "internalType": "uint256[2]",
                      "name": "x",
                      "type": "uint256[2]"
                    },
                    {
                      "internalType": "uint256[2]",
                      "name": "y",
                      "type": "uint256[2]"
                    }
                  ],
                  "internalType": "struct IEnygmaDvp.G2Point",
                  "name": "b",
                  "type": "tuple"
                },
                {
                  "components": [
                    {
                      "internalType": "uint256",
                      "name": "x",
                      "type": "uint256"
                    },
                    {
                      "internalType": "uint256",
                      "name": "y",
                      "type": "uint256"
                    }
                  ],
                  "internalType": "struct IEnygmaDvp.G1Point",
                  "name": "c",
                  "type": "tuple"
                }
              ],
              "internalType": "struct IEnygmaDvp.SnarkProof",
              "name": "proof",
              "type": "tuple"
            },
            {
              "internalType": "uint256[]",
              "name": "statement",
              "type": "uint256[]"
            },
            {
              "internalType": "uint256",
              "name": "numberOfInputs",
              "type": "uint256"
            },
            {
              "internalType": "uint256",
              "name": "numberOfOutputs",
              "type": "uint256"
            }
          ],
          "internalType": "struct IEnygmaDvp.ProofReceipt",
          "name": "receipt1",
          "type": "tuple"
        },
        {
          "components": [
            {
              "components": [
                {
                  "components": [
                    {
                      "internalType": "uint256",
                      "name": "x",
                      "type": "uint256"
                    },
                    {
                      "internalType": "uint256",
                      "name": "y",
                      "type": "uint256"
                    }
                  ],
                  "internalType": "struct IEnygmaDvp.G1Point",
                  "name": "a",
                  "type": "tuple"
                },
                {
                  "components": [
                    {
                      "internalType": "uint256[2]",
                      "name": "x",
                      "type": "uint256[2]"
                    },
                    {
                      "internalType": "uint256[2]",
                      "name": "y",
                      "type": "uint256[2]"
                    }
                  ],
                  "internalType": "struct IEnygmaDvp.G2Point",
                  "name": "b",
                  "type": "tuple"
                },
                {
                  "components": [
                    {
                      "internalType": "uint256",
                      "name": "x",
                      "type": "uint256"
                    },
                    {
                      "internalType": "uint256",
                      "name": "y",
                      "type": "uint256"
                    }
                  ],
                  "internalType": "struct IEnygmaDvp.G1Point",
                  "name": "c",
                  "type": "tuple"
                }
              ],
              "internalType": "struct IEnygmaDvp.SnarkProof",
              "name": "proof",
              "type": "tuple"
            },
            {
              "internalType": "uint256[]",
              "name": "statement",
              "type": "uint256[]"
            },
            {
              "internalType": "uint256",
              "name": "numberOfInputs",
              "type": "uint256"
            },
            {
              "internalType": "uint256",
              "name": "numberOfOutputs",
              "type": "uint256"
            }
          ],
          "internalType": "struct IEnygmaDvp.ProofReceipt",
          "name": "receipt2",
          "type": "tuple"
        },
        {
          "internalType": "uint256",
          "name": "vaultId1",
          "type": "uint256"
        },
        {
          "internalType": "uint256",
          "name": "vaultId2",
          "type": "uint256"
        },
        {
          "internalType": "uint256",
          "name": "groupId1",
          "type": "uint256"
        },
        {
          "internalType": "uint256",
          "name": "groupId2",
          "type": "uint256"
        }
      ],
      "name": "swapOnGroupPair",
      "outputs": [
        {
          "internalType": "bool",
          "name": "",
          "type": "bool"
        }
      ],
      "stateMutability": "nonpayable",
      "type": "function"
    },
    {
      "inputs": [
        {
          "components": [
            {
              "components": [
                {
                  "components": [
                    {
                      "internalType": "uint256",
                      "name": "x",
                      "type": "uint256"
                    },
                    {
                      "internalType": "uint256",
                      "name": "y",
                      "type": "uint256"
                    }
                  ],
                  "internalType": "struct IEnygmaDvp.G1Point",
                  "name": "a",
                  "type": "tuple"
                },
                {
                  "components": [
                    {
                      "internalType": "uint256[2]",
                      "name": "x",
                      "type": "uint256[2]"
                    },
                    {
                      "internalType": "uint256[2]",
                      "name": "y",
                      "type": "uint256[2]"
                    }
                  ],
                  "internalType": "struct IEnygmaDvp.G2Point",
                  "name": "b",
                  "type": "tuple"
                },
                {
                  "components": [
                    {
                      "internalType": "uint256",
                      "name": "x",
                      "type": "uint256"
                    },
                    {
                      "internalType": "uint256",
                      "name": "y",
                      "type": "uint256"
                    }
                  ],
                  "internalType": "struct IEnygmaDvp.G1Point",
                  "name": "c",
                  "type": "tuple"
                }
              ],
              "internalType": "struct IEnygmaDvp.SnarkProof",
              "name": "proof",
              "type": "tuple"
            },
            {
              "internalType": "uint256[]",
              "name": "statement",
              "type": "uint256[]"
            },
            {
              "internalType": "uint256",
              "name": "numberOfInputs",
              "type": "uint256"
            },
            {
              "internalType": "uint256",
              "name": "numberOfOutputs",
              "type": "uint256"
            }
          ],
          "internalType": "struct IEnygmaDvp.ProofReceipt",
          "name": "receipt",
          "type": "tuple"
        },
        {
          "internalType": "uint256",
          "name": "vaultId",
          "type": "uint256"
        }
      ],
      "name": "unlockReceiptNullifiers",
      "outputs": [
        {
          "internalType": "bool",
          "name": "",
          "type": "bool"
        }
      ],
      "stateMutability": "nonpayable",
      "type": "function"
    },
    {
      "inputs": [
        {
          "internalType": "uint256",
          "name": "auditorOnchainId",
          "type": "uint256"
        }
      ],
      "name": "unregisterAuditor",
      "outputs": [
        {
          "internalType": "bool",
          "name": "",
          "type": "bool"
        }
      ],
      "stateMutability": "nonpayable",
      "type": "function"
    },
    {
      "inputs": [
        {
          "internalType": "uint256",
          "name": "treeId",
          "type": "uint256"
        }
      ],
      "name": "vaultById",
      "outputs": [
        {
          "internalType": "address",
          "name": "",
          "type": "address"
        }
      ],
      "stateMutability": "view",
      "type": "function"
    },
    {
      "inputs": [],
      "name": "verifierContractAddress",
      "outputs": [
        {
          "internalType": "address",
          "name": "",
          "type": "address"
        }
      ],
      "stateMutability": "view",
      "type": "function"
    },
    {
      "inputs": [
        {
          "components": [
            {
              "components": [
                {
                  "components": [
                    {
                      "internalType": "uint256",
                      "name": "x",
                      "type": "uint256"
                    },
                    {
                      "internalType": "uint256",
                      "name": "y",
                      "type": "uint256"
                    }
                  ],
                  "internalType": "struct IEnygmaDvp.G1Point",
                  "name": "a",
                  "type": "tuple"
                },
                {
                  "components": [
                    {
                      "internalType": "uint256[2]",
                      "name": "x",
                      "type": "uint256[2]"
                    },
                    {
                      "internalType": "uint256[2]",
                      "name": "y",
                      "type": "uint256[2]"
                    }
                  ],
                  "internalType": "struct IEnygmaDvp.G2Point",
                  "name": "b",
                  "type": "tuple"
                },
                {
                  "components": [
                    {
                      "internalType": "uint256",
                      "name": "x",
                      "type": "uint256"
                    },
                    {
                      "internalType": "uint256",
                      "name": "y",
                      "type": "uint256"
                    }
                  ],
                  "internalType": "struct IEnygmaDvp.G1Point",
                  "name": "c",
                  "type": "tuple"
                }
              ],
              "internalType": "struct IEnygmaDvp.SnarkProof",
              "name": "proof",
              "type": "tuple"
            },
            {
              "internalType": "uint256[]",
              "name": "statement",
              "type": "uint256[]"
            },
            {
              "internalType": "uint256",
              "name": "numberOfInputs",
              "type": "uint256"
            },
            {
              "internalType": "uint256",
              "name": "numberOfOutputs",
              "type": "uint256"
            }
          ],
          "internalType": "struct IEnygmaDvp.ProofReceipt",
          "name": "receipt",
          "type": "tuple"
        }
      ],
      "name": "verifyLegitBrokerReceipt",
      "outputs": [
        {
          "internalType": "bool",
          "name": "",
          "type": "bool"
        }
      ],
      "stateMutability": "nonpayable",
      "type": "function"
    }
  ],
  "bytecode": "0x6080346200030f576001600160401b039062005018601f38829003908101601f1916830190848211848310176200024857808491604094859485528339810103126200030f57620000508262000331565b9062000060602080940162000331565b60019283548481811c9116801562000304575b86821014620002ee57601f8111620002ca575b507f456e79676d6144565020736d61727420636f6e747261637400000000000000308455600280546001600160a01b03199081166001600160a01b03938416179091556003805490911692821692909217909155815190620000e88262000314565b6103e89182815285810192617d0091823686375188811162000248576801000000000000000094858211620002485760075482600755808310620002a9575b506007600052886000208860005b84811062000294575050505050845190620001508262000314565b8152868101913683375192878411620002485783116200024857600d5483600d5580841062000273575b5090600d60005285600020908560005b8581106200025e57505050505050805183810190686f776e6572526f6c6560b81b825260098152828101958187109087111762000248578583525190209283600052600081528160002033600052815260ff82600020541615620001f6575b614cb88581620003608239f35b8360005260008152816000209033600052526000209060ff19825416179055339033907f2f8788117e7eff1d82e926ec794901d17c78024a50270940304540a733656f0d600080a438808080620001e9565b634e487b7160e01b600052604160045260246000fd5b8883865116950194818501550186906200018a565b6200028d90600d6000528488600020918201910162000346565b386200017a565b8b888551169401938184015501899062000135565b620002c3906007600052838b600020918201910162000346565b3862000127565b620002e79085600052601f87600020910160051c81019062000346565b3862000086565b634e487b7160e01b600052602260045260246000fd5b90607f169062000073565b600080fd5b617d2081019081106001600160401b038211176200024857604052565b51906001600160a01b03821682036200030f57565b81811062000352575050565b600081556001016200034656fe608080604052600436101561001357600080fd5b600090813560e01c9081628f47d114613ae25750806301ffc9a714613a4157806306fdde031461392d578063090f9221146138c757806312ea8b4e1461373a57806315b0669f146135e15780631727c0b0146135c55780632302ffb21461314e578063248a9ca31461312257806329e295c5146130e55780632afaaa94146130c95780632f2ff15d146130185780632f92454314612ed057806332f19a5c14612e9957806336568abe14612df95780633b8162b714612dde5780633cd6f55e14612d695780634cc7037b14612d495780634d4b988614612c815780634e2a00d914612c2c578063536d08441461276b57806356f1612f1461271c578063577ba0fa146125b957806360f6b1321461253e57806379275a77146124e85780637aa288a01461244c5780637c4bdb0e146122f95780637e96a3d9146122a3578063816c33f0146122875780638ee9cb451461222f57806391d14854146121e357806394f1bd07146120cc578063961cafa814611f3c578063977701cf14611db55780639a0078b714611b3a5780639f42f00d14611b0e578063a217fddf14611af2578063a30886bf14611962578063ab3b038714611946578063b02047d81461191a578063b8b249c614611867578063b8e5e99b1461183d578063bc6c36bf146115d1578063c0bb46d61461157b578063c7ac5b4514611450578063c7b50db0146113a9578063c92fc245146112ca578063cbf4410d14611105578063d547741f146110c5578063d59472ca146110ab578063d5a279eb14610fc5578063decb20f814610b2b578063df657fdf14610b0f578063e37347e614610ac3578063e7a782be14610a67578063f3d5b09314610a4b578063f588b15714610a245763f8580bd21461029e57600080fd5b34610a215760a0366003190112610a215760043567ffffffffffffffff8111610a1d576102cf903690600401613d1a565b9060408201918251926001600160ff1b0384168403610a09578360011b600101600111610a095761030790518460011b600101614107565b926103246103186020840151613fe8565b51946020840151614005565b519084158015610a01575b6109d7576001600160a01b036020610348602435613f46565b905490604051809481936327c61f5160e01b835285600484015282610370602482018c6141d6565b039360031b1c165afa80156105f5576109b8575b506001600160a01b03610398604435613fb1565b90549060031b1c16602060405180926316eae40960e01b825260243560048301526040602483015281806103cf604482018a6141d6565b03915afa9081156105f5578591610999575b501561098857848452600f60205260408420600201548203610697575050828252600f6020526004604083200154421161066d578190838252600f60205260408220906001825492015494836001600160a01b0361043e85613f46565b90549060031b1c16602460405180978193637d16374960e01b83528660048401525af19384156105f5578594610649575b506001600160a01b0361048184613f46565b90549060031b1c166020604051809263b253740d60e01b82528260048301528189816104b0602482018c6141d6565b03925af1801561061f5761062a575b508452600f6020526104f86040852060066000918281558260018201558260028201558260038201558260048201558260058201550155565b6001600160a01b0361050986613fb1565b90549060031b1c1660405160208160048163544e172d60e11b958682525afa90811561061f578691610600575b5061055c575091602094916105529360443592602435916142d3565b505b604051908152f35b9490919260206001600160a01b03610575604435613fb1565b90549060031b1c169660046040518099819382525afa80156105f55760209686916105c8575b506105b7576105b19360443593602435926142d3565b50610554565b6105b19360443593602435926140d6565b6105e89150873d89116105ee575b6105e08183613ba3565b810190614019565b3861059b565b503d6105d6565b6040513d87823e3d90fd5b610619915060203d6020116105ee576105e08183613ba3565b38610536565b6040513d88823e3d90fd5b6106429060203d6020116105ee576105e08183613ba3565b50386104bf565b6106669194503d8087833e61065e8183613ba3565b81019061436e565b923861046f565b60046040517f5c91fe3b000000000000000000000000000000000000000000000000000000008152fd5b9391909342606435111561095e576106b99060011b6001016020830151614005565b516001600160a01b036002541690604051906106d482613b6b565b86825260843560208301526040820152836060820152604051907fac490f260000000000000000000000000000000000000000000000000000000082526004820186905b6004821061094857505050602081608481855afa9081156105f5578591610914575b5060405161078b9260209261074e83613b87565b82526064358383015260405180809581947f29a5f2f600000000000000000000000000000000000000000000000000000000835260048301614284565b03915afa9081156109095784916108d2575b50848452600f6020526040842060243581556044356001820155836002820155606435600482015581600582015560066084359101556001600160a01b036107e6602435613f46565b90549060031b1c16602060405180927f7718e23a00000000000000000000000000000000000000000000000000000000825282600483015281888161082e602482018a6141d6565b03925af180156105f557916020969185936108b5575b507f8e423e515555b636ada542b287e7098e2f08ab4fe7c93834f12c78f9cbdc09d8876040516064358152a4604051908482527f40cbdcc4d566454c1ff6ef8ce0ff1022e3839161cd4641c383b64c28cc1436ab60443592806108ad60243594898301906141d6565b0390a4610554565b6108cb90883d8a116105ee576105e08183613ba3565b5038610844565b90506020813d602011610901575b816108ed60209383613ba3565b810103126108fc57513861079d565b600080fd5b3d91506108e0565b6040513d86823e3d90fd5b90506020813d602011610940575b8161092f60209383613ba3565b810103126108fc575161078b61073a565b3d9150610922565b6020806001928551815201930191019091610718565b60046040517f6e72fb05000000000000000000000000000000000000000000000000000000008152fd5b60046040516302c723f960e11b8152fd5b6109b2915060203d6020116105ee576105e08183613ba3565b386103e1565b6109d09060203d6020116105ee576105e08183613ba3565b5038610384565b60046040517fc32e0148000000000000000000000000000000000000000000000000000000008152fd5b50811561032f565b602483634e487b7160e01b81526011600452fd5b5080fd5b80fd5b5034610a215780600319360112610a215760206001600160a01b0360045416604051908152f35b5034610a215780600319360112610a21576020604051600c8152f35b5034610a21576020366003190112610a21576001600160a01b03610a89613e0a565b610a99610a94613e6d565b6144b9565b1673ffffffffffffffffffffffffffffffffffffffff196006541617600655602060405160018152f35b5034610a21576020366003190112610a21576040906001600160a01b03610ae8613e0a565b610af3610a94613e6d565b16815260126020522060ff198154169055602060405160018152f35b5034610a215780600319360112610a2157602060405160088152f35b5034610a21576020366003190112610a215760043567ffffffffffffffff8111610a1d57610b5d903690600401613d1a565b906002604083015110610f9b576060820151610f7157610b806020830151613ff5565b516020830151805160021015610f5b57606001516040840151808060011b0460021481151715610f47578060011b600301600311610f4757600381029080820460031490151715610f4757600301600311610a0957610bde90613fb1565b91906001600160a01b03928391549060031b1c16602060405180926316eae40960e01b8252846004830152604060248301528180610c1f604482018b6141d6565b03915afa908115610909578491610f28575b501561098857610c418291613f46565b90549060031b1c16602060405180927f85841432000000000000000000000000000000000000000000000000000000008252826004830152818681610c89602482018b6141d6565b03925af18015610f1d5791602091610ce993610f00575b5060045416845190610cd58387015192604051958694859384936345c2f37f60e11b8552600b600486015260248501906141a2565b610140610124840152610144830190614031565b03915afa8015610ef557610ed6575b50610d066020830151613ff5565b516040830151600381029080820460031490151715610a095760030180600311610a0957610d38906020850151614005565b51918281526010602052600960408220015415600014610eac57828152601060205260408120845160208151805184550151600183015560208101518051845b60028110610e9557505060200151835b60028110610e7e5750506040602091015180516006840155015160078201556008810194602081015180519067ffffffffffffffff8211610e6a57680100000000000000008211610e6a576020908854838a55808410610e50575b50019684526020842096845b828110610e3c575050506040810151600983015560600151600a909101557fc721fb519482fab66604e05e7929747c245d19169d1046e78a02f7cbf99cda059080a3602060405160018152f35b60019060208351930192818b015501610def565b898752828720610e6491810190850161426d565b38610de3565b602485634e487b7160e01b81526041600452fd5b600190602083519301926004828701015501610d88565b600190602083519301926002828801015501610d78565b60046040517fe75467fd000000000000000000000000000000000000000000000000000000008152fd5b610eee9060203d6020116105ee576105e08183613ba3565b5038610cf8565b6040513d84823e3d90fd5b610f1690833d85116105ee576105e08183613ba3565b5038610ca0565b6040513d85823e3d90fd5b610f41915060203d6020116105ee576105e08183613ba3565b38610c31565b602484634e487b7160e01b81526011600452fd5b634e487b7160e01b600052603260045260246000fd5b60046040517f090d6454000000000000000000000000000000000000000000000000000000008152fd5b60046040517f647ce72c000000000000000000000000000000000000000000000000000000008152fd5b5034610a215760209081600319360112610a215760043567ffffffffffffffff8111610a1d57610ff9903690600401613d1a565b8281016110518461100a8351613fe8565b51926110168151613ff5565b5194610cd56001600160a01b03600454169151925192604051958694859384936345c2f37f60e11b8552600c600486015260248501906141a2565b03915afa80156109095761108e575b507f78dd8c3ba670aacf126fdf991710d8ae9559838134b7e2f38d45911b7bd423776040519380a360018152f35b6110a490853d87116105ee576105e08183613ba3565b5038611060565b5034610a215760206105546110bf36613f02565b9061449b565b5034610a21576040366003190112610a21576111026004356110e5613e20565b90808452836020526110fd60016040862001546144b9565b6147aa565b80f35b5034610a215760209081600319360112610a2157600435808252600f835260408220600481015480156112a05742111561127657826024915461114781613f46565b6001600160a01b039391939485945491836040519788948593637d16374960e01b85528b600486015260031b1c165af19283156105f5579286926111c49287958693611256575b5061119890613f46565b90549060031b1c169060405194858094819363b253740d60e01b835287600484015260248301906141d6565b03925af18015610f1d57611239575b50808252600f835261120c6040832060066000918281558260018201558260028201558260038201558260048201558260058201550155565b7fa4f53350978922541101263e4e8d8f84a6c19e205e8112979df7b6dfa25ca7df6040519280a260018152f35b61124f90843d86116105ee576105e08183613ba3565b50386111d3565b61119891935061126f903d8089833e61065e8183613ba3565b929061118e565b60046040517f3507ffd6000000000000000000000000000000000000000000000000000000008152fd5b60046040517f5ec69df0000000000000000000000000000000000000000000000000000000008152fd5b5034610a21576020366003190112610a21576112e4613e0a565b906112f0610a94613e6d565b60206001600160a01b038093166044600554948273ffffffffffffffffffffffffffffffffffffffff198716176005558481600254169160045416938160405198899687957f742fa6f50000000000000000000000000000000000000000000000000000000087526004870152602486015216175af190811561139d575061137e575b602060405160018152f35b6113969060203d6020116105ee576105e08183613ba3565b5038611373565b604051903d90823e3d90fd5b5034610a21576020366003190112610a21578060206113c6613e0a565b6113d1610a94613e6d565b60246001600160a01b0380921684600454938273ffffffffffffffffffffffffffffffffffffffff19861617600455600354169160405197889586947f8c2a4d53000000000000000000000000000000000000000000000000000000008652600486015216175af190811561139d575061137e57602060405160018152f35b5034610a21576080366003190112610a215780602061146d613e0a565b60e4611477613e20565b91611483610a94613e6d565b6114b26008549161149383613f46565b9091906001600160a01b038084549260031b9316831b921b1916179055565b6114bb81613f46565b96906001600160a01b039788915490826002541683600454168460055416916040519c8d9a8b997f1708ed61000000000000000000000000000000000000000000000000000000008b5260048b015260443560248b01521660448901526064356064890152608488015260a487015260c486015260031b1c165af190811561139d575061155c575b61154e600854614216565b600855602060405160018152f35b6115749060203d6020116105ee576105e08183613ba3565b5038611543565b5034610a215780600319360112610a215760075460011015610f5b57600760005260206001600160a01b037fa66cc928b5edb82af9bd49922954155ab7b0942694bea4ce44661d9a8736c6895416604051908152f35b5034610a2157602090600319908282360112610a21576004359167ffffffffffffffff90818411611839576101e0809185360301126118395760405160a08101818110848211176118235760405261162c3686600401613c74565b815261163b3660448701613ce1565b9486820195865261164f3660c48301613ce1565b9360408301948552611665366101448401613ce1565b91606084019283526101c481013591821161181f5701903660238301121561181b5760048201359161169683613bc5565b926116a46040519485613ba3565b80845260248a85019160061b83010191368311611817579060248b98969a979594939201905b8282106117ee575050509686929161176961175299608084019283526116f1610a94613e6d565b61175d6001600160a01b0360045416976040519c8d9a7f12ad43aa000000000000000000000000000000000000000000000000000000008c528c60048d01528c6102048d0198518d60248251910152015160448d01525160648c0190614182565b5160e48a0190614182565b51610164880190614182565b51916101e48601528151809152856102248601920190835b8181106117c7575050509083809203925af190811561139d57506117aa575b5060405160018152f35b6117c090823d84116105ee576105e08183613ba3565b50386117a0565b825180518552880151888501528a978a975089955060409094019390920191600101611781565b9760409192939495979a96986118043685613c74565b81520191018a97959996949392916116ca565b8880fd5b8580fd5b8680fd5b634e487b7160e01b600052604160045260246000fd5b8280fd5b5034610a2157602061185d61185136613eab565b949390939291926142d3565b6040519015158152f35b5034610a21576020366003190112610a215760043590611888610a94613e6d565b81815260116020526040812060028101908154156000146118d457602484604051907f494760830000000000000000000000000000000000000000000000000000000082526004820152fd5b82916004827f368b4b23dfa2c5bf6dd7ee4303c8bed712aba2a8ce553f7f9781dc2056e199cd9561190d9455846001820155019061426d565b80a2602060405160018152f35b5034610a215760ff60406020926119336110bf36613f02565b8152600b84522054166040519015158152f35b5034610a215780600319360112610a21576020604051600b8152f35b5034610a215761197136613f02565b9091600e5480841090811591611ae7575b50611abd5761199083613fb1565b6001600160a01b039491549460405163544e172d60e11b92838252816004818560209b8c9560031b1c165afa9081156105f5578591611aa0575b5015611a595785906119db86613fb1565b90549060031b1c169160046040518094819382525afa908115610f1d578391611a83575b50611a595760409283519085820192835284820152838152611a2081613b4f565b5190208152600a835220805460ff811615611a46576004604051631f7c56b760e21b8152fd5b60019060ff191617905560405160018152f35b60046040517f5b1ed59f000000000000000000000000000000000000000000000000000000008152fd5b611a9a9150853d87116105ee576105e08183613ba3565b386119ff565b611ab79150873d89116105ee576105e08183613ba3565b386119ca565b60046040517f0eda9461000000000000000000000000000000000000000000000000000000008152fd5b905082101538611982565b5034610a215780600319360112610a2157602090604051908152f35b5034610a215760ff6040602092611b276110bf36613f02565b8152600a84522054166040519015158152f35b5034610a21576080366003190112610a215767ffffffffffffffff90600435828111610a1d57611b6e903690600401613d1a565b602492833591604435828111611db157611b8c903690600401613f18565b91909260643590811161181b57611ba7903690600401613f18565b959091606081015115610f7157611bbd86613f46565b90546001600160a01b039160031b1c811615611d8757611bdc87613f46565b90549060031b1c1697604051986327c61f5160e01b8a526020998a60048201528a8180611c0b868201886141d6565b0381855afa80156105f557611d6a575b50604051630ba22c1360e41b81528a60048201528a8180611c3e868201886141d6565b038188865af180156105f557611d4d575b508960405180926342eb971f60e11b8252826004830152818781611c758882018a6141d6565b03925af1801561090957611d30575b50604082015180600302906003820403611d1d576001019283600111611d0c57505091611cda611d0092897f225e95c6b313300e24ebc1ca82e4d6af0f0476862e52f4d19a2300eaa78583e99796950151614005565b5196611cf36040519586956040875260408701916142b2565b918483038a8601526142b2565b0390a360405160018152f35b634e487b7160e01b81526011600452fd5b5082634e487b7160e01b81526011600452fd5b611d46908a3d8c116105ee576105e08183613ba3565b5038611c84565b611d63908b3d8d116105ee576105e08183613ba3565b5038611c4f565b611d80908b3d8d116105ee576105e08183613ba3565b5038611c1b565b60046040517f19d2ee13000000000000000000000000000000000000000000000000000000008152fd5b8480fd5b5034610a21576080366003190112610a215760243560043536606312156108fc5760405192611de384613b87565b6084843682116108fc576044905b828210611f2c57505050611e06610a94613e6d565b8351936020948582015160405190878201928352604082015260408152611e2c81613b4f565b5190209182815260118652600290600260408220015415600014611ef55760405190611e5782613b4f565b808252878201928184526040830160408051611e7281613b87565b36903787845288855285815286835260118a52604083209351845560019451600185015551915b818110611ee2575050505050611ed67ffcd227d6493fed2db050968ecc93ebcf6bde9054733712fc92263419b075554c9160405191829182614284565b0390a460405160018152f35b8251848201830155918901918401611e99565b60448587604051917fd7d49d8500000000000000000000000000000000000000000000000000000000835260048301526024820152fd5b8135815260209182019101611df1565b5034610a2157611f4b36613c3d565b604093929193519060c0820182811067ffffffffffffffff821117611823576040526005825260209460a0368785013760019081805b61209c575b505050611f95611fd891613fb1565b939092866001600160a01b0394549185611fae85613f46565b90549060031b1c16604051808097819463c695cea960e01b83528660048401526024830190614031565b03915afa92831561061f5790879392918793612067575b5093604492939460405196879586947fdbc617970000000000000000000000000000000000000000000000000000000086526004860152602485015260031b1c165afa91821561139d579161204a575b506040519015158152f35b6120619150823d84116105ee576105e08183613ba3565b3861203f565b8093508491943d8311612095575b61207f8183613ba3565b810103126108fc57905186929091906044611fef565b503d612075565b81518110156120c7579082826120b3829484614005565b516120be8289614005565b52019091611f81565b611f86565b5034610a21576120db36613f02565b9091600e54808410908115916121d8575b50611abd576120fa83613fb1565b6001600160a01b039491549460405163544e172d60e11b92838252816004818560209b8c9560031b1c165afa9081156105f55785916121bb575b5015611a5957859061214586613fb1565b90549060031b1c169160046040518094819382525afa908115610f1d57839161219e575b5015611a595760409261217b9161449b565b8152600b835220805460ff811615611a46576004604051631f7c56b760e21b8152fd5b6121b59150853d87116105ee576105e08183613ba3565b38612169565b6121d29150873d89116105ee576105e08183613ba3565b38612134565b9050821015386120ec565b5034610a21576040366003190112610a21576001600160a01b036040612207613e20565b92600435815280602052209116600052602052602060ff604060002054166040519015158152f35b5034610a21576040366003190112610a215736602312156108fc5760405161225681613b87565b6044813682116108fc576020926004905b838210612278578461185d84614225565b81358152908401908401612267565b5034610a215780600319360112610a2157602060405160098152f35b5034610a215780600319360112610a215760075460031015610f5b57600760005260206001600160a01b037fa66cc928b5edb82af9bd49922954155ab7b0942694bea4ce44661d9a8736c68b5416604051908152f35b5034610a21576080366003190112610a2157612313613e0a565b67ffffffffffffffff9160243591838311610a1d5736602384011215610a1d578260040135938411611823576020936040519361235986601f19601f8501160186613ba3565b81855236602483830101116124485781849260248893018388013785010152604435928315158094036118395784916123f391612397610a94613e6d565b846001600160a01b03600e546123b08561149383613fb1565b604051988996879586937f787b25430000000000000000000000000000000000000000000000000000000085526004850152608060248501526084840190613b2a565b90604483015260643560648301520393165af190811561139d575061242b575b5061241f600e54614216565b600e5560405160018152f35b61244190823d84116105ee576105e08183613ba3565b5038612413565b8380fd5b5034610a21576060366003190112610a215760243567ffffffffffffffff8111610a1d5761247e903690600401613d1a565b60206124c561248e604435613fb1565b9054936001600160a01b036040519586809581946316eae40960e01b835260043560048401526040602484015260448301906141d6565b039360031b1c165afa908115610ef5576020929161204a57506040519015158152f35b5034610a215780600319360112610a215760075460021015610f5b57600760005260206001600160a01b037fa66cc928b5edb82af9bd49922954155ab7b0942694bea4ce44661d9a8736c68a5416604051908152f35b5034610a215761255c6020602461255436613f02565b939093613fb1565b919054936001600160a01b0360405195869485937f5949f44f000000000000000000000000000000000000000000000000000000008552600485015260031b1c165afa908115610ef5576020929161204a57506040519015158152f35b5034610a21576125c836613e36565b919033825260209060126020526125e560ff604085205416614065565b610120810135926001946001600160ff1b03851685036127085784861b860190818711610a0957825b86811061262057602088604051908152f35b61262982613f46565b905461010087018a61263b828a614114565b908683018093116126f4576001600160a01b036126838a898f98978f968f969161266e60449a6126759361267d9561414a565b3598614114565b929093614107565b9161414a565b359460405197889687957f7628c0430000000000000000000000000000000000000000000000000000000087526004870152602486015260031b1c165af180156105f557908992916126d7575b500161260e565b6126ed90883d8a116105ee576105e08183613ba3565b50386126d0565b60248a634e487b7160e01b81526011600452fd5b602482634e487b7160e01b81526011600452fd5b5034610a21576020366003190112610a21576040906001600160a01b03612741613e0a565b61274c610a94613e6d565b168152601260205220600160ff19825416179055602060405160018152f35b5034610a215761277a36613dbb565b9190604051602081019060008252600060408201526040815261279c81613b4f565b519020600052600b60205260ff6040600020541615612c02576040840180516001600160ff1b0381168103612bec5760011b60010180600111612bec576127e4915190614107565b604083015180600302906003820403612bec5760010180600111612bec5761281e6128126020880151613fe8565b51916020860151614005565b5103612bdb576128406128346020850151613fe8565b51916020870151614005565b5103612bcb576001600160a01b0361285782613f46565b90549060031b1c16926001600160a01b0361287182613f46565b90549060031b1c169160206001600160a01b0361288c613f7d565b90549060031b1c16916040519283916316eae40960e01b835260048301526040602483015281806128c0604482018c6141d6565b03915afa908115612ae857600091612bac575b5015610988576040516327c61f5160e01b815260206004820152602081806128fe602482018a6141d6565b0381885afa8015612ae857612b8d575b5060206001600160a01b03612921613f7d565b90549060031b1c16916040519283916316eae40960e01b8352600483015260406024830152818061295560448201896141d6565b03915afa908115612ae857600091612b6e575b5015610988576040516327c61f5160e01b8152602060048201526020818061299360248201876141d6565b0381855afa8015612ae857612b4f575b50604051630ba22c1360e41b9081815260206004820152602081806129cb602482018a6141d6565b03816000895af18015612ae857612b30575b5060405190815260206004820152602081806129fc60248201876141d6565b03816000865af18015612ae857612b11575b50604051906020826342eb971f60e11b9283825282600483015281600081612a39602482018a6141d6565b03925af1918215612ae857602092612af4575b50604051938491825282600483015281600081612a6c602482018a6141d6565b03925af1918215612ae85760208092612a9092612a9995612acb575b500151613fe8565b51920151613fe8565b51907ff5b268a3ff315cc44ccceeef86259c9e8eef81ceecb14001543809115380dd62600080a3602060405160018152f35b612ae190833d85116105ee576105e08183613ba3565b5086612a88565b6040513d6000823e3d90fd5b612b0a90833d85116105ee576105e08183613ba3565b5085612a4c565b612b299060203d6020116105ee576105e08183613ba3565b5084612a0e565b612b489060203d6020116105ee576105e08183613ba3565b50856129dd565b612b679060203d6020116105ee576105e08183613ba3565b50846129a3565b612b87915060203d6020116105ee576105e08183613ba3565b85612968565b612ba59060203d6020116105ee576105e08183613ba3565b508561290e565b612bc5915060203d6020116105ee576105e08183613ba3565b866128d3565b600460405162db044b60e11b8152fd5b6004604051632d9a390160e01b8152fd5b634e487b7160e01b600052601160045260246000fd5b60046040517fc24f9db6000000000000000000000000000000000000000000000000000000008152fd5b5034610a215780600319360112610a21576020604051818101907f41756374696f6e526f6c650000000000000000000000000000000000000000008252600b8152612c7681613b87565b519020604051908152f35b5034610a21576001600160a01b0390612c9936613f02565b90612ca5610a94613e6d565b60206024612cb284613fb1565b919054918660405198899485937fde45599000000000000000000000000000000000000000000000000000000000855288600486015260031b1c165af1938415610f1d57602094612d2c575b507f68c771c05d01f5c53189e3a23bc1fac5a3453efcd0992bddf8f390b581c2389c6040519380a360018152f35b612d4290853d87116105ee576105e08183613ba3565b5038612cfe565b5034610a2157602061185d612d5d36613eab565b949390939291926140d6565b5034610a21576020366003190112610a215760043590818152600960205260ff604082205416612db4576040918152600960205220600160ff19825416179055602060405160018152f35b60046040517f488197f2000000000000000000000000000000000000000000000000000000008152fd5b5034610a215780600319360112610a21576020610554613e6d565b5034610a21576040366003190112610a2157612e13613e20565b336001600160a01b03821603612e2f57611102906004356147aa565b608460405162461bcd60e51b815260206004820152602f60248201527f416363657373436f6e74726f6c3a2063616e206f6e6c792072656e6f756e636560448201527f20726f6c657320666f722073656c6600000000000000000000000000000000006064820152fd5b5034610a21576020366003190112610a215760206001600160a01b03612ec0600435613f46565b9190546040519260031b1c168152f35b5034610a2157612edf36613e36565b91338152612f0260209360128552612efd60ff604085205416614065565b613f46565b90546040519363b253740d60e01b8552856004860152803560248601528581013560448601526040808201606487013760406080820160a487013760c081013560e486015260e0810135610104860152610100810135601e1982360301811215611db15781019086823592019067ffffffffffffffff831161181b578260051b91823603811361181f57610160610124890152836101848901527f07ffffffffffffffffffffffffffffffffffffffffffffffffffffffffffffff6101a4941161181f5787948486856101408b9683988f9c9a976001600160a01b03988601376101208101356101448501520135610164830152810103019460031b1c165af190811561139d57506117aa575060405160018152f35b5034610a21576040366003190112610a2157600435613035613e20565b8183528260205261304c60016040852001546144b9565b818352826020526001600160a01b03604084209116908160005260205260ff604060002054161561307b578280f35b8183528260205260408320816000526020526040600020600160ff1982541617905533917f2f8788117e7eff1d82e926ec794901d17c78024a50270940304540a733656f0d8480a438808280f35b5034610a215780600319360112610a2157602060405160068152f35b5034610a21576020366003190112610a215760ff60406020926001600160a01b0361310e613e0a565b168152601284522054166040519015158152f35b5034610a21576020366003190112610a2157600160406020926004358152808452200154604051908152f35b5034610a215761315d36613dbb565b929190604051936020948581019060008252600160408201526040815261318381613b4f565b519020600052600a855260ff604060002054161561359b576040840180516001600160ff1b0381168103612bec5760011b60010180600111612bec576131ca915190614107565b93604084015180600302906003820403612bec576001019283600111612bec57868201956131f88751613fe8565b51613207898801968751614005565b5103612bdb5761322361321a8651613fe8565b51918851614005565b5103612bcb5761323281613f46565b91906001600160a01b03928391549060031b1c16918061325186613f46565b90549060031b1c169481613263613f7d565b90549060031b1c16926040516316eae40960e01b9182825260048201528b81602496604088830152818061329a604482018d6141d6565b03915afa908115612ae85760009161357e575b501561098857604051926327c61f5160e01b938481528c60048201528c81806132d88982018c6141d6565b03818a5afa8015612ae857613561575b50600d546001101561354c57908b91600d6000527fd7b6990105719101dabeb77144f2a3385c8033acd3af97e9423a695e81ad1eb654166040519384928352600483015260408683015281806133428d60448301906141d6565b03915afa908115612ae85760009161352f575b5015610988576040519081528860048201528881806133768582018b6141d6565b0381885afa8015612ae857613512575b50604051630ba22c1360e41b908181528960048201528981806133ab868201896141d6565b03816000885af18015612ae8576134f5575b506040519081528860048201528881806133d98582018b6141d6565b03816000895af18015612ae8576134d8575b50876040518095816000816134146342eb971f60e11b9c8d8352876004840152888301906141d6565b03925af18015612ae8576134479689956000926134bb575b506040519788958694859384528860048501528301906141d6565b03925af1908115612ae85761346e926134669261349e575b5051613fe8565b519151613fe8565b51907ff5b268a3ff315cc44ccceeef86259c9e8eef81ceecb14001543809115380dd62600080a360405160018152f35b6134b490863d88116105ee576105e08183613ba3565b508561345f565b6134d190873d89116105ee576105e08183613ba3565b508a61342c565b6134ee90893d8b116105ee576105e08183613ba3565b50886133eb565b61350b908a3d8c116105ee576105e08183613ba3565b50896133bd565b61352890893d8b116105ee576105e08183613ba3565b5088613386565b61354691508a3d8c116105ee576105e08183613ba3565b8a613355565b84634e487b7160e01b60005260326004526000fd5b613577908d803d106105ee576105e08183613ba3565b508c6132e8565b61359591508c8d3d106105ee576105e08183613ba3565b8c6132ad565b60046040517f1165fddf000000000000000000000000000000000000000000000000000000008152fd5b5034610a215780600319360112610a2157602060405160078152f35b5034610a215761364d906135f436613c3d565b91613600610a94613e6d565b61360983613fb1565b6001600160a01b039154908261361e85613f46565b90549060031b1c1694604051809663c695cea960e01b8252818060209c8d958660048401526024830190614031565b03915afa94851561372f579088929188966136fc575b506044908860405195869485937f533422950000000000000000000000000000000000000000000000000000000085528960048601528a602486015260031b1c165af180156105f5576136df575b507f0d4ed26c1e8d7e7f1953cc13b4883a9dc52f61c721ba4703fe07c994af193b6c6040519480a460018152f35b6136f590863d88116105ee576105e08183613ba3565b50386136b1565b8381949297503d8311613728575b6137148183613ba3565b810103126108fc5760448892519590613663565b503d61370a565b6040513d89823e3d90fd5b5034610a21576101c0366003190112610a215760043560243591610180604319360112610a215761376c610a94613e6d565b61377582613f46565b90546001600160a01b03949160031b1c841615611d87578360065416803b15611839578261018491604051928380927f235725110000000000000000000000000000000000000000000000000000000082526101006044600484013760806101446101048401375afa8015610f1d576138a7575b5061388d8293946101a43583877f21f3bc5173d6a26c3ddddac56260d542b91d2d9f3fd4d9a1b3ff26af23b0ceae8780a46040519061382782613b87565b60018252613848602097889586368187013761384285613fe8565b52613f46565b90549060031b1c16906040519586809481937f1ed2bfde0000000000000000000000000000000000000000000000000000000083528760048401526024830190614031565b03925af190811561139d57506117aa575060405160018152f35b67ffffffffffffffff8195939511610e6a5760405290929061388d6137e9565b5034610a215780600319360112610a215760075415613919576007905260206001600160a01b037fa66cc928b5edb82af9bd49922954155ab7b0942694bea4ce44661d9a8736c6885416604051908152f35b80634e487b7160e01b602492526032600452fd5b5034610a215780600319360112610a21576040519080600191600154928360011c9260018516948515613a37575b6020958686108114613a2357858852879493929187908215613a015750506001146139a7575b505061398f92500383613ba3565b6139a3604051928284938452830190613b2a565b0390f35b90859250600182527fb10e2d527612073b26eecdfd717e6a320cf44b4afac2b0732d9fcbe2b7fa0cf65b8583106139e957505061398f93508201013880613981565b805483890185015287945086939092019181016139d1565b925093505061398f94915060ff191682840152151560051b8201013880613981565b602483634e487b7160e01b81526022600452fd5b93607f169361395b565b5034610a21576020366003190112610a21576004357fffffffff000000000000000000000000000000000000000000000000000000008116809103610a1d57807f7965db0b0000000000000000000000000000000000000000000000000000000060209214908115613ab857506040519015158152f35b7f01ffc9a7000000000000000000000000000000000000000000000000000000009150148261203f565b905034610a1d5781600319360112610a1d576020906001600160a01b03600254168152f35b60005b838110613b1a5750506000910152565b8181015183820152602001613b0a565b90602091613b4381518092818552858086019101613b07565b601f01601f1916010190565b6060810190811067ffffffffffffffff82111761182357604052565b6080810190811067ffffffffffffffff82111761182357604052565b6040810190811067ffffffffffffffff82111761182357604052565b90601f8019910116810190811067ffffffffffffffff82111761182357604052565b67ffffffffffffffff81116118235760051b60200190565b9080601f830112156108fc576020908235613bf781613bc5565b93613c056040519586613ba3565b81855260208086019260051b8201019283116108fc57602001905b828210613c2e575050505090565b81358152908301908301613c20565b9060606003198301126108fc57600435916024359067ffffffffffffffff82116108fc57613c6d91600401613bdd565b9060443590565b91908260409103126108fc57604051613c8c81613b87565b6020808294803584520135910152565b9080601f830112156108fc5760405191613cb583613b87565b8290604081019283116108fc57905b828210613cd15750505090565b8135815260209182019101613cc4565b91906080838203126108fc576020613d1560405192613cff84613b87565b60408496613d0d8382613c9c565b865201613c9c565b910152565b91908281039261016084126108fc5760405191613d3683613b6b565b82946101008091126108fc57604051613d4e81613b4f565b613d588385613c74565b8152613d678360408601613ce1565b6020820152613d798360c08601613c74565b604082015284528201359167ffffffffffffffff83116108fc57613da4610140926060948301613bdd565b602085015261012081013560408501520135910152565b9060806003198301126108fc5767ffffffffffffffff6004358181116108fc5783613de891600401613d1a565b926024359182116108fc57613dff91600401613d1a565b906044359060643590565b600435906001600160a01b03821682036108fc57565b602435906001600160a01b03821682036108fc57565b600319906040818301126108fc576004359167ffffffffffffffff83116108fc5782610160920301126108fc576004019060243590565b60405160208101907f6f776e6572526f6c650000000000000000000000000000000000000000000000825260098152613ea581613b87565b51902090565b9060c06003198301126108fc5767ffffffffffffffff6004358181116108fc5783613ed891600401613d1a565b926024359182116108fc57613eef91600401613d1a565b9060443590606435906084359060a43590565b60409060031901126108fc576004359060243590565b9181601f840112156108fc5782359167ffffffffffffffff83116108fc57602083818601950101116108fc57565b600754811015610f5b5760076000527fa66cc928b5edb82af9bd49922954155ab7b0942694bea4ce44661d9a8736c6880190600090565b600d5415610f5b57600d6000527fd7b6990105719101dabeb77144f2a3385c8033acd3af97e9423a695e81ad1eb590600090565b600d54811015610f5b57600d6000527fd7b6990105719101dabeb77144f2a3385c8033acd3af97e9423a695e81ad1eb50190600090565b805115610f5b5760200190565b805160011015610f5b5760400190565b8051821015610f5b5760209160051b010190565b908160209103126108fc575180151581036108fc5790565b90815180825260208080930193019160005b828110614051575050505090565b835185529381019392810192600101614043565b1561406c57565b608460405162461bcd60e51b815260206004820152602e60248201527f456e79676d614476703a2063616c6c6572206973206e6f7420616e206175746860448201527f6f72697a65642072656c617965720000000000000000000000000000000000006064820152fd5b94939291906140e5858561449b565b600052600b60205260ff6040600020541615612c02576141049561481f565b90565b91908201809211612bec57565b903590601e19813603018212156108fc570180359067ffffffffffffffff82116108fc57602001918160051b360383136108fc57565b9190811015610f5b5760051b0190565b6000915b6002831061416b57505050565b60019082518152602080910192019201919061415e565b90604060206141a09361419684825161415a565b015191019061415a565b565b6020604060e092828151805187520151838601526141c68382015183870190614182565b0151805160c08501520151910152565b9061014060606142026101606141ed8587516141a2565b60208601519080610100870152850190614031565b936040810151610120850152015191015290565b6000198114612bec5760010190565b60208151910151604051906020820192835260408201526040815261424981613b4f565b5190206000908152601160205260409020600201541561426857600190565b600090565b818110614278575050565b6000815560010161426d565b6040810192916000915b6002831061429b57505050565b60019082518152602080910192019201919061428e565b908060209392818452848401376000828201840152601f01601f1916010190565b94939291906142e2858561449b565b600052600a60205260ff604060002054161561359b576141049561481f565b91908260409103126108fc5760405161431981613b87565b6020808294805184520151910152565b9080601f830112156108fc576040519161434283613b87565b8290604081019283116108fc57905b82821061435e5750505090565b8151815260209182019101614351565b919060209283818303126108fc57805167ffffffffffffffff918282116108fc5701908183039261016084126108fc576040918251946143ad86613b6b565b610100908181126108fc5760808551916143c683613b4f565b6143d08689614301565b8352603f1901126108fc5784516143e681613b87565b6143f285878901614329565b81526144018560808901614329565b8a820152898201526144168460c08801614301565b8582015286528401519081116108fc5783019080601f830112156108fc57815161443f81613bc5565b9261444c85519485613ba3565b818452888085019260051b8201019283116108fc578801905b82821061448c57505050839495610140940152610120820151908401520151606082015290565b81518152908801908801614465565b906040519060208201928352604082015260408152613ea581613b4f565b600090808252602090828252604092838120338252835260ff8482205416156144e25750505050565b338451926144ef84613b4f565b602a84528484019086368337845115614796576030825384519260019360011015614782576078602187015360295b84811161470b57506146c95786519261453684613b6b565b6042845286840194606036873784511561391957603086538451600110156139195790607860218601536041915b818311614662575050506146205761461c938693614600936145f16048946145bc9a519a8b957f416363657373436f6e74726f6c3a206163636f756e74200000000000000000008c8801525180926037880190613b07565b8401917f206973206d697373696e6720726f6c6520000000000000000000000000000000603784015251809386840190613b07565b01036028810187520185613ba3565b5192839262461bcd60e51b845260048401526024830190613b2a565b0390fd5b60648587519062461bcd60e51b825280600483015260248201527f537472696e67733a20686578206c656e67746820696e73756666696369656e746044820152fd5b909192600f811660108110156146b5577f3031323334353637383961626364656600000000000000000000000000000000901a61469f8588614c71565b5360041c92801561270857600019019190614564565b602483634e487b7160e01b81526032600452fd5b60648688519062461bcd60e51b825280600483015260248201527f537472696e67733a20686578206c656e67746820696e73756666696369656e746044820152fd5b90600f8116601081101561476e577f3031323334353637383961626364656600000000000000000000000000000000901a6147468389614c71565b5360041c90801561475a576000190161451e565b602486634e487b7160e01b81526011600452fd5b602487634e487b7160e01b81526032600452fd5b602485634e487b7160e01b81526032600452fd5b602484634e487b7160e01b81526032600452fd5b90600091808352826020526001600160a01b036040842092169182845260205260ff6040842054166147db57505050565b80835282602052604083208284526020526040832060ff1981541690557ff6391f5c32d9c69d2a47ea670b442974b53935d1edc7fd64eb21e047a839171b339380a4565b9492919092604091828701968751976001986001600160ff1b0381168103612bec57891b8901808a11612bec57614857915190614107565b968487015180600302906003820403612bec57890196878a11612bec57602096878401996148858b51613fe8565b516148948a85019b8c51614005565b5103614c61576148b06148a78b51613fe8565b51918c51614005565b5103614c525790849392916148c6889796613f46565b96906001600160a01b03978891549060031b1c1696806148f7816148e986613f46565b90549060031b1c1696613fb1565b90549060031b1c169189518c816316eae40960e01b9586825260049b8c83015260249e8f830152818061492e8d60448301906141d6565b03915afa908115614c4757600091614c2a575b5015614c1b5790879392916149738d898c8f8f51809581948293876327c61f5160e01b9e8f86528501528301906141d6565b03915afa8015614c105791614991918f959493614bf3575b50613fb1565b90549060031b1c168a519384928352898301528a8c83015281806149b860448201896141d6565b03915afa908115614b9f57600091614bd6575b5015614bc757865190815288858201528881806149ea8b8201866141d6565b0381865afa8015614b7757614baa575b508551630ba22c1360e41b908181528986820152898180614a1d8c8201896141d6565b038160008b5af18015614b9f57614b82575b5086519081528885820152888180614a498b8201866141d6565b03816000875af18015614b77578894936000938b93614a8993614b5a575b5089519485809481936342eb971f60e11b9a8b8452888d8501528301906141d6565b03925af18015614b4f5792614abd89969493600093889795614b32575b508851998a978896879586528501528301906141d6565b03925af1908115614b28575091614ae0939161346693614b0a575b505051613fe8565b51907ff5b268a3ff315cc44ccceeef86259c9e8eef81ceecb14001543809115380dd62600080a390565b81614b2092903d106105ee576105e08183613ba3565b503880614ad8565b513d6000823e3d90fd5b614b4890883d8a116105ee576105e08183613ba3565b5038614aa6565b86513d6000823e3d90fd5b614b7090853d87116105ee576105e08183613ba3565b5038614a67565b87513d6000823e3d90fd5b614b98908a3d8c116105ee576105e08183613ba3565b5038614a2f565b88513d6000823e3d90fd5b614bc090893d8b116105ee576105e08183613ba3565b50386149fa565b8487516302c723f960e11b8152fd5b614bed91508a3d8c116105ee576105e08183613ba3565b386149cb565b614c0990863d88116105ee576105e08183613ba3565b503861498b565b8c513d6000823e3d90fd5b878a516302c723f960e11b8152fd5b614c4191508d803d106105ee576105e08183613ba3565b38614941565b8b513d6000823e3d90fd5b6004875162db044b60e11b8152fd5b60048851632d9a390160e01b8152fd5b908151811015610f5b57016020019056fea2646970667358221220c1a082c5e2247a98a95e6d760865245e9e01bfaa61e59e6e952a60fa2d2adb5764736f6c63430008180033",
  "linkReferences": {},
  "deployedLinkReferences": {}
}