{
  "_format": "hh-sol-artifact-1",
  "contractName": "Erc1155CoinVault",
  "sourceName": "contracts/core/contracts/vaults/Erc1155CoinVault.sol",
  "abi": [
    {
      "inputs": [
        {
          "internalType": "address",
          "name": "zkDvpContractAddress",
          "type": "address"
        }
      ],
      "stateMutability": "nonpayable",
      "type": "constructor"
    },
    {
      "inputs": [],
      "name": "CantSpendLockedCoin",
      "type": "error"
    },
    {
      "inputs": [],
      "name": "CoinAlreadyUnlocked",
      "type": "error"
    },
    {
      "inputs": [],
      "name": "FungibilityMismatch",
      "type": "error"
    },
    {
      "inputs": [],
      "name": "InvalidAuditorPublicKey",
      "type": "error"
    },
    {
      "inputs": [],
      "name": "InvalidErc1155BatchTransfer",
      "type": "error"
    },
    {
      "inputs": [],
      "name": "InvalidErc1155Transfer",
      "type": "error"
    },
    {
      "inputs": [],
      "name": "InvalidErc20Transfer",
      "type": "error"
    },
    {
      "inputs": [],
      "name": "InvalidErc721Transfer",
      "type": "error"
    },
    {
      "inputs": [],
      "name": "InvalidMerkleRoot",
      "type": "error"
    },
    {
      "inputs": [],
      "name": "InvalidNullifier",
      "type": "error"
    },
    {
      "inputs": [],
      "name": "InvalidNumberOfInputs",
      "type": "error"
    },
    {
      "inputs": [],
      "name": "InvalidNumberOfOutputs",
      "type": "error"
    },
    {
      "inputs": [],
      "name": "InvalidOpening",
      "type": "error"
    },
    {
      "inputs": [],
      "name": "InvalidStatmentSize",
      "type": "error"
    },
    {
      "inputs": [],
      "name": "JoinSplitWithSameCommitments",
      "type": "error"
    },
    {
      "inputs": [],
      "name": "NotImplemented",
      "type": "error"
    },
    {
      "inputs": [],
      "name": "ProofReceiptAlreadyAdded",
      "type": "error"
    },
    {
      "inputs": [],
      "name": "RottenChallenge",
      "type": "error"
    },
    {
      "inputs": [],
      "name": "WrongNumberOfIdentifiers",
      "type": "error"
    },
    {
      "anonymous": false,
      "inputs": [
        {
          "indexed": true,
          "internalType": "uint256",
          "name": "vaultId",
          "type": "uint256"
        },
        {
          "indexed": true,
          "internalType": "uint256",
          "name": "treeNumber",
          "type": "uint256"
        },
        {
          "indexed": true,
          "internalType": "uint256",
          "name": "nullifier",
          "type": "uint256"
        }
      ],
      "name": "CoinLocked",
      "type": "event"
    },
    {
      "anonymous": false,
      "inputs": [
        {
          "indexed": true,
          "internalType": "uint256",
          "name": "vaultId",
          "type": "uint256"
        },
        {
          "indexed": true,
          "internalType": "uint256",
          "name": "treeNumber",
          "type": "uint256"
        },
        {
          "indexed": true,
          "internalType": "uint256",
          "name": "nullifier",
          "type": "uint256"
        }
      ],
      "name": "CoinUnlocked",
      "type": "event"
    },
    {
      "anonymous": false,
      "inputs": [
        {
          "indexed": true,
          "internalType": "uint256",
          "name": "vaultId",
          "type": "uint256"
        },
        {
          "indexed": true,
          "internalType": "uint256",
          "name": "commitment",
          "type": "uint256"
        }
      ],
      "name": "Commitment",
      "type": "event"
    },
    {
      "anonymous": false,
      "inputs": [
        {
          "indexed": true,
          "internalType": "uint256",
          "name": "vaultId",
          "type": "uint256"
        },
        {
          "indexed": true,
          "internalType": "uint256",
          "name": "commitment",
          "type": "uint256"
        },
        {
          "indexed": false,
          "internalType": "bytes",
          "name": "ciphertextI",
          "type": "bytes"
        },
        {
          "indexed": false,
          "internalType": "bytes",
          "name": "ciphertextII",
          "type": "bytes"
        }
      ],
      "name": "EncryptedNote",
      "type": "event"
    },
    {
      "anonymous": false,
      "inputs": [
        {
          "indexed": true,
          "internalType": "uint256",
          "name": "vaultId",
          "type": "uint256"
        },
        {
          "indexed": true,
          "internalType": "uint256",
          "name": "treeNumber",
          "type": "uint256"
        },
        {
          "indexed": true,
          "internalType": "uint256",
          "name": "nullifier",
          "type": "uint256"
        }
      ],
      "name": "Nullifier",
      "type": "event"
    },
    {
      "anonymous": false,
      "inputs": [
        {
          "indexed": true,
          "internalType": "uint256",
          "name": "challenge",
          "type": "uint256"
        },
        {
          "indexed": true,
          "internalType": "uint256",
          "name": "vaultId",
          "type": "uint256"
        },
        {
          "indexed": true,
          "internalType": "uint256",
          "name": "tokenId",
          "type": "uint256"
        },
        {
          "indexed": false,
          "internalType": "uint256",
          "name": "amount",
          "type": "uint256"
        }
      ],
      "name": "OwnershipVerificationReceipt",
      "type": "event"
    },
    {
      "anonymous": false,
      "inputs": [
        {
          "components": [
            {
              "components": [
                {
                  "components": [
                    {
                      "internalType": "uint256",
                      "name": "x",
                      "type": "uint256"
                    },
                    {
                      "internalType": "uint256",
                      "name": "y",
                      "type": "uint256"
                    }
                  ],
                  "internalType": "struct IEnygmaDvp.G1Point",
                  "name": "a",
                  "type": "tuple"
                },
                {
                  "components": [
                    {
                      "internalType": "uint256[2]",
                      "name": "x",
                      "type": "uint256[2]"
                    },
                    {
                      "internalType": "uint256[2]",
                      "name": "y",
                      "type": "uint256[2]"
                    }
                  ],
                  "internalType": "struct IEnygmaDvp.G2Point",
                  "name": "b",
                  "type": "tuple"
                },
                {
                  "components": [
                    {
                      "internalType": "uint256",
                      "name": "x",
                      "type": "uint256"
                    },
                    {
                      "internalType": "uint256",
                      "name": "y",
                      "type": "uint256"
                    }
                  ],
                  "internalType": "struct IEnygmaDvp.G1Point",
                  "name": "c",
                  "type": "tuple"
                }
              ],
              "internalType": "struct IEnygmaDvp.SnarkProof",
              "name": "proof",
              "type": "tuple"
            },
            {
              "internalType": "uint256[]",
              "name": "statement",
              "type": "uint256[]"
            },
            {
              "internalType": "uint256",
              "name": "numberOfInputs",
              "type": "uint256"
            },
            {
              "internalType": "uint256",
              "name": "numberOfOutputs",
              "type": "uint256"
            }
          ],
          "indexed": false,
          "internalType": "struct IEnygmaDvp.ProofReceipt",
          "name": "pendingProof",
          "type": "tuple"
        }
      ],
      "name": "PendingProofAdded",
      "type": "event"
    },
    {
      "anonymous": false,
      "inputs": [
        {
          "indexed": true,
          "internalType": "bytes32",
          "name": "role",
          "type": "bytes32"
        },
        {
          "indexed": true,
          "internalType": "bytes32",
          "name": "previousAdminRole",
          "type": "bytes32"
        },
        {
          "indexed": true,
          "internalType": "bytes32",
          "name": "newAdminRole",
          "type": "bytes32"
        }
      ],
      "name": "RoleAdminChanged",
      "type": "event"
    },
    {
      "anonymous": false,
      "inputs": [
        {
          "indexed": true,
          "internalType": "bytes32",
          "name": "role",
          "type": "bytes32"
        },
        {
          "indexed": true,
          "internalType": "address",
          "name": "account",
          "type": "address"
        },
        {
          "indexed": true,
          "internalType": "address",
          "name": "sender",
          "type": "address"
        }
      ],
      "name": "RoleGranted",
      "type": "event"
    },
    {
      "anonymous": false,
      "inputs": [
        {
          "indexed": true,
          "internalType": "bytes32",
          "name": "role",
          "type": "bytes32"
        },
        {
          "indexed": true,
          "internalType": "address",
          "name": "account",
          "type": "address"
        },
        {
          "indexed": true,
          "internalType": "address",
          "name": "sender",
          "type": "address"
        }
      ],
      "name": "RoleRevoked",
      "type": "event"
    },
    {
      "inputs": [],
      "name": "DEFAULT_ADMIN_ROLE",
      "outputs": [
        {
          "internalType": "bytes32",
          "name": "",
          "type": "bytes32"
        }
      ],
      "stateMutability": "view",
      "type": "function"
    },
    {
      "inputs": [],
      "name": "DEFAULT_AUCTION_ROLE",
      "outputs": [
        {
          "internalType": "bytes32",
          "name": "",
          "type": "bytes32"
        }
      ],
      "stateMutability": "view",
      "type": "function"
    },
    {
      "inputs": [],
      "name": "DEFAULT_DVP_ROLE",
      "outputs": [
        {
          "internalType": "bytes32",
          "name": "",
          "type": "bytes32"
        }
      ],
      "stateMutability": "view",
      "type": "function"
    },
    {
      "inputs": [],
      "name": "DEFAULT_OWNER_ROLE",
      "outputs": [
        {
          "internalType": "bytes32",
          "name": "",
          "type": "bytes32"
        }
      ],
      "stateMutability": "view",
      "type": "function"
    },
    {
      "inputs": [],
      "name": "VK_ID_ERC1155_1",
      "outputs": [
        {
          "internalType": "uint256",
          "name": "",
          "type": "uint256"
        }
      ],
      "stateMutability": "view",
      "type": "function"
    },
    {
      "inputs": [],
      "name": "VK_ID_ERC1155_10",
      "outputs": [
        {
          "internalType": "uint256",
          "name": "",
          "type": "uint256"
        }
      ],
      "stateMutability": "view",
      "type": "function"
    },
    {
      "inputs": [],
      "name": "VK_ID_ERC1155_2",
      "outputs": [
        {
          "internalType": "uint256",
          "name": "",
          "type": "uint256"
        }
      ],
      "stateMutability": "view",
      "type": "function"
    },
    {
      "inputs": [],
      "name": "VK_ID_ERC1155_FUNG_1",
      "outputs": [
        {
          "internalType": "uint256",
          "name": "",
          "type": "uint256"
        }
      ],
      "stateMutability": "view",
      "type": "function"
    },
    {
      "inputs": [],
      "name": "VK_ID_ERC1155_FUNG_AUDITOR",
      "outputs": [
        {
          "internalType": "uint256",
          "name": "",
          "type": "uint256"
        }
      ],
      "stateMutability": "view",
      "type": "function"
    },
    {
      "inputs": [],
      "name": "VK_ID_ERC1155_FUNG_BROKER",
      "outputs": [
        {
          "internalType": "uint256",
          "name": "",
          "type": "uint256"
        }
      ],
      "stateMutability": "view",
      "type": "function"
    },
    {
      "inputs": [],
      "name": "VK_ID_ERC1155_NON_FUNG_AUDITOR",
      "outputs": [
        {
          "internalType": "uint256",
          "name": "",
          "type": "uint256"
        }
      ],
      "stateMutability": "view",
      "type": "function"
    },
    {
      "inputs": [],
      "name": "ZERO_VALUE",
      "outputs": [
        {
          "internalType": "uint256",
          "name": "",
          "type": "uint256"
        }
      ],
      "stateMutability": "view",
      "type": "function"
    },
    {
      "inputs": [
        {
          "components": [
            {
              "components": [
                {
                  "components": [
                    {
                      "internalType": "uint256",
                      "name": "x",
                      "type": "uint256"
                    },
                    {
                      "internalType": "uint256",
                      "name": "y",
                      "type": "uint256"
                    }
                  ],
                  "internalType": "struct IEnygmaDvp.G1Point",
                  "name": "a",
                  "type": "tuple"
                },
                {
                  "components": [
                    {
                      "internalType": "uint256[2]",
                      "name": "x",
                      "type": "uint256[2]"
                    },
                    {
                      "internalType": "uint256[2]",
                      "name": "y",
                      "type": "uint256[2]"
                    }
                  ],
                  "internalType": "struct IEnygmaDvp.G2Point",
                  "name": "b",
                  "type": "tuple"
                },
                {
                  "components": [
                    {
                      "internalType": "uint256",
                      "name": "x",
                      "type": "uint256"
                    },
                    {
                      "internalType": "uint256",
                      "name": "y",
                      "type": "uint256"
                    }
                  ],
                  "internalType": "struct IEnygmaDvp.G1Point",
                  "name": "c",
                  "type": "tuple"
                }
              ],
              "internalType": "struct IEnygmaDvp.SnarkProof",
              "name": "proof",
              "type": "tuple"
            },
            {
              "internalType": "uint256[]",
              "name": "statement",
              "type": "uint256[]"
            },
            {
              "internalType": "uint256",
              "name": "numberOfInputs",
              "type": "uint256"
            },
            {
              "internalType": "uint256",
              "name": "numberOfOutputs",
              "type": "uint256"
            }
          ],
          "internalType": "struct IEnygmaDvp.ProofReceipt",
          "name": "receipt",
          "type": "tuple"
        }
      ],
      "name": "addPendingProofReceipt",
      "outputs": [
        {
          "internalType": "bool",
          "name": "",
          "type": "bool"
        }
      ],
      "stateMutability": "nonpayable",
      "type": "function"
    },
    {
      "inputs": [
        {
          "components": [
            {
              "components": [
                {
                  "components": [
                    {
                      "internalType": "uint256",
                      "name": "x",
                      "type": "uint256"
                    },
                    {
                      "internalType": "uint256",
                      "name": "y",
                      "type": "uint256"
                    }
                  ],
                  "internalType": "struct IEnygmaDvp.G1Point",
                  "name": "a",
                  "type": "tuple"
                },
                {
                  "components": [
                    {
                      "internalType": "uint256[2]",
                      "name": "x",
                      "type": "uint256[2]"
                    },
                    {
                      "internalType": "uint256[2]",
                      "name": "y",
                      "type": "uint256[2]"
                    }
                  ],
                  "internalType": "struct IEnygmaDvp.G2Point",
                  "name": "b",
                  "type": "tuple"
                },
                {
                  "components": [
                    {
                      "internalType": "uint256",
                      "name": "x",
                      "type": "uint256"
                    },
                    {
                      "internalType": "uint256",
                      "name": "y",
                      "type": "uint256"
                    }
                  ],
                  "internalType": "struct IEnygmaDvp.G1Point",
                  "name": "c",
                  "type": "tuple"
                }
              ],
              "internalType": "struct IEnygmaDvp.SnarkProof",
              "name": "proof",
              "type": "tuple"
            },
            {
              "internalType": "uint256[]",
              "name": "statement",
              "type": "uint256[]"
            },
            {
              "internalType": "uint256",
              "name": "numberOfInputs",
              "type": "uint256"
            },
            {
              "internalType": "uint256",
              "name": "numberOfOutputs",
              "type": "uint256"
            }
          ],
          "internalType": "struct IEnygmaDvp.ProofReceipt",
          "name": "receipt",
          "type": "tuple"
        }
      ],
      "name": "checkReceiptConditions",
      "outputs": [
        {
          "internalType": "bool",
          "name": "",
          "type": "bool"
        }
      ],
      "stateMutability": "view",
      "type": "function"
    },
    {
      "inputs": [
        {
          "components": [
            {
              "components": [
                {
                  "components": [
                    {
                      "internalType": "uint256",
                      "name": "x",
                      "type": "uint256"
                    },
                    {
                      "internalType": "uint256",
                      "name": "y",
                      "type": "uint256"
                    }
                  ],
                  "internalType": "struct IEnygmaDvp.G1Point",
                  "name": "a",
                  "type": "tuple"
                },
                {
                  "components": [
                    {
                      "internalType": "uint256[2]",
                      "name": "x",
                      "type": "uint256[2]"
                    },
                    {
                      "internalType": "uint256[2]",
                      "name": "y",
                      "type": "uint256[2]"
                    }
                  ],
                  "internalType": "struct IEnygmaDvp.G2Point",
                  "name": "b",
                  "type": "tuple"
                },
                {
                  "components": [
                    {
                      "internalType": "uint256",
                      "name": "x",
                      "type": "uint256"
                    },
                    {
                      "internalType": "uint256",
                      "name": "y",
                      "type": "uint256"
                    }
                  ],
                  "internalType": "struct IEnygmaDvp.G1Point",
                  "name": "c",
                  "type": "tuple"
                }
              ],
              "internalType": "struct IEnygmaDvp.SnarkProof",
              "name": "proof",
              "type": "tuple"
            },
            {
              "internalType": "uint256[]",
              "name": "statement",
              "type": "uint256[]"
            },
            {
              "internalType": "uint256",
              "name": "numberOfInputs",
              "type": "uint256"
            },
            {
              "internalType": "uint256",
              "name": "numberOfOutputs",
              "type": "uint256"
            }
          ],
          "internalType": "struct IEnygmaDvp.ProofReceipt",
          "name": "receipt",
          "type": "tuple"
        }
      ],
      "name": "checkRegisterBrokerProofConditions",
      "outputs": [
        {
          "internalType": "bool",
          "name": "",
          "type": "bool"
        }
      ],
      "stateMutability": "nonpayable",
      "type": "function"
    },
    {
      "inputs": [],
      "name": "currentRoot",
      "outputs": [
        {
          "internalType": "uint256",
          "name": "",
          "type": "uint256"
        }
      ],
      "stateMutability": "view",
      "type": "function"
    },
    {
      "inputs": [
        {
          "internalType": "uint256[]",
          "name": "params",
          "type": "uint256[]"
        }
      ],
      "name": "deposit",
      "outputs": [
        {
          "internalType": "bool",
          "name": "",
          "type": "bool"
        }
      ],
      "stateMutability": "nonpayable",
      "type": "function"
    },
    {
      "inputs": [
        {
          "internalType": "uint256[]",
          "name": "params",
          "type": "uint256[]"
        }
      ],
      "name": "generateUniqueId",
      "outputs": [
        {
          "internalType": "uint256",
          "name": "",
          "type": "uint256"
        }
      ],
      "stateMutability": "view",
      "type": "function"
    },
    {
      "inputs": [],
      "name": "getAssetContractAddress",
      "outputs": [
        {
          "internalType": "address",
          "name": "",
          "type": "address"
        }
      ],
      "stateMutability": "view",
      "type": "function"
    },
    {
      "inputs": [
        {
          "internalType": "uint256",
          "name": "numberOfInputs",
          "type": "uint256"
        },
        {
          "internalType": "uint256",
          "name": "numberOfOutputs",
          "type": "uint256"
        }
      ],
      "name": "getEncryptionSizeForFungible",
      "outputs": [
        {
          "internalType": "uint256",
          "name": "",
          "type": "uint256"
        }
      ],
      "stateMutability": "pure",
      "type": "function"
    },
    {
      "inputs": [
        {
          "internalType": "uint256",
          "name": "numberOfTokens",
          "type": "uint256"
        }
      ],
      "name": "getEncryptionSizeForNonFungible",
      "outputs": [
        {
          "internalType": "uint256",
          "name": "",
          "type": "uint256"
        }
      ],
      "stateMutability": "pure",
      "type": "function"
    },
    {
      "inputs": [],
      "name": "getHashContractAddress",
      "outputs": [
        {
          "internalType": "address",
          "name": "",
          "type": "address"
        }
      ],
      "stateMutability": "view",
      "type": "function"
    },
    {
      "inputs": [],
      "name": "getNumberOfAssetIdentifiers",
      "outputs": [
        {
          "internalType": "uint256",
          "name": "",
          "type": "uint256"
        }
      ],
      "stateMutability": "view",
      "type": "function"
    },
    {
      "inputs": [
        {
          "internalType": "uint256",
          "name": "proofUniqueId",
          "type": "uint256"
        }
      ],
      "name": "getPendingProofReceipt",
      "outputs": [
        {
          "components": [
            {
              "components": [
                {
                  "components": [
                    {
                      "internalType": "uint256",
                      "name": "x",
                      "type": "uint256"
                    },
                    {
                      "internalType": "uint256",
                      "name": "y",
                      "type": "uint256"
                    }
                  ],
                  "internalType": "struct IEnygmaDvp.G1Point",
                  "name": "a",
                  "type": "tuple"
                },
                {
                  "components": [
                    {
                      "internalType": "uint256[2]",
                      "name": "x",
                      "type": "uint256[2]"
                    },
                    {
                      "internalType": "uint256[2]",
                      "name": "y",
                      "type": "uint256[2]"
                    }
                  ],
                  "internalType": "struct IEnygmaDvp.G2Point",
                  "name": "b",
                  "type": "tuple"
                },
                {
                  "components": [
                    {
                      "internalType": "uint256",
                      "name": "x",
                      "type": "uint256"
                    },
                    {
                      "internalType": "uint256",
                      "name": "y",
                      "type": "uint256"
                    }
                  ],
                  "internalType": "struct IEnygmaDvp.G1Point",
                  "name": "c",
                  "type": "tuple"
                }
              ],
              "internalType": "struct IEnygmaDvp.SnarkProof",
              "name": "proof",
              "type": "tuple"
            },
            {
              "internalType": "uint256[]",
              "name": "statement",
              "type": "uint256[]"
            },
            {
              "internalType": "uint256",
              "name": "numberOfInputs",
              "type": "uint256"
            },
            {
              "internalType": "uint256",
              "name": "numberOfOutputs",
              "type": "uint256"
            }
          ],
          "internalType": "struct IEnygmaDvp.ProofReceipt",
          "name": "proofReceipt",
          "type": "tuple"
        }
      ],
      "stateMutability": "nonpayable",
      "type": "function"
    },
    {
      "inputs": [
        {
          "internalType": "bytes32",
          "name": "role",
          "type": "bytes32"
        }
      ],
      "name": "getRoleAdmin",
      "outputs": [
        {
          "internalType": "bytes32",
          "name": "",
          "type": "bytes32"
        }
      ],
      "stateMutability": "view",
      "type": "function"
    },
    {
      "inputs": [],
      "name": "getRoot",
      "outputs": [
        {
          "internalType": "uint256",
          "name": "root",
          "type": "uint256"
        }
      ],
      "stateMutability": "view",
      "type": "function"
    },
    {
      "inputs": [],
      "name": "getTreeId",
      "outputs": [
        {
          "internalType": "uint256",
          "name": "",
          "type": "uint256"
        }
      ],
      "stateMutability": "view",
      "type": "function"
    },
    {
      "inputs": [],
      "name": "getVaultId",
      "outputs": [
        {
          "internalType": "uint256",
          "name": "",
          "type": "uint256"
        }
      ],
      "stateMutability": "view",
      "type": "function"
    },
    {
      "inputs": [],
      "name": "getVerifierContractAddress",
      "outputs": [
        {
          "internalType": "address",
          "name": "",
          "type": "address"
        }
      ],
      "stateMutability": "view",
      "type": "function"
    },
    {
      "inputs": [
        {
          "internalType": "bytes32",
          "name": "role",
          "type": "bytes32"
        },
        {
          "internalType": "address",
          "name": "account",
          "type": "address"
        }
      ],
      "name": "grantRole",
      "outputs": [],
      "stateMutability": "nonpayable",
      "type": "function"
    },
    {
      "inputs": [
        {
          "internalType": "bytes32",
          "name": "role",
          "type": "bytes32"
        },
        {
          "internalType": "address",
          "name": "account",
          "type": "address"
        }
      ],
      "name": "hasRole",
      "outputs": [
        {
          "internalType": "bool",
          "name": "",
          "type": "bool"
        }
      ],
      "stateMutability": "view",
      "type": "function"
    },
    {
      "inputs": [
        {
          "internalType": "uint256",
          "name": "_left",
          "type": "uint256"
        },
        {
          "internalType": "uint256",
          "name": "_right",
          "type": "uint256"
        }
      ],
      "name": "hashLeftRight",
      "outputs": [
        {
          "internalType": "uint256",
          "name": "",
          "type": "uint256"
        }
      ],
      "stateMutability": "view",
      "type": "function"
    },
    {
      "inputs": [
        {
          "internalType": "uint256",
          "name": "_treeDepth",
          "type": "uint256"
        },
        {
          "internalType": "uint256",
          "name": "_treeId",
          "type": "uint256"
        },
        {
          "internalType": "address",
          "name": "_poseidonWrapperAddress",
          "type": "address"
        }
      ],
      "name": "initializeMerkle",
      "outputs": [],
      "stateMutability": "nonpayable",
      "type": "function"
    },
    {
      "inputs": [
        {
          "internalType": "uint256",
          "name": "vaultId",
          "type": "uint256"
        },
        {
          "internalType": "uint256",
          "name": "numberOfAssetIdentifiers",
          "type": "uint256"
        },
        {
          "internalType": "address",
          "name": "assetContractAddress",
          "type": "address"
        },
        {
          "internalType": "uint256",
          "name": "treeDepth",
          "type": "uint256"
        },
        {
          "internalType": "address",
          "name": "hashContractAddress",
          "type": "address"
        },
        {
          "internalType": "address",
          "name": "verifierContractAddress",
          "type": "address"
        },
        {
          "internalType": "address",
          "name": "zkAuctionContractAddress",
          "type": "address"
        }
      ],
      "name": "initializeVault",
      "outputs": [
        {
          "internalType": "bool",
          "name": "",
          "type": "bool"
        }
      ],
      "stateMutability": "nonpayable",
      "type": "function"
    },
    {
      "inputs": [
        {
          "components": [
            {
              "components": [
                {
                  "components": [
                    {
                      "internalType": "uint256",
                      "name": "x",
                      "type": "uint256"
                    },
                    {
                      "internalType": "uint256",
                      "name": "y",
                      "type": "uint256"
                    }
                  ],
                  "internalType": "struct IEnygmaDvp.G1Point",
                  "name": "a",
                  "type": "tuple"
                },
                {
                  "components": [
                    {
                      "internalType": "uint256[2]",
                      "name": "x",
                      "type": "uint256[2]"
                    },
                    {
                      "internalType": "uint256[2]",
                      "name": "y",
                      "type": "uint256[2]"
                    }
                  ],
                  "internalType": "struct IEnygmaDvp.G2Point",
                  "name": "b",
                  "type": "tuple"
                },
                {
                  "components": [
                    {
                      "internalType": "uint256",
                      "name": "x",
                      "type": "uint256"
                    },
                    {
                      "internalType": "uint256",
                      "name": "y",
                      "type": "uint256"
                    }
                  ],
                  "internalType": "struct IEnygmaDvp.G1Point",
                  "name": "c",
                  "type": "tuple"
                }
              ],
              "internalType": "struct IEnygmaDvp.SnarkProof",
              "name": "proof",
              "type": "tuple"
            },
            {
              "internalType": "uint256[]",
              "name": "statement",
              "type": "uint256[]"
            },
            {
              "internalType": "uint256",
              "name": "numberOfInputs",
              "type": "uint256"
            },
            {
              "internalType": "uint256",
              "name": "numberOfOutputs",
              "type": "uint256"
            }
          ],
          "internalType": "struct IEnygmaDvp.ProofReceipt",
          "name": "receipt",
          "type": "tuple"
        }
      ],
      "name": "insertCommitmentsFromReceipt",
      "outputs": [
        {
          "internalType": "bool",
          "name": "",
          "type": "bool"
        }
      ],
      "stateMutability": "nonpayable",
      "type": "function"
    },
    {
      "inputs": [
        {
          "internalType": "uint256[]",
          "name": "_leafHashes",
          "type": "uint256[]"
        }
      ],
      "name": "insertLeaves",
      "outputs": [],
      "stateMutability": "nonpayable",
      "type": "function"
    },
    {
      "inputs": [
        {
          "internalType": "uint256",
          "name": "_treeNumber",
          "type": "uint256"
        },
        {
          "internalType": "uint256",
          "name": "_nullifierId",
          "type": "uint256"
        }
      ],
      "name": "isLocked",
      "outputs": [
        {
          "internalType": "bool",
          "name": "",
          "type": "bool"
        }
      ],
      "stateMutability": "nonpayable",
      "type": "function"
    },
    {
      "inputs": [
        {
          "internalType": "uint256",
          "name": "_treeNumber",
          "type": "uint256"
        },
        {
          "internalType": "uint256",
          "name": "_nullifierId",
          "type": "uint256"
        }
      ],
      "name": "isValidNullifier",
      "outputs": [
        {
          "internalType": "bool",
          "name": "",
          "type": "bool"
        }
      ],
      "stateMutability": "view",
      "type": "function"
    },
    {
      "inputs": [
        {
          "internalType": "uint256",
          "name": "_treeNumber",
          "type": "uint256"
        },
        {
          "internalType": "uint256",
          "name": "_merkleRoot",
          "type": "uint256"
        }
      ],
      "name": "isValidRoot",
      "outputs": [
        {
          "internalType": "bool",
          "name": "",
          "type": "bool"
        }
      ],
      "stateMutability": "view",
      "type": "function"
    },
    {
      "inputs": [
        {
          "internalType": "uint256",
          "name": "_treeNumber",
          "type": "uint256"
        },
        {
          "internalType": "uint256",
          "name": "_nullifierId",
          "type": "uint256"
        }
      ],
      "name": "lock",
      "outputs": [
        {
          "internalType": "bool",
          "name": "",
          "type": "bool"
        }
      ],
      "stateMutability": "nonpayable",
      "type": "function"
    },
    {
      "inputs": [
        {
          "internalType": "uint256",
          "name": "treeNumber",
          "type": "uint256"
        },
        {
          "internalType": "uint256",
          "name": "nullifier",
          "type": "uint256"
        }
      ],
      "name": "lockCoin",
      "outputs": [
        {
          "internalType": "bool",
          "name": "",
          "type": "bool"
        }
      ],
      "stateMutability": "nonpayable",
      "type": "function"
    },
    {
      "inputs": [
        {
          "internalType": "uint256",
          "name": "",
          "type": "uint256"
        },
        {
          "internalType": "uint256",
          "name": "",
          "type": "uint256"
        }
      ],
      "name": "lockedNullifiers",
      "outputs": [
        {
          "internalType": "bool",
          "name": "",
          "type": "bool"
        }
      ],
      "stateMutability": "view",
      "type": "function"
    },
    {
      "inputs": [],
      "name": "merkleRoot",
      "outputs": [
        {
          "internalType": "uint256",
          "name": "",
          "type": "uint256"
        }
      ],
      "stateMutability": "view",
      "type": "function"
    },
    {
      "inputs": [],
      "name": "newTree",
      "outputs": [],
      "stateMutability": "nonpayable",
      "type": "function"
    },
    {
      "inputs": [
        {
          "internalType": "uint256",
          "name": "",
          "type": "uint256"
        },
        {
          "internalType": "uint256",
          "name": "",
          "type": "uint256"
        }
      ],
      "name": "nullifiers",
      "outputs": [
        {
          "internalType": "bool",
          "name": "",
          "type": "bool"
        }
      ],
      "stateMutability": "view",
      "type": "function"
    },
    {
      "inputs": [
        {
          "internalType": "uint256",
          "name": "treeNumber",
          "type": "uint256"
        },
        {
          "internalType": "uint256",
          "name": "nullifier",
          "type": "uint256"
        }
      ],
      "name": "nullifyCoin",
      "outputs": [
        {
          "internalType": "bool",
          "name": "",
          "type": "bool"
        }
      ],
      "stateMutability": "nonpayable",
      "type": "function"
    },
    {
      "inputs": [
        {
          "components": [
            {
              "components": [
                {
                  "components": [
                    {
                      "internalType": "uint256",
                      "name": "x",
                      "type": "uint256"
                    },
                    {
                      "internalType": "uint256",
                      "name": "y",
                      "type": "uint256"
                    }
                  ],
                  "internalType": "struct IEnygmaDvp.G1Point",
                  "name": "a",
                  "type": "tuple"
                },
                {
                  "components": [
                    {
                      "internalType": "uint256[2]",
                      "name": "x",
                      "type": "uint256[2]"
                    },
                    {
                      "internalType": "uint256[2]",
                      "name": "y",
                      "type": "uint256[2]"
                    }
                  ],
                  "internalType": "struct IEnygmaDvp.G2Point",
                  "name": "b",
                  "type": "tuple"
                },
                {
                  "components": [
                    {
                      "internalType": "uint256",
                      "name": "x",
                      "type": "uint256"
                    },
                    {
                      "internalType": "uint256",
                      "name": "y",
                      "type": "uint256"
                    }
                  ],
                  "internalType": "struct IEnygmaDvp.G1Point",
                  "name": "c",
                  "type": "tuple"
                }
              ],
              "internalType": "struct IEnygmaDvp.SnarkProof",
              "name": "proof",
              "type": "tuple"
            },
            {
              "internalType": "uint256[]",
              "name": "statement",
              "type": "uint256[]"
            },
            {
              "internalType": "uint256",
              "name": "numberOfInputs",
              "type": "uint256"
            },
            {
              "internalType": "uint256",
              "name": "numberOfOutputs",
              "type": "uint256"
            }
          ],
          "internalType": "struct IEnygmaDvp.ProofReceipt",
          "name": "receipt",
          "type": "tuple"
        }
      ],
      "name": "nullifyFromReceipt",
      "outputs": [
        {
          "internalType": "bool",
          "name": "",
          "type": "bool"
        }
      ],
      "stateMutability": "nonpayable",
      "type": "function"
    },
    {
      "inputs": [
        {
          "internalType": "address",
          "name": "",
          "type": "address"
        },
        {
          "internalType": "address",
          "name": "",
          "type": "address"
        },
        {
          "internalType": "uint256[]",
          "name": "",
          "type": "uint256[]"
        },
        {
          "internalType": "uint256[]",
          "name": "",
          "type": "uint256[]"
        },
        {
          "internalType": "bytes",
          "name": "",
          "type": "bytes"
        }
      ],
      "name": "onERC1155BatchReceived",
      "outputs": [
        {
          "internalType": "bytes4",
          "name": "",
          "type": "bytes4"
        }
      ],
      "stateMutability": "nonpayable",
      "type": "function"
    },
    {
      "inputs": [
        {
          "internalType": "address",
          "name": "",
          "type": "address"
        },
        {
          "internalType": "address",
          "name": "",
          "type": "address"
        },
        {
          "internalType": "uint256",
          "name": "",
          "type": "uint256"
        },
        {
          "internalType": "uint256",
          "name": "",
          "type": "uint256"
        },
        {
          "internalType": "bytes",
          "name": "",
          "type": "bytes"
        }
      ],
      "name": "onERC1155Received",
      "outputs": [
        {
          "internalType": "bytes4",
          "name": "",
          "type": "bytes4"
        }
      ],
      "stateMutability": "nonpayable",
      "type": "function"
    },
    {
      "inputs": [],
      "name": "poseidonWrapperAddress",
      "outputs": [
        {
          "internalType": "address",
          "name": "",
          "type": "address"
        }
      ],
      "stateMutability": "view",
      "type": "function"
    },
    {
      "inputs": [
        {
          "internalType": "uint256[]",
          "name": "commitments",
          "type": "uint256[]"
        }
      ],
      "name": "registerCoins",
      "outputs": [
        {
          "internalType": "bool",
          "name": "",
          "type": "bool"
        }
      ],
      "stateMutability": "nonpayable",
      "type": "function"
    },
    {
      "inputs": [
        {
          "internalType": "bytes32",
          "name": "role",
          "type": "bytes32"
        },
        {
          "internalType": "address",
          "name": "account",
          "type": "address"
        }
      ],
      "name": "renounceRole",
      "outputs": [],
      "stateMutability": "nonpayable",
      "type": "function"
    },
    {
      "inputs": [
        {
          "internalType": "bytes32",
          "name": "role",
          "type": "bytes32"
        },
        {
          "internalType": "address",
          "name": "account",
          "type": "address"
        }
      ],
      "name": "revokeRole",
      "outputs": [],
      "stateMutability": "nonpayable",
      "type": "function"
    },
    {
      "inputs": [
        {
          "internalType": "uint256",
          "name": "",
          "type": "uint256"
        },
        {
          "internalType": "uint256",
          "name": "",
          "type": "uint256"
        }
      ],
      "name": "rootHistory",
      "outputs": [
        {
          "internalType": "bool",
          "name": "",
          "type": "bool"
        }
      ],
      "stateMutability": "view",
      "type": "function"
    },
    {
      "inputs": [
        {
          "internalType": "uint256",
          "name": "_treeNumber",
          "type": "uint256"
        },
        {
          "internalType": "uint256",
          "name": "_nullifierId",
          "type": "uint256"
        }
      ],
      "name": "setNullifier",
      "outputs": [],
      "stateMutability": "nonpayable",
      "type": "function"
    },
    {
      "inputs": [
        {
          "internalType": "bytes4",
          "name": "interfaceId",
          "type": "bytes4"
        }
      ],
      "name": "supportsInterface",
      "outputs": [
        {
          "internalType": "bool",
          "name": "",
          "type": "bool"
        }
      ],
      "stateMutability": "view",
      "type": "function"
    },
    {
      "inputs": [
        {
          "components": [
            {
              "components": [
                {
                  "components": [
                    {
                      "internalType": "uint256",
                      "name": "x",
                      "type": "uint256"
                    },
                    {
                      "internalType": "uint256",
                      "name": "y",
                      "type": "uint256"
                    }
                  ],
                  "internalType": "struct IEnygmaDvp.G1Point",
                  "name": "a",
                  "type": "tuple"
                },
                {
                  "components": [
                    {
                      "internalType": "uint256[2]",
                      "name": "x",
                      "type": "uint256[2]"
                    },
                    {
                      "internalType": "uint256[2]",
                      "name": "y",
                      "type": "uint256[2]"
                    }
                  ],
                  "internalType": "struct IEnygmaDvp.G2Point",
                  "name": "b",
                  "type": "tuple"
                },
                {
                  "components": [
                    {
                      "internalType": "uint256",
                      "name": "x",
                      "type": "uint256"
                    },
                    {
                      "internalType": "uint256",
                      "name": "y",
                      "type": "uint256"
                    }
                  ],
                  "internalType": "struct IEnygmaDvp.G1Point",
                  "name": "c",
                  "type": "tuple"
                }
              ],
              "internalType": "struct IEnygmaDvp.SnarkProof",
              "name": "proof",
              "type": "tuple"
            },
            {
              "internalType": "uint256[]",
              "name": "statement",
              "type": "uint256[]"
            },
            {
              "internalType": "uint256",
              "name": "numberOfInputs",
              "type": "uint256"
            },
            {
              "internalType": "uint256",
              "name": "numberOfOutputs",
              "type": "uint256"
            }
          ],
          "internalType": "struct IEnygmaDvp.ProofReceipt",
          "name": "receipt",
          "type": "tuple"
        }
      ],
      "name": "transfer",
      "outputs": [
        {
          "internalType": "bool",
          "name": "",
          "type": "bool"
        }
      ],
      "stateMutability": "nonpayable",
      "type": "function"
    },
    {
      "inputs": [],
      "name": "treeNumber",
      "outputs": [
        {
          "internalType": "uint256",
          "name": "",
          "type": "uint256"
        }
      ],
      "stateMutability": "view",
      "type": "function"
    },
    {
      "inputs": [
        {
          "internalType": "uint256",
          "name": "_treeNumber",
          "type": "uint256"
        },
        {
          "internalType": "uint256",
          "name": "_nullifierId",
          "type": "uint256"
        }
      ],
      "name": "unlock",
      "outputs": [
        {
          "internalType": "bool",
          "name": "",
          "type": "bool"
        }
      ],
      "stateMutability": "nonpayable",
      "type": "function"
    },
    {
      "inputs": [
        {
          "internalType": "uint256",
          "name": "treeNumber",
          "type": "uint256"
        },
        {
          "internalType": "uint256",
          "name": "nullifier",
          "type": "uint256"
        }
      ],
      "name": "unlockCoin",
      "outputs": [
        {
          "internalType": "bool",
          "name": "",
          "type": "bool"
        }
      ],
      "stateMutability": "nonpayable",
      "type": "function"
    },
    {
      "inputs": [
        {
          "components": [
            {
              "components": [
                {
                  "components": [
                    {
                      "internalType": "uint256",
                      "name": "x",
                      "type": "uint256"
                    },
                    {
                      "internalType": "uint256",
                      "name": "y",
                      "type": "uint256"
                    }
                  ],
                  "internalType": "struct IEnygmaDvp.G1Point",
                  "name": "a",
                  "type": "tuple"
                },
                {
                  "components": [
                    {
                      "internalType": "uint256[2]",
                      "name": "x",
                      "type": "uint256[2]"
                    },
                    {
                      "internalType": "uint256[2]",
                      "name": "y",
                      "type": "uint256[2]"
                    }
                  ],
                  "internalType": "struct IEnygmaDvp.G2Point",
                  "name": "b",
                  "type": "tuple"
                },
                {
                  "components": [
                    {
                      "internalType": "uint256",
                      "name": "x",
                      "type": "uint256"
                    },
                    {
                      "internalType": "uint256",
                      "name": "y",
                      "type": "uint256"
                    }
                  ],
                  "internalType": "struct IEnygmaDvp.G1Point",
                  "name": "c",
                  "type": "tuple"
                }
              ],
              "internalType": "struct IEnygmaDvp.SnarkProof",
              "name": "proof",
              "type": "tuple"
            },
            {
              "internalType": "uint256[]",
              "name": "statement",
              "type": "uint256[]"
            },
            {
              "internalType": "uint256",
              "name": "numberOfInputs",
              "type": "uint256"
            },
            {
              "internalType": "uint256",
              "name": "numberOfOutputs",
              "type": "uint256"
            }
          ],
          "internalType": "struct IEnygmaDvp.ProofReceipt",
          "name": "receipt",
          "type": "tuple"
        }
      ],
      "name": "unlockFromReceipt",
      "outputs": [
        {
          "internalType": "bool",
          "name": "",
          "type": "bool"
        }
      ],
      "stateMutability": "nonpayable",
      "type": "function"
    },
    {
      "inputs": [
        {
          "internalType": "uint256[]",
          "name": "params_",
          "type": "uint256[]"
        },
        {
          "components": [
            {
              "components": [
                {
                  "components": [
                    {
                      "internalType": "uint256",
                      "name": "x",
                      "type": "uint256"
                    },
                    {
                      "internalType": "uint256",
                      "name": "y",
                      "type": "uint256"
                    }
                  ],
                  "internalType": "struct IEnygmaDvp.G1Point",
                  "name": "a",
                  "type": "tuple"
                },
                {
                  "components": [
                    {
                      "internalType": "uint256[2]",
                      "name": "x",
                      "type": "uint256[2]"
                    },
                    {
                      "internalType": "uint256[2]",
                      "name": "y",
                      "type": "uint256[2]"
                    }
                  ],
                  "internalType": "struct IEnygmaDvp.G2Point",
                  "name": "b",
                  "type": "tuple"
                },
                {
                  "components": [
                    {
                      "internalType": "uint256",
                      "name": "x",
                      "type": "uint256"
                    },
                    {
                      "internalType": "uint256",
                      "name": "y",
                      "type": "uint256"
                    }
                  ],
                  "internalType": "struct IEnygmaDvp.G1Point",
                  "name": "c",
                  "type": "tuple"
                }
              ],
              "internalType": "struct IEnygmaDvp.SnarkProof",
              "name": "proof",
              "type": "tuple"
            },
            {
              "internalType": "uint256[]",
              "name": "statement",
              "type": "uint256[]"
            },
            {
              "internalType": "uint256",
              "name": "numberOfInputs",
              "type": "uint256"
            },
            {
              "internalType": "uint256",
              "name": "numberOfOutputs",
              "type": "uint256"
            }
          ],
          "internalType": "struct IEnygmaDvp.ProofReceipt",
          "name": "receipt_",
          "type": "tuple"
        }
      ],
      "name": "verifyOwnership",
      "outputs": [
        {
          "internalType": "bool",
          "name": "",
          "type": "bool"
        }
      ],
      "stateMutability": "nonpayable",
      "type": "function"
    },
    {
      "inputs": [
        {
          "internalType": "uint256",
          "name": "treeNumber",
          "type": "uint256"
        },
        {
          "internalType": "uint256",
          "name": "root",
          "type": "uint256"
        }
      ],
      "name": "verifyRoot",
      "outputs": [
        {
          "internalType": "bool",
          "name": "",
          "type": "bool"
        }
      ],
      "stateMutability": "view",
      "type": "function"
    },
    {
      "inputs": [
        {
          "internalType": "uint256[]",
          "name": "withdrawParams",
          "type": "uint256[]"
        },
        {
          "internalType": "address",
          "name": "recipient",
          "type": "address"
        },
        {
          "components": [
            {
              "components": [
                {
                  "components": [
                    {
                      "internalType": "uint256",
                      "name": "x",
                      "type": "uint256"
                    },
                    {
                      "internalType": "uint256",
                      "name": "y",
                      "type": "uint256"
                    }
                  ],
                  "internalType": "struct IEnygmaDvp.G1Point",
                  "name": "a",
                  "type": "tuple"
                },
                {
                  "components": [
                    {
                      "internalType": "uint256[2]",
                      "name": "x",
                      "type": "uint256[2]"
                    },
                    {
                      "internalType": "uint256[2]",
                      "name": "y",
                      "type": "uint256[2]"
                    }
                  ],
                  "internalType": "struct IEnygmaDvp.G2Point",
                  "name": "b",
                  "type": "tuple"
                },
                {
                  "components": [
                    {
                      "internalType": "uint256",
                      "name": "x",
                      "type": "uint256"
                    },
                    {
                      "internalType": "uint256",
                      "name": "y",
                      "type": "uint256"
                    }
                  ],
                  "internalType": "struct IEnygmaDvp.G1Point",
                  "name": "c",
                  "type": "tuple"
                }
              ],
              "internalType": "struct IEnygmaDvp.SnarkProof",
              "name": "proof",
              "type": "tuple"
            },
            {
              "internalType": "uint256[]",
              "name": "statement",
              "type": "uint256[]"
            },
            {
              "internalType": "uint256",
              "name": "numberOfInputs",
              "type": "uint256"
            },
            {
              "internalType": "uint256",
              "name": "numberOfOutputs",
              "type": "uint256"
            }
          ],
          "internalType": "struct IEnygmaDvp.ProofReceipt",
          "name": "receipt",
          "type": "tuple"
        }
      ],
      "name": "withdraw",
      "outputs": [
        {
          "internalType": "bool",
          "name": "",
          "type": "bool"
        }
      ],
      "stateMutability": "nonpayable",
      "type": "function"
    },
    {
      "inputs": [
        {
          "internalType": "uint256",
          "name": "",
          "type": "uint256"
        }
      ],
      "name": "zeros",
      "outputs": [
        {
          "internalType": "uint256",
          "name": "",
          "type": "uint256"
        }
      ],
      "stateMutability": "view",
      "type": "function"
    },
    {
      "inputs": [],
      "name": "zkDvpAddress",
      "outputs": [
        {
          "internalType": "address",
          "name": "",
          "type": "address"
        }
      ],
      "stateMutability": "view",
      "type": "function"
    }
  ],
  "bytecode": "0x608034620001ff57601f6200400a38819003918201601f1916830192916001600160401b03841183851017620002045780839260409586528339602092839181010312620001ff57516001600160a01b03811690819003620001ff57825182810190686f776e6572526f6c6560b81b8252600981526200007f816200021a565b51902090600091808352600e8452848320338452845260ff858420541615620001c4575b5083518381019066447670526f6c6560c81b825260078152620000c6816200021a565b51902090818352600e8452848320818452845260ff8584205416156200018a575b5050600f5490600192600183811c931680156200017f575b818410146200016b57601f831162000145575b7f5a6b447670202d204552433131353520436f696e205661756c74000000000034600f558451613db39081620002378239f35b601f90600f83528220920160051c8201915b828110156200011257818155830162000157565b634e487b7160e01b82526022600452602482fd5b92607f1692620000ff565b818352600e84528483208184528452848320805460ff19166001179055339160008051602062003fea8339815191528480a43880620000e7565b808352600e84528483203384528452848320600160ff198254161790553390339060008051602062003fea8339815191528580a438620000a3565b600080fd5b634e487b7160e01b600052604160045260246000fd5b604081019081106001600160401b03821117620002045760405256fe608080604052600436101561001357600080fd5b60003560e01c9081630187d3f7146120025750806301ffc9a714611f635780631338736f14611f4a5780631708ed6114611dfe578063176764b514611dc55780631d7c55a214611ae05780631ecf1e8c146118bd5780631ed2bfde146117c2578063248a9ca31461179357806327c61f51146117585780632db1e64a146115a45780632eb4a7ab146103155780632f2ff15d146116a257806332c9b1831461167b57806336568abe146115dc57806338953305146115a45780633b8162b71461155a578063422998c514610c9d57806346d07259146115025780634b4703dc146114ce5780634cf6bcf2146114b25780634e2285f1146114945780634e2a00d91461143f57806358a1d8ae1461141857806358d199df14611401578063598b8e71146110cd57806359f880bd146110b25780635bb93995146110995780635bfadb24146110805780635ca0d16c146110645780635ca1e165146103155780635f9563c01461104657806360d333371461102a578063665033151461100c57806368e8093d14610fee57806372bef65d14610f5b5780637336edd814610f3d5780637628c04314610f245780637718e23a14610cd557806378d3915c14610c9d5780637a1638e6146104505780637b22a8ac14610c455780637d16374914610a815780637d8c1cd714610a5a57806385841432146108e957806385d72e3e146108a35780638d35a14b1461088757806391d1485414610839578063936ad3d51461081d578063971607ba146107f6578063a217fddf146107da578063a8d46929146107b3578063b253740d14610623578063b3f5bd89146105fc578063ba22c130146105a5578063bc197c8114610504578063c695cea9146104c9578063d547741f14610488578063d909911414610450578063e2ed6e6a14610434578063e410b64714610413578063e8295588146103dc578063ec732959146103a1578063f23a6e6114610333578063fdab463d146103155763fe6f79d3146102f557600080fd5b346103105760003660031901126103105761030e6135e8565b005b600080fd5b34610310576000366003190112610310576020600654604051908152f35b346103105760a03660031901126103105761034c61205e565b50610355612048565b5060843567ffffffffffffffff81116103105761037690369060040161238c565b5060206040517ff23a6e61000000000000000000000000000000000000000000000000000000008152f35b346103105760003660031901126103105760206040517f302a880eeac9ec8b02e876fea5cfd4947f3f87950cb04c9105f167aa346f5efa8152f35b3461031057602036600319011261031057600435600954811015610310576104056020916123e3565b90546040519160031b1c8152f35b3461031057602061042c6104263661201c565b5061359b565b604051908152f35b34610310576000366003190112610310576020604051600e8152f35b346103105761045e3661201c565b906000526003602052604060002090600052602052602060ff604060002054166040519015158152f35b346103105760403660031901126103105761030e6004356104a7612048565b9080600052600e6020526104c4600160406000200154339061367a565b613ab3565b346103105760203660031901126103105760043567ffffffffffffffff81116103105761042c6104ff6020923690600401612116565b61348f565b346103105760a03660031901126103105761051d61205e565b50610526612048565b5067ffffffffffffffff60443581811161031057610548903690600401612116565b5060643581811161031057610561903690600401612116565b506084359081116103105761057a90369060040161238c565b5060206040517fbc197c81000000000000000000000000000000000000000000000000000000008152f35b346103105760203660031901126103105760043567ffffffffffffffff8111610310576105f26105db60209236906004016121e3565b6105ed6105e66122ad565b339061367a565b613b2a565b6040519015158152f35b346103105760603660031901126103105761030e610618612032565b6024356004356131f3565b34610310576020806003193601126103105760043567ffffffffffffffff8111610310576106559036906004016121e3565b6106606105e66122ad565b60408101516001928184019081851161079d576001600160ff1b038316830361079d5782851b85019182861161079d5792936020019260005b8581106106ab57602060405160008152f35b8451908088019182891161079d5788926106c49161252d565b516106da87516106d484896124f6565b9061252d565b516106ea88516106d485886124f6565b516106f8575b505001610699565b9080935060005260038552604060002081600052855260ff604060002054166000146107735788926107313361072c6122ad565b61367a565b61073b8282612fd2565b506015547f99565704f398859b97f9b53066e321c61c6bbdf4176848e0180528b79257b9a083838383600080a4600080a488806106f0565b60046040517fb448aede000000000000000000000000000000000000000000000000000000008152fd5b634e487b7160e01b600052601160045260246000fd5b346103105760003660031901126103105760206001600160a01b0360015416604051908152f35b3461031057600036600319011261031057602060405160008152f35b346103105760003660031901126103105760206001600160a01b0360115416604051908152f35b3461031057600036600319011261031057602060405160048152f35b3461031057604036600319011261031057610852612048565b600435600052600e6020526001600160a01b0360406000209116600052602052602060ff604060002054166040519015158152f35b3461031057600036600319011261031057602060405160028152f35b346103105760203660031901126103105760043567ffffffffffffffff8111610310576105f26108d960209236906004016121e3565b6108e46105e66122ad565b613c22565b346103105760203660031901126103105760043567ffffffffffffffff81116103105761091a9036906004016121e3565b60408101519060039180600301908160031161079d579161093b83836124f6565b91602060009201915b84811061095657602060405160018152f35b61096583516106d483856124f6565b51610973575b600101610944565b8251908087019182881161079d5761098e836109c09261252d565b5161099e86516106d485886124f6565b5190600052600b60205260406000209060005260205260ff6040600020541690565b15610a4957610a056109d383865161252d565b516109e386516106d4858a6124f6565b5190600052600260205260406000209060005260205260ff6040600020541690565b610a3857610a30610a19600193865161252d565b51610a2986516106d4858a6124f6565b5190613146565b50905061096b565b6004604051632ec8265960e11b8152fd5b6004604051639dd854d360e01b8152fd5b346103105760003660031901126103105760206001600160a01b0360105416604051908152f35b34610310576020806003193601126103105760006060604051610aa3816120a4565b604051610aaf816120c0565b604051610abb81612074565b84815284868201528152604051610ad181612074565b604051610add81612074565b60403682378152604051610af081612074565b60403682378682015285820152604051610b0981612074565b848152848682015260408201528152818482015282604082015201526004356000526017815260406000209060405191610b42836120a4565b604051610b4e816120c0565b610b57826131a0565b8152604051610b6581612074565b610b71600284016131be565b8152610b7f600484016131be565b8482015283820152610b93600683016131a0565b6040820152835260088101604051808285829454938481520190600052856000209260005b87828210610c2f57505050610bcf925003826120dc565b828401908152600a6009830154926040860193845201549060608501918252610c0360405195858796875286019051612313565b5190610c1e6101609283610120870152610180860190612358565b925161014085015251908301520390f35b8554845260019586019587955093019201610bb8565b34610310576020610c553661201c565b610c606105e66122ad565b610c6a8183612e48565b60155491604051927f437885c05eacc89ce854c46fbeb8290d4c624ea6b561c7a784d86bb5369b2ea3600080a460018152f35b3461031057610cab3661201c565b906000526002602052604060002090600052602052602060ff604060002054166040519015158152f35b346103105760203660031901126103105760043567ffffffffffffffff811161031057610d069036906004016121e3565b610d116105e66122ad565b6040810151906001600160ff1b038216820361079d578160011b60010160011161079d57610d52610d48838060011b6001016124f6565b602083015161252d565b516000908152601760205260409020600881015415610d955760046040517fb08d7c2e000000000000000000000000000000000000000000000000000000008152fd5b81519260208451805184550151600183015560208401519283519460005b6002811015610dd357600190602088519801976002828801015501610db3565b508390602086015160005b60028110610f0d575050604060209101518051600684015501516007820155602082015180519067ffffffffffffffff8211610ef757680100000000000000008211610ef7576020906008840154836008860155808410610ed7575b500160088301600052602060002060005b838110610ec3575050505060408201516009820155600a606083015191015560005b6040820151811015610eb857602082015190806001018060011161079d57610e9a610eb19160019461252d565b51610a2960208601516106d48589881b88016124f6565b5001610e6d565b602060405160018152f35b600190602084519401938184015501610e4b565b610ef1906008860160005284846000209182019101613189565b86610e3a565b634e487b7160e01b600052604160045260246000fd5b600190602083519301926004828701015501610dde565b346103105760206105f2610f373661201c565b90613146565b3461031057602036600319011261031057602061042c6004356130e6565b346103105760203660031901126103105760043567ffffffffffffffff811161031057610f8c9036906004016121e3565b604081015190816001018060011161079d576001600160ff1b038316830361079d5782610fc3610fc892610fe29560011b906124f6565b6124f6565b50610fd281612834565b50610fdc81613b2a565b50613c22565b50602060405160018152f35b34610310576000366003190112610310576020601654604051908152f35b34610310576000366003190112610310576020600854604051908152f35b34610310576000366003190112610310576020604051600f8152f35b34610310576000366003190112610310576020600c54604051908152f35b3461031057600036600319011261031057602060405160058152f35b346103105760206105f26110933661201c565b90612fd2565b3461031057602061042c6110ac3661201c565b90612f48565b3461031057600036600319011261031057602061042c6122ad565b3461031057602060031981813601126103105767ffffffffffffffff9060043582811161031057611102903690600401612116565b9081516003811460001461124257505061111b81612510565b51906111268161251d565b519080516002101561122c5760600151604051909385820190811182821017610ef757604052600081526001600160a01b0360135416803b15610310576111a6936000809460405196879586948593637921219560e11b85523360048601523060248601526044850152606484015260a0608484015260a4830190612f23565b03925af1801561122057611211575b506111df6040516111c581612074565b60018152833681830137826111d982612510565b52612541565b6015547f28ec6d3cf0e771d5a8b44b29744de77a87c1301f68127019d5049968253913b4600080a35b60405160018152f35b61121a90612090565b826111b5565b6040513d6000823e3d90fd5b634e487b7160e01b600052603260045260246000fd5b6003919293500490611253826127ad565b61125c836127ad565b90611266846127ad565b9260006001968660011b9087820460021488151715925b8881106113a657505050506001600160a01b0360135416803b156103105760009283896112f09482611300604051998a9889977f2eb2c2d60000000000000000000000000000000000000000000000000000000089523360048a01523060248a015260a060448a015260a4890190612358565b9084888303016064890152612358565b85810392830160848701525201925af1801561122057611397575b5060005b82811061132f5750505050611208565b839061135d60405161134081612074565b838152873681830137611353838661252d565b516111d982612510565b60155461136a828561252d565b51907f28ec6d3cf0e771d5a8b44b29744de77a87c1301f68127019d5049968253913b4600080a30161131f565b6113a090612090565b8461131b565b6113b0818361252d565b516113bb828861252d565b52836113d06113ca8b846124f6565b8461252d565b516113db838a61252d565b5261079d57806113ef6113ca858d946124f6565b516113fa828b61252d565b520161127d565b346103105761030e6114123661201c565b90612e48565b346103105760003660031901126103105760206001600160a01b0360005416604051908152f35b34610310576000366003190112610310576020604051818101907f41756374696f6e526f6c650000000000000000000000000000000000000000008252600b815261148981612074565b519020604051908152f35b34610310576000366003190112610310576020601554604051908152f35b3461031057600036600319011261031057602060405160038152f35b346103105760206105f26114e13661201c565b90600052600b60205260406000209060005260205260ff6040600020541690565b34610310576115103661201c565b9061151c6105e66122ad565b6115268282612fd2565b506015547f99565704f398859b97f9b53066e321c61c6bbdf4176848e0180528b79257b9a0600080a4602060405160018152f35b34610310576000366003190112610310576020604051818101907f6f776e6572526f6c65000000000000000000000000000000000000000000000082526009815261148981612074565b34610310576115b23661201c565b90600052600b602052604060002090600052602052602060ff604060002054166040519015158152f35b34610310576040366003190112610310576115f5612048565b336001600160a01b038216036116115761030e90600435613ab3565b608460405162461bcd60e51b815260206004820152602f60248201527f416363657373436f6e74726f6c3a2063616e206f6e6c792072656e6f756e636560448201527f20726f6c657320666f722073656c6600000000000000000000000000000000006064820152fd5b346103105760003660031901126103105760206001600160a01b0360135416604051908152f35b34610310576040366003190112610310576004356116be612048565b81600052600e6020526116da600160406000200154339061367a565b81600052600e6020526001600160a01b0360406000209116908160005260205260ff604060002054161561170a57005b81600052600e6020526040600020816000526020526040600020600160ff1982541617905533917f2f8788117e7eff1d82e926ec794901d17c78024a50270940304540a733656f0d600080a4005b346103105760203660031901126103105760043567ffffffffffffffff8111610310576105f261178e60209236906004016121e3565b612834565b3461031057602036600319011261031057600435600052600e6020526020600160406000200154604051908152f35b346103105760203660031901126103105760043567ffffffffffffffff8111610310576117f3903690600401612116565b6117fe6105e66122ad565b6000805b825181101561183757611815818461252d565b51611823575b600101611802565b9061182f600191612825565b91905061181b565b50611841816127ad565b9160005b82811061185557610eb884612541565b806118626001928461252d565b5161186e575b01611845565b611878818461252d565b51611883828761252d565b52601554611891828761252d565b51907f28ec6d3cf0e771d5a8b44b29744de77a87c1301f68127019d5049968253913b4600080a3611868565b346103105760403660031901126103105767ffffffffffffffff600435818111610310576118ef903690600401612116565b90602435908111610310576119089036906004016121e3565b9061191c61191582612510565b519161251d565b51906020928381019060006119318351612510565b51926001600160a01b038781601254166024604051809681937f3cd6f55e0000000000000000000000000000000000000000000000000000000083528a60048401525af1908115611220576119f2938992611ab3575b506119bd604051611997816120c0565b6002815260403685830137886119ac82612510565b52896119b78261251d565b5261348f565b9060105416604051916119cf83612074565b825260008383015260405180809681946314d2f97b60e11b8352600483016127df565b03915afa91821561122057600092611a84575b505180516004101561122c5760a0015103611a5a57611a2390612834565b507ff4ba1266d3bddd382b01c33871e98d90fee982e1baa7bb9bf2d8a09de085aeb48460155493604051908152a460405160018152f35b60046040517f399d2d9b000000000000000000000000000000000000000000000000000000008152fd5b9091508681813d8311611aac575b611a9c81836120dc565b8101031261031057519087611a05565b503d611a92565b611ad290833d8511611ad9575b611aca81836120dc565b81019061280d565b5089611987565b503d611ac0565b346103105760603660031901126103105767ffffffffffffffff60043581811161031057611b12903690600401612116565b611b1a612048565b9160443590811161031057611b339036906004016121e3565b611b3c81612834565b50604081019283516001018060011161079d57611b5e611b66918651906124f6565b9451856124f6565b9060005b6060840151811015610eb8578060011b600282820481148315171561079d57611b93828861252d565b51916001810180911161079d57611baa908861252d565b51908215801590611dbc575b611c6b575b505050611bd060208501516106d483896124f6565b51611bde575b600101611b6a565b602084015190806001018060011161079d57611c19611bff8260019561252d565b51611c1260208901516106d4868d6124f6565b5190612e48565b611c2a60155491602088015161252d565b51611c3d60208801516106d4858c6124f6565b51917f437885c05eacc89ce854c46fbeb8290d4c624ea6b561c7a784d86bb5369b2ea3600080a49050611bd6565b6020611c9f611ce39260405190611c81826120c0565b81526040368483013785611c9482612510565b52846119b78261251d565b6001600160a01b036010541660405191611cb883612074565b82526001600160a01b0388168383015260405180809581946314d2f97b60e11b8352600483016127df565b03915afa90811561122057600091611d8a575b50611d0960208801516106d486896124f6565b5103611a5a576001600160a01b036013541691823b156103105760c4600092836040519586948593637921219560e11b85523060048601526001600160a01b038b1660248601526044850152606484015260a060848401528160a48401525af1801561122057611d7b575b8080611bbb565b611d8490612090565b86611d74565b90506020813d602011611db4575b81611da5602093836120dc565b81010312610310575189611cf6565b3d9150611d98565b50811515611bb6565b346103105760203660031901126103105760043567ffffffffffffffff811161031057611df961030e913690600401612116565b612541565b346103105760e036600319011261031057611e17612032565b6084356001600160a01b03908181168091036103105760a435928284168094036103105760c4359183831680930361031057838392610eb896611e5b6105e66122ad565b6004356015557fffffffffffffffffffffffff00000000000000000000000000000000000000009333856012541617601255846010541617601055836011541617601155168160135416176013556014541617601455602435601655611ebf6122ad565b9081600052600e60205260406000208160005260205260ff6040600020541615611ef7575b50506015549060105416906064356131f3565b81600052600e6020526040600020816000526020526040600020600160ff1982541617905533917f2f8788117e7eff1d82e926ec794901d17c78024a50270940304540a733656f0d600080a48280611ee4565b346103105760206105f2611f5d3661201c565b906124c2565b34610310576020366003190112610310576004357fffffffff00000000000000000000000000000000000000000000000000000000811690818103610310577f4e2312e00000000000000000000000000000000000000000000000000000000060209214908115611ff1575b8115611fe1575b506040519015158152f35b611feb9150613603565b82611fd6565b9050611ffc81613603565b90611fcf565b346103105760003660031901126103105780601060209252f35b6040906003190112610310576004359060243590565b604435906001600160a01b038216820361031057565b602435906001600160a01b038216820361031057565b600435906001600160a01b038216820361031057565b6040810190811067ffffffffffffffff821117610ef757604052565b67ffffffffffffffff8111610ef757604052565b6080810190811067ffffffffffffffff821117610ef757604052565b6060810190811067ffffffffffffffff821117610ef757604052565b90601f8019910116810190811067ffffffffffffffff821117610ef757604052565b67ffffffffffffffff8111610ef75760051b60200190565b9080601f83011215610310576020908235612130816120fe565b9361213e60405195866120dc565b81855260208086019260051b82010192831161031057602001905b828210612167575050505090565b81358152908301908301612159565b91908260409103126103105760405161218e81612074565b6020808294803584520135910152565b9080601f8301121561031057604051916121b783612074565b82906040810192831161031057905b8282106121d35750505090565b81358152602091820191016121c6565b8082039291610160841261031057604090815192612200846120a4565b83956101009081811261031057608085519161221b836120c0565b6122258686612176565b8352603f19011261031057845161223b81612074565b6122478587860161219e565b8152612256856080860161219e565b6020820152602082015261226d8460c08501612176565b8582015285528101359267ffffffffffffffff841161031057612297610140936060958401612116565b6020860152610120820135908501520135910152565b60405160208101907f447670526f6c65000000000000000000000000000000000000000000000000008252600781526122e581612074565b51902090565b6000915b600283106122fc57505050565b6001908251815260208091019201920191906122ef565b6020604060e09282815180518752015183860152612348838083015161233c85890182516122eb565b015160808701906122eb565b0151805160c08501520151910152565b90815180825260208080930193019160005b828110612378575050505090565b83518552938101939281019260010161236a565b81601f820112156103105780359067ffffffffffffffff8211610ef757604051926123c1601f8401601f1916602001856120dc565b8284526020838301011161031057816000926020809301838601378301015290565b60095481101561122c5760096000527f6e1540171b6c0c960b71a7020d9f60077f6af931a8bbf590da0223dacf75c7af0190600090565b600a5481101561122c57600a6000527fc65a7bb8d6351c1cf70c95a316cc6a92839c986682d98bc35f958f4883f9d2a80190600090565b1561245857565b608460405162461bcd60e51b815260206004820152602260248201527f4d65726b6c653a204e756c6c69666965722063616e206e6f74206265207a657260448201527f6f2e0000000000000000000000000000000000000000000000000000000000006064820152fd5b6124cd821515612451565b60005260036020526040600020906000526020526040600020600160ff19825416179055600190565b9190820180921161079d57565b9190820391821161079d57565b80511561122c5760200190565b80516001101561122c5760400190565b805182101561122c5760209160051b010190565b805190612550826005546124f6565b9160049081549160ff8311612798576001948580941b111561278b575b90916005549261257d81856124f6565b60055560009384925b6125c6575b505050505061259990612510565b5180600655600854600052600b60205260406000209060005260205260406000209060ff19825416179055565b83548310156127865780871c9160008880841614612739575b905b8082106126155750505085840180851161260057918601919086612586565b601184634e487b7160e01b6000525260246000fd5b6000198101965090916000828811612726575086831015612710578883018084116126fb57612644908961252d565b51965b831480156126e7575b6126b2575b61267561266485838c1c612503565b9761266f858b61252d565b51612f48565b61267f888a61252d565b526002810180911161269d57916002810180911161269d57906125e1565b601186634e487b7160e01b6000525260246000fd5b6126e26126bf848a61252d565b516126c98761241a565b90919082549060031b91821b91600019901b1916179055565b612655565b5060011982018281116126fb578314612650565b601187634e487b7160e01b6000525260246000fd5b612719856123e3565b90549060031b1c96612647565b80601188634e487b7160e01b6024945252fd5b5094506127468280612503565b946127696127538561241a565b905461275e8a612510565b519160031b1c612f48565b612773878961252d565b52879188810180911161269d57916125df565b61258b565b6127936135e8565b61256d565b601190634e487b7160e01b6000525260246000fd5b906127b7826120fe565b6127c460405191826120dc565b82815280926127d5601f19916120fe565b0190602036910137565b6040810192916000915b600283106127f657505050565b6001908251815260208091019201920191906127e9565b90816020910312610310575180151581036103105790565b600019811461079d5760010190565b6000906040908181019182519384600602946006860403612e2057600194850190818611612e20578451906003918083029083820403612e3457820190818311612e205761288860608701928351906124f6565b968051918285029285840403612e20576005928301808411612e345784516128af916124f6565b9883810191828211612e2057506128e36128d26128cc855161359b565b846124f6565b926128dd85516130e6565b906124f6565b9160209a8b8b0198895151938414600014612db557505050505088928151815103612d745781518a8114159081612da9575b81612d9d575b50612d745789825114159081612d67575b81612d5a575b50612d31575b519081890192838a1161079d5761294f83856124f6565b9361295a84866124f6565b94600285149586612cd9575b50918b93918b989796959360005b858110612c2f57505050808203612a2457505050505050836129986129e59561398b565b506129d16001600160a01b036011541691519251928551968794859384936345c2f37f60e11b8552601060048601526024850190612313565b610140610124840152610144830190612358565b03915afa908115612a1a57506129fc575b50505b90565b81612a1292903d10611ad957611aca81836120dc565b5038806129f6565b513d6000823e3d90fd5b600495818703612a785750505050505093600f6129d195612a448361398b565b506129e56001600160a01b0360115416935194518751988996879586956345c2f37f60e11b87528601526024850190612313565b819a98959697999a14600014612adf575050505050600014612ad157918491600e6129d195946129e56001600160a01b0360115416935194518751988996879586956345c2f37f60e11b87528601526024850190612313565b835163a06bd62960e01b8152fd5b83819a99979a9896959814600014612b8457505003612b32575060026129d1956129e56001600160a01b0360115416935194518751988996879586956345c2f37f60e11b87528601526024850190612313565b90925015612b755784916129d1916001600160a01b036011541691519051956129e58651978895869485946345c2f37f60e11b8652808601526024850190612313565b50505163a06bd62960e01b8152fd5b9193509496979395506002915014612ba1575b5050505050505090565b600a03612c2157916129d19493918693612be46001600160a01b0360115416935194518751988996879586956345c2f37f60e11b87528601526024850190612313565b03915afa908115612a1a5750612c03575b505038808080808080612b97565b81612c1992903d10611ad957611aca81836120dc565b503880612bf5565b845163a06bd62960e01b8152fd5b9092949697989950612c4a8a96929496516106d483876124f6565b51612c61575b01918b9897969593918d9593612974565b90895182820180921161079d57612c7b82612c8b9261252d565b5161099e8c516106d486896124f6565b15612cc957612c9e612cae918b5161252d565b516109e38b516106d485876124f6565b612cb9578c90612c50565b60048a51632ec8265960e11b8152fd5b60048b51639dd854d360e01b8152fd5b8c612ce5828b5161252d565b51918a5191810180911161079d57612cfc9161252d565b5114612d085738612966565b600489517ffaaa05e9000000000000000000000000000000000000000000000000000000008152fd5b600486517f090d6454000000000000000000000000000000000000000000000000000000008152fd5b600a915051141538612932565b805160021415915061292c565b600487517f647ce72c000000000000000000000000000000000000000000000000000000008152fd5b600a915014153861291b565b60028114159150612915565b9496948303612dcb575050505050600291612938565b9395938203612def5750505083926002825103612d745784905103612d3157612938565b92945090918103612e04575050600491612938565b03612e10578091612938565b6004855163a06bd62960e01b8152fd5b80634e487b7160e01b602492526011600452fd5b602482634e487b7160e01b81526011600452fd5b9060009082825260026020526040822081835260205260ff604083205416612e9657604092612e78821515612451565b8252600260205282822090825260205220600160ff19825416179055565b608460405162461bcd60e51b815260206004820152602360248201527f4d65726b6c653a204e756c6c696669657220736c6f7420616c7265616479207360448201527f65742e00000000000000000000000000000000000000000000000000000000006064820152fd5b60005b838110612f135750506000910152565b8181015183820152602001612f03565b90602091612f3c81518092818552858086019101612f00565b601f01601f1916010190565b604051612f8d92602092612f5b83612074565b60403684378252828201526001600160a01b036000541660405180809581946314d2f97b60e11b8352600483016127df565b03915afa90811561122057600091612fa3575090565b90506020813d602011612fca575b81612fbe602093836120dc565b81010312610310575190565b3d9150612fb1565b90612fde811515612451565b600090828252602060028152604093848420838552825260ff85852054166130a357808452600382528484208385528252600160ff868620541615150361303a578352600381528383209183525220805460ff19169055600190565b60848286519062461bcd60e51b82526004820152602360248201527f4d65726b6c653a204e756c6c696669657220616c726561647920756e6c6f636b60448201527f65642e00000000000000000000000000000000000000000000000000000000006064820152fd5b60648286519062461bcd60e51b82526004820152601e60248201527f4d65726b6c653a204e756c6c696669657220616c7265616479207365742e00006044820152fd5b6001908060011b908082046002149015171561079d576001810180911161079d57905b6003820661312057506001810180911161079d5790565b908181018091116131315790613109565b60246000634e487b7160e01b81526011600452fd5b6131516105e66122ad565b61315b82826124c2565b506015547fc8eaa7dbe0dbc197d16b8865000145390f3f5d135c5cf66d7683e18527e83d97600080a4600190565b818110613194575050565b60008155600101613189565b906040516131ad81612074565b602060018294805484520154910152565b60405191906000835b600282106131dd575050506131db82612074565b565b60016020819285548152019301910190916131c7565b929091926132477fffffffffffffffffffffffff0000000000000000000000000000000000000000916001600160a01b0360009616838754161786556004948186553384600d541617600d55600c556127ad565b93845167ffffffffffffffff9081811161340157680100000000000000009081811161341457600a5481600a55808210613459575b506020809801600a8552845b8281106134275750505061329c86546127ad565b908151928311613414578211613401578690600954836009558084106133cb575b500160098352825b828110613399575050506009541561338657600981527f302a880eeac9ec8b02e876fea5cfd4947f3f87950cb04c9105f167aa346f5efa807f6e1540171b6c0c960b71a7020d9f60077f6af931a8bbf590da0223dacf75c7af559481955b855487101561334d576133458161333f6001936126c98b6123e3565b80612f48565b960195613323565b91929450604093955081600655816007556008548352600b81528383209183525220600160ff1982541617905533906001541617600155565b80603285634e487b7160e01b6024945252fd5b81517f6e1540171b6c0c960b71a7020d9f60077f6af931a8bbf590da0223dacf75c7af820155908701906001016132c5565b6133fb90847f6e1540171b6c0c960b71a7020d9f60077f6af931a8bbf590da0223dacf75c7af9182019101613189565b386132bd565b602483604188634e487b7160e01b835252fd5b602484604189634e487b7160e01b835252fd5b81517fc65a7bb8d6351c1cf70c95a316cc6a92839c986682d98bc35f958f4883f9d2a882015590890190600101613288565b61348990827fc65a7bb8d6351c1cf70c95a316cc6a92839c986682d98bc35f958f4883f9d2a89182019101613189565b3861327c565b61349b61191582612510565b516001600160a01b03908160105416926040938451936134ba85612074565b601354168452602092838501528451918383806134e56314d2f97b60e11b98898352600483016127df565b0381855afa9283156135905760009361355d575b50906135279484939287519361350e85612074565b84528484015286518096819482938352600483016127df565b03915afa928315612a1a575060009261353f57505090565b90809250813d8311613556575b612fbe81836120dc565b503d61354c565b9250908383813d8311613589575b61357581836120dc565b8101031261031057915191906135276134f9565b503d61356b565b86513d6000823e3d90fd5b6135a590806124f6565b6002810180911161079d575b600381066135c7576001810180911161079d5790565b60018101809111156135b15760246000634e487b7160e01b81526011600452fd5b60075460065560006005556135fe600854612825565b600855565b7fffffffff00000000000000000000000000000000000000000000000000000000167f7965db0b000000000000000000000000000000000000000000000000000000008114908115613653575090565b7f01ffc9a70000000000000000000000000000000000000000000000000000000091501490565b600090808252602091600e83526040936001600160a01b03858320911690818352845260ff8583205416156136b0575050505050565b8451926136bc846120c0565b602a84528484019086368337845115613977576030825384519260019360011015613963576078602187015360295b8481116138ec57506138aa57865192613703846120a4565b6042845286840194606036873784511561389657603086538451600110156138965790607860218601536041915b81831161382f575050506137ed576137e99386936137cd936137be6048946137899a519a8b957f416363657373436f6e74726f6c3a206163636f756e74200000000000000000008c8801525180926037880190612f00565b8401917f206973206d697373696e6720726f6c6520000000000000000000000000000000603784015251809386840190612f00565b010360288101875201856120dc565b5192839262461bcd60e51b845260048401526024830190612f23565b0390fd5b60648587519062461bcd60e51b825280600483015260248201527f537472696e67733a20686578206c656e67746820696e73756666696369656e746044820152fd5b909192600f81166010811015613882577f3031323334353637383961626364656600000000000000000000000000000000901a61386c8588613d6c565b5360041c928015612e3457600019019190613731565b602483634e487b7160e01b81526032600452fd5b80634e487b7160e01b602492526032600452fd5b60648688519062461bcd60e51b825280600483015260248201527f537472696e67733a20686578206c656e67746820696e73756666696369656e746044820152fd5b90600f8116601081101561394f577f3031323334353637383961626364656600000000000000000000000000000000901a6139278389613d6c565b5360041c90801561393b57600019016136eb565b602486634e487b7160e01b81526011600452fd5b602487634e487b7160e01b81526032600452fd5b602485634e487b7160e01b81526032600452fd5b602484634e487b7160e01b81526032600452fd5b60409081519061399a82612074565b823683378281015160038102908082046003149015171561079d5760608201516139c3916124f6565b91600183019182841161079d576020600291016139e184825161252d565b51835251930180921161079d576139fd602092613a419461252d565b51828201526001600160a01b0360125416845180809581947f8ee9cb45000000000000000000000000000000000000000000000000000000008352600483016127df565b03915afa908115613aa857600091613a89575b5015613a605750600190565b600490517fa46f9ded000000000000000000000000000000000000000000000000000000008152fd5b613aa2915060203d602011611ad957611aca81836120dc565b38613a54565b82513d6000823e3d90fd5b90600091808352600e6020526001600160a01b036040842092169182845260205260ff604084205416613ae557505050565b808352600e602052604083208284526020526040832060ff1981541690557ff6391f5c32d9c69d2a47ea670b442974b53935d1edc7fd64eb21e047a839171b339380a4565b6040810151906060810151906001926001600160ff1b038116810361079d5780841b84019081851161079d57613b5f916124f6565b916000908460005b828110613bf25750505090613b7b826127ad565b9260009185601554935b858110613b9b575050505050506129f990612541565b613bad60208401516106d483876124f6565b51613bb8828961252d565b52613bc3818861252d565b51857f28ec6d3cf0e771d5a8b44b29744de77a87c1301f68127019d5049968253913b4600080a3018690613b85565b613c0460208601516106d483896124f6565b51613c12575b018590613b67565b92613c1c90612825565b92613c0a565b906000916000906040808201519160019383850192838611612e34576001600160ff1b0385168503612e345784861b860192838711613d5857825b868110613c6e575050505050505050565b6020808301908151838b0190818c11613d44578b94939291613c8f9161252d565b5190613cb0613ca384516106d4878d6124f6565b5193516106d4868d6124f6565b51613cbf575b50505001613c5d565b81885260038152868820838952905285872054929350909160ff16613d1b579081613cec828c9594612e48565b6015547f437885c05eacc89ce854c46fbeb8290d4c624ea6b561c7a784d86bb5369b2ea38880a4388080613cb6565b600485517f29eaaf85000000000000000000000000000000000000000000000000000000008152fd5b602488634e487b7160e01b81526011600452fd5b602483634e487b7160e01b81526011600452fd5b90815181101561122c57016020019056fea264697066735822122032f010cad7d7721cb3a163daacb3827bb15c4fdf5cee6045ae73457c7774e60764736f6c634300081800332f8788117e7eff1d82e926ec794901d17c78024a50270940304540a733656f0d",
  "linkReferences": {},
  "deployedLinkReferences": {}
}