{
  "_format": "hh-sol-artifact-1",
  "contractName": "Erc20CoinVault",
  "sourceName": "contracts/core/contracts/vaults/Erc20CoinVault.sol",
  "abi": [
    {
      "inputs": [
        {
          "internalType": "address",
          "name": "zkDvpContractAddress",
          "type": "address"
        }
      ],
      "stateMutability": "nonpayable",
      "type": "constructor"
    },
    {
      "inputs": [],
      "name": "CantSpendLockedCoin",
      "type": "error"
    },
    {
      "inputs": [],
      "name": "CoinAlreadyUnlocked",
      "type": "error"
    },
    {
      "inputs": [],
      "name": "FungibilityMismatch",
      "type": "error"
    },
    {
      "inputs": [],
      "name": "InvalidAuditorPublicKey",
      "type": "error"
    },
    {
      "inputs": [],
      "name": "InvalidErc1155BatchTransfer",
      "type": "error"
    },
    {
      "inputs": [],
      "name": "InvalidErc1155Transfer",
      "type": "error"
    },
    {
      "inputs": [],
      "name": "InvalidErc20Transfer",
      "type": "error"
    },
    {
      "inputs": [],
      "name": "InvalidErc721Transfer",
      "type": "error"
    },
    {
      "inputs": [],
      "name": "InvalidMerkleRoot",
      "type": "error"
    },
    {
      "inputs": [],
      "name": "InvalidNullifier",
      "type": "error"
    },
    {
      "inputs": [],
      "name": "InvalidNumberOfInputs",
      "type": "error"
    },
    {
      "inputs": [],
      "name": "InvalidNumberOfOutputs",
      "type": "error"
    },
    {
      "inputs": [],
      "name": "InvalidOpening",
      "type": "error"
    },
    {
      "inputs": [],
      "name": "InvalidStatmentSize",
      "type": "error"
    },
    {
      "inputs": [],
      "name": "JoinSplitWithSameCommitments",
      "type": "error"
    },
    {
      "inputs": [],
      "name": "NotImplemented",
      "type": "error"
    },
    {
      "inputs": [],
      "name": "ProofReceiptAlreadyAdded",
      "type": "error"
    },
    {
      "inputs": [],
      "name": "RottenChallenge",
      "type": "error"
    },
    {
      "inputs": [],
      "name": "WrongNumberOfIdentifiers",
      "type": "error"
    },
    {
      "anonymous": false,
      "inputs": [
        {
          "indexed": true,
          "internalType": "uint256",
          "name": "vaultId",
          "type": "uint256"
        },
        {
          "indexed": true,
          "internalType": "uint256",
          "name": "treeNumber",
          "type": "uint256"
        },
        {
          "indexed": true,
          "internalType": "uint256",
          "name": "nullifier",
          "type": "uint256"
        }
      ],
      "name": "CoinLocked",
      "type": "event"
    },
    {
      "anonymous": false,
      "inputs": [
        {
          "indexed": true,
          "internalType": "uint256",
          "name": "vaultId",
          "type": "uint256"
        },
        {
          "indexed": true,
          "internalType": "uint256",
          "name": "treeNumber",
          "type": "uint256"
        },
        {
          "indexed": true,
          "internalType": "uint256",
          "name": "nullifier",
          "type": "uint256"
        }
      ],
      "name": "CoinUnlocked",
      "type": "event"
    },
    {
      "anonymous": false,
      "inputs": [
        {
          "indexed": true,
          "internalType": "uint256",
          "name": "vaultId",
          "type": "uint256"
        },
        {
          "indexed": true,
          "internalType": "uint256",
          "name": "commitment",
          "type": "uint256"
        }
      ],
      "name": "Commitment",
      "type": "event"
    },
    {
      "anonymous": false,
      "inputs": [
        {
          "indexed": true,
          "internalType": "uint256",
          "name": "vaultId",
          "type": "uint256"
        },
        {
          "indexed": true,
          "internalType": "uint256",
          "name": "commitment",
          "type": "uint256"
        },
        {
          "indexed": false,
          "internalType": "bytes",
          "name": "ciphertextI",
          "type": "bytes"
        },
        {
          "indexed": false,
          "internalType": "bytes",
          "name": "ciphertextII",
          "type": "bytes"
        }
      ],
      "name": "EncryptedNote",
      "type": "event"
    },
    {
      "anonymous": false,
      "inputs": [
        {
          "indexed": true,
          "internalType": "uint256",
          "name": "vaultId",
          "type": "uint256"
        },
        {
          "indexed": true,
          "internalType": "uint256",
          "name": "treeNumber",
          "type": "uint256"
        },
        {
          "indexed": true,
          "internalType": "uint256",
          "name": "nullifier",
          "type": "uint256"
        }
      ],
      "name": "Nullifier",
      "type": "event"
    },
    {
      "anonymous": false,
      "inputs": [
        {
          "indexed": true,
          "internalType": "uint256",
          "name": "challenge",
          "type": "uint256"
        },
        {
          "indexed": true,
          "internalType": "uint256",
          "name": "vaultId",
          "type": "uint256"
        },
        {
          "indexed": true,
          "internalType": "uint256",
          "name": "tokenId",
          "type": "uint256"
        },
        {
          "indexed": false,
          "internalType": "uint256",
          "name": "amount",
          "type": "uint256"
        }
      ],
      "name": "OwnershipVerificationReceipt",
      "type": "event"
    },
    {
      "anonymous": false,
      "inputs": [
        {
          "components": [
            {
              "components": [
                {
                  "components": [
                    {
                      "internalType": "uint256",
                      "name": "x",
                      "type": "uint256"
                    },
                    {
                      "internalType": "uint256",
                      "name": "y",
                      "type": "uint256"
                    }
                  ],
                  "internalType": "struct IEnygmaDvp.G1Point",
                  "name": "a",
                  "type": "tuple"
                },
                {
                  "components": [
                    {
                      "internalType": "uint256[2]",
                      "name": "x",
                      "type": "uint256[2]"
                    },
                    {
                      "internalType": "uint256[2]",
                      "name": "y",
                      "type": "uint256[2]"
                    }
                  ],
                  "internalType": "struct IEnygmaDvp.G2Point",
                  "name": "b",
                  "type": "tuple"
                },
                {
                  "components": [
                    {
                      "internalType": "uint256",
                      "name": "x",
                      "type": "uint256"
                    },
                    {
                      "internalType": "uint256",
                      "name": "y",
                      "type": "uint256"
                    }
                  ],
                  "internalType": "struct IEnygmaDvp.G1Point",
                  "name": "c",
                  "type": "tuple"
                }
              ],
              "internalType": "struct IEnygmaDvp.SnarkProof",
              "name": "proof",
              "type": "tuple"
            },
            {
              "internalType": "uint256[]",
              "name": "statement",
              "type": "uint256[]"
            },
            {
              "internalType": "uint256",
              "name": "numberOfInputs",
              "type": "uint256"
            },
            {
              "internalType": "uint256",
              "name": "numberOfOutputs",
              "type": "uint256"
            }
          ],
          "indexed": false,
          "internalType": "struct IEnygmaDvp.ProofReceipt",
          "name": "pendingProof",
          "type": "tuple"
        }
      ],
      "name": "PendingProofAdded",
      "type": "event"
    },
    {
      "anonymous": false,
      "inputs": [
        {
          "indexed": true,
          "internalType": "bytes32",
          "name": "role",
          "type": "bytes32"
        },
        {
          "indexed": true,
          "internalType": "bytes32",
          "name": "previousAdminRole",
          "type": "bytes32"
        },
        {
          "indexed": true,
          "internalType": "bytes32",
          "name": "newAdminRole",
          "type": "bytes32"
        }
      ],
      "name": "RoleAdminChanged",
      "type": "event"
    },
    {
      "anonymous": false,
      "inputs": [
        {
          "indexed": true,
          "internalType": "bytes32",
          "name": "role",
          "type": "bytes32"
        },
        {
          "indexed": true,
          "internalType": "address",
          "name": "account",
          "type": "address"
        },
        {
          "indexed": true,
          "internalType": "address",
          "name": "sender",
          "type": "address"
        }
      ],
      "name": "RoleGranted",
      "type": "event"
    },
    {
      "anonymous": false,
      "inputs": [
        {
          "indexed": true,
          "internalType": "bytes32",
          "name": "role",
          "type": "bytes32"
        },
        {
          "indexed": true,
          "internalType": "address",
          "name": "account",
          "type": "address"
        },
        {
          "indexed": true,
          "internalType": "address",
          "name": "sender",
          "type": "address"
        }
      ],
      "name": "RoleRevoked",
      "type": "event"
    },
    {
      "inputs": [],
      "name": "DEFAULT_ADMIN_ROLE",
      "outputs": [
        {
          "internalType": "bytes32",
          "name": "",
          "type": "bytes32"
        }
      ],
      "stateMutability": "view",
      "type": "function"
    },
    {
      "inputs": [],
      "name": "DEFAULT_AUCTION_ROLE",
      "outputs": [
        {
          "internalType": "bytes32",
          "name": "",
          "type": "bytes32"
        }
      ],
      "stateMutability": "view",
      "type": "function"
    },
    {
      "inputs": [],
      "name": "DEFAULT_DVP_ROLE",
      "outputs": [
        {
          "internalType": "bytes32",
          "name": "",
          "type": "bytes32"
        }
      ],
      "stateMutability": "view",
      "type": "function"
    },
    {
      "inputs": [],
      "name": "DEFAULT_OWNER_ROLE",
      "outputs": [
        {
          "internalType": "bytes32",
          "name": "",
          "type": "bytes32"
        }
      ],
      "stateMutability": "view",
      "type": "function"
    },
    {
      "inputs": [],
      "name": "VK_ID_DVP_INITIATOR",
      "outputs": [
        {
          "internalType": "uint256",
          "name": "",
          "type": "uint256"
        }
      ],
      "stateMutability": "view",
      "type": "function"
    },
    {
      "inputs": [],
      "name": "VK_ID_ERC20_10INPUT",
      "outputs": [
        {
          "internalType": "uint256",
          "name": "",
          "type": "uint256"
        }
      ],
      "stateMutability": "view",
      "type": "function"
    },
    {
      "inputs": [],
      "name": "VK_ID_ERC20_JOINSPLIT",
      "outputs": [
        {
          "internalType": "uint256",
          "name": "",
          "type": "uint256"
        }
      ],
      "stateMutability": "view",
      "type": "function"
    },
    {
      "inputs": [],
      "name": "ZERO_VALUE",
      "outputs": [
        {
          "internalType": "uint256",
          "name": "",
          "type": "uint256"
        }
      ],
      "stateMutability": "view",
      "type": "function"
    },
    {
      "inputs": [
        {
          "components": [
            {
              "components": [
                {
                  "components": [
                    {
                      "internalType": "uint256",
                      "name": "x",
                      "type": "uint256"
                    },
                    {
                      "internalType": "uint256",
                      "name": "y",
                      "type": "uint256"
                    }
                  ],
                  "internalType": "struct IEnygmaDvp.G1Point",
                  "name": "a",
                  "type": "tuple"
                },
                {
                  "components": [
                    {
                      "internalType": "uint256[2]",
                      "name": "x",
                      "type": "uint256[2]"
                    },
                    {
                      "internalType": "uint256[2]",
                      "name": "y",
                      "type": "uint256[2]"
                    }
                  ],
                  "internalType": "struct IEnygmaDvp.G2Point",
                  "name": "b",
                  "type": "tuple"
                },
                {
                  "components": [
                    {
                      "internalType": "uint256",
                      "name": "x",
                      "type": "uint256"
                    },
                    {
                      "internalType": "uint256",
                      "name": "y",
                      "type": "uint256"
                    }
                  ],
                  "internalType": "struct IEnygmaDvp.G1Point",
                  "name": "c",
                  "type": "tuple"
                }
              ],
              "internalType": "struct IEnygmaDvp.SnarkProof",
              "name": "proof",
              "type": "tuple"
            },
            {
              "internalType": "uint256[]",
              "name": "statement",
              "type": "uint256[]"
            },
            {
              "internalType": "uint256",
              "name": "numberOfInputs",
              "type": "uint256"
            },
            {
              "internalType": "uint256",
              "name": "numberOfOutputs",
              "type": "uint256"
            }
          ],
          "internalType": "struct IEnygmaDvp.ProofReceipt",
          "name": "receipt",
          "type": "tuple"
        }
      ],
      "name": "addPendingProofReceipt",
      "outputs": [
        {
          "internalType": "bool",
          "name": "",
          "type": "bool"
        }
      ],
      "stateMutability": "nonpayable",
      "type": "function"
    },
    {
      "inputs": [
        {
          "components": [
            {
              "components": [
                {
                  "components": [
                    {
                      "internalType": "uint256",
                      "name": "x",
                      "type": "uint256"
                    },
                    {
                      "internalType": "uint256",
                      "name": "y",
                      "type": "uint256"
                    }
                  ],
                  "internalType": "struct IEnygmaDvp.G1Point",
                  "name": "a",
                  "type": "tuple"
                },
                {
                  "components": [
                    {
                      "internalType": "uint256[2]",
                      "name": "x",
                      "type": "uint256[2]"
                    },
                    {
                      "internalType": "uint256[2]",
                      "name": "y",
                      "type": "uint256[2]"
                    }
                  ],
                  "internalType": "struct IEnygmaDvp.G2Point",
                  "name": "b",
                  "type": "tuple"
                },
                {
                  "components": [
                    {
                      "internalType": "uint256",
                      "name": "x",
                      "type": "uint256"
                    },
                    {
                      "internalType": "uint256",
                      "name": "y",
                      "type": "uint256"
                    }
                  ],
                  "internalType": "struct IEnygmaDvp.G1Point",
                  "name": "c",
                  "type": "tuple"
                }
              ],
              "internalType": "struct IEnygmaDvp.SnarkProof",
              "name": "proof",
              "type": "tuple"
            },
            {
              "internalType": "uint256[]",
              "name": "statement",
              "type": "uint256[]"
            },
            {
              "internalType": "uint256",
              "name": "numberOfInputs",
              "type": "uint256"
            },
            {
              "internalType": "uint256",
              "name": "numberOfOutputs",
              "type": "uint256"
            }
          ],
          "internalType": "struct IEnygmaDvp.ProofReceipt",
          "name": "receipt",
          "type": "tuple"
        }
      ],
      "name": "checkReceiptConditions",
      "outputs": [
        {
          "internalType": "bool",
          "name": "",
          "type": "bool"
        }
      ],
      "stateMutability": "view",
      "type": "function"
    },
    {
      "inputs": [
        {
          "components": [
            {
              "components": [
                {
                  "components": [
                    {
                      "internalType": "uint256",
                      "name": "x",
                      "type": "uint256"
                    },
                    {
                      "internalType": "uint256",
                      "name": "y",
                      "type": "uint256"
                    }
                  ],
                  "internalType": "struct IEnygmaDvp.G1Point",
                  "name": "a",
                  "type": "tuple"
                },
                {
                  "components": [
                    {
                      "internalType": "uint256[2]",
                      "name": "x",
                      "type": "uint256[2]"
                    },
                    {
                      "internalType": "uint256[2]",
                      "name": "y",
                      "type": "uint256[2]"
                    }
                  ],
                  "internalType": "struct IEnygmaDvp.G2Point",
                  "name": "b",
                  "type": "tuple"
                },
                {
                  "components": [
                    {
                      "internalType": "uint256",
                      "name": "x",
                      "type": "uint256"
                    },
                    {
                      "internalType": "uint256",
                      "name": "y",
                      "type": "uint256"
                    }
                  ],
                  "internalType": "struct IEnygmaDvp.G1Point",
                  "name": "c",
                  "type": "tuple"
                }
              ],
              "internalType": "struct IEnygmaDvp.SnarkProof",
              "name": "proof",
              "type": "tuple"
            },
            {
              "internalType": "uint256[]",
              "name": "statement",
              "type": "uint256[]"
            },
            {
              "internalType": "uint256",
              "name": "numberOfInputs",
              "type": "uint256"
            },
            {
              "internalType": "uint256",
              "name": "numberOfOutputs",
              "type": "uint256"
            }
          ],
          "internalType": "struct IEnygmaDvp.ProofReceipt",
          "name": "receipt",
          "type": "tuple"
        }
      ],
      "name": "checkRegisterBrokerProofConditions",
      "outputs": [
        {
          "internalType": "bool",
          "name": "",
          "type": "bool"
        }
      ],
      "stateMutability": "nonpayable",
      "type": "function"
    },
    {
      "inputs": [],
      "name": "currentRoot",
      "outputs": [
        {
          "internalType": "uint256",
          "name": "",
          "type": "uint256"
        }
      ],
      "stateMutability": "view",
      "type": "function"
    },
    {
      "inputs": [
        {
          "internalType": "uint256[]",
          "name": "params",
          "type": "uint256[]"
        }
      ],
      "name": "deposit",
      "outputs": [
        {
          "internalType": "bool",
          "name": "",
          "type": "bool"
        }
      ],
      "stateMutability": "nonpayable",
      "type": "function"
    },
    {
      "inputs": [
        {
          "internalType": "uint256[]",
          "name": "params",
          "type": "uint256[]"
        },
        {
          "internalType": "bytes",
          "name": "ciphertextI",
          "type": "bytes"
        },
        {
          "internalType": "bytes",
          "name": "ciphertextII",
          "type": "bytes"
        }
      ],
      "name": "depositV2",
      "outputs": [
        {
          "internalType": "bool",
          "name": "",
          "type": "bool"
        }
      ],
      "stateMutability": "nonpayable",
      "type": "function"
    },
    {
      "inputs": [
        {
          "internalType": "uint256[]",
          "name": "params",
          "type": "uint256[]"
        }
      ],
      "name": "generateUniqueId",
      "outputs": [
        {
          "internalType": "uint256",
          "name": "",
          "type": "uint256"
        }
      ],
      "stateMutability": "view",
      "type": "function"
    },
    {
      "inputs": [],
      "name": "getAssetContractAddress",
      "outputs": [
        {
          "internalType": "address",
          "name": "",
          "type": "address"
        }
      ],
      "stateMutability": "view",
      "type": "function"
    },
    {
      "inputs": [],
      "name": "getHashContractAddress",
      "outputs": [
        {
          "internalType": "address",
          "name": "",
          "type": "address"
        }
      ],
      "stateMutability": "view",
      "type": "function"
    },
    {
      "inputs": [],
      "name": "getNumberOfAssetIdentifiers",
      "outputs": [
        {
          "internalType": "uint256",
          "name": "",
          "type": "uint256"
        }
      ],
      "stateMutability": "view",
      "type": "function"
    },
    {
      "inputs": [
        {
          "internalType": "uint256",
          "name": "proofUniqueId",
          "type": "uint256"
        }
      ],
      "name": "getPendingProofReceipt",
      "outputs": [
        {
          "components": [
            {
              "components": [
                {
                  "components": [
                    {
                      "internalType": "uint256",
                      "name": "x",
                      "type": "uint256"
                    },
                    {
                      "internalType": "uint256",
                      "name": "y",
                      "type": "uint256"
                    }
                  ],
                  "internalType": "struct IEnygmaDvp.G1Point",
                  "name": "a",
                  "type": "tuple"
                },
                {
                  "components": [
                    {
                      "internalType": "uint256[2]",
                      "name": "x",
                      "type": "uint256[2]"
                    },
                    {
                      "internalType": "uint256[2]",
                      "name": "y",
                      "type": "uint256[2]"
                    }
                  ],
                  "internalType": "struct IEnygmaDvp.G2Point",
                  "name": "b",
                  "type": "tuple"
                },
                {
                  "components": [
                    {
                      "internalType": "uint256",
                      "name": "x",
                      "type": "uint256"
                    },
                    {
                      "internalType": "uint256",
                      "name": "y",
                      "type": "uint256"
                    }
                  ],
                  "internalType": "struct IEnygmaDvp.G1Point",
                  "name": "c",
                  "type": "tuple"
                }
              ],
              "internalType": "struct IEnygmaDvp.SnarkProof",
              "name": "proof",
              "type": "tuple"
            },
            {
              "internalType": "uint256[]",
              "name": "statement",
              "type": "uint256[]"
            },
            {
              "internalType": "uint256",
              "name": "numberOfInputs",
              "type": "uint256"
            },
            {
              "internalType": "uint256",
              "name": "numberOfOutputs",
              "type": "uint256"
            }
          ],
          "internalType": "struct IEnygmaDvp.ProofReceipt",
          "name": "proofReceipt",
          "type": "tuple"
        }
      ],
      "stateMutability": "nonpayable",
      "type": "function"
    },
    {
      "inputs": [
        {
          "internalType": "bytes32",
          "name": "role",
          "type": "bytes32"
        }
      ],
      "name": "getRoleAdmin",
      "outputs": [
        {
          "internalType": "bytes32",
          "name": "",
          "type": "bytes32"
        }
      ],
      "stateMutability": "view",
      "type": "function"
    },
    {
      "inputs": [],
      "name": "getRoot",
      "outputs": [
        {
          "internalType": "uint256",
          "name": "root",
          "type": "uint256"
        }
      ],
      "stateMutability": "view",
      "type": "function"
    },
    {
      "inputs": [],
      "name": "getTreeId",
      "outputs": [
        {
          "internalType": "uint256",
          "name": "",
          "type": "uint256"
        }
      ],
      "stateMutability": "view",
      "type": "function"
    },
    {
      "inputs": [],
      "name": "getVaultId",
      "outputs": [
        {
          "internalType": "uint256",
          "name": "",
          "type": "uint256"
        }
      ],
      "stateMutability": "view",
      "type": "function"
    },
    {
      "inputs": [],
      "name": "getVerifierContractAddress",
      "outputs": [
        {
          "internalType": "address",
          "name": "",
          "type": "address"
        }
      ],
      "stateMutability": "view",
      "type": "function"
    },
    {
      "inputs": [
        {
          "internalType": "bytes32",
          "name": "role",
          "type": "bytes32"
        },
        {
          "internalType": "address",
          "name": "account",
          "type": "address"
        }
      ],
      "name": "grantRole",
      "outputs": [],
      "stateMutability": "nonpayable",
      "type": "function"
    },
    {
      "inputs": [
        {
          "internalType": "bytes32",
          "name": "role",
          "type": "bytes32"
        },
        {
          "internalType": "address",
          "name": "account",
          "type": "address"
        }
      ],
      "name": "hasRole",
      "outputs": [
        {
          "internalType": "bool",
          "name": "",
          "type": "bool"
        }
      ],
      "stateMutability": "view",
      "type": "function"
    },
    {
      "inputs": [
        {
          "internalType": "uint256",
          "name": "_left",
          "type": "uint256"
        },
        {
          "internalType": "uint256",
          "name": "_right",
          "type": "uint256"
        }
      ],
      "name": "hashLeftRight",
      "outputs": [
        {
          "internalType": "uint256",
          "name": "",
          "type": "uint256"
        }
      ],
      "stateMutability": "view",
      "type": "function"
    },
    {
      "inputs": [
        {
          "internalType": "uint256",
          "name": "_treeDepth",
          "type": "uint256"
        },
        {
          "internalType": "uint256",
          "name": "_treeId",
          "type": "uint256"
        },
        {
          "internalType": "address",
          "name": "_poseidonWrapperAddress",
          "type": "address"
        }
      ],
      "name": "initializeMerkle",
      "outputs": [],
      "stateMutability": "nonpayable",
      "type": "function"
    },
    {
      "inputs": [
        {
          "internalType": "uint256",
          "name": "vaultId",
          "type": "uint256"
        },
        {
          "internalType": "uint256",
          "name": "numberOfAssetIdentifiers",
          "type": "uint256"
        },
        {
          "internalType": "address",
          "name": "assetContractAddress",
          "type": "address"
        },
        {
          "internalType": "uint256",
          "name": "treeDepth",
          "type": "uint256"
        },
        {
          "internalType": "address",
          "name": "hashContractAddress",
          "type": "address"
        },
        {
          "internalType": "address",
          "name": "verifierContractAddress",
          "type": "address"
        },
        {
          "internalType": "address",
          "name": "zkAuctionContractAddress",
          "type": "address"
        }
      ],
      "name": "initializeVault",
      "outputs": [
        {
          "internalType": "bool",
          "name": "",
          "type": "bool"
        }
      ],
      "stateMutability": "nonpayable",
      "type": "function"
    },
    {
      "inputs": [
        {
          "components": [
            {
              "components": [
                {
                  "components": [
                    {
                      "internalType": "uint256",
                      "name": "x",
                      "type": "uint256"
                    },
                    {
                      "internalType": "uint256",
                      "name": "y",
                      "type": "uint256"
                    }
                  ],
                  "internalType": "struct IEnygmaDvp.G1Point",
                  "name": "a",
                  "type": "tuple"
                },
                {
                  "components": [
                    {
                      "internalType": "uint256[2]",
                      "name": "x",
                      "type": "uint256[2]"
                    },
                    {
                      "internalType": "uint256[2]",
                      "name": "y",
                      "type": "uint256[2]"
                    }
                  ],
                  "internalType": "struct IEnygmaDvp.G2Point",
                  "name": "b",
                  "type": "tuple"
                },
                {
                  "components": [
                    {
                      "internalType": "uint256",
                      "name": "x",
                      "type": "uint256"
                    },
                    {
                      "internalType": "uint256",
                      "name": "y",
                      "type": "uint256"
                    }
                  ],
                  "internalType": "struct IEnygmaDvp.G1Point",
                  "name": "c",
                  "type": "tuple"
                }
              ],
              "internalType": "struct IEnygmaDvp.SnarkProof",
              "name": "proof",
              "type": "tuple"
            },
            {
              "internalType": "uint256[]",
              "name": "statement",
              "type": "uint256[]"
            },
            {
              "internalType": "uint256",
              "name": "numberOfInputs",
              "type": "uint256"
            },
            {
              "internalType": "uint256",
              "name": "numberOfOutputs",
              "type": "uint256"
            }
          ],
          "internalType": "struct IEnygmaDvp.ProofReceipt",
          "name": "receipt",
          "type": "tuple"
        }
      ],
      "name": "insertCommitmentsFromReceipt",
      "outputs": [
        {
          "internalType": "bool",
          "name": "",
          "type": "bool"
        }
      ],
      "stateMutability": "nonpayable",
      "type": "function"
    },
    {
      "inputs": [
        {
          "internalType": "uint256[]",
          "name": "_leafHashes",
          "type": "uint256[]"
        }
      ],
      "name": "insertLeaves",
      "outputs": [],
      "stateMutability": "nonpayable",
      "type": "function"
    },
    {
      "inputs": [
        {
          "internalType": "uint256",
          "name": "_treeNumber",
          "type": "uint256"
        },
        {
          "internalType": "uint256",
          "name": "_nullifierId",
          "type": "uint256"
        }
      ],
      "name": "isLocked",
      "outputs": [
        {
          "internalType": "bool",
          "name": "",
          "type": "bool"
        }
      ],
      "stateMutability": "nonpayable",
      "type": "function"
    },
    {
      "inputs": [
        {
          "internalType": "uint256",
          "name": "_treeNumber",
          "type": "uint256"
        },
        {
          "internalType": "uint256",
          "name": "_nullifierId",
          "type": "uint256"
        }
      ],
      "name": "isValidNullifier",
      "outputs": [
        {
          "internalType": "bool",
          "name": "",
          "type": "bool"
        }
      ],
      "stateMutability": "view",
      "type": "function"
    },
    {
      "inputs": [
        {
          "internalType": "uint256",
          "name": "_treeNumber",
          "type": "uint256"
        },
        {
          "internalType": "uint256",
          "name": "_merkleRoot",
          "type": "uint256"
        }
      ],
      "name": "isValidRoot",
      "outputs": [
        {
          "internalType": "bool",
          "name": "",
          "type": "bool"
        }
      ],
      "stateMutability": "view",
      "type": "function"
    },
    {
      "inputs": [
        {
          "internalType": "uint256",
          "name": "_treeNumber",
          "type": "uint256"
        },
        {
          "internalType": "uint256",
          "name": "_nullifierId",
          "type": "uint256"
        }
      ],
      "name": "lock",
      "outputs": [
        {
          "internalType": "bool",
          "name": "",
          "type": "bool"
        }
      ],
      "stateMutability": "nonpayable",
      "type": "function"
    },
    {
      "inputs": [
        {
          "internalType": "uint256",
          "name": "treeNumber",
          "type": "uint256"
        },
        {
          "internalType": "uint256",
          "name": "nullifier",
          "type": "uint256"
        }
      ],
      "name": "lockCoin",
      "outputs": [
        {
          "internalType": "bool",
          "name": "",
          "type": "bool"
        }
      ],
      "stateMutability": "nonpayable",
      "type": "function"
    },
    {
      "inputs": [
        {
          "internalType": "uint256",
          "name": "",
          "type": "uint256"
        },
        {
          "internalType": "uint256",
          "name": "",
          "type": "uint256"
        }
      ],
      "name": "lockedNullifiers",
      "outputs": [
        {
          "internalType": "bool",
          "name": "",
          "type": "bool"
        }
      ],
      "stateMutability": "view",
      "type": "function"
    },
    {
      "inputs": [],
      "name": "merkleRoot",
      "outputs": [
        {
          "internalType": "uint256",
          "name": "",
          "type": "uint256"
        }
      ],
      "stateMutability": "view",
      "type": "function"
    },
    {
      "inputs": [],
      "name": "newTree",
      "outputs": [],
      "stateMutability": "nonpayable",
      "type": "function"
    },
    {
      "inputs": [
        {
          "internalType": "uint256",
          "name": "",
          "type": "uint256"
        },
        {
          "internalType": "uint256",
          "name": "",
          "type": "uint256"
        }
      ],
      "name": "nullifiers",
      "outputs": [
        {
          "internalType": "bool",
          "name": "",
          "type": "bool"
        }
      ],
      "stateMutability": "view",
      "type": "function"
    },
    {
      "inputs": [
        {
          "internalType": "uint256",
          "name": "treeNumber",
          "type": "uint256"
        },
        {
          "internalType": "uint256",
          "name": "nullifier",
          "type": "uint256"
        }
      ],
      "name": "nullifyCoin",
      "outputs": [
        {
          "internalType": "bool",
          "name": "",
          "type": "bool"
        }
      ],
      "stateMutability": "nonpayable",
      "type": "function"
    },
    {
      "inputs": [
        {
          "components": [
            {
              "components": [
                {
                  "components": [
                    {
                      "internalType": "uint256",
                      "name": "x",
                      "type": "uint256"
                    },
                    {
                      "internalType": "uint256",
                      "name": "y",
                      "type": "uint256"
                    }
                  ],
                  "internalType": "struct IEnygmaDvp.G1Point",
                  "name": "a",
                  "type": "tuple"
                },
                {
                  "components": [
                    {
                      "internalType": "uint256[2]",
                      "name": "x",
                      "type": "uint256[2]"
                    },
                    {
                      "internalType": "uint256[2]",
                      "name": "y",
                      "type": "uint256[2]"
                    }
                  ],
                  "internalType": "struct IEnygmaDvp.G2Point",
                  "name": "b",
                  "type": "tuple"
                },
                {
                  "components": [
                    {
                      "internalType": "uint256",
                      "name": "x",
                      "type": "uint256"
                    },
                    {
                      "internalType": "uint256",
                      "name": "y",
                      "type": "uint256"
                    }
                  ],
                  "internalType": "struct IEnygmaDvp.G1Point",
                  "name": "c",
                  "type": "tuple"
                }
              ],
              "internalType": "struct IEnygmaDvp.SnarkProof",
              "name": "proof",
              "type": "tuple"
            },
            {
              "internalType": "uint256[]",
              "name": "statement",
              "type": "uint256[]"
            },
            {
              "internalType": "uint256",
              "name": "numberOfInputs",
              "type": "uint256"
            },
            {
              "internalType": "uint256",
              "name": "numberOfOutputs",
              "type": "uint256"
            }
          ],
          "internalType": "struct IEnygmaDvp.ProofReceipt",
          "name": "receipt",
          "type": "tuple"
        }
      ],
      "name": "nullifyFromReceipt",
      "outputs": [
        {
          "internalType": "bool",
          "name": "",
          "type": "bool"
        }
      ],
      "stateMutability": "nonpayable",
      "type": "function"
    },
    {
      "inputs": [],
      "name": "poseidonWrapperAddress",
      "outputs": [
        {
          "internalType": "address",
          "name": "",
          "type": "address"
        }
      ],
      "stateMutability": "view",
      "type": "function"
    },
    {
      "inputs": [
        {
          "internalType": "uint256[]",
          "name": "commitments",
          "type": "uint256[]"
        }
      ],
      "name": "registerCoins",
      "outputs": [
        {
          "internalType": "bool",
          "name": "",
          "type": "bool"
        }
      ],
      "stateMutability": "nonpayable",
      "type": "function"
    },
    {
      "inputs": [
        {
          "internalType": "bytes32",
          "name": "role",
          "type": "bytes32"
        },
        {
          "internalType": "address",
          "name": "account",
          "type": "address"
        }
      ],
      "name": "renounceRole",
      "outputs": [],
      "stateMutability": "nonpayable",
      "type": "function"
    },
    {
      "inputs": [
        {
          "internalType": "bytes32",
          "name": "role",
          "type": "bytes32"
        },
        {
          "internalType": "address",
          "name": "account",
          "type": "address"
        }
      ],
      "name": "revokeRole",
      "outputs": [],
      "stateMutability": "nonpayable",
      "type": "function"
    },
    {
      "inputs": [
        {
          "internalType": "uint256",
          "name": "",
          "type": "uint256"
        },
        {
          "internalType": "uint256",
          "name": "",
          "type": "uint256"
        }
      ],
      "name": "rootHistory",
      "outputs": [
        {
          "internalType": "bool",
          "name": "",
          "type": "bool"
        }
      ],
      "stateMutability": "view",
      "type": "function"
    },
    {
      "inputs": [
        {
          "internalType": "uint256",
          "name": "_treeNumber",
          "type": "uint256"
        },
        {
          "internalType": "uint256",
          "name": "_nullifierId",
          "type": "uint256"
        }
      ],
      "name": "setNullifier",
      "outputs": [],
      "stateMutability": "nonpayable",
      "type": "function"
    },
    {
      "inputs": [
        {
          "internalType": "bytes4",
          "name": "interfaceId",
          "type": "bytes4"
        }
      ],
      "name": "supportsInterface",
      "outputs": [
        {
          "internalType": "bool",
          "name": "",
          "type": "bool"
        }
      ],
      "stateMutability": "view",
      "type": "function"
    },
    {
      "inputs": [
        {
          "components": [
            {
              "components": [
                {
                  "components": [
                    {
                      "internalType": "uint256",
                      "name": "x",
                      "type": "uint256"
                    },
                    {
                      "internalType": "uint256",
                      "name": "y",
                      "type": "uint256"
                    }
                  ],
                  "internalType": "struct IEnygmaDvp.G1Point",
                  "name": "a",
                  "type": "tuple"
                },
                {
                  "components": [
                    {
                      "internalType": "uint256[2]",
                      "name": "x",
                      "type": "uint256[2]"
                    },
                    {
                      "internalType": "uint256[2]",
                      "name": "y",
                      "type": "uint256[2]"
                    }
                  ],
                  "internalType": "struct IEnygmaDvp.G2Point",
                  "name": "b",
                  "type": "tuple"
                },
                {
                  "components": [
                    {
                      "internalType": "uint256",
                      "name": "x",
                      "type": "uint256"
                    },
                    {
                      "internalType": "uint256",
                      "name": "y",
                      "type": "uint256"
                    }
                  ],
                  "internalType": "struct IEnygmaDvp.G1Point",
                  "name": "c",
                  "type": "tuple"
                }
              ],
              "internalType": "struct IEnygmaDvp.SnarkProof",
              "name": "proof",
              "type": "tuple"
            },
            {
              "internalType": "uint256[]",
              "name": "statement",
              "type": "uint256[]"
            },
            {
              "internalType": "uint256",
              "name": "numberOfInputs",
              "type": "uint256"
            },
            {
              "internalType": "uint256",
              "name": "numberOfOutputs",
              "type": "uint256"
            }
          ],
          "internalType": "struct IEnygmaDvp.ProofReceipt",
          "name": "receipt",
          "type": "tuple"
        }
      ],
      "name": "transfer",
      "outputs": [
        {
          "internalType": "bool",
          "name": "",
          "type": "bool"
        }
      ],
      "stateMutability": "nonpayable",
      "type": "function"
    },
    {
      "inputs": [
        {
          "components": [
            {
              "components": [
                {
                  "components": [
                    {
                      "internalType": "uint256",
                      "name": "x",
                      "type": "uint256"
                    },
                    {
                      "internalType": "uint256",
                      "name": "y",
                      "type": "uint256"
                    }
                  ],
                  "internalType": "struct IEnygmaDvp.G1Point",
                  "name": "a",
                  "type": "tuple"
                },
                {
                  "components": [
                    {
                      "internalType": "uint256[2]",
                      "name": "x",
                      "type": "uint256[2]"
                    },
                    {
                      "internalType": "uint256[2]",
                      "name": "y",
                      "type": "uint256[2]"
                    }
                  ],
                  "internalType": "struct IEnygmaDvp.G2Point",
                  "name": "b",
                  "type": "tuple"
                },
                {
                  "components": [
                    {
                      "internalType": "uint256",
                      "name": "x",
                      "type": "uint256"
                    },
                    {
                      "internalType": "uint256",
                      "name": "y",
                      "type": "uint256"
                    }
                  ],
                  "internalType": "struct IEnygmaDvp.G1Point",
                  "name": "c",
                  "type": "tuple"
                }
              ],
              "internalType": "struct IEnygmaDvp.SnarkProof",
              "name": "proof",
              "type": "tuple"
            },
            {
              "internalType": "uint256[]",
              "name": "statement",
              "type": "uint256[]"
            },
            {
              "internalType": "uint256",
              "name": "numberOfInputs",
              "type": "uint256"
            },
            {
              "internalType": "uint256",
              "name": "numberOfOutputs",
              "type": "uint256"
            }
          ],
          "internalType": "struct IEnygmaDvp.ProofReceipt",
          "name": "receipt",
          "type": "tuple"
        },
        {
          "internalType": "bytes[]",
          "name": "ciphertextI",
          "type": "bytes[]"
        },
        {
          "internalType": "bytes[]",
          "name": "ciphertextII",
          "type": "bytes[]"
        }
      ],
      "name": "transferV2",
      "outputs": [
        {
          "internalType": "bool",
          "name": "",
          "type": "bool"
        }
      ],
      "stateMutability": "nonpayable",
      "type": "function"
    },
    {
      "inputs": [],
      "name": "treeNumber",
      "outputs": [
        {
          "internalType": "uint256",
          "name": "",
          "type": "uint256"
        }
      ],
      "stateMutability": "view",
      "type": "function"
    },
    {
      "inputs": [
        {
          "internalType": "uint256",
          "name": "_treeNumber",
          "type": "uint256"
        },
        {
          "internalType": "uint256",
          "name": "_nullifierId",
          "type": "uint256"
        }
      ],
      "name": "unlock",
      "outputs": [
        {
          "internalType": "bool",
          "name": "",
          "type": "bool"
        }
      ],
      "stateMutability": "nonpayable",
      "type": "function"
    },
    {
      "inputs": [
        {
          "internalType": "uint256",
          "name": "treeNumber",
          "type": "uint256"
        },
        {
          "internalType": "uint256",
          "name": "nullifier",
          "type": "uint256"
        }
      ],
      "name": "unlockCoin",
      "outputs": [
        {
          "internalType": "bool",
          "name": "",
          "type": "bool"
        }
      ],
      "stateMutability": "nonpayable",
      "type": "function"
    },
    {
      "inputs": [
        {
          "components": [
            {
              "components": [
                {
                  "components": [
                    {
                      "internalType": "uint256",
                      "name": "x",
                      "type": "uint256"
                    },
                    {
                      "internalType": "uint256",
                      "name": "y",
                      "type": "uint256"
                    }
                  ],
                  "internalType": "struct IEnygmaDvp.G1Point",
                  "name": "a",
                  "type": "tuple"
                },
                {
                  "components": [
                    {
                      "internalType": "uint256[2]",
                      "name": "x",
                      "type": "uint256[2]"
                    },
                    {
                      "internalType": "uint256[2]",
                      "name": "y",
                      "type": "uint256[2]"
                    }
                  ],
                  "internalType": "struct IEnygmaDvp.G2Point",
                  "name": "b",
                  "type": "tuple"
                },
                {
                  "components": [
                    {
                      "internalType": "uint256",
                      "name": "x",
                      "type": "uint256"
                    },
                    {
                      "internalType": "uint256",
                      "name": "y",
                      "type": "uint256"
                    }
                  ],
                  "internalType": "struct IEnygmaDvp.G1Point",
                  "name": "c",
                  "type": "tuple"
                }
              ],
              "internalType": "struct IEnygmaDvp.SnarkProof",
              "name": "proof",
              "type": "tuple"
            },
            {
              "internalType": "uint256[]",
              "name": "statement",
              "type": "uint256[]"
            },
            {
              "internalType": "uint256",
              "name": "numberOfInputs",
              "type": "uint256"
            },
            {
              "internalType": "uint256",
              "name": "numberOfOutputs",
              "type": "uint256"
            }
          ],
          "internalType": "struct IEnygmaDvp.ProofReceipt",
          "name": "receipt",
          "type": "tuple"
        }
      ],
      "name": "unlockFromReceipt",
      "outputs": [
        {
          "internalType": "bool",
          "name": "",
          "type": "bool"
        }
      ],
      "stateMutability": "nonpayable",
      "type": "function"
    },
    {
      "inputs": [
        {
          "internalType": "uint256[]",
          "name": "params_",
          "type": "uint256[]"
        },
        {
          "components": [
            {
              "components": [
                {
                  "components": [
                    {
                      "internalType": "uint256",
                      "name": "x",
                      "type": "uint256"
                    },
                    {
                      "internalType": "uint256",
                      "name": "y",
                      "type": "uint256"
                    }
                  ],
                  "internalType": "struct IEnygmaDvp.G1Point",
                  "name": "a",
                  "type": "tuple"
                },
                {
                  "components": [
                    {
                      "internalType": "uint256[2]",
                      "name": "x",
                      "type": "uint256[2]"
                    },
                    {
                      "internalType": "uint256[2]",
                      "name": "y",
                      "type": "uint256[2]"
                    }
                  ],
                  "internalType": "struct IEnygmaDvp.G2Point",
                  "name": "b",
                  "type": "tuple"
                },
                {
                  "components": [
                    {
                      "internalType": "uint256",
                      "name": "x",
                      "type": "uint256"
                    },
                    {
                      "internalType": "uint256",
                      "name": "y",
                      "type": "uint256"
                    }
                  ],
                  "internalType": "struct IEnygmaDvp.G1Point",
                  "name": "c",
                  "type": "tuple"
                }
              ],
              "internalType": "struct IEnygmaDvp.SnarkProof",
              "name": "proof",
              "type": "tuple"
            },
            {
              "internalType": "uint256[]",
              "name": "statement",
              "type": "uint256[]"
            },
            {
              "internalType": "uint256",
              "name": "numberOfInputs",
              "type": "uint256"
            },
            {
              "internalType": "uint256",
              "name": "numberOfOutputs",
              "type": "uint256"
            }
          ],
          "internalType": "struct IEnygmaDvp.ProofReceipt",
          "name": "receipt_",
          "type": "tuple"
        }
      ],
      "name": "verifyOwnership",
      "outputs": [
        {
          "internalType": "bool",
          "name": "",
          "type": "bool"
        }
      ],
      "stateMutability": "nonpayable",
      "type": "function"
    },
    {
      "inputs": [
        {
          "internalType": "uint256",
          "name": "treeNumber",
          "type": "uint256"
        },
        {
          "internalType": "uint256",
          "name": "root",
          "type": "uint256"
        }
      ],
      "name": "verifyRoot",
      "outputs": [
        {
          "internalType": "bool",
          "name": "",
          "type": "bool"
        }
      ],
      "stateMutability": "view",
      "type": "function"
    },
    {
      "inputs": [
        {
          "internalType": "uint256[]",
          "name": "withdrawParams",
          "type": "uint256[]"
        },
        {
          "internalType": "address",
          "name": "recipient",
          "type": "address"
        },
        {
          "components": [
            {
              "components": [
                {
                  "components": [
                    {
                      "internalType": "uint256",
                      "name": "x",
                      "type": "uint256"
                    },
                    {
                      "internalType": "uint256",
                      "name": "y",
                      "type": "uint256"
                    }
                  ],
                  "internalType": "struct IEnygmaDvp.G1Point",
                  "name": "a",
                  "type": "tuple"
                },
                {
                  "components": [
                    {
                      "internalType": "uint256[2]",
                      "name": "x",
                      "type": "uint256[2]"
                    },
                    {
                      "internalType": "uint256[2]",
                      "name": "y",
                      "type": "uint256[2]"
                    }
                  ],
                  "internalType": "struct IEnygmaDvp.G2Point",
                  "name": "b",
                  "type": "tuple"
                },
                {
                  "components": [
                    {
                      "internalType": "uint256",
                      "name": "x",
                      "type": "uint256"
                    },
                    {
                      "internalType": "uint256",
                      "name": "y",
                      "type": "uint256"
                    }
                  ],
                  "internalType": "struct IEnygmaDvp.G1Point",
                  "name": "c",
                  "type": "tuple"
                }
              ],
              "internalType": "struct IEnygmaDvp.SnarkProof",
              "name": "proof",
              "type": "tuple"
            },
            {
              "internalType": "uint256[]",
              "name": "statement",
              "type": "uint256[]"
            },
            {
              "internalType": "uint256",
              "name": "numberOfInputs",
              "type": "uint256"
            },
            {
              "internalType": "uint256",
              "name": "numberOfOutputs",
              "type": "uint256"
            }
          ],
          "internalType": "struct IEnygmaDvp.ProofReceipt",
          "name": "receipt",
          "type": "tuple"
        }
      ],
      "name": "withdraw",
      "outputs": [
        {
          "internalType": "bool",
          "name": "",
          "type": "bool"
        }
      ],
      "stateMutability": "nonpayable",
      "type": "function"
    },
    {
      "inputs": [
        {
          "internalType": "uint256[]",
          "name": "withdrawParams",
          "type": "uint256[]"
        },
        {
          "internalType": "address",
          "name": "recipient",
          "type": "address"
        },
        {
          "components": [
            {
              "components": [
                {
                  "components": [
                    {
                      "internalType": "uint256",
                      "name": "x",
                      "type": "uint256"
                    },
                    {
                      "internalType": "uint256",
                      "name": "y",
                      "type": "uint256"
                    }
                  ],
                  "internalType": "struct IEnygmaDvp.G1Point",
                  "name": "a",
                  "type": "tuple"
                },
                {
                  "components": [
                    {
                      "internalType": "uint256[2]",
                      "name": "x",
                      "type": "uint256[2]"
                    },
                    {
                      "internalType": "uint256[2]",
                      "name": "y",
                      "type": "uint256[2]"
                    }
                  ],
                  "internalType": "struct IEnygmaDvp.G2Point",
                  "name": "b",
                  "type": "tuple"
                },
                {
                  "components": [
                    {
                      "internalType": "uint256",
                      "name": "x",
                      "type": "uint256"
                    },
                    {
                      "internalType": "uint256",
                      "name": "y",
                      "type": "uint256"
                    }
                  ],
                  "internalType": "struct IEnygmaDvp.G1Point",
                  "name": "c",
                  "type": "tuple"
                }
              ],
              "internalType": "struct IEnygmaDvp.SnarkProof",
              "name": "proof",
              "type": "tuple"
            },
            {
              "internalType": "uint256[]",
              "name": "statement",
              "type": "uint256[]"
            },
            {
              "internalType": "uint256",
              "name": "numberOfInputs",
              "type": "uint256"
            },
            {
              "internalType": "uint256",
              "name": "numberOfOutputs",
              "type": "uint256"
            }
          ],
          "internalType": "struct IEnygmaDvp.ProofReceipt",
          "name": "receipt",
          "type": "tuple"
        }
      ],
      "name": "withdrawV2",
      "outputs": [
        {
          "internalType": "bool",
          "name": "",
          "type": "bool"
        }
      ],
      "stateMutability": "nonpayable",
      "type": "function"
    },
    {
      "inputs": [
        {
          "internalType": "uint256",
          "name": "",
          "type": "uint256"
        }
      ],
      "name": "zeros",
      "outputs": [
        {
          "internalType": "uint256",
          "name": "",
          "type": "uint256"
        }
      ],
      "stateMutability": "view",
      "type": "function"
    },
    {
      "inputs": [],
      "name": "zkDvpAddress",
      "outputs": [
        {
          "internalType": "address",
          "name": "",
          "type": "address"
        }
      ],
      "stateMutability": "view",
      "type": "function"
    }
  ],
  "bytecode": "0x608034620001ff57601f62003b5e38819003918201601f1916830192916001600160401b03841183851017620002045780839260409586528339602092839181010312620001ff57516001600160a01b03811690819003620001ff57825182810190686f776e6572526f6c6560b81b8252600981526200007f816200021a565b51902090600091808352600e8452848320338452845260ff858420541615620001c4575b5083518381019066447670526f6c6560c81b825260078152620000c6816200021a565b51902090818352600e8452848320818452845260ff8584205416156200018a575b5050600f5490600192600183811c931680156200017f575b818410146200016b57601f831162000145575b7f5a6b447670202d20455243323020436f696e205661756c740000000000000030600f5584516139079081620002378239f35b601f90600f83528220920160051c8201915b828110156200011257818155830162000157565b634e487b7160e01b82526022600452602482fd5b92607f1692620000ff565b818352600e84528483208184528452848320805460ff19166001179055339160008051602062003b3e8339815191528480a43880620000e7565b808352600e84528483203384528452848320600160ff198254161790553390339060008051602062003b3e8339815191528580a438620000a3565b600080fd5b634e487b7160e01b600052604160045260246000fd5b604081019081106001600160401b03821117620002045760405256fe608080604052600436101561001357600080fd5b60003560e01c90816301ffc9a71461205057508063068235a7146120345780631338736f1461201b5780631708ed6114611ecf578063176764b514611e965780631d7c55a214611c525780631ecf1e8c14611a685780631ed2bfde1461196d578063248a9ca31461193e57806327c61f51146119035780632db1e64a146117515780632eb4a7ab146102de5780632f2ff15d1461184f57806332c9b1831461182857806336568abe1461178957806338953305146117515780633b8162b7146117075780633bbc2aec14611468578063422998c514610e6e57806346d07259146114105780634b4703dc146113dc5780634e2285f1146113be5780634e2a00d91461136957806358a1d8ae1461134257806358d199df1461132b578063598b8e711461121b57806359f880bd146112005780635bb93995146111e75780635bfadb24146111ce5780635ca1e165146102de5780635f9563c0146111b0578063665033151461119257806368e8093d1461117457806372bef65d1461111b5780637628c043146111025780637718e23a14610ea657806378d3915c14610e6e5780637a1638e61461036e5780637b22a8ac14610e165780637d16374914610c525780637d8c1cd714610c2b5780638584143214610aba57806385d72e3e14610a7457806391d1485414610a2657806394ca3cef1461087e578063971607ba14610857578063a217fddf1461047d578063a8d4692914610830578063a9e6ce4214610814578063aacd552c1461064a578063b253740d146104c0578063b3f5bd8914610499578063b4fde0961461047d578063ba22c13014610428578063c695cea9146103e5578063d547741f146103a6578063d90991141461036e578063e829558814610337578063ec732959146102fc578063fdab463d146102de5763fe6f79d3146102be57600080fd5b346102d95760003660031901126102d9576102d76132ac565b005b600080fd5b346102d95760003660031901126102d9576020600654604051908152f35b346102d95760003660031901126102d95760206040517f302a880eeac9ec8b02e876fea5cfd4947f3f87950cb04c9105f167aa346f5efa8152f35b346102d95760203660031901126102d9576004356009548110156102d9576103606020916124ee565b90546040519160031b1c8152f35b346102d95761037c366120ee565b906000526003602052604060002090600052602052602060ff604060002054166040519015158152f35b346102d95760403660031901126102d9576102d76004356103c561211a565b9080600052600e6020526103e06001604060002001546132c7565b6135e4565b346102d95760203660031901126102d95760043567ffffffffffffffff81116102d95761042061041b60209236906004016121be565b61325c565b604051908152f35b346102d95760203660031901126102d95760043567ffffffffffffffff81116102d95761047361045e602092369060040161228b565b61046e6104696123b0565b6132c7565b61365b565b6040519015158152f35b346102d95760003660031901126102d957602060405160008152f35b346102d95760603660031901126102d9576102d76104b5612104565b602435600435612fc0565b346102d9576020806003193601126102d95760043567ffffffffffffffff81116102d9576104f290369060040161228b565b6104fd6104696123b0565b604081015160019281840190818511610634576001600160ff1b03831683036106345782851b8501918286116106345792936020019260005b85811061054857602060405160008152f35b8451908088019182891161063457889261056191612638565b5161057787516105718489612601565b90612638565b5161058788516105718588612601565b51610595575b505001610536565b9080935060005260038552604060002081600052855260ff6040600020541660001461060a5788926105c86104696123b0565b6105d28282612d75565b506015547f99565704f398859b97f9b53066e321c61c6bbdf4176848e0180528b79257b9a083838383600080a4600080a4888061058d565b60046040517fb448aede000000000000000000000000000000000000000000000000000000008152fd5b634e487b7160e01b600052601160045260246000fd5b346102d95760603660031901126102d95767ffffffffffffffff6004358181116102d95761067c90369060040161228b565b6024358281116102d9576106949036906004016124bd565b926044359081116102d9576106ad9036906004016124bd565b92909360608201938451808314908161080a575b50156107a0576106d08361293f565b506106da8361365b565b506106e483613753565b5060408301519586600302966003880403610634576001966001018060011161063457879060009760206015549701925b610725575b602060405160018152f35b805189101561079b57898989897f3703497aa5a04538e087fdf04a8711f50aa786fc6bc4bf911fc5ef5459ac34b28989869f610784818f8161077c918f8f61057161079198610775935192612601565b519a612f7e565b959094612f7e565b9060405194859485612f57565b0390a30198610715565b61071a565b608460405162461bcd60e51b815260206004820152602a60248201527f4572633230436f696e5661756c743a2063697068657274657874206c656e677460448201527f68206d69736d61746368000000000000000000000000000000000000000000006064820152fd5b90508114876106c1565b346102d95760003660031901126102d957602060405160178152f35b346102d95760003660031901126102d95760206001600160a01b0360015416604051908152f35b346102d95760003660031901126102d95760206001600160a01b0360115416604051908152f35b346102d95760603660031901126102d95767ffffffffffffffff6004358181116102d9576108b09036906004016121be565b6024358281116102d9576108c890369060040161248f565b916044359384116102d9576108e461094a94369060040161248f565b9390926108fa6108f38461261b565b5193612628565b51946001600160a01b03601354169360405180956323b872dd60e01b82528160008160209c8d963033600485016040919493929460608201956001600160a01b0380921683521660208201520152565b03925af1908115610a1a577f3703497aa5a04538e087fdf04a8711f50aa786fc6bc4bf911fc5ef5459ac34b2946109e1926109ed575b506109aa60405161099081612130565b60018152893681830137886109a48261261b565b5261264c565b6015549560405194859489897f28ec6d3cf0e771d5a8b44b29744de77a87c1301f68127019d5049968253913b4600080a385612f57565b0390a360405160018152f35b610a0c90893d8b11610a13575b610a048183612184565b810190612918565b5088610980565b503d6109fa565b6040513d6000823e3d90fd5b346102d95760403660031901126102d957610a3f61211a565b600435600052600e6020526001600160a01b0360406000209116600052602052602060ff604060002054166040519015158152f35b346102d95760203660031901126102d95760043567ffffffffffffffff81116102d957610473610aaa602092369060040161228b565b610ab56104696123b0565b613753565b346102d95760203660031901126102d95760043567ffffffffffffffff81116102d957610aeb90369060040161228b565b6040810151906003918060030190816003116106345791610b0c8383612601565b91602060009201915b848110610b2757602060405160018152f35b610b3683516105718385612601565b51610b44575b600101610b15565b8251908087019182881161063457610b5f83610b9192612638565b51610b6f86516105718588612601565b5190600052600b60205260406000209060005260205260ff6040600020541690565b15610c1a57610bd6610ba4838651612638565b51610bb48651610571858a612601565b5190600052600260205260406000209060005260205260ff6040600020541690565b610c0957610c01610bea6001938651612638565b51610bfa8651610571858a612601565b5190612e89565b509050610b3c565b6004604051632ec8265960e11b8152fd5b6004604051639dd854d360e01b8152fd5b346102d95760003660031901126102d95760206001600160a01b0360105416604051908152f35b346102d9576020806003193601126102d95760006060604051610c748161214c565b604051610c8081612168565b604051610c8c81612130565b84815284868201528152604051610ca281612130565b604051610cae81612130565b60403682378152604051610cc181612130565b60403682378682015285820152604051610cda81612130565b848152848682015260408201528152818482015282604082015201526004356000526017815260406000209060405191610d138361214c565b604051610d1f81612168565b610d2882612ee3565b8152604051610d3681612130565b610d4260028401612f01565b8152610d5060048401612f01565b8482015283820152610d6460068301612ee3565b6040820152835260088101604051808285829454938481520190600052856000209260005b87828210610e0057505050610da092500382612184565b828401908152600a6009830154926040860193845201549060608501918252610dd460405195858796875286019051612416565b5190610def610160928361012087015261018086019061245b565b925161014085015251908301520390f35b8554845260019586019587955093019201610d89565b346102d9576020610e26366120ee565b610e316104696123b0565b610e3b8183612c33565b60155491604051927f437885c05eacc89ce854c46fbeb8290d4c624ea6b561c7a784d86bb5369b2ea3600080a460018152f35b346102d957610e7c366120ee565b906000526002602052604060002090600052602052602060ff604060002054166040519015158152f35b346102d95760203660031901126102d95760043567ffffffffffffffff81116102d957610ed790369060040161228b565b610ee26104696123b0565b6040810151906001916001600160ff1b03811681036106345780831b8301831161063457610f21610f178280861b8601612601565b6020840151612638565b516000908152601760205260409020600881015415610f645760046040517fb08d7c2e000000000000000000000000000000000000000000000000000000008152fd5b82519160208351805184550151858301556020830151938451938660005b6002811015610fa1576020875197019660028288010155018790610f82565b50945060208601518560005b600281106110ec57505050604060209101518051600686015501516007840155602081015192835167ffffffffffffffff81116110d6576801000000000000000081116110d6576020869560088401548360088601558084106110b6575b50016008830160005260206000208660005b8481106110a357505050505060408201516009820155600a60608301519101556000925b611054575b505050602090604051908152f35b604081015183101561109e576020810151838501938486116106345761109661107f87968794612638565b51610bfa60208601516105718589881b8801612601565b500192611041565b611046565b602084519401938184015501879061101d565b6110d0906008860160005284846000209182019101612ecc565b8861100b565b634e487b7160e01b600052604160045260246000fd5b6020835193019260048289010155018690610fad565b346102d9576020610473611115366120ee565b90612e89565b346102d95760203660031901126102d95760043567ffffffffffffffff81116102d95761114f61116891369060040161228b565b6111588161293f565b506111628161365b565b50613753565b50602060405160018152f35b346102d95760003660031901126102d9576020601654604051908152f35b346102d95760003660031901126102d9576020600854604051908152f35b346102d95760003660031901126102d9576020600c54604051908152f35b346102d95760206104736111e1366120ee565b90612d75565b346102d95760206104206111fa366120ee565b90612ceb565b346102d95760003660031901126102d95760206104206123b0565b346102d9576020806003193601126102d95760043567ffffffffffffffff81116102d95761124d9036906004016121be565b6000826112a861126661125f8561261b565b5194612628565b516013546040516323b872dd60e01b8152336004820152306024820152604481019690965290949384926001600160a01b039092169183919082906064820190565b03925af18015610a1a5761130e575b506112db6040516112c781612130565b60018152833681830137826109a48261261b565b60155490604051917f28ec6d3cf0e771d5a8b44b29744de77a87c1301f68127019d5049968253913b4600080a360018152f35b61132490833d8511610a1357610a048183612184565b50826112b7565b346102d9576102d761133c366120ee565b90612c33565b346102d95760003660031901126102d95760206001600160a01b0360005416604051908152f35b346102d95760003660031901126102d9576020604051818101907f41756374696f6e526f6c650000000000000000000000000000000000000000008252600b81526113b381612130565b519020604051908152f35b346102d95760003660031901126102d9576020601554604051908152f35b346102d95760206104736113ef366120ee565b90600052600b60205260406000209060005260205260ff6040600020541690565b346102d95761141e366120ee565b9061142a6104696123b0565b6114348282612d75565b506015547f99565704f398859b97f9b53066e321c61c6bbdf4176848e0180528b79257b9a0600080a4602060405160018152f35b346102d95761147636612355565b909161148b6114848261261b565b5191612628565b51926040830192835192836003029360038504036106345783600101600111610634576001600160a01b03928360105416604051976114c98961214c565b8583168952602098899160008383015285604083015260608201526040519283917fac490f26000000000000000000000000000000000000000000000000000000008352600483016000905b600482106116ee57505050816084915afa908115610a1a576000916116c1575b50611547888501966001018751612638565b5103611697576115959361155b889461293f565b506013541690600060405180968195829463a9059cbb60e01b845260048401602090939291936001600160a01b0360408201951681520152565b03925af18015610a1a5761167a575b5081516001600160ff1b03811681036106345760011b60010192836001116106345760005b8351811015611670576115e183516105718388612601565b516115ef575b6001016115c9565b82519080600101806001116106345761162461160d82600195612638565b5161161d8751610571868c612601565b5190612c33565b611632601554918651612638565b516116428651610571858b612601565b51917f437885c05eacc89ce854c46fbeb8290d4c624ea6b561c7a784d86bb5369b2ea3600080a490506115e7565b5060405160018152f35b61169090843d8611610a1357610a048183612184565b50836115a4565b60046040517f399d2d9b000000000000000000000000000000000000000000000000000000008152fd5b90508781813d83116116e7575b6116d88183612184565b810103126102d9575188611535565b503d6116ce565b825181528d958795509283019260019092019101611515565b346102d95760003660031901126102d9576020604051818101907f6f776e6572526f6c6500000000000000000000000000000000000000000000008252600981526113b381612130565b346102d95761175f366120ee565b90600052600b602052604060002090600052602052602060ff604060002054166040519015158152f35b346102d95760403660031901126102d9576117a261211a565b336001600160a01b038216036117be576102d7906004356135e4565b608460405162461bcd60e51b815260206004820152602f60248201527f416363657373436f6e74726f6c3a2063616e206f6e6c792072656e6f756e636560448201527f20726f6c657320666f722073656c6600000000000000000000000000000000006064820152fd5b346102d95760003660031901126102d95760206001600160a01b0360135416604051908152f35b346102d95760403660031901126102d95760043561186b61211a565b81600052600e6020526118856001604060002001546132c7565b81600052600e6020526001600160a01b0360406000209116908160005260205260ff60406000205416156118b557005b81600052600e6020526040600020816000526020526040600020600160ff1982541617905533917f2f8788117e7eff1d82e926ec794901d17c78024a50270940304540a733656f0d600080a4005b346102d95760203660031901126102d95760043567ffffffffffffffff81116102d957610473611939602092369060040161228b565b61293f565b346102d95760203660031901126102d957600435600052600e6020526020600160406000200154604051908152f35b346102d95760203660031901126102d95760043567ffffffffffffffff81116102d95761199e9036906004016121be565b6119a96104696123b0565b6000805b82518110156119e2576119c08184612638565b516119ce575b6001016119ad565b906119da600191612930565b9190506119c6565b506119ec816128b8565b9160005b828110611a005761071a8461264c565b80611a0d60019284612638565b51611a19575b016119f0565b611a238184612638565b51611a2e8287612638565b52601554611a3c8287612638565b51907f28ec6d3cf0e771d5a8b44b29744de77a87c1301f68127019d5049968253913b4600080a3611a13565b346102d95760403660031901126102d95767ffffffffffffffff6004358181116102d957611a9a9036906004016121be565b906024359081116102d957611ab6611abc91369060040161228b565b9161261b565b51906020918282016000611ad0825161261b565b51916001600160a01b038681601254166024604051809681937f3cd6f55e0000000000000000000000000000000000000000000000000000000083528960048401525af1908115610a1a57611b86938892611c35575b50611b51604051611b3681612168565b600281526040368583013787611b4b8261261b565b5261325c565b906010541660405191611b6383612130565b825260008383015260405180809681946314d2f97b60e11b8352600483016128ea565b03915afa918215610a1a57600092611c06575b5051805160041015611bf05760a001510361169757611bb960009361293f565b507ff4ba1266d3bddd382b01c33871e98d90fee982e1baa7bb9bf2d8a09de085aeb48460155493604051908152a460405160018152f35b634e487b7160e01b600052603260045260246000fd5b9091508581813d8311611c2e575b611c1e8183612184565b810103126102d957519086611b99565b503d611c14565b611c4b90833d8511610a1357610a048183612184565b5088611b26565b346102d957611c6c611c6336612355565b9192909261261b565b5191604082018051926001938401808511610634578251611c8c91612601565b91611c98815184612601565b9160405196611ca688612168565b600288526020976040368a83013781611cbe8261261b565b52611d15896001600160a01b03611cde81601354169485611b4b82612628565b9080601054169060405192611cf284612130565b83528b168383015260405180809581946314d2f97b60e11b8352600483016128ea565b03915afa908115610a1a57600091611e69575b50611d378a8501968751612638565b510361169757611d8096611d4b8a9461293f565b50600060405180998195829463a9059cbb60e01b845260048401602090939291936001600160a01b0360408201951681520152565b03925af1938415610a1a578594611e4c575b506000845b611da6575b8685604051908152f35b8151811015611e4757611dbe83516105718387612601565b51611dcc575b840184611d97565b93508151848601948587116106345785611dfb611deb89988995612638565b5161161d8751610571868b612601565b611e09601554918651612638565b51611e198651610571858a612601565b51917f437885c05eacc89ce854c46fbeb8290d4c624ea6b561c7a784d86bb5369b2ea3600080a49050611dc4565b611d9c565b611e6290873d8911610a1357610a048183612184565b5086611d92565b90508981813d8311611e8f575b611e808183612184565b810103126102d957518a611d28565b503d611e76565b346102d95760203660031901126102d95760043567ffffffffffffffff81116102d957611eca6102d79136906004016121be565b61264c565b346102d95760e03660031901126102d957611ee8612104565b6084356001600160a01b03908181168091036102d95760a435928284168094036102d95760c435918383168093036102d95783839261071a96611f2c6104696123b0565b6004356015557fffffffffffffffffffffffff00000000000000000000000000000000000000009333856012541617601255846010541617601055836011541617601155168160135416176013556014541617601455602435601655611f906123b0565b9081600052600e60205260406000208160005260205260ff6040600020541615611fc8575b5050601554906010541690606435612fc0565b81600052600e6020526040600020816000526020526040600020600160ff1982541617905533917f2f8788117e7eff1d82e926ec794901d17c78024a50270940304540a733656f0d600080a48280611fb5565b346102d957602061047361202e366120ee565b906125cd565b346102d95760003660031901126102d957602060405160068152f35b346102d95760203660031901126102d957600435907fffffffff0000000000000000000000000000000000000000000000000000000082168092036102d957817f7965db0b00000000000000000000000000000000000000000000000000000000602093149081156120c4575b5015158152f35b7f01ffc9a700000000000000000000000000000000000000000000000000000000915014836120bd565b60409060031901126102d9576004359060243590565b604435906001600160a01b03821682036102d957565b602435906001600160a01b03821682036102d957565b6040810190811067ffffffffffffffff8211176110d657604052565b6080810190811067ffffffffffffffff8211176110d657604052565b6060810190811067ffffffffffffffff8211176110d657604052565b90601f8019910116810190811067ffffffffffffffff8211176110d657604052565b67ffffffffffffffff81116110d65760051b60200190565b9080601f830112156102d95760209082356121d8816121a6565b936121e66040519586612184565b81855260208086019260051b8201019283116102d957602001905b82821061220f575050505090565b81358152908301908301612201565b91908260409103126102d95760405161223681612130565b6020808294803584520135910152565b9080601f830112156102d9576040519161225f83612130565b8290604081019283116102d957905b82821061227b5750505090565b813581526020918201910161226e565b808203929161016084126102d9576040908151926122a88461214c565b8395610100908181126102d95760808551916122c383612168565b6122cd868661221e565b8352603f1901126102d95784516122e381612130565b6122ef85878601612246565b81526122fe8560808601612246565b602082015260208201526123158460c0850161221e565b8582015285528101359267ffffffffffffffff84116102d95761233f6101409360609584016121be565b6020860152610120820135908501520135910152565b60606003198201126102d95767ffffffffffffffff916004358381116102d95782612382916004016121be565b926024356001600160a01b03811681036102d957926044359182116102d9576123ad9160040161228b565b90565b60405160208101907f447670526f6c65000000000000000000000000000000000000000000000000008252600781526123e881612130565b51902090565b6000915b600283106123ff57505050565b6001908251815260208091019201920191906123f2565b6020604060e0928281518051875201518386015261244b838083015161243f85890182516123ee565b015160808701906123ee565b0151805160c08501520151910152565b90815180825260208080930193019160005b82811061247b575050505090565b83518552938101939281019260010161246d565b9181601f840112156102d95782359167ffffffffffffffff83116102d957602083818601950101116102d957565b9181601f840112156102d95782359167ffffffffffffffff83116102d9576020808501948460051b0101116102d957565b600954811015611bf05760096000527f6e1540171b6c0c960b71a7020d9f60077f6af931a8bbf590da0223dacf75c7af0190600090565b600a54811015611bf057600a6000527fc65a7bb8d6351c1cf70c95a316cc6a92839c986682d98bc35f958f4883f9d2a80190600090565b1561256357565b608460405162461bcd60e51b815260206004820152602260248201527f4d65726b6c653a204e756c6c69666965722063616e206e6f74206265207a657260448201527f6f2e0000000000000000000000000000000000000000000000000000000000006064820152fd5b6125d882151561255c565b60005260036020526040600020906000526020526040600020600160ff19825416179055600190565b9190820180921161063457565b9190820391821161063457565b805115611bf05760200190565b805160011015611bf05760400190565b8051821015611bf05760209160051b010190565b80519061265b82600554612601565b9160049081549160ff83116128a3576001948580941b1115612896575b9091600554926126888185612601565b60055560009384925b6126d1575b50505050506126a49061261b565b5180600655600854600052600b60205260406000209060005260205260406000209060ff19825416179055565b83548310156128915780871c9160008880841614612844575b905b8082106127205750505085840180851161270b57918601919086612691565b601184634e487b7160e01b6000525260246000fd5b600019810196509091600082881161283157508683101561281b578883018084116128065761274f9089612638565b51965b831480156127f2575b6127bd575b61278061276f85838c1c61260e565b9761277a858b612638565b51612ceb565b61278a888a612638565b52600281018091116127a85791600281018091116127a857906126ec565b601186634e487b7160e01b6000525260246000fd5b6127ed6127ca848a612638565b516127d487612525565b90919082549060031b91821b91600019901b1916179055565b612760565b50600119820182811161280657831461275b565b601187634e487b7160e01b6000525260246000fd5b612824856124ee565b90549060031b1c96612752565b80601188634e487b7160e01b6024945252fd5b509450612851828061260e565b9461287461285e85612525565b90546128698a61261b565b519160031b1c612ceb565b61287e8789612638565b5287918881018091116127a857916126ea565b612696565b61289e6132ac565b612678565b601190634e487b7160e01b6000525260246000fd5b906128c2826121a6565b6128cf6040519182612184565b82815280926128e0601f19916121a6565b0190602036910137565b6040810192916000915b6002831061290157505050565b6001908251815260208091019201920191906128f4565b908160209103126102d9575180151581036102d95790565b60001981146106345760010190565b6040908181019081519260019380850193848611610634576129618286612601565b9161296c8184612601565b926020968787019461297f818751612638565b51908651908b81018091116106345761299791612638565b5114612c0a578860005b848110612b735750505050508051868114159081612b67575b81612b5b575b50612b3257518491908681148080612b24575b15612a63575050612a2a93612a166001600160a01b036011541691519251928551968794859384936345c2f37f60e11b8552600060048601526024850190612416565b61014061012484015261014483019061245b565b03915afa908115612a595750612a3f57505090565b81612a5592903d10610a1357610a048183612184565b5090565b513d6000823e3d90fd5b15612aa55750612a2a93612a166001600160a01b036011541691519251928551968794859384936345c2f37f60e11b8552601760048601526024850190612416565b600203612ae857612a2a93612a166001600160a01b036011541691519251928551968794859384936345c2f37f60e11b8552600060048601526024850190612416565b612a2a93612a166001600160a01b036011541691519251928551968794859384936345c2f37f60e11b8552600660048601526024850190612416565b5060026060870151146129d3565b600483517f647ce72c000000000000000000000000000000000000000000000000000000008152fd5b600a91501415386129c0565b600281141591506129ba565b612b8287516105718386612601565b51612b90575b0189906129a1565b90508551818b0190818c1161063457612bac82612bbc92612638565b51610b6f89516105718688612601565b15612bfa57612bcf612bdf918851612638565b51610bb488516105718588612601565b612bea578990612b88565b60048751632ec8265960e11b8152fd5b60048851639dd854d360e01b8152fd5b600486517ffaaa05e9000000000000000000000000000000000000000000000000000000008152fd5b9060009082825260026020526040822081835260205260ff604083205416612c8157604092612c6382151561255c565b8252600260205282822090825260205220600160ff19825416179055565b608460405162461bcd60e51b815260206004820152602360248201527f4d65726b6c653a204e756c6c696669657220736c6f7420616c7265616479207360448201527f65742e00000000000000000000000000000000000000000000000000000000006064820152fd5b604051612d3092602092612cfe83612130565b60403684378252828201526001600160a01b036000541660405180809581946314d2f97b60e11b8352600483016128ea565b03915afa908115610a1a57600091612d46575090565b90506020813d602011612d6d575b81612d6160209383612184565b810103126102d9575190565b3d9150612d54565b90612d8181151561255c565b600090828252602060028152604093848420838552825260ff8585205416612e4657808452600382528484208385528252600160ff8686205416151503612ddd578352600381528383209183525220805460ff19169055600190565b60848286519062461bcd60e51b82526004820152602360248201527f4d65726b6c653a204e756c6c696669657220616c726561647920756e6c6f636b60448201527f65642e00000000000000000000000000000000000000000000000000000000006064820152fd5b60648286519062461bcd60e51b82526004820152601e60248201527f4d65726b6c653a204e756c6c696669657220616c7265616479207365742e00006044820152fd5b612e946104696123b0565b612e9e82826125cd565b506015547fc8eaa7dbe0dbc197d16b8865000145390f3f5d135c5cf66d7683e18527e83d97600080a4600190565b818110612ed7575050565b60008155600101612ecc565b90604051612ef081612130565b602060018294805484520154910152565b60405191906000835b60028210612f2057505050612f1e82612130565b565b6001602081928554815201930191019091612f0a565b908060209392818452848401376000828201840152601f01601f1916010190565b9290612f70906123ad9593604086526040860191612f36565b926020818503910152612f36565b9190811015611bf05760051b81013590601e19813603018212156102d957019081359167ffffffffffffffff83116102d95760200182360381136102d9579190565b929091926130147fffffffffffffffffffffffff0000000000000000000000000000000000000000916001600160a01b0360009616838754161786556004948186553384600d541617600d55600c556128b8565b93845167ffffffffffffffff908181116131ce5768010000000000000000908181116131e157600a5481600a55808210613226575b506020809801600a8552845b8281106131f45750505061306986546128b8565b9081519283116131e15782116131ce57869060095483600955808410613198575b500160098352825b828110613166575050506009541561315357600981527f302a880eeac9ec8b02e876fea5cfd4947f3f87950cb04c9105f167aa346f5efa807f6e1540171b6c0c960b71a7020d9f60077f6af931a8bbf590da0223dacf75c7af559481955b855487101561311a576131128161310c6001936127d48b6124ee565b80612ceb565b9601956130f0565b91929450604093955081600655816007556008548352600b81528383209183525220600160ff1982541617905533906001541617600155565b80603285634e487b7160e01b6024945252fd5b81517f6e1540171b6c0c960b71a7020d9f60077f6af931a8bbf590da0223dacf75c7af82015590870190600101613092565b6131c890847f6e1540171b6c0c960b71a7020d9f60077f6af931a8bbf590da0223dacf75c7af9182019101612ecc565b3861308a565b602483604188634e487b7160e01b835252fd5b602484604189634e487b7160e01b835252fd5b81517fc65a7bb8d6351c1cf70c95a316cc6a92839c986682d98bc35f958f4883f9d2a882015590890190600101613055565b61325690827fc65a7bb8d6351c1cf70c95a316cc6a92839c986682d98bc35f958f4883f9d2a89182019101612ecc565b38613049565b602061326a612d309261261b565b516001600160a01b03908160105416906040519261328784612130565b6013541683528383015260405180809581946314d2f97b60e11b8352600483016128ea565b60075460065560006005556132c2600854612930565b600855565b600090808252602090600e8252604090818420338552835260ff8285205416156132f15750505050565b815193336132fe86612168565b602a865284860192843685378651156134ef5760308453865191600192600110156135d0576078602189015360295b8381116135595750613517578451916133458361214c565b6042835286830193606036863783511561350357603085538351600110156135035790607860218501536041915b81831161348857505050613446579261341460486134059794613438946044989785519a8b936133d08b86019a7f416363657373436f6e74726f6c3a206163636f756e74200000000000000000008c52518092603788019061389d565b8401917f206973206d697373696e6720726f6c652000000000000000000000000000000060378401525180938684019061389d565b01036028810189520187612184565b5194859362461bcd60e51b855260048501525180928160248601528585019061389d565b601f01601f19168101030190fd5b60648585519062461bcd60e51b825280600483015260248201527f537472696e67733a20686578206c656e67746820696e73756666696369656e746044820152fd5b909192600f811660108110156134ef577f3031323334353637383961626364656600000000000000000000000000000000901a6134c585876138c0565b5360041c9280156134db57600019019190613373565b602482634e487b7160e01b81526011600452fd5b602483634e487b7160e01b81526032600452fd5b80634e487b7160e01b602492526032600452fd5b60648686519062461bcd60e51b825280600483015260248201527f537472696e67733a20686578206c656e67746820696e73756666696369656e746044820152fd5b90600f811660108110156135bc577f3031323334353637383961626364656600000000000000000000000000000000901a613594838b6138c0565b5360041c9080156135a8576000190161332d565b602485634e487b7160e01b81526011600452fd5b602486634e487b7160e01b81526032600452fd5b602484634e487b7160e01b81526032600452fd5b90600091808352600e6020526001600160a01b036040842092169182845260205260ff60408420541661361657505050565b808352600e602052604083208284526020526040832060ff1981541690557ff6391f5c32d9c69d2a47ea670b442974b53935d1edc7fd64eb21e047a839171b339380a4565b6040810151906060810151906001926001600160ff1b03811681036106345780841b8401908185116106345761369091612601565b916000908460005b82811061372357505050906136ac826128b8565b9260009185601554935b8581106136cc575050505050506123ad9061264c565b6136de60208401516105718387612601565b516136e98289612638565b526136f48188612638565b51857f28ec6d3cf0e771d5a8b44b29744de77a87c1301f68127019d5049968253913b4600080a30186906136b6565b61373560208601516105718389612601565b51613743575b018590613698565b9261374d90612930565b9261373b565b9060009160009060408082015191600193838501928386116134db576001600160ff1b03851685036134db5784861b86019283871161388957825b86811061379f575050505050505050565b6020808301908151838b0190818c11613875578b949392916137c091612638565b51906137e16137d48451610571878d612601565b519351610571868d612601565b516137f0575b5050500161378e565b81885260038152868820838952905285872054929350909160ff1661384c57908161381d828c9594612c33565b6015547f437885c05eacc89ce854c46fbeb8290d4c624ea6b561c7a784d86bb5369b2ea38880a43880806137e7565b600485517f29eaaf85000000000000000000000000000000000000000000000000000000008152fd5b602488634e487b7160e01b81526011600452fd5b602483634e487b7160e01b81526011600452fd5b60005b8381106138b05750506000910152565b81810151838201526020016138a0565b908151811015611bf057016020019056fea2646970667358221220799f6a2332a0600715a0e34b508b0d31badbab7f7f0c6b0d8138cdfbc9e10ea264736f6c634300081800332f8788117e7eff1d82e926ec794901d17c78024a50270940304540a733656f0d",
  "linkReferences": {},
  "deployedLinkReferences": {}
}