{
  "_format": "hh-sol-artifact-1",
  "contractName": "Erc20CoinVault",
  "sourceName": "contracts/core/contracts/vaults/Erc20CoinVault.sol",
  "abi": [
    {
      "inputs": [
        {
          "internalType": "address",
          "name": "zkDvpContractAddress",
          "type": "address"
        }
      ],
      "stateMutability": "nonpayable",
      "type": "constructor"
    },
    {
      "inputs": [],
      "name": "CantSpendLockedCoin",
      "type": "error"
    },
    {
      "inputs": [],
      "name": "CoinAlreadyUnlocked",
      "type": "error"
    },
    {
      "inputs": [],
      "name": "FungibilityMismatch",
      "type": "error"
    },
    {
      "inputs": [],
      "name": "InvalidAuditorPublicKey",
      "type": "error"
    },
    {
      "inputs": [],
      "name": "InvalidErc1155BatchTransfer",
      "type": "error"
    },
    {
      "inputs": [],
      "name": "InvalidErc1155Transfer",
      "type": "error"
    },
    {
      "inputs": [],
      "name": "InvalidErc20Transfer",
      "type": "error"
    },
    {
      "inputs": [],
      "name": "InvalidErc721Transfer",
      "type": "error"
    },
    {
      "inputs": [],
      "name": "InvalidMerkleRoot",
      "type": "error"
    },
    {
      "inputs": [],
      "name": "InvalidNullifier",
      "type": "error"
    },
    {
      "inputs": [],
      "name": "InvalidNumberOfInputs",
      "type": "error"
    },
    {
      "inputs": [],
      "name": "InvalidNumberOfOutputs",
      "type": "error"
    },
    {
      "inputs": [],
      "name": "InvalidOpening",
      "type": "error"
    },
    {
      "inputs": [],
      "name": "InvalidStatmentSize",
      "type": "error"
    },
    {
      "inputs": [],
      "name": "JoinSplitWithSameCommitments",
      "type": "error"
    },
    {
      "inputs": [],
      "name": "NotImplemented",
      "type": "error"
    },
    {
      "inputs": [],
      "name": "ProofReceiptAlreadyAdded",
      "type": "error"
    },
    {
      "inputs": [],
      "name": "RottenChallenge",
      "type": "error"
    },
    {
      "inputs": [],
      "name": "WrongNumberOfIdentifiers",
      "type": "error"
    },
    {
      "anonymous": false,
      "inputs": [
        {
          "indexed": true,
          "internalType": "uint256",
          "name": "vaultId",
          "type": "uint256"
        },
        {
          "indexed": true,
          "internalType": "uint256",
          "name": "treeNumber",
          "type": "uint256"
        },
        {
          "indexed": true,
          "internalType": "uint256",
          "name": "nullifier",
          "type": "uint256"
        }
      ],
      "name": "CoinLocked",
      "type": "event"
    },
    {
      "anonymous": false,
      "inputs": [
        {
          "indexed": true,
          "internalType": "uint256",
          "name": "vaultId",
          "type": "uint256"
        },
        {
          "indexed": true,
          "internalType": "uint256",
          "name": "treeNumber",
          "type": "uint256"
        },
        {
          "indexed": true,
          "internalType": "uint256",
          "name": "nullifier",
          "type": "uint256"
        }
      ],
      "name": "CoinUnlocked",
      "type": "event"
    },
    {
      "anonymous": false,
      "inputs": [
        {
          "indexed": true,
          "internalType": "uint256",
          "name": "vaultId",
          "type": "uint256"
        },
        {
          "indexed": true,
          "internalType": "uint256",
          "name": "commitment",
          "type": "uint256"
        }
      ],
      "name": "Commitment",
      "type": "event"
    },
    {
      "anonymous": false,
      "inputs": [
        {
          "indexed": true,
          "internalType": "uint256",
          "name": "vaultId",
          "type": "uint256"
        },
        {
          "indexed": true,
          "internalType": "uint256",
          "name": "commitment",
          "type": "uint256"
        },
        {
          "indexed": false,
          "internalType": "bytes",
          "name": "ciphertextI",
          "type": "bytes"
        },
        {
          "indexed": false,
          "internalType": "bytes",
          "name": "ciphertextII",
          "type": "bytes"
        }
      ],
      "name": "EncryptedNote",
      "type": "event"
    },
    {
      "anonymous": false,
      "inputs": [
        {
          "indexed": true,
          "internalType": "uint256",
          "name": "vaultId",
          "type": "uint256"
        },
        {
          "indexed": true,
          "internalType": "uint256",
          "name": "treeNumber",
          "type": "uint256"
        },
        {
          "indexed": true,
          "internalType": "uint256",
          "name": "nullifier",
          "type": "uint256"
        }
      ],
      "name": "Nullifier",
      "type": "event"
    },
    {
      "anonymous": false,
      "inputs": [
        {
          "indexed": true,
          "internalType": "uint256",
          "name": "challenge",
          "type": "uint256"
        },
        {
          "indexed": true,
          "internalType": "uint256",
          "name": "vaultId",
          "type": "uint256"
        },
        {
          "indexed": true,
          "internalType": "uint256",
          "name": "tokenId",
          "type": "uint256"
        },
        {
          "indexed": false,
          "internalType": "uint256",
          "name": "amount",
          "type": "uint256"
        }
      ],
      "name": "OwnershipVerificationReceipt",
      "type": "event"
    },
    {
      "anonymous": false,
      "inputs": [
        {
          "components": [
            {
              "components": [
                {
                  "components": [
                    {
                      "internalType": "uint256",
                      "name": "x",
                      "type": "uint256"
                    },
                    {
                      "internalType": "uint256",
                      "name": "y",
                      "type": "uint256"
                    }
                  ],
                  "internalType": "struct IEnygmaDvp.G1Point",
                  "name": "a",
                  "type": "tuple"
                },
                {
                  "components": [
                    {
                      "internalType": "uint256[2]",
                      "name": "x",
                      "type": "uint256[2]"
                    },
                    {
                      "internalType": "uint256[2]",
                      "name": "y",
                      "type": "uint256[2]"
                    }
                  ],
                  "internalType": "struct IEnygmaDvp.G2Point",
                  "name": "b",
                  "type": "tuple"
                },
                {
                  "components": [
                    {
                      "internalType": "uint256",
                      "name": "x",
                      "type": "uint256"
                    },
                    {
                      "internalType": "uint256",
                      "name": "y",
                      "type": "uint256"
                    }
                  ],
                  "internalType": "struct IEnygmaDvp.G1Point",
                  "name": "c",
                  "type": "tuple"
                }
              ],
              "internalType": "struct IEnygmaDvp.SnarkProof",
              "name": "proof",
              "type": "tuple"
            },
            {
              "internalType": "uint256[]",
              "name": "statement",
              "type": "uint256[]"
            },
            {
              "internalType": "uint256",
              "name": "numberOfInputs",
              "type": "uint256"
            },
            {
              "internalType": "uint256",
              "name": "numberOfOutputs",
              "type": "uint256"
            }
          ],
          "indexed": false,
          "internalType": "struct IEnygmaDvp.ProofReceipt",
          "name": "pendingProof",
          "type": "tuple"
        }
      ],
      "name": "PendingProofAdded",
      "type": "event"
    },
    {
      "anonymous": false,
      "inputs": [
        {
          "indexed": true,
          "internalType": "bytes32",
          "name": "role",
          "type": "bytes32"
        },
        {
          "indexed": true,
          "internalType": "bytes32",
          "name": "previousAdminRole",
          "type": "bytes32"
        },
        {
          "indexed": true,
          "internalType": "bytes32",
          "name": "newAdminRole",
          "type": "bytes32"
        }
      ],
      "name": "RoleAdminChanged",
      "type": "event"
    },
    {
      "anonymous": false,
      "inputs": [
        {
          "indexed": true,
          "internalType": "bytes32",
          "name": "role",
          "type": "bytes32"
        },
        {
          "indexed": true,
          "internalType": "address",
          "name": "account",
          "type": "address"
        },
        {
          "indexed": true,
          "internalType": "address",
          "name": "sender",
          "type": "address"
        }
      ],
      "name": "RoleGranted",
      "type": "event"
    },
    {
      "anonymous": false,
      "inputs": [
        {
          "indexed": true,
          "internalType": "bytes32",
          "name": "role",
          "type": "bytes32"
        },
        {
          "indexed": true,
          "internalType": "address",
          "name": "account",
          "type": "address"
        },
        {
          "indexed": true,
          "internalType": "address",
          "name": "sender",
          "type": "address"
        }
      ],
      "name": "RoleRevoked",
      "type": "event"
    },
    {
      "inputs": [],
      "name": "DEFAULT_ADMIN_ROLE",
      "outputs": [
        {
          "internalType": "bytes32",
          "name": "",
          "type": "bytes32"
        }
      ],
      "stateMutability": "view",
      "type": "function"
    },
    {
      "inputs": [],
      "name": "DEFAULT_AUCTION_ROLE",
      "outputs": [
        {
          "internalType": "bytes32",
          "name": "",
          "type": "bytes32"
        }
      ],
      "stateMutability": "view",
      "type": "function"
    },
    {
      "inputs": [],
      "name": "DEFAULT_DVP_ROLE",
      "outputs": [
        {
          "internalType": "bytes32",
          "name": "",
          "type": "bytes32"
        }
      ],
      "stateMutability": "view",
      "type": "function"
    },
    {
      "inputs": [],
      "name": "DEFAULT_OWNER_ROLE",
      "outputs": [
        {
          "internalType": "bytes32",
          "name": "",
          "type": "bytes32"
        }
      ],
      "stateMutability": "view",
      "type": "function"
    },
    {
      "inputs": [],
      "name": "VK_ID_DVP_INITIATOR",
      "outputs": [
        {
          "internalType": "uint256",
          "name": "",
          "type": "uint256"
        }
      ],
      "stateMutability": "view",
      "type": "function"
    },
    {
      "inputs": [],
      "name": "VK_ID_ERC20_10INPUT",
      "outputs": [
        {
          "internalType": "uint256",
          "name": "",
          "type": "uint256"
        }
      ],
      "stateMutability": "view",
      "type": "function"
    },
    {
      "inputs": [],
      "name": "VK_ID_ERC20_JOINSPLIT",
      "outputs": [
        {
          "internalType": "uint256",
          "name": "",
          "type": "uint256"
        }
      ],
      "stateMutability": "view",
      "type": "function"
    },
    {
      "inputs": [],
      "name": "ZERO_VALUE",
      "outputs": [
        {
          "internalType": "uint256",
          "name": "",
          "type": "uint256"
        }
      ],
      "stateMutability": "view",
      "type": "function"
    },
    {
      "inputs": [
        {
          "components": [
            {
              "components": [
                {
                  "components": [
                    {
                      "internalType": "uint256",
                      "name": "x",
                      "type": "uint256"
                    },
                    {
                      "internalType": "uint256",
                      "name": "y",
                      "type": "uint256"
                    }
                  ],
                  "internalType": "struct IEnygmaDvp.G1Point",
                  "name": "a",
                  "type": "tuple"
                },
                {
                  "components": [
                    {
                      "internalType": "uint256[2]",
                      "name": "x",
                      "type": "uint256[2]"
                    },
                    {
                      "internalType": "uint256[2]",
                      "name": "y",
                      "type": "uint256[2]"
                    }
                  ],
                  "internalType": "struct IEnygmaDvp.G2Point",
                  "name": "b",
                  "type": "tuple"
                },
                {
                  "components": [
                    {
                      "internalType": "uint256",
                      "name": "x",
                      "type": "uint256"
                    },
                    {
                      "internalType": "uint256",
                      "name": "y",
                      "type": "uint256"
                    }
                  ],
                  "internalType": "struct IEnygmaDvp.G1Point",
                  "name": "c",
                  "type": "tuple"
                }
              ],
              "internalType": "struct IEnygmaDvp.SnarkProof",
              "name": "proof",
              "type": "tuple"
            },
            {
              "internalType": "uint256[]",
              "name": "statement",
              "type": "uint256[]"
            },
            {
              "internalType": "uint256",
              "name": "numberOfInputs",
              "type": "uint256"
            },
            {
              "internalType": "uint256",
              "name": "numberOfOutputs",
              "type": "uint256"
            }
          ],
          "internalType": "struct IEnygmaDvp.ProofReceipt",
          "name": "receipt",
          "type": "tuple"
        }
      ],
      "name": "addPendingProofReceipt",
      "outputs": [
        {
          "internalType": "bool",
          "name": "",
          "type": "bool"
        }
      ],
      "stateMutability": "nonpayable",
      "type": "function"
    },
    {
      "inputs": [
        {
          "components": [
            {
              "components": [
                {
                  "components": [
                    {
                      "internalType": "uint256",
                      "name": "x",
                      "type": "uint256"
                    },
                    {
                      "internalType": "uint256",
                      "name": "y",
                      "type": "uint256"
                    }
                  ],
                  "internalType": "struct IEnygmaDvp.G1Point",
                  "name": "a",
                  "type": "tuple"
                },
                {
                  "components": [
                    {
                      "internalType": "uint256[2]",
                      "name": "x",
                      "type": "uint256[2]"
                    },
                    {
                      "internalType": "uint256[2]",
                      "name": "y",
                      "type": "uint256[2]"
                    }
                  ],
                  "internalType": "struct IEnygmaDvp.G2Point",
                  "name": "b",
                  "type": "tuple"
                },
                {
                  "components": [
                    {
                      "internalType": "uint256",
                      "name": "x",
                      "type": "uint256"
                    },
                    {
                      "internalType": "uint256",
                      "name": "y",
                      "type": "uint256"
                    }
                  ],
                  "internalType": "struct IEnygmaDvp.G1Point",
                  "name": "c",
                  "type": "tuple"
                }
              ],
              "internalType": "struct IEnygmaDvp.SnarkProof",
              "name": "proof",
              "type": "tuple"
            },
            {
              "internalType": "uint256[]",
              "name": "statement",
              "type": "uint256[]"
            },
            {
              "internalType": "uint256",
              "name": "numberOfInputs",
              "type": "uint256"
            },
            {
              "internalType": "uint256",
              "name": "numberOfOutputs",
              "type": "uint256"
            }
          ],
          "internalType": "struct IEnygmaDvp.ProofReceipt",
          "name": "receipt",
          "type": "tuple"
        }
      ],
      "name": "checkReceiptConditions",
      "outputs": [
        {
          "internalType": "bool",
          "name": "",
          "type": "bool"
        }
      ],
      "stateMutability": "view",
      "type": "function"
    },
    {
      "inputs": [
        {
          "components": [
            {
              "components": [
                {
                  "components": [
                    {
                      "internalType": "uint256",
                      "name": "x",
                      "type": "uint256"
                    },
                    {
                      "internalType": "uint256",
                      "name": "y",
                      "type": "uint256"
                    }
                  ],
                  "internalType": "struct IEnygmaDvp.G1Point",
                  "name": "a",
                  "type": "tuple"
                },
                {
                  "components": [
                    {
                      "internalType": "uint256[2]",
                      "name": "x",
                      "type": "uint256[2]"
                    },
                    {
                      "internalType": "uint256[2]",
                      "name": "y",
                      "type": "uint256[2]"
                    }
                  ],
                  "internalType": "struct IEnygmaDvp.G2Point",
                  "name": "b",
                  "type": "tuple"
                },
                {
                  "components": [
                    {
                      "internalType": "uint256",
                      "name": "x",
                      "type": "uint256"
                    },
                    {
                      "internalType": "uint256",
                      "name": "y",
                      "type": "uint256"
                    }
                  ],
                  "internalType": "struct IEnygmaDvp.G1Point",
                  "name": "c",
                  "type": "tuple"
                }
              ],
              "internalType": "struct IEnygmaDvp.SnarkProof",
              "name": "proof",
              "type": "tuple"
            },
            {
              "internalType": "uint256[]",
              "name": "statement",
              "type": "uint256[]"
            },
            {
              "internalType": "uint256",
              "name": "numberOfInputs",
              "type": "uint256"
            },
            {
              "internalType": "uint256",
              "name": "numberOfOutputs",
              "type": "uint256"
            }
          ],
          "internalType": "struct IEnygmaDvp.ProofReceipt",
          "name": "receipt",
          "type": "tuple"
        }
      ],
      "name": "checkRegisterBrokerProofConditions",
      "outputs": [
        {
          "internalType": "bool",
          "name": "",
          "type": "bool"
        }
      ],
      "stateMutability": "nonpayable",
      "type": "function"
    },
    {
      "inputs": [],
      "name": "currentRoot",
      "outputs": [
        {
          "internalType": "uint256",
          "name": "",
          "type": "uint256"
        }
      ],
      "stateMutability": "view",
      "type": "function"
    },
    {
      "inputs": [
        {
          "internalType": "uint256[]",
          "name": "params",
          "type": "uint256[]"
        }
      ],
      "name": "deposit",
      "outputs": [
        {
          "internalType": "bool",
          "name": "",
          "type": "bool"
        }
      ],
      "stateMutability": "nonpayable",
      "type": "function"
    },
    {
      "inputs": [
        {
          "internalType": "uint256[]",
          "name": "params",
          "type": "uint256[]"
        },
        {
          "internalType": "bytes",
          "name": "ciphertextI",
          "type": "bytes"
        },
        {
          "internalType": "bytes",
          "name": "ciphertextII",
          "type": "bytes"
        }
      ],
      "name": "depositV2",
      "outputs": [
        {
          "internalType": "bool",
          "name": "",
          "type": "bool"
        }
      ],
      "stateMutability": "nonpayable",
      "type": "function"
    },
    {
      "inputs": [
        {
          "internalType": "uint256[]",
          "name": "params",
          "type": "uint256[]"
        }
      ],
      "name": "generateUniqueId",
      "outputs": [
        {
          "internalType": "uint256",
          "name": "",
          "type": "uint256"
        }
      ],
      "stateMutability": "view",
      "type": "function"
    },
    {
      "inputs": [],
      "name": "getAssetContractAddress",
      "outputs": [
        {
          "internalType": "address",
          "name": "",
          "type": "address"
        }
      ],
      "stateMutability": "view",
      "type": "function"
    },
    {
      "inputs": [],
      "name": "getHashContractAddress",
      "outputs": [
        {
          "internalType": "address",
          "name": "",
          "type": "address"
        }
      ],
      "stateMutability": "view",
      "type": "function"
    },
    {
      "inputs": [],
      "name": "getNumberOfAssetIdentifiers",
      "outputs": [
        {
          "internalType": "uint256",
          "name": "",
          "type": "uint256"
        }
      ],
      "stateMutability": "view",
      "type": "function"
    },
    {
      "inputs": [
        {
          "internalType": "uint256",
          "name": "proofUniqueId",
          "type": "uint256"
        }
      ],
      "name": "getPendingProofReceipt",
      "outputs": [
        {
          "components": [
            {
              "components": [
                {
                  "components": [
                    {
                      "internalType": "uint256",
                      "name": "x",
                      "type": "uint256"
                    },
                    {
                      "internalType": "uint256",
                      "name": "y",
                      "type": "uint256"
                    }
                  ],
                  "internalType": "struct IEnygmaDvp.G1Point",
                  "name": "a",
                  "type": "tuple"
                },
                {
                  "components": [
                    {
                      "internalType": "uint256[2]",
                      "name": "x",
                      "type": "uint256[2]"
                    },
                    {
                      "internalType": "uint256[2]",
                      "name": "y",
                      "type": "uint256[2]"
                    }
                  ],
                  "internalType": "struct IEnygmaDvp.G2Point",
                  "name": "b",
                  "type": "tuple"
                },
                {
                  "components": [
                    {
                      "internalType": "uint256",
                      "name": "x",
                      "type": "uint256"
                    },
                    {
                      "internalType": "uint256",
                      "name": "y",
                      "type": "uint256"
                    }
                  ],
                  "internalType": "struct IEnygmaDvp.G1Point",
                  "name": "c",
                  "type": "tuple"
                }
              ],
              "internalType": "struct IEnygmaDvp.SnarkProof",
              "name": "proof",
              "type": "tuple"
            },
            {
              "internalType": "uint256[]",
              "name": "statement",
              "type": "uint256[]"
            },
            {
              "internalType": "uint256",
              "name": "numberOfInputs",
              "type": "uint256"
            },
            {
              "internalType": "uint256",
              "name": "numberOfOutputs",
              "type": "uint256"
            }
          ],
          "internalType": "struct IEnygmaDvp.ProofReceipt",
          "name": "proofReceipt",
          "type": "tuple"
        }
      ],
      "stateMutability": "nonpayable",
      "type": "function"
    },
    {
      "inputs": [
        {
          "internalType": "bytes32",
          "name": "role",
          "type": "bytes32"
        }
      ],
      "name": "getRoleAdmin",
      "outputs": [
        {
          "internalType": "bytes32",
          "name": "",
          "type": "bytes32"
        }
      ],
      "stateMutability": "view",
      "type": "function"
    },
    {
      "inputs": [],
      "name": "getRoot",
      "outputs": [
        {
          "internalType": "uint256",
          "name": "root",
          "type": "uint256"
        }
      ],
      "stateMutability": "view",
      "type": "function"
    },
    {
      "inputs": [],
      "name": "getTreeId",
      "outputs": [
        {
          "internalType": "uint256",
          "name": "",
          "type": "uint256"
        }
      ],
      "stateMutability": "view",
      "type": "function"
    },
    {
      "inputs": [],
      "name": "getVaultId",
      "outputs": [
        {
          "internalType": "uint256",
          "name": "",
          "type": "uint256"
        }
      ],
      "stateMutability": "view",
      "type": "function"
    },
    {
      "inputs": [],
      "name": "getVerifierContractAddress",
      "outputs": [
        {
          "internalType": "address",
          "name": "",
          "type": "address"
        }
      ],
      "stateMutability": "view",
      "type": "function"
    },
    {
      "inputs": [
        {
          "internalType": "bytes32",
          "name": "role",
          "type": "bytes32"
        },
        {
          "internalType": "address",
          "name": "account",
          "type": "address"
        }
      ],
      "name": "grantRole",
      "outputs": [],
      "stateMutability": "nonpayable",
      "type": "function"
    },
    {
      "inputs": [
        {
          "internalType": "bytes32",
          "name": "role",
          "type": "bytes32"
        },
        {
          "internalType": "address",
          "name": "account",
          "type": "address"
        }
      ],
      "name": "hasRole",
      "outputs": [
        {
          "internalType": "bool",
          "name": "",
          "type": "bool"
        }
      ],
      "stateMutability": "view",
      "type": "function"
    },
    {
      "inputs": [
        {
          "internalType": "uint256",
          "name": "_left",
          "type": "uint256"
        },
        {
          "internalType": "uint256",
          "name": "_right",
          "type": "uint256"
        }
      ],
      "name": "hashLeftRight",
      "outputs": [
        {
          "internalType": "uint256",
          "name": "",
          "type": "uint256"
        }
      ],
      "stateMutability": "view",
      "type": "function"
    },
    {
      "inputs": [
        {
          "internalType": "uint256",
          "name": "_treeDepth",
          "type": "uint256"
        },
        {
          "internalType": "uint256",
          "name": "_treeId",
          "type": "uint256"
        },
        {
          "internalType": "address",
          "name": "_poseidonWrapperAddress",
          "type": "address"
        }
      ],
      "name": "initializeMerkle",
      "outputs": [],
      "stateMutability": "nonpayable",
      "type": "function"
    },
    {
      "inputs": [
        {
          "internalType": "uint256",
          "name": "vaultId",
          "type": "uint256"
        },
        {
          "internalType": "uint256",
          "name": "numberOfAssetIdentifiers",
          "type": "uint256"
        },
        {
          "internalType": "address",
          "name": "assetContractAddress",
          "type": "address"
        },
        {
          "internalType": "uint256",
          "name": "treeDepth",
          "type": "uint256"
        },
        {
          "internalType": "address",
          "name": "hashContractAddress",
          "type": "address"
        },
        {
          "internalType": "address",
          "name": "verifierContractAddress",
          "type": "address"
        },
        {
          "internalType": "address",
          "name": "zkAuctionContractAddress",
          "type": "address"
        }
      ],
      "name": "initializeVault",
      "outputs": [
        {
          "internalType": "bool",
          "name": "",
          "type": "bool"
        }
      ],
      "stateMutability": "nonpayable",
      "type": "function"
    },
    {
      "inputs": [
        {
          "components": [
            {
              "components": [
                {
                  "components": [
                    {
                      "internalType": "uint256",
                      "name": "x",
                      "type": "uint256"
                    },
                    {
                      "internalType": "uint256",
                      "name": "y",
                      "type": "uint256"
                    }
                  ],
                  "internalType": "struct IEnygmaDvp.G1Point",
                  "name": "a",
                  "type": "tuple"
                },
                {
                  "components": [
                    {
                      "internalType": "uint256[2]",
                      "name": "x",
                      "type": "uint256[2]"
                    },
                    {
                      "internalType": "uint256[2]",
                      "name": "y",
                      "type": "uint256[2]"
                    }
                  ],
                  "internalType": "struct IEnygmaDvp.G2Point",
                  "name": "b",
                  "type": "tuple"
                },
                {
                  "components": [
                    {
                      "internalType": "uint256",
                      "name": "x",
                      "type": "uint256"
                    },
                    {
                      "internalType": "uint256",
                      "name": "y",
                      "type": "uint256"
                    }
                  ],
                  "internalType": "struct IEnygmaDvp.G1Point",
                  "name": "c",
                  "type": "tuple"
                }
              ],
              "internalType": "struct IEnygmaDvp.SnarkProof",
              "name": "proof",
              "type": "tuple"
            },
            {
              "internalType": "uint256[]",
              "name": "statement",
              "type": "uint256[]"
            },
            {
              "internalType": "uint256",
              "name": "numberOfInputs",
              "type": "uint256"
            },
            {
              "internalType": "uint256",
              "name": "numberOfOutputs",
              "type": "uint256"
            }
          ],
          "internalType": "struct IEnygmaDvp.ProofReceipt",
          "name": "receipt",
          "type": "tuple"
        }
      ],
      "name": "insertCommitmentsFromReceipt",
      "outputs": [
        {
          "internalType": "bool",
          "name": "",
          "type": "bool"
        }
      ],
      "stateMutability": "nonpayable",
      "type": "function"
    },
    {
      "inputs": [
        {
          "internalType": "uint256[]",
          "name": "_leafHashes",
          "type": "uint256[]"
        }
      ],
      "name": "insertLeaves",
      "outputs": [],
      "stateMutability": "nonpayable",
      "type": "function"
    },
    {
      "inputs": [
        {
          "internalType": "uint256",
          "name": "_treeNumber",
          "type": "uint256"
        },
        {
          "internalType": "uint256",
          "name": "_nullifierId",
          "type": "uint256"
        }
      ],
      "name": "isLocked",
      "outputs": [
        {
          "internalType": "bool",
          "name": "",
          "type": "bool"
        }
      ],
      "stateMutability": "nonpayable",
      "type": "function"
    },
    {
      "inputs": [
        {
          "internalType": "uint256",
          "name": "_treeNumber",
          "type": "uint256"
        },
        {
          "internalType": "uint256",
          "name": "_nullifierId",
          "type": "uint256"
        }
      ],
      "name": "isValidNullifier",
      "outputs": [
        {
          "internalType": "bool",
          "name": "",
          "type": "bool"
        }
      ],
      "stateMutability": "view",
      "type": "function"
    },
    {
      "inputs": [
        {
          "internalType": "uint256",
          "name": "_treeNumber",
          "type": "uint256"
        },
        {
          "internalType": "uint256",
          "name": "_merkleRoot",
          "type": "uint256"
        }
      ],
      "name": "isValidRoot",
      "outputs": [
        {
          "internalType": "bool",
          "name": "",
          "type": "bool"
        }
      ],
      "stateMutability": "view",
      "type": "function"
    },
    {
      "inputs": [
        {
          "internalType": "uint256",
          "name": "_treeNumber",
          "type": "uint256"
        },
        {
          "internalType": "uint256",
          "name": "_nullifierId",
          "type": "uint256"
        }
      ],
      "name": "lock",
      "outputs": [
        {
          "internalType": "bool",
          "name": "",
          "type": "bool"
        }
      ],
      "stateMutability": "nonpayable",
      "type": "function"
    },
    {
      "inputs": [
        {
          "internalType": "uint256",
          "name": "treeNumber",
          "type": "uint256"
        },
        {
          "internalType": "uint256",
          "name": "nullifier",
          "type": "uint256"
        }
      ],
      "name": "lockCoin",
      "outputs": [
        {
          "internalType": "bool",
          "name": "",
          "type": "bool"
        }
      ],
      "stateMutability": "nonpayable",
      "type": "function"
    },
    {
      "inputs": [
        {
          "internalType": "uint256",
          "name": "",
          "type": "uint256"
        },
        {
          "internalType": "uint256",
          "name": "",
          "type": "uint256"
        }
      ],
      "name": "lockedNullifiers",
      "outputs": [
        {
          "internalType": "bool",
          "name": "",
          "type": "bool"
        }
      ],
      "stateMutability": "view",
      "type": "function"
    },
    {
      "inputs": [],
      "name": "merkleRoot",
      "outputs": [
        {
          "internalType": "uint256",
          "name": "",
          "type": "uint256"
        }
      ],
      "stateMutability": "view",
      "type": "function"
    },
    {
      "inputs": [],
      "name": "newTree",
      "outputs": [],
      "stateMutability": "nonpayable",
      "type": "function"
    },
    {
      "inputs": [
        {
          "internalType": "uint256",
          "name": "",
          "type": "uint256"
        },
        {
          "internalType": "uint256",
          "name": "",
          "type": "uint256"
        }
      ],
      "name": "nullifiers",
      "outputs": [
        {
          "internalType": "bool",
          "name": "",
          "type": "bool"
        }
      ],
      "stateMutability": "view",
      "type": "function"
    },
    {
      "inputs": [
        {
          "internalType": "uint256",
          "name": "treeNumber",
          "type": "uint256"
        },
        {
          "internalType": "uint256",
          "name": "nullifier",
          "type": "uint256"
        }
      ],
      "name": "nullifyCoin",
      "outputs": [
        {
          "internalType": "bool",
          "name": "",
          "type": "bool"
        }
      ],
      "stateMutability": "nonpayable",
      "type": "function"
    },
    {
      "inputs": [
        {
          "components": [
            {
              "components": [
                {
                  "components": [
                    {
                      "internalType": "uint256",
                      "name": "x",
                      "type": "uint256"
                    },
                    {
                      "internalType": "uint256",
                      "name": "y",
                      "type": "uint256"
                    }
                  ],
                  "internalType": "struct IEnygmaDvp.G1Point",
                  "name": "a",
                  "type": "tuple"
                },
                {
                  "components": [
                    {
                      "internalType": "uint256[2]",
                      "name": "x",
                      "type": "uint256[2]"
                    },
                    {
                      "internalType": "uint256[2]",
                      "name": "y",
                      "type": "uint256[2]"
                    }
                  ],
                  "internalType": "struct IEnygmaDvp.G2Point",
                  "name": "b",
                  "type": "tuple"
                },
                {
                  "components": [
                    {
                      "internalType": "uint256",
                      "name": "x",
                      "type": "uint256"
                    },
                    {
                      "internalType": "uint256",
                      "name": "y",
                      "type": "uint256"
                    }
                  ],
                  "internalType": "struct IEnygmaDvp.G1Point",
                  "name": "c",
                  "type": "tuple"
                }
              ],
              "internalType": "struct IEnygmaDvp.SnarkProof",
              "name": "proof",
              "type": "tuple"
            },
            {
              "internalType": "uint256[]",
              "name": "statement",
              "type": "uint256[]"
            },
            {
              "internalType": "uint256",
              "name": "numberOfInputs",
              "type": "uint256"
            },
            {
              "internalType": "uint256",
              "name": "numberOfOutputs",
              "type": "uint256"
            }
          ],
          "internalType": "struct IEnygmaDvp.ProofReceipt",
          "name": "receipt",
          "type": "tuple"
        }
      ],
      "name": "nullifyFromReceipt",
      "outputs": [
        {
          "internalType": "bool",
          "name": "",
          "type": "bool"
        }
      ],
      "stateMutability": "nonpayable",
      "type": "function"
    },
    {
      "inputs": [],
      "name": "poseidonWrapperAddress",
      "outputs": [
        {
          "internalType": "address",
          "name": "",
          "type": "address"
        }
      ],
      "stateMutability": "view",
      "type": "function"
    },
    {
      "inputs": [
        {
          "internalType": "uint256[]",
          "name": "commitments",
          "type": "uint256[]"
        }
      ],
      "name": "registerCoins",
      "outputs": [
        {
          "internalType": "bool",
          "name": "",
          "type": "bool"
        }
      ],
      "stateMutability": "nonpayable",
      "type": "function"
    },
    {
      "inputs": [
        {
          "internalType": "bytes32",
          "name": "role",
          "type": "bytes32"
        },
        {
          "internalType": "address",
          "name": "account",
          "type": "address"
        }
      ],
      "name": "renounceRole",
      "outputs": [],
      "stateMutability": "nonpayable",
      "type": "function"
    },
    {
      "inputs": [
        {
          "internalType": "bytes32",
          "name": "role",
          "type": "bytes32"
        },
        {
          "internalType": "address",
          "name": "account",
          "type": "address"
        }
      ],
      "name": "revokeRole",
      "outputs": [],
      "stateMutability": "nonpayable",
      "type": "function"
    },
    {
      "inputs": [
        {
          "internalType": "uint256",
          "name": "",
          "type": "uint256"
        },
        {
          "internalType": "uint256",
          "name": "",
          "type": "uint256"
        }
      ],
      "name": "rootHistory",
      "outputs": [
        {
          "internalType": "bool",
          "name": "",
          "type": "bool"
        }
      ],
      "stateMutability": "view",
      "type": "function"
    },
    {
      "inputs": [
        {
          "internalType": "uint256",
          "name": "_treeNumber",
          "type": "uint256"
        },
        {
          "internalType": "uint256",
          "name": "_nullifierId",
          "type": "uint256"
        }
      ],
      "name": "setNullifier",
      "outputs": [],
      "stateMutability": "nonpayable",
      "type": "function"
    },
    {
      "inputs": [
        {
          "internalType": "bytes4",
          "name": "interfaceId",
          "type": "bytes4"
        }
      ],
      "name": "supportsInterface",
      "outputs": [
        {
          "internalType": "bool",
          "name": "",
          "type": "bool"
        }
      ],
      "stateMutability": "view",
      "type": "function"
    },
    {
      "inputs": [
        {
          "components": [
            {
              "components": [
                {
                  "components": [
                    {
                      "internalType": "uint256",
                      "name": "x",
                      "type": "uint256"
                    },
                    {
                      "internalType": "uint256",
                      "name": "y",
                      "type": "uint256"
                    }
                  ],
                  "internalType": "struct IEnygmaDvp.G1Point",
                  "name": "a",
                  "type": "tuple"
                },
                {
                  "components": [
                    {
                      "internalType": "uint256[2]",
                      "name": "x",
                      "type": "uint256[2]"
                    },
                    {
                      "internalType": "uint256[2]",
                      "name": "y",
                      "type": "uint256[2]"
                    }
                  ],
                  "internalType": "struct IEnygmaDvp.G2Point",
                  "name": "b",
                  "type": "tuple"
                },
                {
                  "components": [
                    {
                      "internalType": "uint256",
                      "name": "x",
                      "type": "uint256"
                    },
                    {
                      "internalType": "uint256",
                      "name": "y",
                      "type": "uint256"
                    }
                  ],
                  "internalType": "struct IEnygmaDvp.G1Point",
                  "name": "c",
                  "type": "tuple"
                }
              ],
              "internalType": "struct IEnygmaDvp.SnarkProof",
              "name": "proof",
              "type": "tuple"
            },
            {
              "internalType": "uint256[]",
              "name": "statement",
              "type": "uint256[]"
            },
            {
              "internalType": "uint256",
              "name": "numberOfInputs",
              "type": "uint256"
            },
            {
              "internalType": "uint256",
              "name": "numberOfOutputs",
              "type": "uint256"
            }
          ],
          "internalType": "struct IEnygmaDvp.ProofReceipt",
          "name": "receipt",
          "type": "tuple"
        }
      ],
      "name": "transfer",
      "outputs": [
        {
          "internalType": "bool",
          "name": "",
          "type": "bool"
        }
      ],
      "stateMutability": "nonpayable",
      "type": "function"
    },
    {
      "inputs": [
        {
          "components": [
            {
              "components": [
                {
                  "components": [
                    {
                      "internalType": "uint256",
                      "name": "x",
                      "type": "uint256"
                    },
                    {
                      "internalType": "uint256",
                      "name": "y",
                      "type": "uint256"
                    }
                  ],
                  "internalType": "struct IEnygmaDvp.G1Point",
                  "name": "a",
                  "type": "tuple"
                },
                {
                  "components": [
                    {
                      "internalType": "uint256[2]",
                      "name": "x",
                      "type": "uint256[2]"
                    },
                    {
                      "internalType": "uint256[2]",
                      "name": "y",
                      "type": "uint256[2]"
                    }
                  ],
                  "internalType": "struct IEnygmaDvp.G2Point",
                  "name": "b",
                  "type": "tuple"
                },
                {
                  "components": [
                    {
                      "internalType": "uint256",
                      "name": "x",
                      "type": "uint256"
                    },
                    {
                      "internalType": "uint256",
                      "name": "y",
                      "type": "uint256"
                    }
                  ],
                  "internalType": "struct IEnygmaDvp.G1Point",
                  "name": "c",
                  "type": "tuple"
                }
              ],
              "internalType": "struct IEnygmaDvp.SnarkProof",
              "name": "proof",
              "type": "tuple"
            },
            {
              "internalType": "uint256[]",
              "name": "statement",
              "type": "uint256[]"
            },
            {
              "internalType": "uint256",
              "name": "numberOfInputs",
              "type": "uint256"
            },
            {
              "internalType": "uint256",
              "name": "numberOfOutputs",
              "type": "uint256"
            }
          ],
          "internalType": "struct IEnygmaDvp.ProofReceipt",
          "name": "receipt",
          "type": "tuple"
        },
        {
          "internalType": "bytes[]",
          "name": "ciphertextI",
          "type": "bytes[]"
        },
        {
          "internalType": "bytes[]",
          "name": "ciphertextII",
          "type": "bytes[]"
        }
      ],
      "name": "transferV2",
      "outputs": [
        {
          "internalType": "bool",
          "name": "",
          "type": "bool"
        }
      ],
      "stateMutability": "nonpayable",
      "type": "function"
    },
    {
      "inputs": [],
      "name": "treeNumber",
      "outputs": [
        {
          "internalType": "uint256",
          "name": "",
          "type": "uint256"
        }
      ],
      "stateMutability": "view",
      "type": "function"
    },
    {
      "inputs": [
        {
          "internalType": "uint256",
          "name": "_treeNumber",
          "type": "uint256"
        },
        {
          "internalType": "uint256",
          "name": "_nullifierId",
          "type": "uint256"
        }
      ],
      "name": "unlock",
      "outputs": [
        {
          "internalType": "bool",
          "name": "",
          "type": "bool"
        }
      ],
      "stateMutability": "nonpayable",
      "type": "function"
    },
    {
      "inputs": [
        {
          "internalType": "uint256",
          "name": "treeNumber",
          "type": "uint256"
        },
        {
          "internalType": "uint256",
          "name": "nullifier",
          "type": "uint256"
        }
      ],
      "name": "unlockCoin",
      "outputs": [
        {
          "internalType": "bool",
          "name": "",
          "type": "bool"
        }
      ],
      "stateMutability": "nonpayable",
      "type": "function"
    },
    {
      "inputs": [
        {
          "components": [
            {
              "components": [
                {
                  "components": [
                    {
                      "internalType": "uint256",
                      "name": "x",
                      "type": "uint256"
                    },
                    {
                      "internalType": "uint256",
                      "name": "y",
                      "type": "uint256"
                    }
                  ],
                  "internalType": "struct IEnygmaDvp.G1Point",
                  "name": "a",
                  "type": "tuple"
                },
                {
                  "components": [
                    {
                      "internalType": "uint256[2]",
                      "name": "x",
                      "type": "uint256[2]"
                    },
                    {
                      "internalType": "uint256[2]",
                      "name": "y",
                      "type": "uint256[2]"
                    }
                  ],
                  "internalType": "struct IEnygmaDvp.G2Point",
                  "name": "b",
                  "type": "tuple"
                },
                {
                  "components": [
                    {
                      "internalType": "uint256",
                      "name": "x",
                      "type": "uint256"
                    },
                    {
                      "internalType": "uint256",
                      "name": "y",
                      "type": "uint256"
                    }
                  ],
                  "internalType": "struct IEnygmaDvp.G1Point",
                  "name": "c",
                  "type": "tuple"
                }
              ],
              "internalType": "struct IEnygmaDvp.SnarkProof",
              "name": "proof",
              "type": "tuple"
            },
            {
              "internalType": "uint256[]",
              "name": "statement",
              "type": "uint256[]"
            },
            {
              "internalType": "uint256",
              "name": "numberOfInputs",
              "type": "uint256"
            },
            {
              "internalType": "uint256",
              "name": "numberOfOutputs",
              "type": "uint256"
            }
          ],
          "internalType": "struct IEnygmaDvp.ProofReceipt",
          "name": "receipt",
          "type": "tuple"
        }
      ],
      "name": "unlockFromReceipt",
      "outputs": [
        {
          "internalType": "bool",
          "name": "",
          "type": "bool"
        }
      ],
      "stateMutability": "nonpayable",
      "type": "function"
    },
    {
      "inputs": [
        {
          "internalType": "uint256[]",
          "name": "params_",
          "type": "uint256[]"
        },
        {
          "components": [
            {
              "components": [
                {
                  "components": [
                    {
                      "internalType": "uint256",
                      "name": "x",
                      "type": "uint256"
                    },
                    {
                      "internalType": "uint256",
                      "name": "y",
                      "type": "uint256"
                    }
                  ],
                  "internalType": "struct IEnygmaDvp.G1Point",
                  "name": "a",
                  "type": "tuple"
                },
                {
                  "components": [
                    {
                      "internalType": "uint256[2]",
                      "name": "x",
                      "type": "uint256[2]"
                    },
                    {
                      "internalType": "uint256[2]",
                      "name": "y",
                      "type": "uint256[2]"
                    }
                  ],
                  "internalType": "struct IEnygmaDvp.G2Point",
                  "name": "b",
                  "type": "tuple"
                },
                {
                  "components": [
                    {
                      "internalType": "uint256",
                      "name": "x",
                      "type": "uint256"
                    },
                    {
                      "internalType": "uint256",
                      "name": "y",
                      "type": "uint256"
                    }
                  ],
                  "internalType": "struct IEnygmaDvp.G1Point",
                  "name": "c",
                  "type": "tuple"
                }
              ],
              "internalType": "struct IEnygmaDvp.SnarkProof",
              "name": "proof",
              "type": "tuple"
            },
            {
              "internalType": "uint256[]",
              "name": "statement",
              "type": "uint256[]"
            },
            {
              "internalType": "uint256",
              "name": "numberOfInputs",
              "type": "uint256"
            },
            {
              "internalType": "uint256",
              "name": "numberOfOutputs",
              "type": "uint256"
            }
          ],
          "internalType": "struct IEnygmaDvp.ProofReceipt",
          "name": "receipt_",
          "type": "tuple"
        }
      ],
      "name": "verifyOwnership",
      "outputs": [
        {
          "internalType": "bool",
          "name": "",
          "type": "bool"
        }
      ],
      "stateMutability": "nonpayable",
      "type": "function"
    },
    {
      "inputs": [
        {
          "internalType": "uint256",
          "name": "treeNumber",
          "type": "uint256"
        },
        {
          "internalType": "uint256",
          "name": "root",
          "type": "uint256"
        }
      ],
      "name": "verifyRoot",
      "outputs": [
        {
          "internalType": "bool",
          "name": "",
          "type": "bool"
        }
      ],
      "stateMutability": "view",
      "type": "function"
    },
    {
      "inputs": [
        {
          "internalType": "uint256[]",
          "name": "withdrawParams",
          "type": "uint256[]"
        },
        {
          "internalType": "address",
          "name": "recipient",
          "type": "address"
        },
        {
          "components": [
            {
              "components": [
                {
                  "components": [
                    {
                      "internalType": "uint256",
                      "name": "x",
                      "type": "uint256"
                    },
                    {
                      "internalType": "uint256",
                      "name": "y",
                      "type": "uint256"
                    }
                  ],
                  "internalType": "struct IEnygmaDvp.G1Point",
                  "name": "a",
                  "type": "tuple"
                },
                {
                  "components": [
                    {
                      "internalType": "uint256[2]",
                      "name": "x",
                      "type": "uint256[2]"
                    },
                    {
                      "internalType": "uint256[2]",
                      "name": "y",
                      "type": "uint256[2]"
                    }
                  ],
                  "internalType": "struct IEnygmaDvp.G2Point",
                  "name": "b",
                  "type": "tuple"
                },
                {
                  "components": [
                    {
                      "internalType": "uint256",
                      "name": "x",
                      "type": "uint256"
                    },
                    {
                      "internalType": "uint256",
                      "name": "y",
                      "type": "uint256"
                    }
                  ],
                  "internalType": "struct IEnygmaDvp.G1Point",
                  "name": "c",
                  "type": "tuple"
                }
              ],
              "internalType": "struct IEnygmaDvp.SnarkProof",
              "name": "proof",
              "type": "tuple"
            },
            {
              "internalType": "uint256[]",
              "name": "statement",
              "type": "uint256[]"
            },
            {
              "internalType": "uint256",
              "name": "numberOfInputs",
              "type": "uint256"
            },
            {
              "internalType": "uint256",
              "name": "numberOfOutputs",
              "type": "uint256"
            }
          ],
          "internalType": "struct IEnygmaDvp.ProofReceipt",
          "name": "receipt",
          "type": "tuple"
        }
      ],
      "name": "withdraw",
      "outputs": [
        {
          "internalType": "bool",
          "name": "",
          "type": "bool"
        }
      ],
      "stateMutability": "nonpayable",
      "type": "function"
    },
    {
      "inputs": [
        {
          "internalType": "uint256[]",
          "name": "withdrawParams",
          "type": "uint256[]"
        },
        {
          "internalType": "address",
          "name": "recipient",
          "type": "address"
        },
        {
          "components": [
            {
              "components": [
                {
                  "components": [
                    {
                      "internalType": "uint256",
                      "name": "x",
                      "type": "uint256"
                    },
                    {
                      "internalType": "uint256",
                      "name": "y",
                      "type": "uint256"
                    }
                  ],
                  "internalType": "struct IEnygmaDvp.G1Point",
                  "name": "a",
                  "type": "tuple"
                },
                {
                  "components": [
                    {
                      "internalType": "uint256[2]",
                      "name": "x",
                      "type": "uint256[2]"
                    },
                    {
                      "internalType": "uint256[2]",
                      "name": "y",
                      "type": "uint256[2]"
                    }
                  ],
                  "internalType": "struct IEnygmaDvp.G2Point",
                  "name": "b",
                  "type": "tuple"
                },
                {
                  "components": [
                    {
                      "internalType": "uint256",
                      "name": "x",
                      "type": "uint256"
                    },
                    {
                      "internalType": "uint256",
                      "name": "y",
                      "type": "uint256"
                    }
                  ],
                  "internalType": "struct IEnygmaDvp.G1Point",
                  "name": "c",
                  "type": "tuple"
                }
              ],
              "internalType": "struct IEnygmaDvp.SnarkProof",
              "name": "proof",
              "type": "tuple"
            },
            {
              "internalType": "uint256[]",
              "name": "statement",
              "type": "uint256[]"
            },
            {
              "internalType": "uint256",
              "name": "numberOfInputs",
              "type": "uint256"
            },
            {
              "internalType": "uint256",
              "name": "numberOfOutputs",
              "type": "uint256"
            }
          ],
          "internalType": "struct IEnygmaDvp.ProofReceipt",
          "name": "receipt",
          "type": "tuple"
        }
      ],
      "name": "withdrawV2",
      "outputs": [
        {
          "internalType": "bool",
          "name": "",
          "type": "bool"
        }
      ],
      "stateMutability": "nonpayable",
      "type": "function"
    },
    {
      "inputs": [
        {
          "internalType": "uint256",
          "name": "",
          "type": "uint256"
        }
      ],
      "name": "zeros",
      "outputs": [
        {
          "internalType": "uint256",
          "name": "",
          "type": "uint256"
        }
      ],
      "stateMutability": "view",
      "type": "function"
    },
    {
      "inputs": [],
      "name": "zkDvpAddress",
      "outputs": [
        {
          "internalType": "address",
          "name": "",
          "type": "address"
        }
      ],
      "stateMutability": "view",
      "type": "function"
    }
  ],
  "bytecode": "0x608034620001ff57601f62003b1d38819003918201601f1916830192916001600160401b03841183851017620002045780839260409586528339602092839181010312620001ff57516001600160a01b03811690819003620001ff57825182810190686f776e6572526f6c6560b81b8252600981526200007f816200021a565b51902090600091808352600e8452848320338452845260ff858420541615620001c4575b5083518381019066447670526f6c6560c81b825260078152620000c6816200021a565b51902090818352600e8452848320818452845260ff8584205416156200018a575b5050600f5490600192600183811c931680156200017f575b818410146200016b57601f831162000145575b7f5a6b447670202d20455243323020436f696e205661756c740000000000000030600f5584516138c69081620002378239f35b601f90600f83528220920160051c8201915b828110156200011257818155830162000157565b634e487b7160e01b82526022600452602482fd5b92607f1692620000ff565b818352600e84528483208184528452848320805460ff19166001179055339160008051602062003afd8339815191528480a43880620000e7565b808352600e84528483203384528452848320600160ff198254161790553390339060008051602062003afd8339815191528580a438620000a3565b600080fd5b634e487b7160e01b600052604160045260246000fd5b604081019081106001600160401b03821117620002045760405256fe608080604052600436101561001357600080fd5b60003560e01c90816301ffc9a71461205c57508063068235a7146120405780631338736f146120275780631708ed6114611edb578063176764b514611ea25780631d7c55a214611c5e5780631ecf1e8c14611a745780631ed2bfde14611979578063248a9ca31461194a57806327c61f511461190f5780632db1e64a1461175b5780632eb4a7ab146102de5780632f2ff15d1461185957806332c9b1831461183257806336568abe14611793578063389533051461175b5780633b8162b7146117115780633bbc2aec14611472578063422998c514610e7857806346d072591461141a5780634b4703dc146113e65780634e2285f1146113c85780634e2a00d91461137357806358a1d8ae1461134c57806358d199df14611335578063598b8e711461122557806359f880bd1461120a5780635bb93995146111f15780635bfadb24146111d85780635ca1e165146102de5780635f9563c0146111ba578063665033151461119c57806368e8093d1461117e57806372bef65d146111255780637628c0431461110c5780637718e23a14610eb057806378d3915c14610e785780637a1638e61461036e5780637b22a8ac14610e205780637d16374914610c5c5780637d8c1cd714610c355780638584143214610ac457806385d72e3e14610a7e57806391d1485414610a3057806394ca3cef14610888578063971607ba14610861578063a217fddf14610481578063a8d469291461083a578063a9e6ce421461081e578063aacd552c14610654578063b253740d146104c4578063b3f5bd891461049d578063b4fde09614610481578063ba22c1301461042a578063c695cea9146103e7578063d547741f146103a6578063d90991141461036e578063e829558814610337578063ec732959146102fc578063fdab463d146102de5763fe6f79d3146102be57600080fd5b346102d95760003660031901126102d9576102d761325f565b005b600080fd5b346102d95760003660031901126102d9576020600654604051908152f35b346102d95760003660031901126102d95760206040517f302a880eeac9ec8b02e876fea5cfd4947f3f87950cb04c9105f167aa346f5efa8152f35b346102d95760203660031901126102d9576004356009548110156102d9576103606020916124fa565b90546040519160031b1c8152f35b346102d95761037c366120fa565b906000526003602052604060002090600052602052602060ff604060002054166040519015158152f35b346102d95760403660031901126102d9576102d76004356103c5612126565b9080600052600e6020526103e2600160406000200154339061329d565b6135c6565b346102d95760203660031901126102d95760043567ffffffffffffffff81116102d95761042261041d60209236906004016121ca565b61320f565b604051908152f35b346102d95760203660031901126102d95760043567ffffffffffffffff81116102d9576104776104606020923690600401612297565b61047261046b6123bc565b339061329d565b61363d565b6040519015158152f35b346102d95760003660031901126102d957602060405160008152f35b346102d95760603660031901126102d9576102d76104b9612110565b602435600435612f73565b346102d9576020806003193601126102d95760043567ffffffffffffffff81116102d9576104f6903690600401612297565b61050161046b6123bc565b60408101516001928184019081851161063e576001600160ff1b038316830361063e5782851b85019182861161063e5792936020019260005b85811061054c57602060405160008152f35b8451908088019182891161063e57889261056591612644565b5161057b8751610575848961260d565b90612644565b5161058b8851610575858861260d565b51610599575b50500161053a565b9080935060005260038552604060002081600052855260ff604060002054166000146106145788926105d2336105cd6123bc565b61329d565b6105dc8282612d28565b506015547f99565704f398859b97f9b53066e321c61c6bbdf4176848e0180528b79257b9a083838383600080a4600080a48880610591565b60046040517fb448aede000000000000000000000000000000000000000000000000000000008152fd5b634e487b7160e01b600052601160045260246000fd5b346102d95760603660031901126102d95767ffffffffffffffff6004358181116102d957610686903690600401612297565b6024358281116102d95761069e9036906004016124c9565b926044359081116102d9576106b79036906004016124c9565b929093606082019384518083149081610814575b50156107aa576106da8361294b565b506106e48361363d565b506106ee83613735565b506040830151958660030296600388040361063e576001966001018060011161063e57879060009760206015549701925b61072f575b602060405160018152f35b80518910156107a557898989897f3703497aa5a04538e087fdf04a8711f50aa786fc6bc4bf911fc5ef5459ac34b28989869f61078e818f81610786918f8f61057561079b9861077f93519261260d565b519a612f31565b959094612f31565b9060405194859485612f0a565b0390a3019861071f565b610724565b608460405162461bcd60e51b815260206004820152602a60248201527f4572633230436f696e5661756c743a2063697068657274657874206c656e677460448201527f68206d69736d61746368000000000000000000000000000000000000000000006064820152fd5b90508114876106cb565b346102d95760003660031901126102d957602060405160178152f35b346102d95760003660031901126102d95760206001600160a01b0360015416604051908152f35b346102d95760003660031901126102d95760206001600160a01b0360115416604051908152f35b346102d95760603660031901126102d95767ffffffffffffffff6004358181116102d9576108ba9036906004016121ca565b6024358281116102d9576108d290369060040161249b565b916044359384116102d9576108ee61095494369060040161249b565b9390926109046108fd84612627565b5193612634565b51946001600160a01b03601354169360405180956323b872dd60e01b82528160008160209c8d963033600485016040919493929460608201956001600160a01b0380921683521660208201520152565b03925af1908115610a24577f3703497aa5a04538e087fdf04a8711f50aa786fc6bc4bf911fc5ef5459ac34b2946109eb926109f7575b506109b460405161099a8161213c565b60018152893681830137886109ae82612627565b52612658565b6015549560405194859489897f28ec6d3cf0e771d5a8b44b29744de77a87c1301f68127019d5049968253913b4600080a385612f0a565b0390a360405160018152f35b610a1690893d8b11610a1d575b610a0e8183612190565b810190612924565b508861098a565b503d610a04565b6040513d6000823e3d90fd5b346102d95760403660031901126102d957610a49612126565b600435600052600e6020526001600160a01b0360406000209116600052602052602060ff604060002054166040519015158152f35b346102d95760203660031901126102d95760043567ffffffffffffffff81116102d957610477610ab46020923690600401612297565b610abf61046b6123bc565b613735565b346102d95760203660031901126102d95760043567ffffffffffffffff81116102d957610af5903690600401612297565b60408101519060039180600301908160031161063e5791610b16838361260d565b91602060009201915b848110610b3157602060405160018152f35b610b408351610575838561260d565b51610b4e575b600101610b1f565b8251908087019182881161063e57610b6983610b9b92612644565b51610b798651610575858861260d565b5190600052600b60205260406000209060005260205260ff6040600020541690565b15610c2457610be0610bae838651612644565b51610bbe8651610575858a61260d565b5190600052600260205260406000209060005260205260ff6040600020541690565b610c1357610c0b610bf46001938651612644565b51610c048651610575858a61260d565b5190612e3c565b509050610b46565b6004604051632ec8265960e11b8152fd5b6004604051639dd854d360e01b8152fd5b346102d95760003660031901126102d95760206001600160a01b0360105416604051908152f35b346102d9576020806003193601126102d95760006060604051610c7e81612158565b604051610c8a81612174565b604051610c968161213c565b84815284868201528152604051610cac8161213c565b604051610cb88161213c565b60403682378152604051610ccb8161213c565b60403682378682015285820152604051610ce48161213c565b848152848682015260408201528152818482015282604082015201526004356000526017815260406000209060405191610d1d83612158565b604051610d2981612174565b610d3282612e96565b8152604051610d408161213c565b610d4c60028401612eb4565b8152610d5a60048401612eb4565b8482015283820152610d6e60068301612e96565b6040820152835260088101604051808285829454938481520190600052856000209260005b87828210610e0a57505050610daa92500382612190565b828401908152600a6009830154926040860193845201549060608501918252610dde60405195858796875286019051612422565b5190610df96101609283610120870152610180860190612467565b925161014085015251908301520390f35b8554845260019586019587955093019201610d93565b346102d9576020610e30366120fa565b610e3b61046b6123bc565b610e458183612be6565b60155491604051927f437885c05eacc89ce854c46fbeb8290d4c624ea6b561c7a784d86bb5369b2ea3600080a460018152f35b346102d957610e86366120fa565b906000526002602052604060002090600052602052602060ff604060002054166040519015158152f35b346102d95760203660031901126102d95760043567ffffffffffffffff81116102d957610ee1903690600401612297565b610eec61046b6123bc565b6040810151906001916001600160ff1b038116810361063e5780831b8301831161063e57610f2b610f218280861b860161260d565b6020840151612644565b516000908152601760205260409020600881015415610f6e5760046040517fb08d7c2e000000000000000000000000000000000000000000000000000000008152fd5b82519160208351805184550151858301556020830151938451938660005b6002811015610fab576020875197019660028288010155018790610f8c565b50945060208601518560005b600281106110f657505050604060209101518051600686015501516007840155602081015192835167ffffffffffffffff81116110e0576801000000000000000081116110e0576020869560088401548360088601558084106110c0575b50016008830160005260206000208660005b8481106110ad57505050505060408201516009820155600a60608301519101556000925b61105e575b505050602090604051908152f35b60408101518310156110a85760208101518385019384861161063e576110a061108987968794612644565b51610c0460208601516105758589881b880161260d565b50019261104b565b611050565b6020845194019381840155018790611027565b6110da906008860160005284846000209182019101612e7f565b88611015565b634e487b7160e01b600052604160045260246000fd5b6020835193019260048289010155018690610fb7565b346102d957602061047761111f366120fa565b90612e3c565b346102d95760203660031901126102d95760043567ffffffffffffffff81116102d957611159611172913690600401612297565b6111628161294b565b5061116c8161363d565b50613735565b50602060405160018152f35b346102d95760003660031901126102d9576020601654604051908152f35b346102d95760003660031901126102d9576020600854604051908152f35b346102d95760003660031901126102d9576020600c54604051908152f35b346102d95760206104776111eb366120fa565b90612d28565b346102d9576020610422611204366120fa565b90612c9e565b346102d95760003660031901126102d95760206104226123bc565b346102d9576020806003193601126102d95760043567ffffffffffffffff81116102d9576112579036906004016121ca565b6000826112b261127061126985612627565b5194612634565b516013546040516323b872dd60e01b8152336004820152306024820152604481019690965290949384926001600160a01b039092169183919082906064820190565b03925af18015610a2457611318575b506112e56040516112d18161213c565b60018152833681830137826109ae82612627565b60155490604051917f28ec6d3cf0e771d5a8b44b29744de77a87c1301f68127019d5049968253913b4600080a360018152f35b61132e90833d8511610a1d57610a0e8183612190565b50826112c1565b346102d9576102d7611346366120fa565b90612be6565b346102d95760003660031901126102d95760206001600160a01b0360005416604051908152f35b346102d95760003660031901126102d9576020604051818101907f41756374696f6e526f6c650000000000000000000000000000000000000000008252600b81526113bd8161213c565b519020604051908152f35b346102d95760003660031901126102d9576020601554604051908152f35b346102d95760206104776113f9366120fa565b90600052600b60205260406000209060005260205260ff6040600020541690565b346102d957611428366120fa565b9061143461046b6123bc565b61143e8282612d28565b506015547f99565704f398859b97f9b53066e321c61c6bbdf4176848e0180528b79257b9a0600080a4602060405160018152f35b346102d95761148036612361565b909161149561148e82612627565b5191612634565b519260408301928351928360030293600385040361063e578360010160011161063e576001600160a01b03928360105416604051976114d389612158565b8583168952602098899160008383015285604083015260608201526040519283917fac490f26000000000000000000000000000000000000000000000000000000008352600483016000905b600482106116f857505050816084915afa908115610a24576000916116cb575b50611551888501966001018751612644565b51036116a15761159f93611565889461294b565b506013541690600060405180968195829463a9059cbb60e01b845260048401602090939291936001600160a01b0360408201951681520152565b03925af18015610a2457611684575b5081516001600160ff1b038116810361063e5760011b600101928360011161063e5760005b835181101561167a576115eb8351610575838861260d565b516115f9575b6001016115d3565b825190806001018060011161063e5761162e61161782600195612644565b516116278751610575868c61260d565b5190612be6565b61163c601554918651612644565b5161164c8651610575858b61260d565b51917f437885c05eacc89ce854c46fbeb8290d4c624ea6b561c7a784d86bb5369b2ea3600080a490506115f1565b5060405160018152f35b61169a90843d8611610a1d57610a0e8183612190565b50836115ae565b60046040517f399d2d9b000000000000000000000000000000000000000000000000000000008152fd5b90508781813d83116116f1575b6116e28183612190565b810103126102d957518861153f565b503d6116d8565b825181528d95879550928301926001909201910161151f565b346102d95760003660031901126102d9576020604051818101907f6f776e6572526f6c6500000000000000000000000000000000000000000000008252600981526113bd8161213c565b346102d957611769366120fa565b90600052600b602052604060002090600052602052602060ff604060002054166040519015158152f35b346102d95760403660031901126102d9576117ac612126565b336001600160a01b038216036117c8576102d7906004356135c6565b608460405162461bcd60e51b815260206004820152602f60248201527f416363657373436f6e74726f6c3a2063616e206f6e6c792072656e6f756e636560448201527f20726f6c657320666f722073656c6600000000000000000000000000000000006064820152fd5b346102d95760003660031901126102d95760206001600160a01b0360135416604051908152f35b346102d95760403660031901126102d957600435611875612126565b81600052600e602052611891600160406000200154339061329d565b81600052600e6020526001600160a01b0360406000209116908160005260205260ff60406000205416156118c157005b81600052600e6020526040600020816000526020526040600020600160ff1982541617905533917f2f8788117e7eff1d82e926ec794901d17c78024a50270940304540a733656f0d600080a4005b346102d95760203660031901126102d95760043567ffffffffffffffff81116102d9576104776119456020923690600401612297565b61294b565b346102d95760203660031901126102d957600435600052600e6020526020600160406000200154604051908152f35b346102d95760203660031901126102d95760043567ffffffffffffffff81116102d9576119aa9036906004016121ca565b6119b561046b6123bc565b6000805b82518110156119ee576119cc8184612644565b516119da575b6001016119b9565b906119e660019161293c565b9190506119d2565b506119f8816128c4565b9160005b828110611a0c5761072484612658565b80611a1960019284612644565b51611a25575b016119fc565b611a2f8184612644565b51611a3a8287612644565b52601554611a488287612644565b51907f28ec6d3cf0e771d5a8b44b29744de77a87c1301f68127019d5049968253913b4600080a3611a1f565b346102d95760403660031901126102d95767ffffffffffffffff6004358181116102d957611aa69036906004016121ca565b906024359081116102d957611ac2611ac8913690600401612297565b91612627565b51906020918282016000611adc8251612627565b51916001600160a01b038681601254166024604051809681937f3cd6f55e0000000000000000000000000000000000000000000000000000000083528960048401525af1908115610a2457611b92938892611c41575b50611b5d604051611b4281612174565b600281526040368583013787611b5782612627565b5261320f565b906010541660405191611b6f8361213c565b825260008383015260405180809681946314d2f97b60e11b8352600483016128f6565b03915afa918215610a2457600092611c12575b5051805160041015611bfc5760a00151036116a157611bc560009361294b565b507ff4ba1266d3bddd382b01c33871e98d90fee982e1baa7bb9bf2d8a09de085aeb48460155493604051908152a460405160018152f35b634e487b7160e01b600052603260045260246000fd5b9091508581813d8311611c3a575b611c2a8183612190565b810103126102d957519086611ba5565b503d611c20565b611c5790833d8511610a1d57610a0e8183612190565b5088611b32565b346102d957611c78611c6f36612361565b91929092612627565b519160408201805192600193840180851161063e578251611c989161260d565b91611ca481518461260d565b9160405196611cb288612174565b600288526020976040368a83013781611cca82612627565b52611d21896001600160a01b03611cea81601354169485611b5782612634565b9080601054169060405192611cfe8461213c565b83528b168383015260405180809581946314d2f97b60e11b8352600483016128f6565b03915afa908115610a2457600091611e75575b50611d438a8501968751612644565b51036116a157611d8c96611d578a9461294b565b50600060405180998195829463a9059cbb60e01b845260048401602090939291936001600160a01b0360408201951681520152565b03925af1938415610a24578594611e58575b506000845b611db2575b8685604051908152f35b8151811015611e5357611dca8351610575838761260d565b51611dd8575b840184611da3565b935081518486019485871161063e5785611e07611df789988995612644565b516116278751610575868b61260d565b611e15601554918651612644565b51611e258651610575858a61260d565b51917f437885c05eacc89ce854c46fbeb8290d4c624ea6b561c7a784d86bb5369b2ea3600080a49050611dd0565b611da8565b611e6e90873d8911610a1d57610a0e8183612190565b5086611d9e565b90508981813d8311611e9b575b611e8c8183612190565b810103126102d957518a611d34565b503d611e82565b346102d95760203660031901126102d95760043567ffffffffffffffff81116102d957611ed66102d79136906004016121ca565b612658565b346102d95760e03660031901126102d957611ef4612110565b6084356001600160a01b03908181168091036102d95760a435928284168094036102d95760c435918383168093036102d95783839261072496611f3861046b6123bc565b6004356015557fffffffffffffffffffffffff00000000000000000000000000000000000000009333856012541617601255846010541617601055836011541617601155168160135416176013556014541617601455602435601655611f9c6123bc565b9081600052600e60205260406000208160005260205260ff6040600020541615611fd4575b5050601554906010541690606435612f73565b81600052600e6020526040600020816000526020526040600020600160ff1982541617905533917f2f8788117e7eff1d82e926ec794901d17c78024a50270940304540a733656f0d600080a48280611fc1565b346102d957602061047761203a366120fa565b906125d9565b346102d95760003660031901126102d957602060405160068152f35b346102d95760203660031901126102d957600435907fffffffff0000000000000000000000000000000000000000000000000000000082168092036102d957817f7965db0b00000000000000000000000000000000000000000000000000000000602093149081156120d0575b5015158152f35b7f01ffc9a700000000000000000000000000000000000000000000000000000000915014836120c9565b60409060031901126102d9576004359060243590565b604435906001600160a01b03821682036102d957565b602435906001600160a01b03821682036102d957565b6040810190811067ffffffffffffffff8211176110e057604052565b6080810190811067ffffffffffffffff8211176110e057604052565b6060810190811067ffffffffffffffff8211176110e057604052565b90601f8019910116810190811067ffffffffffffffff8211176110e057604052565b67ffffffffffffffff81116110e05760051b60200190565b9080601f830112156102d95760209082356121e4816121b2565b936121f26040519586612190565b81855260208086019260051b8201019283116102d957602001905b82821061221b575050505090565b8135815290830190830161220d565b91908260409103126102d9576040516122428161213c565b6020808294803584520135910152565b9080601f830112156102d9576040519161226b8361213c565b8290604081019283116102d957905b8282106122875750505090565b813581526020918201910161227a565b808203929161016084126102d9576040908151926122b484612158565b8395610100908181126102d95760808551916122cf83612174565b6122d9868661222a565b8352603f1901126102d95784516122ef8161213c565b6122fb85878601612252565b815261230a8560808601612252565b602082015260208201526123218460c0850161222a565b8582015285528101359267ffffffffffffffff84116102d95761234b6101409360609584016121ca565b6020860152610120820135908501520135910152565b60606003198201126102d95767ffffffffffffffff916004358381116102d9578261238e916004016121ca565b926024356001600160a01b03811681036102d957926044359182116102d9576123b991600401612297565b90565b60405160208101907f447670526f6c65000000000000000000000000000000000000000000000000008252600781526123f48161213c565b51902090565b6000915b6002831061240b57505050565b6001908251815260208091019201920191906123fe565b6020604060e09282815180518752015183860152612457838083015161244b85890182516123fa565b015160808701906123fa565b0151805160c08501520151910152565b90815180825260208080930193019160005b828110612487575050505090565b835185529381019392810192600101612479565b9181601f840112156102d95782359167ffffffffffffffff83116102d957602083818601950101116102d957565b9181601f840112156102d95782359167ffffffffffffffff83116102d9576020808501948460051b0101116102d957565b600954811015611bfc5760096000527f6e1540171b6c0c960b71a7020d9f60077f6af931a8bbf590da0223dacf75c7af0190600090565b600a54811015611bfc57600a6000527fc65a7bb8d6351c1cf70c95a316cc6a92839c986682d98bc35f958f4883f9d2a80190600090565b1561256f57565b608460405162461bcd60e51b815260206004820152602260248201527f4d65726b6c653a204e756c6c69666965722063616e206e6f74206265207a657260448201527f6f2e0000000000000000000000000000000000000000000000000000000000006064820152fd5b6125e4821515612568565b60005260036020526040600020906000526020526040600020600160ff19825416179055600190565b9190820180921161063e57565b9190820391821161063e57565b805115611bfc5760200190565b805160011015611bfc5760400190565b8051821015611bfc5760209160051b010190565b8051906126678260055461260d565b9160049081549160ff83116128af576001948580941b11156128a2575b909160055492612694818561260d565b60055560009384925b6126dd575b50505050506126b090612627565b5180600655600854600052600b60205260406000209060005260205260406000209060ff19825416179055565b835483101561289d5780871c9160008880841614612850575b905b80821061272c575050508584018085116127175791860191908661269d565b601184634e487b7160e01b6000525260246000fd5b600019810196509091600082881161283d575086831015612827578883018084116128125761275b9089612644565b51965b831480156127fe575b6127c9575b61278c61277b85838c1c61261a565b97612786858b612644565b51612c9e565b612796888a612644565b52600281018091116127b45791600281018091116127b457906126f8565b601186634e487b7160e01b6000525260246000fd5b6127f96127d6848a612644565b516127e087612531565b90919082549060031b91821b91600019901b1916179055565b61276c565b506001198201828111612812578314612767565b601187634e487b7160e01b6000525260246000fd5b612830856124fa565b90549060031b1c9661275e565b80601188634e487b7160e01b6024945252fd5b50945061285d828061261a565b9461288061286a85612531565b90546128758a612627565b519160031b1c612c9e565b61288a8789612644565b5287918881018091116127b457916126f6565b6126a2565b6128aa61325f565b612684565b601190634e487b7160e01b6000525260246000fd5b906128ce826121b2565b6128db6040519182612190565b82815280926128ec601f19916121b2565b0190602036910137565b6040810192916000915b6002831061290d57505050565b600190825181526020809101920192019190612900565b908160209103126102d9575180151581036102d95790565b600019811461063e5760010190565b604090818101908151926001938085019384861161063e5761296d828661260d565b91612978818461260d565b926020968787019461298b818751612644565b51908651908b810180911161063e576129a391612644565b5114612bbd578860005b848110612b265750505050508051868114159081612b1a575b81612b0e575b50612ae55751849190868103612a665750612a2d93612a196001600160a01b036011541691519251928551968794859384936345c2f37f60e11b8552601760048601526024850190612422565b610140610124840152610144830190612467565b03915afa908115612a5c5750612a4257505090565b81612a5892903d10610a1d57610a0e8183612190565b5090565b513d6000823e3d90fd5b600203612aa957612a2d93612a196001600160a01b036011541691519251928551968794859384936345c2f37f60e11b8552600060048601526024850190612422565b612a2d93612a196001600160a01b036011541691519251928551968794859384936345c2f37f60e11b8552600660048601526024850190612422565b600483517f647ce72c000000000000000000000000000000000000000000000000000000008152fd5b600a91501415386129cc565b600281141591506129c6565b612b358751610575838661260d565b51612b43575b0189906129ad565b90508551818b0190818c1161063e57612b5f82612b6f92612644565b51610b798951610575868861260d565b15612bad57612b82612b92918851612644565b51610bbe8851610575858861260d565b612b9d578990612b3b565b60048751632ec8265960e11b8152fd5b60048851639dd854d360e01b8152fd5b600486517ffaaa05e9000000000000000000000000000000000000000000000000000000008152fd5b9060009082825260026020526040822081835260205260ff604083205416612c3457604092612c16821515612568565b8252600260205282822090825260205220600160ff19825416179055565b608460405162461bcd60e51b815260206004820152602360248201527f4d65726b6c653a204e756c6c696669657220736c6f7420616c7265616479207360448201527f65742e00000000000000000000000000000000000000000000000000000000006064820152fd5b604051612ce392602092612cb18361213c565b60403684378252828201526001600160a01b036000541660405180809581946314d2f97b60e11b8352600483016128f6565b03915afa908115610a2457600091612cf9575090565b90506020813d602011612d20575b81612d1460209383612190565b810103126102d9575190565b3d9150612d07565b90612d34811515612568565b600090828252602060028152604093848420838552825260ff8585205416612df957808452600382528484208385528252600160ff8686205416151503612d90578352600381528383209183525220805460ff19169055600190565b60848286519062461bcd60e51b82526004820152602360248201527f4d65726b6c653a204e756c6c696669657220616c726561647920756e6c6f636b60448201527f65642e00000000000000000000000000000000000000000000000000000000006064820152fd5b60648286519062461bcd60e51b82526004820152601e60248201527f4d65726b6c653a204e756c6c696669657220616c7265616479207365742e00006044820152fd5b612e4761046b6123bc565b612e5182826125d9565b506015547fc8eaa7dbe0dbc197d16b8865000145390f3f5d135c5cf66d7683e18527e83d97600080a4600190565b818110612e8a575050565b60008155600101612e7f565b90604051612ea38161213c565b602060018294805484520154910152565b60405191906000835b60028210612ed357505050612ed18261213c565b565b6001602081928554815201930191019091612ebd565b908060209392818452848401376000828201840152601f01601f1916010190565b9290612f23906123b99593604086526040860191612ee9565b926020818503910152612ee9565b9190811015611bfc5760051b81013590601e19813603018212156102d957019081359167ffffffffffffffff83116102d95760200182360381136102d9579190565b92909192612fc77fffffffffffffffffffffffff0000000000000000000000000000000000000000916001600160a01b0360009616838754161786556004948186553384600d541617600d55600c556128c4565b93845167ffffffffffffffff9081811161318157680100000000000000009081811161319457600a5481600a558082106131d9575b506020809801600a8552845b8281106131a75750505061301c86546128c4565b9081519283116131945782116131815786906009548360095580841061314b575b500160098352825b828110613119575050506009541561310657600981527f302a880eeac9ec8b02e876fea5cfd4947f3f87950cb04c9105f167aa346f5efa807f6e1540171b6c0c960b71a7020d9f60077f6af931a8bbf590da0223dacf75c7af559481955b85548710156130cd576130c5816130bf6001936127e08b6124fa565b80612c9e565b9601956130a3565b91929450604093955081600655816007556008548352600b81528383209183525220600160ff1982541617905533906001541617600155565b80603285634e487b7160e01b6024945252fd5b81517f6e1540171b6c0c960b71a7020d9f60077f6af931a8bbf590da0223dacf75c7af82015590870190600101613045565b61317b90847f6e1540171b6c0c960b71a7020d9f60077f6af931a8bbf590da0223dacf75c7af9182019101612e7f565b3861303d565b602483604188634e487b7160e01b835252fd5b602484604189634e487b7160e01b835252fd5b81517fc65a7bb8d6351c1cf70c95a316cc6a92839c986682d98bc35f958f4883f9d2a882015590890190600101613008565b61320990827fc65a7bb8d6351c1cf70c95a316cc6a92839c986682d98bc35f958f4883f9d2a89182019101612e7f565b38612ffc565b602061321d612ce392612627565b516001600160a01b03908160105416906040519261323a8461213c565b6013541683528383015260405180809581946314d2f97b60e11b8352600483016128f6565b600754600655600060055561327560085461293c565b600855565b60005b83811061328d5750506000910152565b818101518382015260200161327d565b600091818352602091600e83526040916001600160a01b03838620911690818652845260ff8386205416156132d3575050505050565b938251946132e086612174565b602a865284860192843685378651156134d15760308453865191600192600110156135b2576078602189015360295b83811161353b57506134f95784519161332783612158565b604283528683019360603686378351156134e557603085538351600110156134e55790607860218501536041915b81831161346a5750505061342857926133f660486133e7979461341a946044989785519a8b936133b28b86019a7f416363657373436f6e74726f6c3a206163636f756e74200000000000000000008c52518092603788019061327a565b8401917f206973206d697373696e6720726f6c652000000000000000000000000000000060378401525180938684019061327a565b01036028810189520187612190565b5194859362461bcd60e51b855260048501525180928160248601528585019061327a565b601f01601f19168101030190fd5b60648585519062461bcd60e51b825280600483015260248201527f537472696e67733a20686578206c656e67746820696e73756666696369656e746044820152fd5b909192600f811660108110156134d1577f3031323334353637383961626364656600000000000000000000000000000000901a6134a7858761387f565b5360041c9280156134bd57600019019190613355565b602482634e487b7160e01b81526011600452fd5b602483634e487b7160e01b81526032600452fd5b80634e487b7160e01b602492526032600452fd5b60648686519062461bcd60e51b825280600483015260248201527f537472696e67733a20686578206c656e67746820696e73756666696369656e746044820152fd5b90600f8116601081101561359e577f3031323334353637383961626364656600000000000000000000000000000000901a613576838b61387f565b5360041c90801561358a576000190161330f565b602485634e487b7160e01b81526011600452fd5b602486634e487b7160e01b81526032600452fd5b602484634e487b7160e01b81526032600452fd5b90600091808352600e6020526001600160a01b036040842092169182845260205260ff6040842054166135f857505050565b808352600e602052604083208284526020526040832060ff1981541690557ff6391f5c32d9c69d2a47ea670b442974b53935d1edc7fd64eb21e047a839171b339380a4565b6040810151906060810151906001926001600160ff1b038116810361063e5780841b84019081851161063e576136729161260d565b916000908460005b828110613705575050509061368e826128c4565b9260009185601554935b8581106136ae575050505050506123b990612658565b6136c06020840151610575838761260d565b516136cb8289612644565b526136d68188612644565b51857f28ec6d3cf0e771d5a8b44b29744de77a87c1301f68127019d5049968253913b4600080a3018690613698565b6137176020860151610575838961260d565b51613725575b01859061367a565b9261372f9061293c565b9261371d565b9060009160009060408082015191600193838501928386116134bd576001600160ff1b03851685036134bd5784861b86019283871161386b57825b868110613781575050505050505050565b6020808301908151838b0190818c11613857578b949392916137a291612644565b51906137c36137b68451610575878d61260d565b519351610575868d61260d565b516137d2575b50505001613770565b81885260038152868820838952905285872054929350909160ff1661382e5790816137ff828c9594612be6565b6015547f437885c05eacc89ce854c46fbeb8290d4c624ea6b561c7a784d86bb5369b2ea38880a43880806137c9565b600485517f29eaaf85000000000000000000000000000000000000000000000000000000008152fd5b602488634e487b7160e01b81526011600452fd5b602483634e487b7160e01b81526011600452fd5b908151811015611bfc57016020019056fea2646970667358221220d8f1e09f4de8770d18425294d9c2d2e68dcf83eb55c3917104c6db2c0dc05f7364736f6c634300081800332f8788117e7eff1d82e926ec794901d17c78024a50270940304540a733656f0d",
  "linkReferences": {},
  "deployedLinkReferences": {}
}