{
  "_format": "hh-sol-artifact-1",
  "contractName": "Erc721CoinVault",
  "sourceName": "contracts/core/contracts/vaults/Erc721CoinVault.sol",
  "abi": [
    {
      "inputs": [
        {
          "internalType": "address",
          "name": "zkDvpContractAddress",
          "type": "address"
        }
      ],
      "stateMutability": "nonpayable",
      "type": "constructor"
    },
    {
      "inputs": [],
      "name": "CantSpendLockedCoin",
      "type": "error"
    },
    {
      "inputs": [],
      "name": "CoinAlreadyUnlocked",
      "type": "error"
    },
    {
      "inputs": [],
      "name": "FungibilityMismatch",
      "type": "error"
    },
    {
      "inputs": [],
      "name": "InvalidAuditorPublicKey",
      "type": "error"
    },
    {
      "inputs": [],
      "name": "InvalidErc1155BatchTransfer",
      "type": "error"
    },
    {
      "inputs": [],
      "name": "InvalidErc1155Transfer",
      "type": "error"
    },
    {
      "inputs": [],
      "name": "InvalidErc20Transfer",
      "type": "error"
    },
    {
      "inputs": [],
      "name": "InvalidErc721Transfer",
      "type": "error"
    },
    {
      "inputs": [],
      "name": "InvalidMerkleRoot",
      "type": "error"
    },
    {
      "inputs": [],
      "name": "InvalidNullifier",
      "type": "error"
    },
    {
      "inputs": [],
      "name": "InvalidNumberOfInputs",
      "type": "error"
    },
    {
      "inputs": [],
      "name": "InvalidNumberOfOutputs",
      "type": "error"
    },
    {
      "inputs": [],
      "name": "InvalidOpening",
      "type": "error"
    },
    {
      "inputs": [],
      "name": "InvalidStatmentSize",
      "type": "error"
    },
    {
      "inputs": [],
      "name": "JoinSplitWithSameCommitments",
      "type": "error"
    },
    {
      "inputs": [],
      "name": "NotImplemented",
      "type": "error"
    },
    {
      "inputs": [],
      "name": "ProofReceiptAlreadyAdded",
      "type": "error"
    },
    {
      "inputs": [],
      "name": "RottenChallenge",
      "type": "error"
    },
    {
      "inputs": [],
      "name": "WrongNumberOfIdentifiers",
      "type": "error"
    },
    {
      "anonymous": false,
      "inputs": [
        {
          "indexed": true,
          "internalType": "uint256",
          "name": "vaultId",
          "type": "uint256"
        },
        {
          "indexed": true,
          "internalType": "uint256",
          "name": "treeNumber",
          "type": "uint256"
        },
        {
          "indexed": true,
          "internalType": "uint256",
          "name": "nullifier",
          "type": "uint256"
        }
      ],
      "name": "CoinLocked",
      "type": "event"
    },
    {
      "anonymous": false,
      "inputs": [
        {
          "indexed": true,
          "internalType": "uint256",
          "name": "vaultId",
          "type": "uint256"
        },
        {
          "indexed": true,
          "internalType": "uint256",
          "name": "treeNumber",
          "type": "uint256"
        },
        {
          "indexed": true,
          "internalType": "uint256",
          "name": "nullifier",
          "type": "uint256"
        }
      ],
      "name": "CoinUnlocked",
      "type": "event"
    },
    {
      "anonymous": false,
      "inputs": [
        {
          "indexed": true,
          "internalType": "uint256",
          "name": "vaultId",
          "type": "uint256"
        },
        {
          "indexed": true,
          "internalType": "uint256",
          "name": "commitment",
          "type": "uint256"
        }
      ],
      "name": "Commitment",
      "type": "event"
    },
    {
      "anonymous": false,
      "inputs": [
        {
          "indexed": true,
          "internalType": "uint256",
          "name": "vaultId",
          "type": "uint256"
        },
        {
          "indexed": true,
          "internalType": "uint256",
          "name": "commitment",
          "type": "uint256"
        },
        {
          "indexed": false,
          "internalType": "bytes",
          "name": "ciphertextI",
          "type": "bytes"
        },
        {
          "indexed": false,
          "internalType": "bytes",
          "name": "ciphertextII",
          "type": "bytes"
        }
      ],
      "name": "EncryptedNote",
      "type": "event"
    },
    {
      "anonymous": false,
      "inputs": [
        {
          "indexed": true,
          "internalType": "uint256",
          "name": "vaultId",
          "type": "uint256"
        },
        {
          "indexed": true,
          "internalType": "uint256",
          "name": "treeNumber",
          "type": "uint256"
        },
        {
          "indexed": true,
          "internalType": "uint256",
          "name": "nullifier",
          "type": "uint256"
        }
      ],
      "name": "Nullifier",
      "type": "event"
    },
    {
      "anonymous": false,
      "inputs": [
        {
          "indexed": true,
          "internalType": "uint256",
          "name": "challenge",
          "type": "uint256"
        },
        {
          "indexed": true,
          "internalType": "uint256",
          "name": "vaultId",
          "type": "uint256"
        },
        {
          "indexed": true,
          "internalType": "uint256",
          "name": "tokenId",
          "type": "uint256"
        },
        {
          "indexed": false,
          "internalType": "uint256",
          "name": "amount",
          "type": "uint256"
        }
      ],
      "name": "OwnershipVerificationReceipt",
      "type": "event"
    },
    {
      "anonymous": false,
      "inputs": [
        {
          "components": [
            {
              "components": [
                {
                  "components": [
                    {
                      "internalType": "uint256",
                      "name": "x",
                      "type": "uint256"
                    },
                    {
                      "internalType": "uint256",
                      "name": "y",
                      "type": "uint256"
                    }
                  ],
                  "internalType": "struct IEnygmaDvp.G1Point",
                  "name": "a",
                  "type": "tuple"
                },
                {
                  "components": [
                    {
                      "internalType": "uint256[2]",
                      "name": "x",
                      "type": "uint256[2]"
                    },
                    {
                      "internalType": "uint256[2]",
                      "name": "y",
                      "type": "uint256[2]"
                    }
                  ],
                  "internalType": "struct IEnygmaDvp.G2Point",
                  "name": "b",
                  "type": "tuple"
                },
                {
                  "components": [
                    {
                      "internalType": "uint256",
                      "name": "x",
                      "type": "uint256"
                    },
                    {
                      "internalType": "uint256",
                      "name": "y",
                      "type": "uint256"
                    }
                  ],
                  "internalType": "struct IEnygmaDvp.G1Point",
                  "name": "c",
                  "type": "tuple"
                }
              ],
              "internalType": "struct IEnygmaDvp.SnarkProof",
              "name": "proof",
              "type": "tuple"
            },
            {
              "internalType": "uint256[]",
              "name": "statement",
              "type": "uint256[]"
            },
            {
              "internalType": "uint256",
              "name": "numberOfInputs",
              "type": "uint256"
            },
            {
              "internalType": "uint256",
              "name": "numberOfOutputs",
              "type": "uint256"
            }
          ],
          "indexed": false,
          "internalType": "struct IEnygmaDvp.ProofReceipt",
          "name": "pendingProof",
          "type": "tuple"
        }
      ],
      "name": "PendingProofAdded",
      "type": "event"
    },
    {
      "anonymous": false,
      "inputs": [
        {
          "indexed": true,
          "internalType": "bytes32",
          "name": "role",
          "type": "bytes32"
        },
        {
          "indexed": true,
          "internalType": "bytes32",
          "name": "previousAdminRole",
          "type": "bytes32"
        },
        {
          "indexed": true,
          "internalType": "bytes32",
          "name": "newAdminRole",
          "type": "bytes32"
        }
      ],
      "name": "RoleAdminChanged",
      "type": "event"
    },
    {
      "anonymous": false,
      "inputs": [
        {
          "indexed": true,
          "internalType": "bytes32",
          "name": "role",
          "type": "bytes32"
        },
        {
          "indexed": true,
          "internalType": "address",
          "name": "account",
          "type": "address"
        },
        {
          "indexed": true,
          "internalType": "address",
          "name": "sender",
          "type": "address"
        }
      ],
      "name": "RoleGranted",
      "type": "event"
    },
    {
      "anonymous": false,
      "inputs": [
        {
          "indexed": true,
          "internalType": "bytes32",
          "name": "role",
          "type": "bytes32"
        },
        {
          "indexed": true,
          "internalType": "address",
          "name": "account",
          "type": "address"
        },
        {
          "indexed": true,
          "internalType": "address",
          "name": "sender",
          "type": "address"
        }
      ],
      "name": "RoleRevoked",
      "type": "event"
    },
    {
      "inputs": [],
      "name": "DEFAULT_ADMIN_ROLE",
      "outputs": [
        {
          "internalType": "bytes32",
          "name": "",
          "type": "bytes32"
        }
      ],
      "stateMutability": "view",
      "type": "function"
    },
    {
      "inputs": [],
      "name": "DEFAULT_AUCTION_ROLE",
      "outputs": [
        {
          "internalType": "bytes32",
          "name": "",
          "type": "bytes32"
        }
      ],
      "stateMutability": "view",
      "type": "function"
    },
    {
      "inputs": [],
      "name": "DEFAULT_DVP_ROLE",
      "outputs": [
        {
          "internalType": "bytes32",
          "name": "",
          "type": "bytes32"
        }
      ],
      "stateMutability": "view",
      "type": "function"
    },
    {
      "inputs": [],
      "name": "DEFAULT_OWNER_ROLE",
      "outputs": [
        {
          "internalType": "bytes32",
          "name": "",
          "type": "bytes32"
        }
      ],
      "stateMutability": "view",
      "type": "function"
    },
    {
      "inputs": [],
      "name": "VK_ID_DVP_DESTINATION",
      "outputs": [
        {
          "internalType": "uint256",
          "name": "",
          "type": "uint256"
        }
      ],
      "stateMutability": "view",
      "type": "function"
    },
    {
      "inputs": [],
      "name": "VK_ID_ERC721_1",
      "outputs": [
        {
          "internalType": "uint256",
          "name": "",
          "type": "uint256"
        }
      ],
      "stateMutability": "view",
      "type": "function"
    },
    {
      "inputs": [],
      "name": "ZERO_VALUE",
      "outputs": [
        {
          "internalType": "uint256",
          "name": "",
          "type": "uint256"
        }
      ],
      "stateMutability": "view",
      "type": "function"
    },
    {
      "inputs": [
        {
          "components": [
            {
              "components": [
                {
                  "components": [
                    {
                      "internalType": "uint256",
                      "name": "x",
                      "type": "uint256"
                    },
                    {
                      "internalType": "uint256",
                      "name": "y",
                      "type": "uint256"
                    }
                  ],
                  "internalType": "struct IEnygmaDvp.G1Point",
                  "name": "a",
                  "type": "tuple"
                },
                {
                  "components": [
                    {
                      "internalType": "uint256[2]",
                      "name": "x",
                      "type": "uint256[2]"
                    },
                    {
                      "internalType": "uint256[2]",
                      "name": "y",
                      "type": "uint256[2]"
                    }
                  ],
                  "internalType": "struct IEnygmaDvp.G2Point",
                  "name": "b",
                  "type": "tuple"
                },
                {
                  "components": [
                    {
                      "internalType": "uint256",
                      "name": "x",
                      "type": "uint256"
                    },
                    {
                      "internalType": "uint256",
                      "name": "y",
                      "type": "uint256"
                    }
                  ],
                  "internalType": "struct IEnygmaDvp.G1Point",
                  "name": "c",
                  "type": "tuple"
                }
              ],
              "internalType": "struct IEnygmaDvp.SnarkProof",
              "name": "proof",
              "type": "tuple"
            },
            {
              "internalType": "uint256[]",
              "name": "statement",
              "type": "uint256[]"
            },
            {
              "internalType": "uint256",
              "name": "numberOfInputs",
              "type": "uint256"
            },
            {
              "internalType": "uint256",
              "name": "numberOfOutputs",
              "type": "uint256"
            }
          ],
          "internalType": "struct IEnygmaDvp.ProofReceipt",
          "name": "receipt",
          "type": "tuple"
        }
      ],
      "name": "addPendingProofReceipt",
      "outputs": [
        {
          "internalType": "bool",
          "name": "",
          "type": "bool"
        }
      ],
      "stateMutability": "nonpayable",
      "type": "function"
    },
    {
      "inputs": [
        {
          "components": [
            {
              "components": [
                {
                  "components": [
                    {
                      "internalType": "uint256",
                      "name": "x",
                      "type": "uint256"
                    },
                    {
                      "internalType": "uint256",
                      "name": "y",
                      "type": "uint256"
                    }
                  ],
                  "internalType": "struct IEnygmaDvp.G1Point",
                  "name": "a",
                  "type": "tuple"
                },
                {
                  "components": [
                    {
                      "internalType": "uint256[2]",
                      "name": "x",
                      "type": "uint256[2]"
                    },
                    {
                      "internalType": "uint256[2]",
                      "name": "y",
                      "type": "uint256[2]"
                    }
                  ],
                  "internalType": "struct IEnygmaDvp.G2Point",
                  "name": "b",
                  "type": "tuple"
                },
                {
                  "components": [
                    {
                      "internalType": "uint256",
                      "name": "x",
                      "type": "uint256"
                    },
                    {
                      "internalType": "uint256",
                      "name": "y",
                      "type": "uint256"
                    }
                  ],
                  "internalType": "struct IEnygmaDvp.G1Point",
                  "name": "c",
                  "type": "tuple"
                }
              ],
              "internalType": "struct IEnygmaDvp.SnarkProof",
              "name": "proof",
              "type": "tuple"
            },
            {
              "internalType": "uint256[]",
              "name": "statement",
              "type": "uint256[]"
            },
            {
              "internalType": "uint256",
              "name": "numberOfInputs",
              "type": "uint256"
            },
            {
              "internalType": "uint256",
              "name": "numberOfOutputs",
              "type": "uint256"
            }
          ],
          "internalType": "struct IEnygmaDvp.ProofReceipt",
          "name": "receipt",
          "type": "tuple"
        }
      ],
      "name": "checkReceiptConditions",
      "outputs": [
        {
          "internalType": "bool",
          "name": "",
          "type": "bool"
        }
      ],
      "stateMutability": "view",
      "type": "function"
    },
    {
      "inputs": [
        {
          "components": [
            {
              "components": [
                {
                  "components": [
                    {
                      "internalType": "uint256",
                      "name": "x",
                      "type": "uint256"
                    },
                    {
                      "internalType": "uint256",
                      "name": "y",
                      "type": "uint256"
                    }
                  ],
                  "internalType": "struct IEnygmaDvp.G1Point",
                  "name": "a",
                  "type": "tuple"
                },
                {
                  "components": [
                    {
                      "internalType": "uint256[2]",
                      "name": "x",
                      "type": "uint256[2]"
                    },
                    {
                      "internalType": "uint256[2]",
                      "name": "y",
                      "type": "uint256[2]"
                    }
                  ],
                  "internalType": "struct IEnygmaDvp.G2Point",
                  "name": "b",
                  "type": "tuple"
                },
                {
                  "components": [
                    {
                      "internalType": "uint256",
                      "name": "x",
                      "type": "uint256"
                    },
                    {
                      "internalType": "uint256",
                      "name": "y",
                      "type": "uint256"
                    }
                  ],
                  "internalType": "struct IEnygmaDvp.G1Point",
                  "name": "c",
                  "type": "tuple"
                }
              ],
              "internalType": "struct IEnygmaDvp.SnarkProof",
              "name": "proof",
              "type": "tuple"
            },
            {
              "internalType": "uint256[]",
              "name": "statement",
              "type": "uint256[]"
            },
            {
              "internalType": "uint256",
              "name": "numberOfInputs",
              "type": "uint256"
            },
            {
              "internalType": "uint256",
              "name": "numberOfOutputs",
              "type": "uint256"
            }
          ],
          "internalType": "struct IEnygmaDvp.ProofReceipt",
          "name": "receipt",
          "type": "tuple"
        }
      ],
      "name": "checkRegisterBrokerProofConditions",
      "outputs": [
        {
          "internalType": "bool",
          "name": "",
          "type": "bool"
        }
      ],
      "stateMutability": "nonpayable",
      "type": "function"
    },
    {
      "inputs": [],
      "name": "currentRoot",
      "outputs": [
        {
          "internalType": "uint256",
          "name": "",
          "type": "uint256"
        }
      ],
      "stateMutability": "view",
      "type": "function"
    },
    {
      "inputs": [
        {
          "internalType": "uint256[]",
          "name": "params",
          "type": "uint256[]"
        }
      ],
      "name": "deposit",
      "outputs": [
        {
          "internalType": "bool",
          "name": "",
          "type": "bool"
        }
      ],
      "stateMutability": "nonpayable",
      "type": "function"
    },
    {
      "inputs": [
        {
          "internalType": "uint256[]",
          "name": "params",
          "type": "uint256[]"
        }
      ],
      "name": "generateUniqueId",
      "outputs": [
        {
          "internalType": "uint256",
          "name": "",
          "type": "uint256"
        }
      ],
      "stateMutability": "view",
      "type": "function"
    },
    {
      "inputs": [],
      "name": "getAssetContractAddress",
      "outputs": [
        {
          "internalType": "address",
          "name": "",
          "type": "address"
        }
      ],
      "stateMutability": "view",
      "type": "function"
    },
    {
      "inputs": [],
      "name": "getHashContractAddress",
      "outputs": [
        {
          "internalType": "address",
          "name": "",
          "type": "address"
        }
      ],
      "stateMutability": "view",
      "type": "function"
    },
    {
      "inputs": [],
      "name": "getNumberOfAssetIdentifiers",
      "outputs": [
        {
          "internalType": "uint256",
          "name": "",
          "type": "uint256"
        }
      ],
      "stateMutability": "view",
      "type": "function"
    },
    {
      "inputs": [
        {
          "internalType": "uint256",
          "name": "proofUniqueId",
          "type": "uint256"
        }
      ],
      "name": "getPendingProofReceipt",
      "outputs": [
        {
          "components": [
            {
              "components": [
                {
                  "components": [
                    {
                      "internalType": "uint256",
                      "name": "x",
                      "type": "uint256"
                    },
                    {
                      "internalType": "uint256",
                      "name": "y",
                      "type": "uint256"
                    }
                  ],
                  "internalType": "struct IEnygmaDvp.G1Point",
                  "name": "a",
                  "type": "tuple"
                },
                {
                  "components": [
                    {
                      "internalType": "uint256[2]",
                      "name": "x",
                      "type": "uint256[2]"
                    },
                    {
                      "internalType": "uint256[2]",
                      "name": "y",
                      "type": "uint256[2]"
                    }
                  ],
                  "internalType": "struct IEnygmaDvp.G2Point",
                  "name": "b",
                  "type": "tuple"
                },
                {
                  "components": [
                    {
                      "internalType": "uint256",
                      "name": "x",
                      "type": "uint256"
                    },
                    {
                      "internalType": "uint256",
                      "name": "y",
                      "type": "uint256"
                    }
                  ],
                  "internalType": "struct IEnygmaDvp.G1Point",
                  "name": "c",
                  "type": "tuple"
                }
              ],
              "internalType": "struct IEnygmaDvp.SnarkProof",
              "name": "proof",
              "type": "tuple"
            },
            {
              "internalType": "uint256[]",
              "name": "statement",
              "type": "uint256[]"
            },
            {
              "internalType": "uint256",
              "name": "numberOfInputs",
              "type": "uint256"
            },
            {
              "internalType": "uint256",
              "name": "numberOfOutputs",
              "type": "uint256"
            }
          ],
          "internalType": "struct IEnygmaDvp.ProofReceipt",
          "name": "proofReceipt",
          "type": "tuple"
        }
      ],
      "stateMutability": "nonpayable",
      "type": "function"
    },
    {
      "inputs": [
        {
          "internalType": "bytes32",
          "name": "role",
          "type": "bytes32"
        }
      ],
      "name": "getRoleAdmin",
      "outputs": [
        {
          "internalType": "bytes32",
          "name": "",
          "type": "bytes32"
        }
      ],
      "stateMutability": "view",
      "type": "function"
    },
    {
      "inputs": [],
      "name": "getRoot",
      "outputs": [
        {
          "internalType": "uint256",
          "name": "root",
          "type": "uint256"
        }
      ],
      "stateMutability": "view",
      "type": "function"
    },
    {
      "inputs": [],
      "name": "getTreeId",
      "outputs": [
        {
          "internalType": "uint256",
          "name": "",
          "type": "uint256"
        }
      ],
      "stateMutability": "view",
      "type": "function"
    },
    {
      "inputs": [],
      "name": "getVaultId",
      "outputs": [
        {
          "internalType": "uint256",
          "name": "",
          "type": "uint256"
        }
      ],
      "stateMutability": "view",
      "type": "function"
    },
    {
      "inputs": [],
      "name": "getVerifierContractAddress",
      "outputs": [
        {
          "internalType": "address",
          "name": "",
          "type": "address"
        }
      ],
      "stateMutability": "view",
      "type": "function"
    },
    {
      "inputs": [
        {
          "internalType": "bytes32",
          "name": "role",
          "type": "bytes32"
        },
        {
          "internalType": "address",
          "name": "account",
          "type": "address"
        }
      ],
      "name": "grantRole",
      "outputs": [],
      "stateMutability": "nonpayable",
      "type": "function"
    },
    {
      "inputs": [
        {
          "internalType": "bytes32",
          "name": "role",
          "type": "bytes32"
        },
        {
          "internalType": "address",
          "name": "account",
          "type": "address"
        }
      ],
      "name": "hasRole",
      "outputs": [
        {
          "internalType": "bool",
          "name": "",
          "type": "bool"
        }
      ],
      "stateMutability": "view",
      "type": "function"
    },
    {
      "inputs": [
        {
          "internalType": "uint256",
          "name": "_left",
          "type": "uint256"
        },
        {
          "internalType": "uint256",
          "name": "_right",
          "type": "uint256"
        }
      ],
      "name": "hashLeftRight",
      "outputs": [
        {
          "internalType": "uint256",
          "name": "",
          "type": "uint256"
        }
      ],
      "stateMutability": "view",
      "type": "function"
    },
    {
      "inputs": [
        {
          "internalType": "uint256",
          "name": "_treeDepth",
          "type": "uint256"
        },
        {
          "internalType": "uint256",
          "name": "_treeId",
          "type": "uint256"
        },
        {
          "internalType": "address",
          "name": "_poseidonWrapperAddress",
          "type": "address"
        }
      ],
      "name": "initializeMerkle",
      "outputs": [],
      "stateMutability": "nonpayable",
      "type": "function"
    },
    {
      "inputs": [
        {
          "internalType": "uint256",
          "name": "vaultId",
          "type": "uint256"
        },
        {
          "internalType": "uint256",
          "name": "numberOfAssetIdentifiers",
          "type": "uint256"
        },
        {
          "internalType": "address",
          "name": "assetContractAddress",
          "type": "address"
        },
        {
          "internalType": "uint256",
          "name": "treeDepth",
          "type": "uint256"
        },
        {
          "internalType": "address",
          "name": "hashContractAddress",
          "type": "address"
        },
        {
          "internalType": "address",
          "name": "verifierContractAddress",
          "type": "address"
        },
        {
          "internalType": "address",
          "name": "zkAuctionContractAddress",
          "type": "address"
        }
      ],
      "name": "initializeVault",
      "outputs": [
        {
          "internalType": "bool",
          "name": "",
          "type": "bool"
        }
      ],
      "stateMutability": "nonpayable",
      "type": "function"
    },
    {
      "inputs": [
        {
          "components": [
            {
              "components": [
                {
                  "components": [
                    {
                      "internalType": "uint256",
                      "name": "x",
                      "type": "uint256"
                    },
                    {
                      "internalType": "uint256",
                      "name": "y",
                      "type": "uint256"
                    }
                  ],
                  "internalType": "struct IEnygmaDvp.G1Point",
                  "name": "a",
                  "type": "tuple"
                },
                {
                  "components": [
                    {
                      "internalType": "uint256[2]",
                      "name": "x",
                      "type": "uint256[2]"
                    },
                    {
                      "internalType": "uint256[2]",
                      "name": "y",
                      "type": "uint256[2]"
                    }
                  ],
                  "internalType": "struct IEnygmaDvp.G2Point",
                  "name": "b",
                  "type": "tuple"
                },
                {
                  "components": [
                    {
                      "internalType": "uint256",
                      "name": "x",
                      "type": "uint256"
                    },
                    {
                      "internalType": "uint256",
                      "name": "y",
                      "type": "uint256"
                    }
                  ],
                  "internalType": "struct IEnygmaDvp.G1Point",
                  "name": "c",
                  "type": "tuple"
                }
              ],
              "internalType": "struct IEnygmaDvp.SnarkProof",
              "name": "proof",
              "type": "tuple"
            },
            {
              "internalType": "uint256[]",
              "name": "statement",
              "type": "uint256[]"
            },
            {
              "internalType": "uint256",
              "name": "numberOfInputs",
              "type": "uint256"
            },
            {
              "internalType": "uint256",
              "name": "numberOfOutputs",
              "type": "uint256"
            }
          ],
          "internalType": "struct IEnygmaDvp.ProofReceipt",
          "name": "receipt",
          "type": "tuple"
        }
      ],
      "name": "insertCommitmentsFromReceipt",
      "outputs": [
        {
          "internalType": "bool",
          "name": "",
          "type": "bool"
        }
      ],
      "stateMutability": "nonpayable",
      "type": "function"
    },
    {
      "inputs": [
        {
          "internalType": "uint256[]",
          "name": "_leafHashes",
          "type": "uint256[]"
        }
      ],
      "name": "insertLeaves",
      "outputs": [],
      "stateMutability": "nonpayable",
      "type": "function"
    },
    {
      "inputs": [
        {
          "internalType": "uint256",
          "name": "_treeNumber",
          "type": "uint256"
        },
        {
          "internalType": "uint256",
          "name": "_nullifierId",
          "type": "uint256"
        }
      ],
      "name": "isLocked",
      "outputs": [
        {
          "internalType": "bool",
          "name": "",
          "type": "bool"
        }
      ],
      "stateMutability": "nonpayable",
      "type": "function"
    },
    {
      "inputs": [
        {
          "internalType": "uint256",
          "name": "_treeNumber",
          "type": "uint256"
        },
        {
          "internalType": "uint256",
          "name": "_nullifierId",
          "type": "uint256"
        }
      ],
      "name": "isValidNullifier",
      "outputs": [
        {
          "internalType": "bool",
          "name": "",
          "type": "bool"
        }
      ],
      "stateMutability": "view",
      "type": "function"
    },
    {
      "inputs": [
        {
          "internalType": "uint256",
          "name": "_treeNumber",
          "type": "uint256"
        },
        {
          "internalType": "uint256",
          "name": "_merkleRoot",
          "type": "uint256"
        }
      ],
      "name": "isValidRoot",
      "outputs": [
        {
          "internalType": "bool",
          "name": "",
          "type": "bool"
        }
      ],
      "stateMutability": "view",
      "type": "function"
    },
    {
      "inputs": [
        {
          "internalType": "uint256",
          "name": "_treeNumber",
          "type": "uint256"
        },
        {
          "internalType": "uint256",
          "name": "_nullifierId",
          "type": "uint256"
        }
      ],
      "name": "lock",
      "outputs": [
        {
          "internalType": "bool",
          "name": "",
          "type": "bool"
        }
      ],
      "stateMutability": "nonpayable",
      "type": "function"
    },
    {
      "inputs": [
        {
          "internalType": "uint256",
          "name": "treeNumber",
          "type": "uint256"
        },
        {
          "internalType": "uint256",
          "name": "nullifier",
          "type": "uint256"
        }
      ],
      "name": "lockCoin",
      "outputs": [
        {
          "internalType": "bool",
          "name": "",
          "type": "bool"
        }
      ],
      "stateMutability": "nonpayable",
      "type": "function"
    },
    {
      "inputs": [
        {
          "internalType": "uint256",
          "name": "",
          "type": "uint256"
        },
        {
          "internalType": "uint256",
          "name": "",
          "type": "uint256"
        }
      ],
      "name": "lockedNullifiers",
      "outputs": [
        {
          "internalType": "bool",
          "name": "",
          "type": "bool"
        }
      ],
      "stateMutability": "view",
      "type": "function"
    },
    {
      "inputs": [],
      "name": "merkleRoot",
      "outputs": [
        {
          "internalType": "uint256",
          "name": "",
          "type": "uint256"
        }
      ],
      "stateMutability": "view",
      "type": "function"
    },
    {
      "inputs": [],
      "name": "newTree",
      "outputs": [],
      "stateMutability": "nonpayable",
      "type": "function"
    },
    {
      "inputs": [
        {
          "internalType": "uint256",
          "name": "",
          "type": "uint256"
        },
        {
          "internalType": "uint256",
          "name": "",
          "type": "uint256"
        }
      ],
      "name": "nullifiers",
      "outputs": [
        {
          "internalType": "bool",
          "name": "",
          "type": "bool"
        }
      ],
      "stateMutability": "view",
      "type": "function"
    },
    {
      "inputs": [
        {
          "internalType": "uint256",
          "name": "treeNumber",
          "type": "uint256"
        },
        {
          "internalType": "uint256",
          "name": "nullifier",
          "type": "uint256"
        }
      ],
      "name": "nullifyCoin",
      "outputs": [
        {
          "internalType": "bool",
          "name": "",
          "type": "bool"
        }
      ],
      "stateMutability": "nonpayable",
      "type": "function"
    },
    {
      "inputs": [
        {
          "components": [
            {
              "components": [
                {
                  "components": [
                    {
                      "internalType": "uint256",
                      "name": "x",
                      "type": "uint256"
                    },
                    {
                      "internalType": "uint256",
                      "name": "y",
                      "type": "uint256"
                    }
                  ],
                  "internalType": "struct IEnygmaDvp.G1Point",
                  "name": "a",
                  "type": "tuple"
                },
                {
                  "components": [
                    {
                      "internalType": "uint256[2]",
                      "name": "x",
                      "type": "uint256[2]"
                    },
                    {
                      "internalType": "uint256[2]",
                      "name": "y",
                      "type": "uint256[2]"
                    }
                  ],
                  "internalType": "struct IEnygmaDvp.G2Point",
                  "name": "b",
                  "type": "tuple"
                },
                {
                  "components": [
                    {
                      "internalType": "uint256",
                      "name": "x",
                      "type": "uint256"
                    },
                    {
                      "internalType": "uint256",
                      "name": "y",
                      "type": "uint256"
                    }
                  ],
                  "internalType": "struct IEnygmaDvp.G1Point",
                  "name": "c",
                  "type": "tuple"
                }
              ],
              "internalType": "struct IEnygmaDvp.SnarkProof",
              "name": "proof",
              "type": "tuple"
            },
            {
              "internalType": "uint256[]",
              "name": "statement",
              "type": "uint256[]"
            },
            {
              "internalType": "uint256",
              "name": "numberOfInputs",
              "type": "uint256"
            },
            {
              "internalType": "uint256",
              "name": "numberOfOutputs",
              "type": "uint256"
            }
          ],
          "internalType": "struct IEnygmaDvp.ProofReceipt",
          "name": "receipt",
          "type": "tuple"
        }
      ],
      "name": "nullifyFromReceipt",
      "outputs": [
        {
          "internalType": "bool",
          "name": "",
          "type": "bool"
        }
      ],
      "stateMutability": "nonpayable",
      "type": "function"
    },
    {
      "inputs": [],
      "name": "poseidonWrapperAddress",
      "outputs": [
        {
          "internalType": "address",
          "name": "",
          "type": "address"
        }
      ],
      "stateMutability": "view",
      "type": "function"
    },
    {
      "inputs": [
        {
          "internalType": "uint256[]",
          "name": "commitments",
          "type": "uint256[]"
        }
      ],
      "name": "registerCoins",
      "outputs": [
        {
          "internalType": "bool",
          "name": "",
          "type": "bool"
        }
      ],
      "stateMutability": "nonpayable",
      "type": "function"
    },
    {
      "inputs": [
        {
          "internalType": "bytes32",
          "name": "role",
          "type": "bytes32"
        },
        {
          "internalType": "address",
          "name": "account",
          "type": "address"
        }
      ],
      "name": "renounceRole",
      "outputs": [],
      "stateMutability": "nonpayable",
      "type": "function"
    },
    {
      "inputs": [
        {
          "internalType": "bytes32",
          "name": "role",
          "type": "bytes32"
        },
        {
          "internalType": "address",
          "name": "account",
          "type": "address"
        }
      ],
      "name": "revokeRole",
      "outputs": [],
      "stateMutability": "nonpayable",
      "type": "function"
    },
    {
      "inputs": [
        {
          "internalType": "uint256",
          "name": "",
          "type": "uint256"
        },
        {
          "internalType": "uint256",
          "name": "",
          "type": "uint256"
        }
      ],
      "name": "rootHistory",
      "outputs": [
        {
          "internalType": "bool",
          "name": "",
          "type": "bool"
        }
      ],
      "stateMutability": "view",
      "type": "function"
    },
    {
      "inputs": [
        {
          "internalType": "uint256",
          "name": "_treeNumber",
          "type": "uint256"
        },
        {
          "internalType": "uint256",
          "name": "_nullifierId",
          "type": "uint256"
        }
      ],
      "name": "setNullifier",
      "outputs": [],
      "stateMutability": "nonpayable",
      "type": "function"
    },
    {
      "inputs": [
        {
          "internalType": "bytes4",
          "name": "interfaceId",
          "type": "bytes4"
        }
      ],
      "name": "supportsInterface",
      "outputs": [
        {
          "internalType": "bool",
          "name": "",
          "type": "bool"
        }
      ],
      "stateMutability": "view",
      "type": "function"
    },
    {
      "inputs": [
        {
          "components": [
            {
              "components": [
                {
                  "components": [
                    {
                      "internalType": "uint256",
                      "name": "x",
                      "type": "uint256"
                    },
                    {
                      "internalType": "uint256",
                      "name": "y",
                      "type": "uint256"
                    }
                  ],
                  "internalType": "struct IEnygmaDvp.G1Point",
                  "name": "a",
                  "type": "tuple"
                },
                {
                  "components": [
                    {
                      "internalType": "uint256[2]",
                      "name": "x",
                      "type": "uint256[2]"
                    },
                    {
                      "internalType": "uint256[2]",
                      "name": "y",
                      "type": "uint256[2]"
                    }
                  ],
                  "internalType": "struct IEnygmaDvp.G2Point",
                  "name": "b",
                  "type": "tuple"
                },
                {
                  "components": [
                    {
                      "internalType": "uint256",
                      "name": "x",
                      "type": "uint256"
                    },
                    {
                      "internalType": "uint256",
                      "name": "y",
                      "type": "uint256"
                    }
                  ],
                  "internalType": "struct IEnygmaDvp.G1Point",
                  "name": "c",
                  "type": "tuple"
                }
              ],
              "internalType": "struct IEnygmaDvp.SnarkProof",
              "name": "proof",
              "type": "tuple"
            },
            {
              "internalType": "uint256[]",
              "name": "statement",
              "type": "uint256[]"
            },
            {
              "internalType": "uint256",
              "name": "numberOfInputs",
              "type": "uint256"
            },
            {
              "internalType": "uint256",
              "name": "numberOfOutputs",
              "type": "uint256"
            }
          ],
          "internalType": "struct IEnygmaDvp.ProofReceipt",
          "name": "receipt",
          "type": "tuple"
        }
      ],
      "name": "transfer",
      "outputs": [
        {
          "internalType": "bool",
          "name": "",
          "type": "bool"
        }
      ],
      "stateMutability": "nonpayable",
      "type": "function"
    },
    {
      "inputs": [],
      "name": "treeNumber",
      "outputs": [
        {
          "internalType": "uint256",
          "name": "",
          "type": "uint256"
        }
      ],
      "stateMutability": "view",
      "type": "function"
    },
    {
      "inputs": [
        {
          "internalType": "uint256",
          "name": "_treeNumber",
          "type": "uint256"
        },
        {
          "internalType": "uint256",
          "name": "_nullifierId",
          "type": "uint256"
        }
      ],
      "name": "unlock",
      "outputs": [
        {
          "internalType": "bool",
          "name": "",
          "type": "bool"
        }
      ],
      "stateMutability": "nonpayable",
      "type": "function"
    },
    {
      "inputs": [
        {
          "internalType": "uint256",
          "name": "treeNumber",
          "type": "uint256"
        },
        {
          "internalType": "uint256",
          "name": "nullifier",
          "type": "uint256"
        }
      ],
      "name": "unlockCoin",
      "outputs": [
        {
          "internalType": "bool",
          "name": "",
          "type": "bool"
        }
      ],
      "stateMutability": "nonpayable",
      "type": "function"
    },
    {
      "inputs": [
        {
          "components": [
            {
              "components": [
                {
                  "components": [
                    {
                      "internalType": "uint256",
                      "name": "x",
                      "type": "uint256"
                    },
                    {
                      "internalType": "uint256",
                      "name": "y",
                      "type": "uint256"
                    }
                  ],
                  "internalType": "struct IEnygmaDvp.G1Point",
                  "name": "a",
                  "type": "tuple"
                },
                {
                  "components": [
                    {
                      "internalType": "uint256[2]",
                      "name": "x",
                      "type": "uint256[2]"
                    },
                    {
                      "internalType": "uint256[2]",
                      "name": "y",
                      "type": "uint256[2]"
                    }
                  ],
                  "internalType": "struct IEnygmaDvp.G2Point",
                  "name": "b",
                  "type": "tuple"
                },
                {
                  "components": [
                    {
                      "internalType": "uint256",
                      "name": "x",
                      "type": "uint256"
                    },
                    {
                      "internalType": "uint256",
                      "name": "y",
                      "type": "uint256"
                    }
                  ],
                  "internalType": "struct IEnygmaDvp.G1Point",
                  "name": "c",
                  "type": "tuple"
                }
              ],
              "internalType": "struct IEnygmaDvp.SnarkProof",
              "name": "proof",
              "type": "tuple"
            },
            {
              "internalType": "uint256[]",
              "name": "statement",
              "type": "uint256[]"
            },
            {
              "internalType": "uint256",
              "name": "numberOfInputs",
              "type": "uint256"
            },
            {
              "internalType": "uint256",
              "name": "numberOfOutputs",
              "type": "uint256"
            }
          ],
          "internalType": "struct IEnygmaDvp.ProofReceipt",
          "name": "receipt",
          "type": "tuple"
        }
      ],
      "name": "unlockFromReceipt",
      "outputs": [
        {
          "internalType": "bool",
          "name": "",
          "type": "bool"
        }
      ],
      "stateMutability": "nonpayable",
      "type": "function"
    },
    {
      "inputs": [
        {
          "internalType": "uint256[]",
          "name": "params_",
          "type": "uint256[]"
        },
        {
          "components": [
            {
              "components": [
                {
                  "components": [
                    {
                      "internalType": "uint256",
                      "name": "x",
                      "type": "uint256"
                    },
                    {
                      "internalType": "uint256",
                      "name": "y",
                      "type": "uint256"
                    }
                  ],
                  "internalType": "struct IEnygmaDvp.G1Point",
                  "name": "a",
                  "type": "tuple"
                },
                {
                  "components": [
                    {
                      "internalType": "uint256[2]",
                      "name": "x",
                      "type": "uint256[2]"
                    },
                    {
                      "internalType": "uint256[2]",
                      "name": "y",
                      "type": "uint256[2]"
                    }
                  ],
                  "internalType": "struct IEnygmaDvp.G2Point",
                  "name": "b",
                  "type": "tuple"
                },
                {
                  "components": [
                    {
                      "internalType": "uint256",
                      "name": "x",
                      "type": "uint256"
                    },
                    {
                      "internalType": "uint256",
                      "name": "y",
                      "type": "uint256"
                    }
                  ],
                  "internalType": "struct IEnygmaDvp.G1Point",
                  "name": "c",
                  "type": "tuple"
                }
              ],
              "internalType": "struct IEnygmaDvp.SnarkProof",
              "name": "proof",
              "type": "tuple"
            },
            {
              "internalType": "uint256[]",
              "name": "statement",
              "type": "uint256[]"
            },
            {
              "internalType": "uint256",
              "name": "numberOfInputs",
              "type": "uint256"
            },
            {
              "internalType": "uint256",
              "name": "numberOfOutputs",
              "type": "uint256"
            }
          ],
          "internalType": "struct IEnygmaDvp.ProofReceipt",
          "name": "receipt_",
          "type": "tuple"
        }
      ],
      "name": "verifyOwnership",
      "outputs": [
        {
          "internalType": "bool",
          "name": "",
          "type": "bool"
        }
      ],
      "stateMutability": "nonpayable",
      "type": "function"
    },
    {
      "inputs": [
        {
          "internalType": "uint256",
          "name": "treeNumber",
          "type": "uint256"
        },
        {
          "internalType": "uint256",
          "name": "root",
          "type": "uint256"
        }
      ],
      "name": "verifyRoot",
      "outputs": [
        {
          "internalType": "bool",
          "name": "",
          "type": "bool"
        }
      ],
      "stateMutability": "view",
      "type": "function"
    },
    {
      "inputs": [
        {
          "internalType": "uint256[]",
          "name": "withdrawParams",
          "type": "uint256[]"
        },
        {
          "internalType": "address",
          "name": "recipient",
          "type": "address"
        },
        {
          "components": [
            {
              "components": [
                {
                  "components": [
                    {
                      "internalType": "uint256",
                      "name": "x",
                      "type": "uint256"
                    },
                    {
                      "internalType": "uint256",
                      "name": "y",
                      "type": "uint256"
                    }
                  ],
                  "internalType": "struct IEnygmaDvp.G1Point",
                  "name": "a",
                  "type": "tuple"
                },
                {
                  "components": [
                    {
                      "internalType": "uint256[2]",
                      "name": "x",
                      "type": "uint256[2]"
                    },
                    {
                      "internalType": "uint256[2]",
                      "name": "y",
                      "type": "uint256[2]"
                    }
                  ],
                  "internalType": "struct IEnygmaDvp.G2Point",
                  "name": "b",
                  "type": "tuple"
                },
                {
                  "components": [
                    {
                      "internalType": "uint256",
                      "name": "x",
                      "type": "uint256"
                    },
                    {
                      "internalType": "uint256",
                      "name": "y",
                      "type": "uint256"
                    }
                  ],
                  "internalType": "struct IEnygmaDvp.G1Point",
                  "name": "c",
                  "type": "tuple"
                }
              ],
              "internalType": "struct IEnygmaDvp.SnarkProof",
              "name": "proof",
              "type": "tuple"
            },
            {
              "internalType": "uint256[]",
              "name": "statement",
              "type": "uint256[]"
            },
            {
              "internalType": "uint256",
              "name": "numberOfInputs",
              "type": "uint256"
            },
            {
              "internalType": "uint256",
              "name": "numberOfOutputs",
              "type": "uint256"
            }
          ],
          "internalType": "struct IEnygmaDvp.ProofReceipt",
          "name": "receipt",
          "type": "tuple"
        }
      ],
      "name": "withdraw",
      "outputs": [
        {
          "internalType": "bool",
          "name": "",
          "type": "bool"
        }
      ],
      "stateMutability": "nonpayable",
      "type": "function"
    },
    {
      "inputs": [
        {
          "internalType": "uint256",
          "name": "",
          "type": "uint256"
        }
      ],
      "name": "zeros",
      "outputs": [
        {
          "internalType": "uint256",
          "name": "",
          "type": "uint256"
        }
      ],
      "stateMutability": "view",
      "type": "function"
    },
    {
      "inputs": [],
      "name": "zkDvpAddress",
      "outputs": [
        {
          "internalType": "address",
          "name": "",
          "type": "address"
        }
      ],
      "stateMutability": "view",
      "type": "function"
    }
  ],
  "bytecode": "0x608034620001ff57601f6200344638819003918201601f1916830192916001600160401b03841183851017620002045780839260409586528339602092839181010312620001ff57516001600160a01b03811690819003620001ff57825182810190686f776e6572526f6c6560b81b8252600981526200007f816200021a565b51902090600091808352600e8452848320338452845260ff858420541615620001c4575b5083518381019066447670526f6c6560c81b825260078152620000c6816200021a565b51902090818352600e8452848320818452845260ff8584205416156200018a575b5050600f5490600192600183811c931680156200017f575b818410146200016b57601f831162000145575b7f5a6b447670202d20455243323020436f696e205661756c740000000000000030600f5584516131ef9081620002378239f35b601f90600f83528220920160051c8201915b828110156200011257818155830162000157565b634e487b7160e01b82526022600452602482fd5b92607f1692620000ff565b818352600e84528483208184528452848320805460ff191660011790553391600080516020620034268339815191528480a43880620000e7565b808352600e84528483203384528452848320600160ff1982541617905533903390600080516020620034268339815191528580a438620000a3565b600080fd5b634e487b7160e01b600052604160045260246000fd5b604081019081106001600160401b03821117620002045760405256fe608080604052600436101561001357600080fd5b600090813560e01c90816301ffc9a714611b97575080631338736f14611b7d5780631708ed6114611a37578063176764b5146119fd578063186321b8146119e15780631d7c55a21461172f5780631ecf1e8c146114f25780631ed2bfde146113ec578063248a9ca3146113bf57806327c61f51146113835780632db1e64a146111d45780632eb4a7ab146102b25780632f2ff15d146112cd57806332c9b183146112a657806336568abe1461120657806338953305146111d45780633b8162b71461118a578063422998c514610b5557806346d07259146111315780634b4703dc146110fc5780634e2285f1146110de5780634e2a00d91461108957806358a1d8ae1461106357806358d199df1461104b578063598b8e7114610f3657806359f880bd14610f1b5780635bb9399514610f015780635bfadb2414610ee75780635ca1e165146102b25780635f9563c014610ec95780636650331514610eab57806368e8093d14610e8d57806372bef65d14610df75780637628c04314610ddd5780637718e23a14610b8757806378d3915c14610b555780637a1638e6146103605780637b22a8ac14610afd5780637d1637491461093a5780637d8c1cd714610913578063858414321461074757806385d72e3e1461070057806391d14854146106b3578063971607ba1461068c578063a217fddf14610670578063a8d4692914610649578063b253740d14610496578063b3f5bd891461046e578063ba22c13014610416578063c695cea9146103d2578063d547741f14610392578063d909911414610360578063e829558814610327578063ec732959146102ec578063f77ca7ea146102d0578063fdab463d146102b25763fe6f79d31461029457600080fd5b346102af57806003193601126102af576102ac612b99565b80f35b80fd5b50346102af57806003193601126102af576020600654604051908152f35b50346102af57806003193601126102af57602060405160188152f35b50346102af57806003193601126102af5760206040517f302a880eeac9ec8b02e876fea5cfd4947f3f87950cb04c9105f167aa346f5efa8152f35b50346102af5760203660031901126102af57600435906009548210156102af57602061035283611fa7565b90546040519160031b1c8152f35b50346102af5760ff604060209261037636611c37565b9082526003855282822090825284522054166040519015158152f35b50346102af5760403660031901126102af576102ac6004356103b2611c63565b90808452600e6020526103cd60016040862001543390612bd7565b612f00565b50346102af5760203660031901126102af576004359067ffffffffffffffff82116102af57602061040e6104093660048601611d31565b612b49565b604051908152f35b50346102af5760203660031901126102af576004359067ffffffffffffffff82116102af57602061046461044d3660048601611dfe565b61045f610458611ec8565b3390612bd7565b612f77565b6040519015158152f35b50346102af5760603660031901126102af576102ac61048b611c4d565b6024356004356128ad565b50346102af5760209060206003193601126102af5760043567ffffffffffffffff8111610645576104cb903690600401611dfe565b906104d7610458611ec8565b8060408301519161063157506001928184019081851161061b576001600160ff1b038316830361061b5782851b85019182861161061b5792936020019260005b85811061052957602060405160008152f35b8451908088019182891161061b578892610542916120f1565b51610558875161055284896120ba565b906120f1565b51610568885161055285886120ba565b51610576575b505001610517565b9080935060005260038552604060002081600052855260ff604060002054166000146105f15788926105af336105aa611ec8565b612bd7565b6105b982826126ec565b506015547f99565704f398859b97f9b53066e321c61c6bbdf4176848e0180528b79257b9a083838383600080a4600080a4388061056e565b60046040517fb448aede000000000000000000000000000000000000000000000000000000008152fd5b634e487b7160e01b600052601160045260246000fd5b80634e487b7160e01b602492526011600452fd5b5080fd5b50346102af57806003193601126102af5760206001600160a01b0360015416604051908152f35b50346102af57806003193601126102af57602090604051908152f35b50346102af57806003193601126102af5760206001600160a01b0360115416604051908152f35b50346102af5760403660031901126102af576001600160a01b0360406106d7611c63565b926004358152600e602052209116600052602052602060ff604060002054166040519015158152f35b50346102af5760203660031901126102af576004359067ffffffffffffffff82116102af5760206104646107373660048601611dfe565b610742610458611ec8565b613072565b50346102af5760203660031901126102af5760043567ffffffffffffffff811161064557610779903690600401611dfe565b60408101519160039280600301806003116108ff5761079b82829593956120ba565b926020819301925b8581106107b557602060405160018152f35b6107c4845161055283866120ba565b516107d2575b6001016107a3565b835190808801918289116108eb576107ed8361081f926120f1565b516107fd875161055285896120ba565b5190600052600b60205260406000209060005260205260ff6040600020541690565b156108c1576108646108328387516120f1565b516108428751610552858b6120ba565b5190600052600260205260406000209060005260205260ff6040600020541690565b6108975761088f61087860019387516120f1565b516108888751610552858b6120ba565b5190612800565b5090506107ca565b60046040517f5d904cb2000000000000000000000000000000000000000000000000000000008152fd5b60046040517f9dd854d3000000000000000000000000000000000000000000000000000000008152fd5b602484634e487b7160e01b81526011600452fd5b602483634e487b7160e01b81526011600452fd5b50346102af57806003193601126102af5760206001600160a01b0360105416604051908152f35b50346102af576020806003193601126106455781606060405161095c81611cbf565b60405161096881611cdb565b60405161097481611c79565b60008152600086820152815260405161098c81611c79565b60405161099881611c79565b604036823781526040516109ab81611c79565b604036823786820152858201526040516109c481611c79565b60008152600086820152604082015281528184820152826040820152015260043582526017815260408220604051926109fc84611cbf565b604051610a0881611cdb565b610a118361285a565b8152604051610a1f81611c79565b610a2b60028501612878565b8152610a3960048501612878565b8582015284820152610a4d6006840161285a565b604082015284526008820190604051809283918682549182815201918452868420935b87828210610ae757505050610a8792500382611cf7565b828401908152600a6009830154926040860193845201549060608501918252610abb60405195858796875286019051611f2e565b5190610ad66101609283610120870152610180860190611f73565b925161014085015251908301520390f35b8554845260019586019587955093019201610a70565b50346102af57602090610b0f36611c37565b90610b1b610458611ec8565b610b2582826125aa565b6015547f437885c05eacc89ce854c46fbeb8290d4c624ea6b561c7a784d86bb5369b2ea36040519480a460018152f35b50346102af5760ff6040602092610b6b36611c37565b9082526002855282822090825284522054166040519015158152f35b50346102af5760203660031901126102af5760043567ffffffffffffffff811161064557610bb9903690600401611dfe565b90610bc5610458611ec8565b60408201516001926001600160ff1b03821682036108ff5781841b840184116108ff57610c03610bf98380871b87016120ba565b60208301516120f1565b518352601760205260408320600881015490919015610c465760046040517fb08d7c2e000000000000000000000000000000000000000000000000000000008152fd5b8051926020845180518555015186840155602084015194855194815b6002811015610c81578890602088519801976002828901015501610c62565b5087949550602087015185835b60028110610dc757505050604060209101518051600688015501516007860155602083015194855167ffffffffffffffff8111610db357680100000000000000008111610db357602086976008840154836008860155808410610d96575b50016008830184526020842087855b848110610d8357505050505060408401516009820155600a606085015191015580945b610d32575b50505060209150604051908152f35b6040830151851015610d7e57602083015194808501958686116108ff5790610d76610d5f879888946120f1565b5161088860208801516105528589881b88016120ba565b500194610d1e565b610d23565b6020845194019381840155018890610cfb565b600885018652828620610dad918101908501612843565b89610cec565b602483634e487b7160e01b81526041600452fd5b602083519301926004828b010155018690610c8e565b50346102af576020610464610df136611c37565b90612800565b50346102af5760203660031901126102af5760043567ffffffffffffffff811161064557610e29903690600401611dfe565b604081015191826001019081600111610631576001600160ff1b0384168403610631575082610e62610e6792610e819560011b906120ba565b6120ba565b50610e71816123f8565b50610e7b81612f77565b50613072565b50602060405160018152f35b50346102af57806003193601126102af576020601654604051908152f35b50346102af57806003193601126102af576020600854604051908152f35b50346102af57806003193601126102af576020600c54604051908152f35b50346102af576020610464610efb36611c37565b906126ec565b50346102af57602061040e610f1536611c37565b90612662565b50346102af57806003193601126102af57602061040e611ec8565b50346102af5760203660031901126102af5760043567ffffffffffffffff811161064557610f68903690600401611d31565b81610f7c610f75836120d4565b51926120e1565b51916001600160a01b036013541690813b15611047576040516323b872dd60e01b8152336004820152306024820152604481019190915291908290606490829084905af1801561103c57611028575b60208383610ff8604051610fde81611c79565b6001815284368183013782610ff2826120d4565b52612105565b6015547f28ec6d3cf0e771d5a8b44b29744de77a87c1301f68127019d5049968253913b46040519380a360018152f35b6110328391611cab565b6106455738610fcb565b6040513d85823e3d90fd5b8280fd5b50346102af576102ac61105d36611c37565b906125aa565b50346102af57806003193601126102af576001600160a01b036020915416604051908152f35b50346102af57806003193601126102af576020604051818101907f41756374696f6e526f6c650000000000000000000000000000000000000000008252600b81526110d381611c79565b519020604051908152f35b50346102af57806003193601126102af576020601554604051908152f35b50346102af57602061046461111036611c37565b90600052600b60205260406000209060005260205260ff6040600020541690565b50346102af5761114036611c37565b9061114c610458611ec8565b61115682826126ec565b506015547f99565704f398859b97f9b53066e321c61c6bbdf4176848e0180528b79257b9a0600080a4602060405160018152f35b50346102af57806003193601126102af576020604051818101907f6f776e6572526f6c6500000000000000000000000000000000000000000000008252600981526110d381611c79565b50346102af5760ff60406020926111ea36611c37565b908252600b855282822090825284522054166040519015158152f35b50346102af5760403660031901126102af57611220611c63565b336001600160a01b0382160361123c576102ac90600435612f00565b608460405162461bcd60e51b815260206004820152602f60248201527f416363657373436f6e74726f6c3a2063616e206f6e6c792072656e6f756e636560448201527f20726f6c657320666f722073656c6600000000000000000000000000000000006064820152fd5b50346102af57806003193601126102af5760206001600160a01b0360135416604051908152f35b50346102af5760403660031901126102af576004356112ea611c63565b818352600e60205261130460016040852001543390612bd7565b818352600e6020526001600160a01b03604084209116908160005260205260ff6040600020541615611334578280f35b818352600e60205260408320816000526020526040600020600160ff1982541617905533917f2f8788117e7eff1d82e926ec794901d17c78024a50270940304540a733656f0d8480a438808280f35b50346102af5760203660031901126102af576004359067ffffffffffffffff82116102af5760206104646113ba3660048601611dfe565b6123f8565b50346102af5760203660031901126102af57600160406020926004358152600e8452200154604051908152f35b50346102af5760203660031901126102af5760043567ffffffffffffffff81116106455761141e903690600401611d31565b9061142a610458611ec8565b80815b83518110156114625761144081856120f1565b5161144e575b60010161142d565b9061145a6001916123e9565b919050611446565b509061146d82612371565b92815b83811061148b5761148085612105565b602060405160018152f35b80611498600192846120f1565b516114a4575b01611470565b6114ae81846120f1565b516114b982886120f1565b526015546114c782886120f1565b51907f28ec6d3cf0e771d5a8b44b29744de77a87c1301f68127019d5049968253913b48680a361149e565b50346102af5760403660031901126102af5767ffffffffffffffff9060043582811161064557611526903690600401611d31565b9160243590811161064557611542611548913690600401611dfe565b926120d4565b51906020928381019161155b83516120d4565b51926001600160a01b03828782601254166024604051809481937f3cd6f55e0000000000000000000000000000000000000000000000000000000083528b60048401525af1801561172457918891611610936116f7575b506115dc6040516115c281611c79565b60018152833681830137896115d6826120d4565b52612b49565b9060105416604051916115ee83611c79565b8252858383015260405180809581946314d2f97b60e11b8352600483016123a3565b03915afa9283156116eb57926116b7575b50518051600410156116a15760a00151036116775761163f906123f8565b50601554907ff4ba1266d3bddd382b01c33871e98d90fee982e1baa7bb9bf2d8a09de085aeb48460405160018152a460405160018152f35b60046040517f399d2d9b000000000000000000000000000000000000000000000000000000008152fd5b634e487b7160e01b600052603260045260246000fd5b9091508581813d83116116e4575b6116cf8183611cf7565b810103126116df57519038611621565b600080fd5b503d6116c5565b604051903d90823e3d90fd5b61171690833d851161171d575b61170e8183611cf7565b8101906123d1565b50386115b2565b503d611704565b6040513d86823e3d90fd5b50346102af5760603660031901126102af5767ffffffffffffffff60043581811161104757611762903690600401611d31565b9061176b611c63565b906044359081116119dd57611542611787913690600401611dfe565b5192604083019182519260019384018085116108eb5781516117a8916120ba565b906117b48151836120ba565b92604051906117c282611cdb565b600282526020976040368a850137896117da846120d4565b52611831896001600160a01b036117fa816013541696876115d6826120e1565b908060105416906040519261180e84611c79565b835286168383015260405180809581946314d2f97b60e11b8352600483016123a3565b03915afa9081156119d25788916119a1575b506118528a83019788516120f1565b510361167757611861906123f8565b50813b1561199d576040516323b872dd60e01b81523060048201526001600160a01b03919091166024820152604481019890985284908890606490829084905af19687156117245785969761198a575b508396955b6118c5575b8585604051908152f35b8051871015611985576118dd835161055289856120ba565b516118ed575b95840195846118b6565b8251968086019788871161197157908861192461190d899a9b8a956120f1565b5161191d8851610552868a6120ba565b51906125aa565b6119326015549187516120f1565b51611942875161055285896120ba565b51917f437885c05eacc89ce854c46fbeb8290d4c624ea6b561c7a784d86bb5369b2ea38980a4979650506118e3565b602486634e487b7160e01b81526011600452fd5b6118bb565b61199690949194611cab565b92386118b1565b8580fd5b90508981813d83116119cb575b6119b88183611cf7565b810103126119c7575138611843565b8780fd5b503d6119ae565b6040513d8a823e3d90fd5b8380fd5b50346102af57806003193601126102af57602060405160018152f35b50346102af5760203660031901126102af5760043567ffffffffffffffff811161064557611a326102ac913690600401611d31565b612105565b50346102af5760e03660031901126102af57611a51611c4d565b608435916001600160a01b03918284168094036106455760a435908382168092036110475760c435918483168093036119dd579484839261148097611a97610458611ec8565b6004356015557fffffffffffffffffffffffff00000000000000000000000000000000000000009333856012541617601255846010541617601055836011541617601155168160135416176013556014541617601455602435601655611afb611ec8565b808352600e6020526040832082845260205260ff60408420541615611b2f575b5050506015549060105416906064356128ad565b808352600e6020526040832082845260205260408320600160ff198254161790557f2f8788117e7eff1d82e926ec794901d17c78024a50270940304540a733656f0d339380a4388080611b1b565b50346102af576020610464611b9136611c37565b90612086565b905034610645576020366003190112610645576004357fffffffff00000000000000000000000000000000000000000000000000000000811680910361104757602092507f7965db0b000000000000000000000000000000000000000000000000000000008114908115611c0d575b5015158152f35b7f01ffc9a70000000000000000000000000000000000000000000000000000000091501438611c06565b60409060031901126116df576004359060243590565b604435906001600160a01b03821682036116df57565b602435906001600160a01b03821682036116df57565b6040810190811067ffffffffffffffff821117611c9557604052565b634e487b7160e01b600052604160045260246000fd5b67ffffffffffffffff8111611c9557604052565b6080810190811067ffffffffffffffff821117611c9557604052565b6060810190811067ffffffffffffffff821117611c9557604052565b90601f8019910116810190811067ffffffffffffffff821117611c9557604052565b67ffffffffffffffff8111611c955760051b60200190565b9080601f830112156116df576020908235611d4b81611d19565b93611d596040519586611cf7565b81855260208086019260051b8201019283116116df57602001905b828210611d82575050505090565b81358152908301908301611d74565b91908260409103126116df57604051611da981611c79565b6020808294803584520135910152565b9080601f830112156116df5760405191611dd283611c79565b8290604081019283116116df57905b828210611dee5750505090565b8135815260209182019101611de1565b808203929161016084126116df57604090815192611e1b84611cbf565b8395610100908181126116df576080855191611e3683611cdb565b611e408686611d91565b8352603f1901126116df578451611e5681611c79565b611e6285878601611db9565b8152611e718560808601611db9565b60208201526020820152611e888460c08501611d91565b8582015285528101359267ffffffffffffffff84116116df57611eb2610140936060958401611d31565b6020860152610120820135908501520135910152565b60405160208101907f447670526f6c6500000000000000000000000000000000000000000000000000825260078152611f0081611c79565b51902090565b6000915b60028310611f1757505050565b600190825181526020809101920192019190611f0a565b6020604060e09282815180518752015183860152611f638380830151611f578589018251611f06565b01516080870190611f06565b0151805160c08501520151910152565b90815180825260208080930193019160005b828110611f93575050505090565b835185529381019392810192600101611f85565b6009548110156116a15760096000527f6e1540171b6c0c960b71a7020d9f60077f6af931a8bbf590da0223dacf75c7af0190600090565b600a548110156116a157600a6000527fc65a7bb8d6351c1cf70c95a316cc6a92839c986682d98bc35f958f4883f9d2a80190600090565b1561201c57565b608460405162461bcd60e51b815260206004820152602260248201527f4d65726b6c653a204e756c6c69666965722063616e206e6f74206265207a657260448201527f6f2e0000000000000000000000000000000000000000000000000000000000006064820152fd5b612091821515612015565b60005260036020526040600020906000526020526040600020600160ff19825416179055600190565b9190820180921161061b57565b9190820391821161061b57565b8051156116a15760200190565b8051600110156116a15760400190565b80518210156116a15760209160051b010190565b805190612114826005546120ba565b9160049081549160ff831161235c576001948580941b111561234f575b90916005549261214181856120ba565b60055560009384925b61218a575b505050505061215d906120d4565b5180600655600854600052600b60205260406000209060005260205260406000209060ff19825416179055565b835483101561234a5780871c91600088808416146122fd575b905b8082106121d9575050508584018085116121c45791860191908661214a565b601184634e487b7160e01b6000525260246000fd5b60001981019650909160008288116122ea5750868310156122d4578883018084116122bf5761220890896120f1565b51965b831480156122ab575b612276575b61223961222885838c1c6120c7565b97612233858b6120f1565b51612662565b612243888a6120f1565b526002810180911161226157916002810180911161226157906121a5565b601186634e487b7160e01b6000525260246000fd5b6122a6612283848a6120f1565b5161228d87611fde565b90919082549060031b91821b91600019901b1916179055565b612219565b5060011982018281116122bf578314612214565b601187634e487b7160e01b6000525260246000fd5b6122dd85611fa7565b90549060031b1c9661220b565b80601188634e487b7160e01b6024945252fd5b50945061230a82806120c7565b9461232d61231785611fde565b90546123228a6120d4565b519160031b1c612662565b61233787896120f1565b52879188810180911161226157916121a3565b61214f565b612357612b99565b612131565b601190634e487b7160e01b6000525260246000fd5b9061237b82611d19565b6123886040519182611cf7565b8281528092612399601f1991611d19565b0190602036910137565b6040810192916000915b600283106123ba57505050565b6001908251815260208091019201920191906123ad565b908160209103126116df575180151581036116df5790565b600019811461061b5760010190565b6020908181019061240982516120e1565b518251908151600210156116a157606061244092015190600052600b60205260406000209060005260205260ff6040600020541690565b156108c15761244f82516120e1565b518251908151600310156116a157608061248692015190600052600260205260406000209060005260205260ff6040600020541690565b610897576001600160a01b0360115416815190835193604051937f8b85e6fe00000000000000000000000000000000000000000000000000000000908186526124dd61014495600160048901526024880190611f2e565b610140958881806124f96101249b8b8d8401528a830190611f73565b0381885afa908161258d575b50612580578795612535956125409251945191604051998a98899788978852601860048901526024880190611f2e565b850152830190611f73565b03915afa801561257457612556575b5050600190565b8161256c92903d1061171d5761170e8183611cf7565b50388061254f565b6040513d6000823e3d90fd5b5050505050505050600190565b6125a3908a3d8c1161171d5761170e8183611cf7565b5038612505565b9060009082825260026020526040822081835260205260ff6040832054166125f8576040926125da821515612015565b8252600260205282822090825260205220600160ff19825416179055565b608460405162461bcd60e51b815260206004820152602360248201527f4d65726b6c653a204e756c6c696669657220736c6f7420616c7265616479207360448201527f65742e00000000000000000000000000000000000000000000000000000000006064820152fd5b6040516126a79260209261267583611c79565b60403684378252828201526001600160a01b036000541660405180809581946314d2f97b60e11b8352600483016123a3565b03915afa908115612574576000916126bd575090565b90506020813d6020116126e4575b816126d860209383611cf7565b810103126116df575190565b3d91506126cb565b906126f8811515612015565b600090828252602060028152604093848420838552825260ff85852054166127bd57808452600382528484208385528252600160ff8686205416151503612754578352600381528383209183525220805460ff19169055600190565b60848286519062461bcd60e51b82526004820152602360248201527f4d65726b6c653a204e756c6c696669657220616c726561647920756e6c6f636b60448201527f65642e00000000000000000000000000000000000000000000000000000000006064820152fd5b60648286519062461bcd60e51b82526004820152601e60248201527f4d65726b6c653a204e756c6c696669657220616c7265616479207365742e00006044820152fd5b61280b610458611ec8565b6128158282612086565b506015547fc8eaa7dbe0dbc197d16b8865000145390f3f5d135c5cf66d7683e18527e83d97600080a4600190565b81811061284e575050565b60008155600101612843565b9060405161286781611c79565b602060018294805484520154910152565b60405191906000835b600282106128975750505061289582611c79565b565b6001602081928554815201930191019091612881565b929091926129017fffffffffffffffffffffffff0000000000000000000000000000000000000000916001600160a01b0360009616838754161786556004948186553384600d541617600d55600c55612371565b93845167ffffffffffffffff90818111612abb576801000000000000000090818111612ace57600a5481600a55808210612b13575b506020809801600a8552845b828110612ae1575050506129568654612371565b908151928311612ace578211612abb57869060095483600955808410612a85575b500160098352825b828110612a535750505060095415612a4057600981527f302a880eeac9ec8b02e876fea5cfd4947f3f87950cb04c9105f167aa346f5efa807f6e1540171b6c0c960b71a7020d9f60077f6af931a8bbf590da0223dacf75c7af559481955b8554871015612a07576129ff816129f960019361228d8b611fa7565b80612662565b9601956129dd565b91929450604093955081600655816007556008548352600b81528383209183525220600160ff1982541617905533906001541617600155565b80603285634e487b7160e01b6024945252fd5b81517f6e1540171b6c0c960b71a7020d9f60077f6af931a8bbf590da0223dacf75c7af8201559087019060010161297f565b612ab590847f6e1540171b6c0c960b71a7020d9f60077f6af931a8bbf590da0223dacf75c7af9182019101612843565b38612977565b602483604188634e487b7160e01b835252fd5b602484604189634e487b7160e01b835252fd5b81517fc65a7bb8d6351c1cf70c95a316cc6a92839c986682d98bc35f958f4883f9d2a882015590890190600101612942565b612b4390827fc65a7bb8d6351c1cf70c95a316cc6a92839c986682d98bc35f958f4883f9d2a89182019101612843565b38612936565b6020612b576126a7926120d4565b516001600160a01b039081601054169060405192612b7484611c79565b6013541683528383015260405180809581946314d2f97b60e11b8352600483016123a3565b6007546006556000600555612baf6008546123e9565b600855565b60005b838110612bc75750506000910152565b8181015183820152602001612bb7565b600091818352602091600e83526040916001600160a01b03838620911690818652845260ff838620541615612c0d575050505050565b93825194612c1a86611cdb565b602a86528486019284368537865115612e0b576030845386519160019260011015612eec576078602189015360295b838111612e755750612e3357845191612c6183611cbf565b60428352868301936060368637835115612e1f5760308553835160011015612e1f5790607860218501536041915b818311612da457505050612d625792612d306048612d219794612d54946044989785519a8b93612cec8b86019a7f416363657373436f6e74726f6c3a206163636f756e74200000000000000000008c525180926037880190612bb4565b8401917f206973206d697373696e6720726f6c6520000000000000000000000000000000603784015251809386840190612bb4565b01036028810189520187611cf7565b5194859362461bcd60e51b8552600485015251809281602486015285850190612bb4565b601f01601f19168101030190fd5b60648585519062461bcd60e51b825280600483015260248201527f537472696e67733a20686578206c656e67746820696e73756666696369656e746044820152fd5b909192600f81166010811015612e0b577f3031323334353637383961626364656600000000000000000000000000000000901a612de185876131a8565b5360041c928015612df757600019019190612c8f565b602482634e487b7160e01b81526011600452fd5b602483634e487b7160e01b81526032600452fd5b80634e487b7160e01b602492526032600452fd5b60648686519062461bcd60e51b825280600483015260248201527f537472696e67733a20686578206c656e67746820696e73756666696369656e746044820152fd5b90600f81166010811015612ed8577f3031323334353637383961626364656600000000000000000000000000000000901a612eb0838b6131a8565b5360041c908015612ec45760001901612c49565b602485634e487b7160e01b81526011600452fd5b602486634e487b7160e01b81526032600452fd5b602484634e487b7160e01b81526032600452fd5b90600091808352600e6020526001600160a01b036040842092169182845260205260ff604084205416612f3257505050565b808352600e602052604083208284526020526040832060ff1981541690557ff6391f5c32d9c69d2a47ea670b442974b53935d1edc7fd64eb21e047a839171b339380a4565b6040810151906060810151906001926001600160ff1b038116810361061b5780841b84019081851161061b57612fac916120ba565b916000908460005b8281106130425750505090612fc882612371565b9260009185601554935b858110612feb57505050505050612fe890612105565b90565b612ffd602084015161055283876120ba565b5161300882896120f1565b5261301381886120f1565b51857f28ec6d3cf0e771d5a8b44b29744de77a87c1301f68127019d5049968253913b4600080a3018690612fd2565b613054602086015161055283896120ba565b51613062575b018590612fb4565b9261306c906123e9565b9261305a565b906000916000906040808201519160019383850192838611612df7576001600160ff1b0385168503612df75784861b8601928387116108ff57825b8681106130be575050505050505050565b6020808301908151838b0190818c11613194578b949392916130df916120f1565b51906131006130f38451610552878d6120ba565b519351610552868d6120ba565b5161310f575b505050016130ad565b81885260038152868820838952905285872054929350909160ff1661316b57908161313c828c95946125aa565b6015547f437885c05eacc89ce854c46fbeb8290d4c624ea6b561c7a784d86bb5369b2ea38880a4388080613106565b600485517f29eaaf85000000000000000000000000000000000000000000000000000000008152fd5b602488634e487b7160e01b81526011600452fd5b9081518110156116a157016020019056fea2646970667358221220c485146b83795a1c2164a9ed89f53f78173397d85d85302db25847139d3ce04864736f6c634300081800332f8788117e7eff1d82e926ec794901d17c78024a50270940304540a733656f0d",
  "linkReferences": {},
  "deployedLinkReferences": {}
}