{
  "_format": "hh-sol-artifact-1",
  "contractName": "GenericGroth16Verifier",
  "sourceName": "contracts/core/contracts/GenericGroth16Verifier.sol",
  "abi": [
    {
      "inputs": [
        {
          "components": [
            {
              "internalType": "uint256",
              "name": "x",
              "type": "uint256"
            },
            {
              "internalType": "uint256",
              "name": "y",
              "type": "uint256"
            }
          ],
          "internalType": "struct IEnygmaDvp.G1Point",
          "name": "p1",
          "type": "tuple"
        },
        {
          "components": [
            {
              "internalType": "uint256",
              "name": "x",
              "type": "uint256"
            },
            {
              "internalType": "uint256",
              "name": "y",
              "type": "uint256"
            }
          ],
          "internalType": "struct IEnygmaDvp.G1Point",
          "name": "p2",
          "type": "tuple"
        }
      ],
      "name": "add",
      "outputs": [
        {
          "components": [
            {
              "internalType": "uint256",
              "name": "x",
              "type": "uint256"
            },
            {
              "internalType": "uint256",
              "name": "y",
              "type": "uint256"
            }
          ],
          "internalType": "struct IEnygmaDvp.G1Point",
          "name": "",
          "type": "tuple"
        }
      ],
      "stateMutability": "view",
      "type": "function"
    },
    {
      "inputs": [
        {
          "components": [
            {
              "internalType": "uint256",
              "name": "x",
              "type": "uint256"
            },
            {
              "internalType": "uint256",
              "name": "y",
              "type": "uint256"
            }
          ],
          "internalType": "struct IEnygmaDvp.G1Point",
          "name": "p",
          "type": "tuple"
        }
      ],
      "name": "negate",
      "outputs": [
        {
          "components": [
            {
              "internalType": "uint256",
              "name": "x",
              "type": "uint256"
            },
            {
              "internalType": "uint256",
              "name": "y",
              "type": "uint256"
            }
          ],
          "internalType": "struct IEnygmaDvp.G1Point",
          "name": "",
          "type": "tuple"
        }
      ],
      "stateMutability": "pure",
      "type": "function"
    },
    {
      "inputs": [
        {
          "components": [
            {
              "internalType": "uint256",
              "name": "x",
              "type": "uint256"
            },
            {
              "internalType": "uint256",
              "name": "y",
              "type": "uint256"
            }
          ],
          "internalType": "struct IEnygmaDvp.G1Point",
          "name": "_a1",
          "type": "tuple"
        },
        {
          "components": [
            {
              "internalType": "uint256[2]",
              "name": "x",
              "type": "uint256[2]"
            },
            {
              "internalType": "uint256[2]",
              "name": "y",
              "type": "uint256[2]"
            }
          ],
          "internalType": "struct IEnygmaDvp.G2Point",
          "name": "_a2",
          "type": "tuple"
        },
        {
          "components": [
            {
              "internalType": "uint256",
              "name": "x",
              "type": "uint256"
            },
            {
              "internalType": "uint256",
              "name": "y",
              "type": "uint256"
            }
          ],
          "internalType": "struct IEnygmaDvp.G1Point",
          "name": "_b1",
          "type": "tuple"
        },
        {
          "components": [
            {
              "internalType": "uint256[2]",
              "name": "x",
              "type": "uint256[2]"
            },
            {
              "internalType": "uint256[2]",
              "name": "y",
              "type": "uint256[2]"
            }
          ],
          "internalType": "struct IEnygmaDvp.G2Point",
          "name": "_b2",
          "type": "tuple"
        },
        {
          "components": [
            {
              "internalType": "uint256",
              "name": "x",
              "type": "uint256"
            },
            {
              "internalType": "uint256",
              "name": "y",
              "type": "uint256"
            }
          ],
          "internalType": "struct IEnygmaDvp.G1Point",
          "name": "_c1",
          "type": "tuple"
        },
        {
          "components": [
            {
              "internalType": "uint256[2]",
              "name": "x",
              "type": "uint256[2]"
            },
            {
              "internalType": "uint256[2]",
              "name": "y",
              "type": "uint256[2]"
            }
          ],
          "internalType": "struct IEnygmaDvp.G2Point",
          "name": "_c2",
          "type": "tuple"
        },
        {
          "components": [
            {
              "internalType": "uint256",
              "name": "x",
              "type": "uint256"
            },
            {
              "internalType": "uint256",
              "name": "y",
              "type": "uint256"
            }
          ],
          "internalType": "struct IEnygmaDvp.G1Point",
          "name": "_d1",
          "type": "tuple"
        },
        {
          "components": [
            {
              "internalType": "uint256[2]",
              "name": "x",
              "type": "uint256[2]"
            },
            {
              "internalType": "uint256[2]",
              "name": "y",
              "type": "uint256[2]"
            }
          ],
          "internalType": "struct IEnygmaDvp.G2Point",
          "name": "_d2",
          "type": "tuple"
        }
      ],
      "name": "pairing",
      "outputs": [
        {
          "internalType": "bool",
          "name": "",
          "type": "bool"
        }
      ],
      "stateMutability": "view",
      "type": "function"
    },
    {
      "inputs": [
        {
          "components": [
            {
              "internalType": "uint256",
              "name": "x",
              "type": "uint256"
            },
            {
              "internalType": "uint256",
              "name": "y",
              "type": "uint256"
            }
          ],
          "internalType": "struct IEnygmaDvp.G1Point",
          "name": "p",
          "type": "tuple"
        },
        {
          "internalType": "uint256",
          "name": "s",
          "type": "uint256"
        }
      ],
      "name": "scalarMul",
      "outputs": [
        {
          "components": [
            {
              "internalType": "uint256",
              "name": "x",
              "type": "uint256"
            },
            {
              "internalType": "uint256",
              "name": "y",
              "type": "uint256"
            }
          ],
          "internalType": "struct IEnygmaDvp.G1Point",
          "name": "r",
          "type": "tuple"
        }
      ],
      "stateMutability": "view",
      "type": "function"
    },
    {
      "inputs": [
        {
          "components": [
            {
              "components": [
                {
                  "internalType": "uint256",
                  "name": "x",
                  "type": "uint256"
                },
                {
                  "internalType": "uint256",
                  "name": "y",
                  "type": "uint256"
                }
              ],
              "internalType": "struct IEnygmaDvp.G1Point",
              "name": "alpha1",
              "type": "tuple"
            },
            {
              "components": [
                {
                  "internalType": "uint256[2]",
                  "name": "x",
                  "type": "uint256[2]"
                },
                {
                  "internalType": "uint256[2]",
                  "name": "y",
                  "type": "uint256[2]"
                }
              ],
              "internalType": "struct IEnygmaDvp.G2Point",
              "name": "beta2",
              "type": "tuple"
            },
            {
              "components": [
                {
                  "internalType": "uint256[2]",
                  "name": "x",
                  "type": "uint256[2]"
                },
                {
                  "internalType": "uint256[2]",
                  "name": "y",
                  "type": "uint256[2]"
                }
              ],
              "internalType": "struct IEnygmaDvp.G2Point",
              "name": "gamma2",
              "type": "tuple"
            },
            {
              "components": [
                {
                  "internalType": "uint256[2]",
                  "name": "x",
                  "type": "uint256[2]"
                },
                {
                  "internalType": "uint256[2]",
                  "name": "y",
                  "type": "uint256[2]"
                }
              ],
              "internalType": "struct IEnygmaDvp.G2Point",
              "name": "delta2",
              "type": "tuple"
            },
            {
              "components": [
                {
                  "internalType": "uint256",
                  "name": "x",
                  "type": "uint256"
                },
                {
                  "internalType": "uint256",
                  "name": "y",
                  "type": "uint256"
                }
              ],
              "internalType": "struct IEnygmaDvp.G1Point[]",
              "name": "ic",
              "type": "tuple[]"
            }
          ],
          "internalType": "struct IEnygmaDvp.VerifyingKey",
          "name": "_vk",
          "type": "tuple"
        },
        {
          "components": [
            {
              "components": [
                {
                  "internalType": "uint256",
                  "name": "x",
                  "type": "uint256"
                },
                {
                  "internalType": "uint256",
                  "name": "y",
                  "type": "uint256"
                }
              ],
              "internalType": "struct IEnygmaDvp.G1Point",
              "name": "a",
              "type": "tuple"
            },
            {
              "components": [
                {
                  "internalType": "uint256[2]",
                  "name": "x",
                  "type": "uint256[2]"
                },
                {
                  "internalType": "uint256[2]",
                  "name": "y",
                  "type": "uint256[2]"
                }
              ],
              "internalType": "struct IEnygmaDvp.G2Point",
              "name": "b",
              "type": "tuple"
            },
            {
              "components": [
                {
                  "internalType": "uint256",
                  "name": "x",
                  "type": "uint256"
                },
                {
                  "internalType": "uint256",
                  "name": "y",
                  "type": "uint256"
                }
              ],
              "internalType": "struct IEnygmaDvp.G1Point",
              "name": "c",
              "type": "tuple"
            }
          ],
          "internalType": "struct IEnygmaDvp.SnarkProof",
          "name": "_proof",
          "type": "tuple"
        },
        {
          "internalType": "uint256[]",
          "name": "_input",
          "type": "uint256[]"
        }
      ],
      "name": "verify",
      "outputs": [
        {
          "internalType": "bool",
          "name": "",
          "type": "bool"
        }
      ],
      "stateMutability": "view",
      "type": "function"
    }
  ],
  "bytecode": "0x6080806040523461001657610f83908161001c8239f35b600080fdfe6080604052600436101561001257600080fd5b60003560e01c8063161822441461006757806340a058671461006257806382d23b8a1461005d5780638de16fe3146100585763fb6b9e9a1461005357600080fd5b6108bb565b61077c565b610631565b6105e7565b346100d9576103003660031901126100d95760206100cf610087366101c0565b6100903661035b565b610099366101e4565b6100a2366103ee565b6100ab36610208565b906100b536610485565b926100bf3661022f565b946100c93661051c565b9661098b565b6040519015158152f35b600080fd5b634e487b7160e01b600052604160045260246000fd5b604051906040820182811067ffffffffffffffff82111761011457604052565b6100de565b6040519060a0820182811067ffffffffffffffff82111761011457604052565b60405190610300820182811067ffffffffffffffff82111761011457604052565b604051906060820182811067ffffffffffffffff82111761011457604052565b604051906080820182811067ffffffffffffffff82111761011457604052565b6040519190601f01601f1916820167ffffffffffffffff81118382101761011457604052565b60409060031901126100d9576101d46100f4565b9060043582526024356020830152565b60409060c31901126100d9576101f86100f4565b9060c435825260e4356020830152565b6040906101831901126100d95761021d6100f4565b906101843582526101a4356020830152565b6040906102431901126100d9576102446100f4565b90610244358252610264356020830152565b60409060e31901126100d95761026a6100f4565b9060e4358252610104356020830152565b91908260409103126100d95760206102916100f4565b928035845201356020830152565b80608312156100d9576102b06100f4565b908160a49160a4116100d9576064905b8282106102cd5750505090565b81358152602091820191016102c0565b8060c312156100d9576102ee6100f4565b908160e49160e4116100d95760a4905b82821061030b5750505090565b81358152602091820191016102fe565b9080601f830112156100d95761032f6100f4565b8092604081019283116100d957905b82821061034b5750505090565b813581526020918201910161033e565b9060806043198301126100d9576103706100f4565b9180606312156100d9576103826100f4565b6084818382116100d9576044905b8282106103de5750505083528060a312156100d9576103ad6100f4565b908160c49160c4116100d9576084905b8282106103ce575050506020830152565b81358152602091820191016103bd565b8135815260209182019101610390565b906080610103198301126100d9576104046100f4565b918061012312156100d9576104176100f4565b9081610144928284116100d957610104905b84821061047557505084528061016312156100d9576104466100f4565b80926101849283116100d957905b828210610465575050506020830152565b8135815260209182019101610454565b8135815260209182019101610429565b9060806101c3198301126100d95761049b6100f4565b91806101e312156100d9576104ae6100f4565b9081610204928284116100d9576101c4905b84821061050c57505084528061022312156100d9576104dd6100f4565b80926102449283116100d957905b8282106104fc575050506020830152565b81358152602091820191016104eb565b81358152602091820191016104c0565b906080610283198301126100d9576105326100f4565b91806102a312156100d9576105456100f4565b90816102c4928284116100d957610284905b8482106105a35750508452806102e312156100d9576105746100f4565b80926103049283116100d957905b828210610593575050506020830152565b8135815260209182019101610582565b8135815260209182019101610557565b91906080838203126100d9576105e09060406105cd6100f4565b946105d8838261031b565b86520161031b565b6020830152565b346100d95760603660031901126100d95761062d610610610607366101c0565b60443590610ad6565b604051918291829190916020806040830194805184520151910152565b0390f35b346100d95760803660031901126100d95761064b366101c0565b60403660431901126100d95761061061062d916106666100f4565b9060443582526064356020830152610b8c565b67ffffffffffffffff81116101145760051b60200190565b6023198101919061010083126100d957604051906060820182811067ffffffffffffffff8211176101145760405260408294126100d9576106d06100f4565b60243581526044356020820152825260806063198201126100d95761071c6040916106f96100f4565b6107028261029f565b815261070d826102dd565b60208201526020850152610256565b910152565b9080601f830112156100d957602090823561074361073e82610679565b61019a565b9360208086848152019260051b8201019283116100d957602001905b82821061076d575050505090565b8135815290830190830161075f565b346100d957600319610140368201126100d9576004359067ffffffffffffffff908183116100d9576101e09083360301126100d9576107b9610119565b916107c7368260040161027b565b83526107d636604483016105b3565b9060209160208501526107ec3660c483016105b3565b9060409160408601526108033661014483016105b3565b60608601526101c4810135908482116100d95701366023820112156100d95760048101359261083461073e85610679565b936024602086838152019160061b840101923684116100d957602401905b8382106108a357878787608083015261086a36610691565b91610124359182116100d95761062d9261088b610891933690600401610721565b91610d1c565b60405190151581529081906020820190565b8285916108b0368561027b565b815201910190610852565b346100d95760403660031901126100d95761062d6106106108db366101c0565b610e48565b634e487b7160e01b600052603260045260246000fd5b604051906020820182811067ffffffffffffffff821117610114576040526020368337565b1561092257565b608460405162461bcd60e51b8152602060048201526024808201527f50616972696e673a2050616972696e6720566572696669636174696f6e20466160448201527f696c6564000000000000000000000000000000000000000000000000000000006064820152fd5b9491610ad096610a736109f660e0956103009b95610ab09899610a366109af610139565b9c8d9c8d8251905260209e8f9c8d809c819a82809a81809901518288015280515160408801526109e0815160200190565b5160608801520180515160808701525160200190565b5160a0850152805160c085015201519101528d6101008251519101528d610120610a21835160200190565b51910152018051516101408e01525160200190565b516101608c015280516101808c015201516101a08a01528051516101c08a01528051602001516101e08a0152018051516102008901525160200190565b51610220870152805161024087015201516102608501528051516102808501528051602001516102a0850152018051516102c08401525160200190565b516102e0820152610abf6108f6565b93849160086107cf195a01fa61091b565b51151590565b6040909291926060610ae66100f4565b91600083526000602084015282956020610afe61015a565b928436853780518452015160208301528482015260076107cf195a01fa15610b2257565b608460405162461bcd60e51b815260206004820152602560248201527f50616972696e673a205363616c6172204d756c7469706c69636174696f6e204660448201527f61696c65640000000000000000000000000000000000000000000000000000006064820152fd5b6040600091608093610b9c6100f4565b90848252602094858093015281610bb161017a565b93873686378051855201518284015280518484015201516060820152610bd56100f4565b60008082528482015293849160066107cf195a01fa15610bf3575090565b6064906040519062461bcd60e51b82526004820152601360248201527f50616972696e673a20416464204661696c6564000000000000000000000000006044820152fd5b634e487b7160e01b600052601160045260246000fd5b9060018201809211610c5b57565b610c37565b15610c6757565b606460405162461bcd60e51b815260206004820152601d60248201527f76657269666965722d6261642d73746174656d656e742d6c656e6774680000006044820152fd5b805115610cb85760200190565b6108e0565b8051821015610cb85760209160051b010190565b15610cd857565b606460405162461bcd60e51b815260206004820152601f60248201527f76657269666965722d6774652d736e61726b2d7363616c61722d6669656c64006044820152fd5b91610d278151610c4d565b93610d39608085019586515114610c60565b610d416100f4565b6000815260006020820152926000935b8351851015610dcc57610dc4600191610d957f30644e72e131a029b85045b68181585d2833e84879b9709143e1f593f0000001610d8e8989610cbd565b5110610cd1565b610dbe610dac8a51610da68a610c4d565b90610cbd565b51610db78989610cbd565b5190610ad6565b90610b8c565b940193610d51565b909350610e17949250610de3610dea929651610cab565b5190610b8c565b91610df58151610e48565b926020820151835160208501519160606040808801519601519601519661098b565b90565b907f30644e72e131a029b85045b68181585d97816a916871ca8d3c208c16d87cfd47918203918211610c5b57565b610e506100f4565b60008152600060208092015281511580610f42575b610f2c578151917f30644e72e131a029b85045b68181585d97816a916871ca8d3c208c16d87cfd4792828201938060038187519481818009090891800903610ee857519151610ed6907f30644e72e131a029b85045b68181585d97816a916871ca8d3c208c16d87cfd479006610e1a565b90610edf6100f4565b92835282015290565b6064826040519062461bcd60e51b82526004820152600760248201527f536e61726b3a20000000000000000000000000000000000000000000000000006044820152fd5b90506000610f386100f4565b9181835282015290565b508082015115610e6556fea2646970667358221220e475e1e6bcf5bdb96c37a760d827c0e113101224ccc5b8f367fe3487d257534e64736f6c63430008180033",
  "linkReferences": {},
  "deployedLinkReferences": {}
}