{
  "_format": "hh-sol-artifact-1",
  "contractName": "PoseidonWrapper",
  "sourceName": "contracts/core/contracts/PoseidonWrapper.sol",
  "abi": [
    {
      "inputs": [
        {
          "internalType": "uint256[2]",
          "name": "input",
          "type": "uint256[2]"
        }
      ],
      "name": "poseidon",
      "outputs": [
        {
          "internalType": "uint256",
          "name": "",
          "type": "uint256"
        }
      ],
      "stateMutability": "pure",
      "type": "function"
    },
    {
      "inputs": [
        {
          "internalType": "uint256[4]",
          "name": "input",
          "type": "uint256[4]"
        }
      ],
      "name": "poseidon4",
      "outputs": [
        {
          "internalType": "uint256",
          "name": "",
          "type": "uint256"
        }
      ],
      "stateMutability": "pure",
      "type": "function"
    }
  ],
  "bytecode": "0x60808060405234610016576102d8908161001c8239f35b600080fdfe608060408181526004908136101561001657600080fd5b600092833560e01c90816329a5f2f614610177575063ac490f261461003a57600080fd5b34610123576080366003190112610123573660231215610123578051916080830183811067ffffffffffffffff8211176101645782526084833682116101605782905b828210610150575050508151927f248f667700000000000000000000000000000000000000000000000000000000845281840185905b838210610139575050505060208260848173__$68ecb8d515adeddb834d99bd1b8beaebaa$__5af491821561012f5783926100f3575b6020838351908152f35b9091506020813d602011610127575b8161010f6020938361026a565b8101031261012357602092505190386100e9565b8280fd5b3d9150610102565b81513d85823e3d90fd5b6001908351815260208091019301910190916100b3565b813581526020918201910161007d565b8580fd5b602485604184634e487b7160e01b835252fd5b90503461026657816003193601126102665736602312156102665781810181811067ffffffffffffffff8211176102535782526044813682116101605784905b828210610243575050508151927f29a5f2f600000000000000000000000000000000000000000000000000000000845283019084915b6002831061022c5750505060208260448173__$af3914a74d1d924503fd4ef65aeff9b798$__5af491821561012f5783926100f3576020838351908152f35b6001908251815260208091019201920191906101ed565b81358152602091820191016101b7565b602485604186634e487b7160e01b835252fd5b8380fd5b90601f8019910116810190811067ffffffffffffffff82111761028c57604052565b634e487b7160e01b600052604160045260246000fdfea26469706673582212205df1993992472f1f03ed714c221afb77fde8831443fdd7a96ed7f28892f8655f64736f6c63430008180033",
  "linkReferences": {
    "contracts/core/contracts/Poseidon.sol": {
      "PoseidonT3": [
        {
          "length": 20,
          "start": 540
        }
      ],
      "PoseidonT5": [
        {
          "length": 20,
          "start": 226
        }
      ]
    }
  },
  "deployedLinkReferences": {
    "contracts/core/contracts/Poseidon.sol": {
      "PoseidonT3": [
        {
          "length": 20,
          "start": 512
        }
      ],
      "PoseidonT5": [
        {
          "length": 20,
          "start": 198
        }
      ]
    }
  }
}