{
  "_format": "hh-sol-artifact-1",
  "abi": [
    {
      "inputs": [],
      "name": "ProofInvalid",
      "type": "error"
    },
    {
      "inputs": [],
      "name": "PublicInputNotInField",
      "type": "error"
    },
    {
      "inputs": [
        {
          "internalType": "uint256[8]",
          "name": "proof",
          "type": "uint256[8]"
        }
      ],
      "name": "compressProof",
      "outputs": [
        {
          "internalType": "uint256[4]",
          "name": "compressed",
          "type": "uint256[4]"
        }
      ],
      "stateMutability": "view",
      "type": "function"
    },
    {
      "inputs": [
        {
          "internalType": "uint256[4]",
          "name": "compressedProof",
          "type": "uint256[4]"
        },
        {
          "internalType": "uint256[4]",
          "name": "input",
          "type": "uint256[4]"
        }
      ],
      "name": "verifyCompressedProof",
      "outputs": [],
      "stateMutability": "view",
      "type": "function"
    },
    {
      "inputs": [
        {
          "internalType": "uint256[8]",
          "name": "proof",
          "type": "uint256[8]"
        },
        {
          "internalType": "uint256[4]",
          "name": "input",
          "type": "uint256[4]"
        }
      ],
      "name": "verifyProof",
      "outputs": [],
      "stateMutability": "view",
      "type": "function"
    }
  ],
  "bytecode": "0x6080806040523460155761113c908161001a8239f35b5f80fdfe60806040526004361015610011575f80fd5b5f3560e01c806323572511146105e957806344f63692146105545763f2457c8d1461003a575f80fd5b346105505761010036600319011261055057366084116105505736610104116105505761030061006981610a3b565b81368237610078600435610d63565b610089602493929335604435610dce565b91939290610098606435610d63565b9390926040519660408801967f10a46e852502c098390dd41fdbd28fc682d5d690a4f4d989f423e5f52057010289528860208101987f1c043c46302443d11058015b34b45ad68e563e27b4ac606cccf46f311a35d3738a527f162b3ea87de280c578ac90af99a0fe361354fc1b5a0b2d1a89826d90d70ac48881527f30644e72e131a029b85045b68181585d2833e84879b9709143e1f593f0000001604060608401927f2f3590170ab8a5b029d631ecc72273903830c92e341b21c8c067ea42d80d7b7084527f28174c06df23dccd63e21f52f654374525be0f4bbfab1ac0df3b6baa0acbcb1f6084359583608082019780895286828660608160075afa911016818360808160065afa165f85525f8852600160a43591828b5288848860608160075afa9310161616818360808160065afa167f1ae51188c3755f7e3ff52e37dcd6282d004fcb5e084fb3e3a5cf8577e21219f785527f15b03c35012e807b3168c3e7f5457898feb807cbfa0089e8457a146a7abe734e885260c43590818a5287838760608160075afa921016169160808160065afa16947f1acdcd0eb8f5605f12c029f2e8012d4154e520f29154c47b69239836bb4b5e2d83525260e43580955260608160075afa9210161660408a60808160065afa169851975198156105285760209a8a528a8a015260408901526060880152608087015260a086015260c085015260e08401527f118734caa42ac7d61c977242c598d4525f9775ff0975d1d1b4d4e484a859f1236101008401527f2e18ee55be95765c44ddb96ef8f8b643e4fbb073e4e84ca933730c79428887f46101208401527f0a726032bc3c1690fce1e6df9fc23d1b3bb7bf2a5861df9d1ad5ca7d62f729596101408401527f1cfc05e830710a33986bbe49aa6011873156772ae7d46081e25cd45c07acb2b26101608401527f0790f9cfd7ce64c8c453b8b8aeb2f578a9c0085403b747a493dfeaafa720221b6101808401527f01e1f34d6d27a497c39856be06b390ca9f1ab30720ff62c2de9f6b2fd01760df6101a08401527f0935f36187b0e851ea0a385bd54d18413aa996ffb9913e55d801dddb01cf7a8a6101c08401527f045d2facf7180dd130ba49f20001fb61ade6452716421490326dabfc427919c26101e08401527f2861c830b28e662ebef0ae0ca5983ecbb495ef0e01ff52f6386e8503efff3b5a6102008401527f102a8f5926e4826b41a5e4ef8d06f58ea753271f314e639b19c0e8ab6ac7c67a6102208401526102408301526102608201527f0766a98e433cc5874db5a8f6a8b3e37d61b92199096e9731ff371b4b5a60d68d6102808201527f1f0407c61f32b57f1f2f661d06eca1b13484b56fe953e9cd2c94a3d233fc3dc36102a08201527f092b0b65d7706115e43d6b1bbcbbdc79f70152a937a15f1d860e017153fced116102c08201527f0ec44739739cc928c8c20256bbfae374ef9f60ccd892fc2fa070fe1ce08aa57a6102e08201526104d882610a3b565b9283918336843760085afa1590811561051b575b506104f357005b7f7fcdd1f4000000000000000000000000000000000000000000000000000000005f5260045ffd5b600191505114155f6104ec565b7fa54f8e27000000000000000000000000000000000000000000000000000000005f5260045ffd5b5f80fd5b3461055057610100366003190112610550573661010411610550576105796080610a3b565b608036823761058c602435600435610a8e565b81526105a260843560a435604435606435610b2f565b602083015260408201526105ba60e43560c435610a8e565b6060820152604051905f825b600482106105d357608084f35b60208060019285518152019301910190916105c6565b34610550576101803660031901126105505736610104116105505736610184116105505760405160408101907f10a46e852502c098390dd41fdbd28fc682d5d690a4f4d989f423e5f520570102815260208101917f1c043c46302443d11058015b34b45ad68e563e27b4ac606cccf46f311a35d37383527f162b3ea87de280c578ac90af99a0fe361354fc1b5a0b2d1a89826d90d70ac4888152606082017f2f3590170ab8a5b029d631ecc72273903830c92e341b21c8c067ea42d80d7b7081527f30644e72e131a029b85045b68181585d2833e84879b9709143e1f593f0000001604061010435937f28174c06df23dccd63e21f52f654374525be0f4bbfab1ac0df3b6baa0acbcb1f608087019580875284848460608160075afa911016838860808160065afa165f83525f86526001610124359182895286868660608160075afa9310161616838860808160065afa167f1ae51188c3755f7e3ff52e37dcd6282d004fcb5e084fb3e3a5cf8577e21219f783527f15b03c35012e807b3168c3e7f5457898feb807cbfa0089e8457a146a7abe734e8652610144359081885285858560608160075afa92101616838860808160065afa16947f1acdcd0eb8f5605f12c029f2e8012d4154e520f29154c47b69239836bb4b5e2d8352526101643580955260608160075afa9210161660408260808160065afa169051915190156105285760405191610100600484377f118734caa42ac7d61c977242c598d4525f9775ff0975d1d1b4d4e484a859f1236101008401527f2e18ee55be95765c44ddb96ef8f8b643e4fbb073e4e84ca933730c79428887f46101208401527f0a726032bc3c1690fce1e6df9fc23d1b3bb7bf2a5861df9d1ad5ca7d62f729596101408401527f1cfc05e830710a33986bbe49aa6011873156772ae7d46081e25cd45c07acb2b26101608401527f0790f9cfd7ce64c8c453b8b8aeb2f578a9c0085403b747a493dfeaafa720221b6101808401527f01e1f34d6d27a497c39856be06b390ca9f1ab30720ff62c2de9f6b2fd01760df6101a08401527f0935f36187b0e851ea0a385bd54d18413aa996ffb9913e55d801dddb01cf7a8a6101c08401527f045d2facf7180dd130ba49f20001fb61ade6452716421490326dabfc427919c26101e08401527f2861c830b28e662ebef0ae0ca5983ecbb495ef0e01ff52f6386e8503efff3b5a6102008401527f102a8f5926e4826b41a5e4ef8d06f58ea753271f314e639b19c0e8ab6ac7c67a6102208401526102408301526102608201527f0766a98e433cc5874db5a8f6a8b3e37d61b92199096e9731ff371b4b5a60d68d6102808201527f1f0407c61f32b57f1f2f661d06eca1b13484b56fe953e9cd2c94a3d233fc3dc36102a08201527f092b0b65d7706115e43d6b1bbcbbdc79f70152a937a15f1d860e017153fced116102c08201527f0ec44739739cc928c8c20256bbfae374ef9f60ccd892fc2fa070fe1ce08aa57a6102e08201526020816103008160085afa905116156104f357005b6040519190601f01601f1916820167ffffffffffffffff811183821017610a6157604052565b7f4e487b71000000000000000000000000000000000000000000000000000000005f52604160045260245ffd5b905f5160206110e75f395f51905f528210801590610b18575b6104f357811580610b10575b610b0a57610ad75f5160206110e75f395f51905f5260038185818180090908610f07565b818103610ae657505060011b90565b5f5160206110e75f395f51905f52809106810306145f146104f357600190811b1790565b50505f90565b508015610ab3565b505f5160206110e75f395f51905f52811015610aa7565b919093925f5160206110e75f395f51905f528310801590610d4c575b8015610d35575b8015610d1e575b6104f3578082868517171715610d1357908291610c765f5160206110e75f395f51905f5280808080888180808f9d7f30644e72e131a029b85045b68181585d97816a916871ca8d3c208c16d87cfd448f839290839109099d8e0981848181800909087f2b149d40ceb8aaae81be18991be06ac3b5b4c5e559dbefa33267e6dc24a138e5089a09818c8181800909087f2fcd3ac2a640a154eb23960892a85a68f031ca0c8344b23a577dcf1052b9e7750806810306945f5160206110e75f395f51905f527f183227397098d014dc2822db40c0ac2ecbc0b548b438e5469e10460b6c3e7ea481610c5081808b80098187800908610f07565b8408095f5160206110e75f395f51905f52610c6a8261107e565b80091415958691610f2a565b929080821480610d0a575b15610ca85750505050905f14610ca05760ff60025b169060021b179190565b60ff5f610c96565b5f5160206110e75f395f51905f52809106810306149182610ceb575b5050156104f35760019115610ce35760ff60025b169060021b17179190565b60ff5f610cd8565b5f5160206110e75f395f51905f52919250819006810306145f80610cc4565b50838314610c81565b50505090505f905f90565b505f5160206110e75f395f51905f52811015610b59565b505f5160206110e75f395f51905f52821015610b52565b505f5160206110e75f395f51905f52851015610b4b565b8015610dc7578060011c915f5160206110e75f395f51905f528310156104f357600180610da65f5160206110e75f395f51905f5260038188818180090908610f07565b931614610daf57565b905f5160206110e75f395f51905f5280910681030690565b505f905f90565b801580610eff575b610ef3578060021c92825f5160206110e75f395f51905f528510801590610edc575b6104f35784815f5160206110e75f395f51905f5280808080808080807f30644e72e131a029b85045b68181585d97816a916871ca8d3c208c16d87cfd4481610ea69d8d0909998a0981898181800909087f2fcd3ac2a640a154eb23960892a85a68f031ca0c8344b23a577dcf1052b9e7750806810306936002808a16149509818a8181800909087f2b149d40ceb8aaae81be18991be06ac3b5b4c5e559dbefa33267e6dc24a138e508610f2a565b80929160018082961614610eb8575050565b5f5160206110e75f395f51905f528093945080929550809106810306930681030690565b505f5160206110e75f395f51905f52811015610df8565b50505f905f905f905f90565b508115610dd6565b90610f118261107e565b915f5160206110e75f395f51905f52838009036104f357565b915f5160206110e75f395f51905f527f183227397098d014dc2822db40c0ac2ecbc0b548b438e5469e10460b6c3e7ea481610f8293969496610f7482808a8009818a800908610f07565b90611072575b860809610f07565b925f5160206110e75f395f51905f52600285096040519060208252602080830152602060408301528060608301527f30644e72e131a029b85045b68181585d97816a916871ca8d3c208c16d87cfd4560808301525f5160206110e75f395f51905f5260a083015260208260c08160055afa915191156104f3575f5160206110e75f395f51905f528260019209036104f3575f5160206110e75f395f51905f52908209925f5160206110e75f395f51905f528080808780090681030681878009081490811591611053575b506104f357565b90505f5160206110e75f395f51905f528084860960020914155f61104c565b81809106810306610f7a565b9060405191602083526020808401526020604084015260608301527f0c19139cb84c680a6e14116da060561765e05aa45a1c72a34f082305b61f3f5260808301525f5160206110e75f395f51905f5260a083015260208260c08160055afa915191156104f35756fe30644e72e131a029b85045b68181585d97816a916871ca8d3c208c16d87cfd47a26469706673582212200944611a33be4a9fe75c0387e075a294cbe93658df2dd00db34db209e519771464736f6c634300081f0033",
  "contractName": "PrivateMintVerifier",
  "deployedLinkReferences": {},
  "linkReferences": {},
  "sourceName": "contracts/core/contracts/PrivateMintVerifier.sol"
}