{
  "_format": "hh-sol-artifact-1",
  "contractName": "RaylsERC20",
  "sourceName": "contracts/erc20/contracts/RaylsERC20.sol",
  "abi": [
    {
      "inputs": [
        {
          "internalType": "string",
          "name": "_name",
          "type": "string"
        },
        {
          "internalType": "string",
          "name": "_symbol",
          "type": "string"
        }
      ],
      "stateMutability": "nonpayable",
      "type": "constructor"
    },
    {
      "anonymous": false,
      "inputs": [
        {
          "indexed": true,
          "internalType": "address",
          "name": "owner",
          "type": "address"
        },
        {
          "indexed": true,
          "internalType": "address",
          "name": "spender",
          "type": "address"
        },
        {
          "indexed": false,
          "internalType": "uint256",
          "name": "value",
          "type": "uint256"
        }
      ],
      "name": "Approval",
      "type": "event"
    },
    {
      "anonymous": false,
      "inputs": [
        {
          "indexed": true,
          "internalType": "bytes32",
          "name": "role",
          "type": "bytes32"
        },
        {
          "indexed": true,
          "internalType": "bytes32",
          "name": "previousAdminRole",
          "type": "bytes32"
        },
        {
          "indexed": true,
          "internalType": "bytes32",
          "name": "newAdminRole",
          "type": "bytes32"
        }
      ],
      "name": "RoleAdminChanged",
      "type": "event"
    },
    {
      "anonymous": false,
      "inputs": [
        {
          "indexed": true,
          "internalType": "bytes32",
          "name": "role",
          "type": "bytes32"
        },
        {
          "indexed": true,
          "internalType": "address",
          "name": "account",
          "type": "address"
        },
        {
          "indexed": true,
          "internalType": "address",
          "name": "sender",
          "type": "address"
        }
      ],
      "name": "RoleGranted",
      "type": "event"
    },
    {
      "anonymous": false,
      "inputs": [
        {
          "indexed": true,
          "internalType": "bytes32",
          "name": "role",
          "type": "bytes32"
        },
        {
          "indexed": true,
          "internalType": "address",
          "name": "account",
          "type": "address"
        },
        {
          "indexed": true,
          "internalType": "address",
          "name": "sender",
          "type": "address"
        }
      ],
      "name": "RoleRevoked",
      "type": "event"
    },
    {
      "anonymous": false,
      "inputs": [
        {
          "indexed": true,
          "internalType": "address",
          "name": "from",
          "type": "address"
        },
        {
          "indexed": true,
          "internalType": "address",
          "name": "to",
          "type": "address"
        },
        {
          "indexed": false,
          "internalType": "uint256",
          "name": "value",
          "type": "uint256"
        }
      ],
      "name": "Transfer",
      "type": "event"
    },
    {
      "inputs": [],
      "name": "DEFAULT_ADMIN_ROLE",
      "outputs": [
        {
          "internalType": "bytes32",
          "name": "",
          "type": "bytes32"
        }
      ],
      "stateMutability": "view",
      "type": "function"
    },
    {
      "inputs": [],
      "name": "DEFAULT_OWNER_ROLE",
      "outputs": [
        {
          "internalType": "bytes32",
          "name": "",
          "type": "bytes32"
        }
      ],
      "stateMutability": "view",
      "type": "function"
    },
    {
      "inputs": [
        {
          "internalType": "address",
          "name": "owner",
          "type": "address"
        },
        {
          "internalType": "address",
          "name": "spender",
          "type": "address"
        }
      ],
      "name": "allowance",
      "outputs": [
        {
          "internalType": "uint256",
          "name": "",
          "type": "uint256"
        }
      ],
      "stateMutability": "view",
      "type": "function"
    },
    {
      "inputs": [
        {
          "internalType": "address",
          "name": "spender",
          "type": "address"
        },
        {
          "internalType": "uint256",
          "name": "amount",
          "type": "uint256"
        }
      ],
      "name": "approve",
      "outputs": [
        {
          "internalType": "bool",
          "name": "",
          "type": "bool"
        }
      ],
      "stateMutability": "nonpayable",
      "type": "function"
    },
    {
      "inputs": [
        {
          "internalType": "address",
          "name": "account",
          "type": "address"
        }
      ],
      "name": "balanceOf",
      "outputs": [
        {
          "internalType": "uint256",
          "name": "",
          "type": "uint256"
        }
      ],
      "stateMutability": "view",
      "type": "function"
    },
    {
      "inputs": [],
      "name": "decimals",
      "outputs": [
        {
          "internalType": "uint8",
          "name": "",
          "type": "uint8"
        }
      ],
      "stateMutability": "view",
      "type": "function"
    },
    {
      "inputs": [
        {
          "internalType": "address",
          "name": "spender",
          "type": "address"
        },
        {
          "internalType": "uint256",
          "name": "subtractedValue",
          "type": "uint256"
        }
      ],
      "name": "decreaseAllowance",
      "outputs": [
        {
          "internalType": "bool",
          "name": "",
          "type": "bool"
        }
      ],
      "stateMutability": "nonpayable",
      "type": "function"
    },
    {
      "inputs": [
        {
          "internalType": "bytes32",
          "name": "role",
          "type": "bytes32"
        }
      ],
      "name": "getRoleAdmin",
      "outputs": [
        {
          "internalType": "bytes32",
          "name": "",
          "type": "bytes32"
        }
      ],
      "stateMutability": "view",
      "type": "function"
    },
    {
      "inputs": [
        {
          "internalType": "bytes32",
          "name": "role",
          "type": "bytes32"
        },
        {
          "internalType": "address",
          "name": "account",
          "type": "address"
        }
      ],
      "name": "grantRole",
      "outputs": [],
      "stateMutability": "nonpayable",
      "type": "function"
    },
    {
      "inputs": [
        {
          "internalType": "bytes32",
          "name": "role",
          "type": "bytes32"
        },
        {
          "internalType": "address",
          "name": "account",
          "type": "address"
        }
      ],
      "name": "hasRole",
      "outputs": [
        {
          "internalType": "bool",
          "name": "",
          "type": "bool"
        }
      ],
      "stateMutability": "view",
      "type": "function"
    },
    {
      "inputs": [
        {
          "internalType": "address",
          "name": "spender",
          "type": "address"
        },
        {
          "internalType": "uint256",
          "name": "addedValue",
          "type": "uint256"
        }
      ],
      "name": "increaseAllowance",
      "outputs": [
        {
          "internalType": "bool",
          "name": "",
          "type": "bool"
        }
      ],
      "stateMutability": "nonpayable",
      "type": "function"
    },
    {
      "inputs": [
        {
          "internalType": "address",
          "name": "to_",
          "type": "address"
        },
        {
          "internalType": "uint256",
          "name": "value_",
          "type": "uint256"
        }
      ],
      "name": "mint",
      "outputs": [],
      "stateMutability": "nonpayable",
      "type": "function"
    },
    {
      "inputs": [],
      "name": "name",
      "outputs": [
        {
          "internalType": "string",
          "name": "",
          "type": "string"
        }
      ],
      "stateMutability": "view",
      "type": "function"
    },
    {
      "inputs": [
        {
          "internalType": "bytes32",
          "name": "role",
          "type": "bytes32"
        },
        {
          "internalType": "address",
          "name": "account",
          "type": "address"
        }
      ],
      "name": "renounceRole",
      "outputs": [],
      "stateMutability": "nonpayable",
      "type": "function"
    },
    {
      "inputs": [
        {
          "internalType": "bytes32",
          "name": "role",
          "type": "bytes32"
        },
        {
          "internalType": "address",
          "name": "account",
          "type": "address"
        }
      ],
      "name": "revokeRole",
      "outputs": [],
      "stateMutability": "nonpayable",
      "type": "function"
    },
    {
      "inputs": [
        {
          "internalType": "bytes4",
          "name": "interfaceId",
          "type": "bytes4"
        }
      ],
      "name": "supportsInterface",
      "outputs": [
        {
          "internalType": "bool",
          "name": "",
          "type": "bool"
        }
      ],
      "stateMutability": "view",
      "type": "function"
    },
    {
      "inputs": [],
      "name": "symbol",
      "outputs": [
        {
          "internalType": "string",
          "name": "",
          "type": "string"
        }
      ],
      "stateMutability": "view",
      "type": "function"
    },
    {
      "inputs": [],
      "name": "totalSupply",
      "outputs": [
        {
          "internalType": "uint256",
          "name": "",
          "type": "uint256"
        }
      ],
      "stateMutability": "view",
      "type": "function"
    },
    {
      "inputs": [
        {
          "internalType": "address",
          "name": "recipient",
          "type": "address"
        },
        {
          "internalType": "uint256",
          "name": "amount",
          "type": "uint256"
        }
      ],
      "name": "transfer",
      "outputs": [
        {
          "internalType": "bool",
          "name": "",
          "type": "bool"
        }
      ],
      "stateMutability": "nonpayable",
      "type": "function"
    },
    {
      "inputs": [
        {
          "internalType": "address",
          "name": "sender",
          "type": "address"
        },
        {
          "internalType": "address",
          "name": "recipient",
          "type": "address"
        },
        {
          "internalType": "uint256",
          "name": "amount",
          "type": "uint256"
        }
      ],
      "name": "transferFrom",
      "outputs": [
        {
          "internalType": "bool",
          "name": "",
          "type": "bool"
        }
      ],
      "stateMutability": "nonpayable",
      "type": "function"
    }
  ],
  "bytecode": "0x608060409080825234620003d857620016938038038091620000228285620003dd565b833981018282820312620003d85781516001600160401b039290838111620003d857826200005291830162000401565b9060209283820151858111620003d8576200006e920162000401565b938151848111620002d85760038054916001948584811c94168015620003cd575b87851014620003b7578190601f9485811162000361575b508790858311600114620002fa57600092620002ee575b505060001982841b1c191690851b1781555b865190868211620002d85760049283548681811c91168015620002cd575b88821014620002b8578181116200026d575b5086908311600114620002005782939495969798600093620001f4575b505082861b92600019911b1c19161781555b815184810191686f776e6572526f6c6560b81b8352600982528382019682881090881117620001df57508583525190209283600052600581528160002033600052815260ff826000205416156200018d575b61121b8581620004788239f35b8360005260058152816000209033600052526000209060ff19825416179055339033907f2f8788117e7eff1d82e926ec794901d17c78024a50270940304540a733656f0d600080a43880808062000180565b604190634e487b7160e01b6000525260246000fd5b0151915038806200011c565b90601f1983169184600052876000209260005b818110620002575750998488999a9b98969798106200023c575b50505050811b0181556200012e565b01519060f884600019921b161c19169055388080806200022d565b8b83015185559388019391890191890162000213565b84600052876000208280860160051c8201928a8710620002ae575b0160051c019087905b828110620002a1575050620000ff565b6000815501879062000291565b9250819262000288565b602285634e487b7160e01b6000525260246000fd5b90607f1690620000ed565b634e487b7160e01b600052604160045260246000fd5b015190503880620000bd565b90879350601f1983169185600052896000209260005b8b8282106200034a575050841162000331575b505050811b018155620000cf565b015160001983861b60f8161c1916905538808062000323565b8385015186558b9790950194938401930162000310565b90915083600052876000208580850160051c8201928a8610620003ad575b918991869594930160051c01915b8281106200039d575050620000a6565b600081558594508991016200038d565b925081926200037f565b634e487b7160e01b600052602260045260246000fd5b93607f16936200008f565b600080fd5b601f909101601f19168101906001600160401b03821190821017620002d857604052565b919080601f84011215620003d85782516001600160401b038111620002d857602090604051926200043c83601f19601f8501160185620003dd565b818452828287010111620003d85760005b8181106200046357508260009394955001015290565b85810183015184820184015282016200044d56fe608060408181526004918236101561001657600080fd5b600092833560e01c91826301ffc9a71461091a5750816306fdde0314610823578163095ea7b3146107f957816318160ddd146107da57816323b872dd146106ff578163248a9ca3146106d45781632f2ff15d14610627578163313ce5671461060b57816336568abe1461056b57816339509351146105235781633b8162b7146104ff57816340c10f191461042757816370a08231146103f157816391d14854146103ab57816395d89b41146102a6578163a217fddf1461028b578163a457c2d7146101c2578163a9059cbb14610191578163d547741f1461014c575063dd62ed3e1461010157600080fd5b346101485780600319360112610148578060209261011d610a07565b610125610a22565b6001600160a01b0391821683526001865283832091168252845220549051908152f35b5080fd5b9190503461018d578060031936011261018d5761018a91356101856001610171610a22565b938387526005602052862001543390610de5565b611147565b80f35b8280fd5b5050346101485780600319360112610148576020906101bb6101b1610a07565b6024359033610c23565b5160018152f35b905082346102885782600319360112610288576101dd610a07565b91836024359233815260016020528181206001600160a01b038616825260205220549082821061021f576020856101bb866102188787610abf565b9033610aef565b608490602086519162461bcd60e51b8352820152602560248201527f45524332303a2064656372656173656420616c6c6f77616e63652062656c6f7760448201527f207a65726f0000000000000000000000000000000000000000000000000000006064820152fd5b80fd5b50503461014857816003193601126101485751908152602090f35b83833461014857816003193601126101485780519180938054916001908360011c92600185169485156103a1575b602095868610811461038e5785895290811561036a5750600114610312575b61030e8787610304828c0383610a38565b51918291826109db565b0390f35b81529295507f8a35acfbc15ff81a39ae7d344fd709f28e8600b4aa8c65c6b64bfe7fe36bd19b5b828410610357575050508261030e94610304928201019486806102f3565b8054868501880152928601928101610339565b60ff19168887015250505050151560051b83010192506103048261030e86806102f3565b602484602285634e487b7160e01b835252fd5b93607f16936102d4565b90503461018d578160031936011261018d578160209360ff926103cc610a22565b90358252600586526001600160a01b0383832091168252855220541690519015158152f35b50503461014857602036600319011261014857806020926001600160a01b03610418610a07565b16815280845220549051908152f35b9190503461018d578060031936011261018d57610442610a07565b906001600160a01b036024359261046161045a610a70565b3390610de5565b169283156104bd57506020827fddf252ad1be2c89b69c2b068fc378daa952ba7f163c4a11628f55a4df523b3ef9261049c8795600254610ae2565b6002558585528483528085206104b3838254610ae2565b905551908152a380f35b6020606492519162461bcd60e51b8352820152601f60248201527f45524332303a206d696e7420746f20746865207a65726f2061646472657373006044820152fd5b50503461014857816003193601126101485760209061051c610a70565b9051908152f35b5050346101485780600319360112610148576101bb602092610218610546610a07565b91338152600186528481206001600160a01b0384168252865284602435912054610ae2565b83915034610148578260031936011261014857610586610a22565b90336001600160a01b038316036105a2579061018a9135611147565b608490602085519162461bcd60e51b8352820152602f60248201527f416363657373436f6e74726f6c3a2063616e206f6e6c792072656e6f756e636560448201527f20726f6c657320666f722073656c6600000000000000000000000000000000006064820152fd5b5050346101485781600319360112610148576020905160128152f35b90503461018d578160031936011261018d573590610643610a22565b90828452600560205261065d600182862001543390610de5565b82845260056020526001600160a01b0381852092169182855260205260ff818520541615610689578380f35b82845260056020528084208285526020528320600160ff1982541617905533917f2f8788117e7eff1d82e926ec794901d17c78024a50270940304540a733656f0d8480a43880808380f35b90503461018d57602036600319011261018d5781602093600192358152600585522001549051908152f35b905082346102885760603660031901126102885761071b610a07565b9183610725610a22565b92610734604435809587610c23565b6001600160a01b03851681526001602052818120338252602052205490828210610771576020856101bb866107698787610abf565b903390610aef565b608490602086519162461bcd60e51b8352820152602860248201527f45524332303a207472616e7366657220616d6f756e742065786365656473206160448201527f6c6c6f77616e63650000000000000000000000000000000000000000000000006064820152fd5b5050346101485781600319360112610148576020906002549051908152f35b5050346101485780600319360112610148576020906101bb610819610a07565b6024359033610aef565b9190503461018d578260031936011261018d5780519183600354906001908260011c92600181168015610910575b60209586861082146108fd57508488529081156108db5750600114610882575b61030e8686610304828b0383610a38565b929550600383527fc2575a0e9e593c00f959f8c92f12db2869c3395a3b0502d05e2516446f71f85b5b8284106108c8575050508261030e94610304928201019438610871565b80548685018801529286019281016108ab565b60ff191687860152505050151560051b83010192506103048261030e38610871565b836022602492634e487b7160e01b835252fd5b93607f1693610851565b84913461018d57602036600319011261018d57357fffffffff00000000000000000000000000000000000000000000000000000000811680910361018d57602092507f7965db0b00000000000000000000000000000000000000000000000000000000811490811561098e575b5015158152f35b7f01ffc9a70000000000000000000000000000000000000000000000000000000091501483610987565b60005b8381106109cb5750506000910152565b81810151838201526020016109bb565b604091602082526109fb81518092816020860152602086860191016109b8565b601f01601f1916010190565b600435906001600160a01b0382168203610a1d57565b600080fd5b602435906001600160a01b0382168203610a1d57565b90601f8019910116810190811067ffffffffffffffff821117610a5a57604052565b634e487b7160e01b600052604160045260246000fd5b60405160208101907f6f776e6572526f6c6500000000000000000000000000000000000000000000008252600981526040810181811067ffffffffffffffff821117610a5a5760405251902090565b91908203918211610acc57565b634e487b7160e01b600052601160045260246000fd5b91908201809211610acc57565b6001600160a01b03809116918215610bba5716918215610b505760207f8c5be1e5ebec7d5bd14f71427d1e84f3dd0314c0f7b2291e5b200ac8c7c3b925918360005260018252604060002085600052825280604060002055604051908152a3565b608460405162461bcd60e51b815260206004820152602260248201527f45524332303a20617070726f766520746f20746865207a65726f20616464726560448201527f73730000000000000000000000000000000000000000000000000000000000006064820152fd5b608460405162461bcd60e51b8152602060048201526024808201527f45524332303a20617070726f76652066726f6d20746865207a65726f2061646460448201527f72657373000000000000000000000000000000000000000000000000000000006064820152fd5b6001600160a01b03809116918215610d7b5716918215610d1157600082815280602052604081205491808310610ca7576040602092610c83837fddf252ad1be2c89b69c2b068fc378daa952ba7f163c4a11628f55a4df523b3ef96610abf565b8682528185528282205586815220610c9c828254610ae2565b9055604051908152a3565b608460405162461bcd60e51b815260206004820152602660248201527f45524332303a207472616e7366657220616d6f756e742065786365656473206260448201527f616c616e636500000000000000000000000000000000000000000000000000006064820152fd5b608460405162461bcd60e51b815260206004820152602360248201527f45524332303a207472616e7366657220746f20746865207a65726f206164647260448201527f65737300000000000000000000000000000000000000000000000000000000006064820152fd5b608460405162461bcd60e51b815260206004820152602560248201527f45524332303a207472616e736665722066726f6d20746865207a65726f20616460448201527f64726573730000000000000000000000000000000000000000000000000000006064820152fd5b6000818152602091600583526040936001600160a01b03858420911690818452845260ff858420541615610e1a575050505050565b845167ffffffffffffffff92916060820184811183821017611133578752602a8252858201928736853782511561111f57603084538251916001926001101561110b576078602185015360295b8381116110945750611052579087519460808601908682109082111761103e5788526042855286850195606036883785511561102a576030875385516001101561102a5790607860218701536041915b818311610faf57505050610f6d57938593610f5393610f44604894610f0f7f416363657373436f6e74726f6c3a206163636f756e742000000000000000000099610f699b519a8b9788015251809260378801906109b8565b8401917f206973206d697373696e6720726f6c65200000000000000000000000000000006037840152518093868401906109b8565b01036028810185520183610a38565b5191829162461bcd60e51b8352600483016109db565b0390fd5b60648587519062461bcd60e51b825280600483015260248201527f537472696e67733a20686578206c656e67746820696e73756666696369656e746044820152fd5b909192600f81166010811015611016577f3031323334353637383961626364656600000000000000000000000000000000901a610fec85896111be565b5360041c92801561100257600019019190610eb7565b602482634e487b7160e01b81526011600452fd5b602483634e487b7160e01b81526032600452fd5b80634e487b7160e01b602492526032600452fd5b602487634e487b7160e01b81526041600452fd5b60648789519062461bcd60e51b825280600483015260248201527f537472696e67733a20686578206c656e67746820696e73756666696369656e746044820152fd5b90600f811660108110156110f7577f3031323334353637383961626364656600000000000000000000000000000000901a6110cf83876111be565b5360041c9080156110e35760001901610e67565b602488634e487b7160e01b81526011600452fd5b602489634e487b7160e01b81526032600452fd5b602487634e487b7160e01b81526032600452fd5b602486634e487b7160e01b81526032600452fd5b602486634e487b7160e01b81526041600452fd5b9060009180835260056020526001600160a01b036040842092169182845260205260ff60408420541661117957505050565b8083526005602052604083208284526020526040832060ff1981541690557ff6391f5c32d9c69d2a47ea670b442974b53935d1edc7fd64eb21e047a839171b339380a4565b9081518110156111cf570160200190565b634e487b7160e01b600052603260045260246000fdfea26469706673582212203372f21bb2ce2efedb1a6dbc9c8aed3bad973b5470222ee597bee0b1b7285cee64736f6c63430008180033",
  "linkReferences": {},
  "deployedLinkReferences": {}
}