{
  "_format": "hh-sol-artifact-1",
  "contractName": "RaylsERC721",
  "sourceName": "contracts/erc721/contracts/RaylsERC721.sol",
  "abi": [
    {
      "inputs": [
        {
          "internalType": "string",
          "name": "_name",
          "type": "string"
        },
        {
          "internalType": "string",
          "name": "_symbol",
          "type": "string"
        }
      ],
      "stateMutability": "nonpayable",
      "type": "constructor"
    },
    {
      "anonymous": false,
      "inputs": [
        {
          "indexed": true,
          "internalType": "address",
          "name": "owner",
          "type": "address"
        },
        {
          "indexed": true,
          "internalType": "address",
          "name": "approved",
          "type": "address"
        },
        {
          "indexed": true,
          "internalType": "uint256",
          "name": "tokenId",
          "type": "uint256"
        }
      ],
      "name": "Approval",
      "type": "event"
    },
    {
      "anonymous": false,
      "inputs": [
        {
          "indexed": true,
          "internalType": "address",
          "name": "owner",
          "type": "address"
        },
        {
          "indexed": true,
          "internalType": "address",
          "name": "operator",
          "type": "address"
        },
        {
          "indexed": false,
          "internalType": "bool",
          "name": "approved",
          "type": "bool"
        }
      ],
      "name": "ApprovalForAll",
      "type": "event"
    },
    {
      "anonymous": false,
      "inputs": [
        {
          "indexed": true,
          "internalType": "bytes32",
          "name": "role",
          "type": "bytes32"
        },
        {
          "indexed": true,
          "internalType": "bytes32",
          "name": "previousAdminRole",
          "type": "bytes32"
        },
        {
          "indexed": true,
          "internalType": "bytes32",
          "name": "newAdminRole",
          "type": "bytes32"
        }
      ],
      "name": "RoleAdminChanged",
      "type": "event"
    },
    {
      "anonymous": false,
      "inputs": [
        {
          "indexed": true,
          "internalType": "bytes32",
          "name": "role",
          "type": "bytes32"
        },
        {
          "indexed": true,
          "internalType": "address",
          "name": "account",
          "type": "address"
        },
        {
          "indexed": true,
          "internalType": "address",
          "name": "sender",
          "type": "address"
        }
      ],
      "name": "RoleGranted",
      "type": "event"
    },
    {
      "anonymous": false,
      "inputs": [
        {
          "indexed": true,
          "internalType": "bytes32",
          "name": "role",
          "type": "bytes32"
        },
        {
          "indexed": true,
          "internalType": "address",
          "name": "account",
          "type": "address"
        },
        {
          "indexed": true,
          "internalType": "address",
          "name": "sender",
          "type": "address"
        }
      ],
      "name": "RoleRevoked",
      "type": "event"
    },
    {
      "anonymous": false,
      "inputs": [
        {
          "indexed": true,
          "internalType": "address",
          "name": "from",
          "type": "address"
        },
        {
          "indexed": true,
          "internalType": "address",
          "name": "to",
          "type": "address"
        },
        {
          "indexed": true,
          "internalType": "uint256",
          "name": "tokenId",
          "type": "uint256"
        }
      ],
      "name": "Transfer",
      "type": "event"
    },
    {
      "inputs": [],
      "name": "DEFAULT_ADMIN_ROLE",
      "outputs": [
        {
          "internalType": "bytes32",
          "name": "",
          "type": "bytes32"
        }
      ],
      "stateMutability": "view",
      "type": "function"
    },
    {
      "inputs": [],
      "name": "DEFAULT_OWNER_ROLE",
      "outputs": [
        {
          "internalType": "bytes32",
          "name": "",
          "type": "bytes32"
        }
      ],
      "stateMutability": "view",
      "type": "function"
    },
    {
      "inputs": [
        {
          "internalType": "address",
          "name": "to",
          "type": "address"
        },
        {
          "internalType": "uint256",
          "name": "tokenId",
          "type": "uint256"
        }
      ],
      "name": "approve",
      "outputs": [],
      "stateMutability": "nonpayable",
      "type": "function"
    },
    {
      "inputs": [
        {
          "internalType": "address",
          "name": "owner",
          "type": "address"
        }
      ],
      "name": "balanceOf",
      "outputs": [
        {
          "internalType": "uint256",
          "name": "",
          "type": "uint256"
        }
      ],
      "stateMutability": "view",
      "type": "function"
    },
    {
      "inputs": [
        {
          "internalType": "uint256",
          "name": "tokenId",
          "type": "uint256"
        }
      ],
      "name": "getApproved",
      "outputs": [
        {
          "internalType": "address",
          "name": "",
          "type": "address"
        }
      ],
      "stateMutability": "view",
      "type": "function"
    },
    {
      "inputs": [
        {
          "internalType": "bytes32",
          "name": "role",
          "type": "bytes32"
        }
      ],
      "name": "getRoleAdmin",
      "outputs": [
        {
          "internalType": "bytes32",
          "name": "",
          "type": "bytes32"
        }
      ],
      "stateMutability": "view",
      "type": "function"
    },
    {
      "inputs": [
        {
          "internalType": "bytes32",
          "name": "role",
          "type": "bytes32"
        },
        {
          "internalType": "address",
          "name": "account",
          "type": "address"
        }
      ],
      "name": "grantRole",
      "outputs": [],
      "stateMutability": "nonpayable",
      "type": "function"
    },
    {
      "inputs": [
        {
          "internalType": "bytes32",
          "name": "role",
          "type": "bytes32"
        },
        {
          "internalType": "address",
          "name": "account",
          "type": "address"
        }
      ],
      "name": "hasRole",
      "outputs": [
        {
          "internalType": "bool",
          "name": "",
          "type": "bool"
        }
      ],
      "stateMutability": "view",
      "type": "function"
    },
    {
      "inputs": [
        {
          "internalType": "address",
          "name": "owner",
          "type": "address"
        },
        {
          "internalType": "address",
          "name": "operator",
          "type": "address"
        }
      ],
      "name": "isApprovedForAll",
      "outputs": [
        {
          "internalType": "bool",
          "name": "",
          "type": "bool"
        }
      ],
      "stateMutability": "view",
      "type": "function"
    },
    {
      "inputs": [
        {
          "internalType": "address",
          "name": "_to",
          "type": "address"
        },
        {
          "internalType": "uint256",
          "name": "_tokenId",
          "type": "uint256"
        }
      ],
      "name": "mint",
      "outputs": [],
      "stateMutability": "nonpayable",
      "type": "function"
    },
    {
      "inputs": [],
      "name": "name",
      "outputs": [
        {
          "internalType": "string",
          "name": "",
          "type": "string"
        }
      ],
      "stateMutability": "view",
      "type": "function"
    },
    {
      "inputs": [
        {
          "internalType": "uint256",
          "name": "tokenId",
          "type": "uint256"
        }
      ],
      "name": "ownerOf",
      "outputs": [
        {
          "internalType": "address",
          "name": "",
          "type": "address"
        }
      ],
      "stateMutability": "view",
      "type": "function"
    },
    {
      "inputs": [
        {
          "internalType": "bytes32",
          "name": "role",
          "type": "bytes32"
        },
        {
          "internalType": "address",
          "name": "account",
          "type": "address"
        }
      ],
      "name": "renounceRole",
      "outputs": [],
      "stateMutability": "nonpayable",
      "type": "function"
    },
    {
      "inputs": [
        {
          "internalType": "bytes32",
          "name": "role",
          "type": "bytes32"
        },
        {
          "internalType": "address",
          "name": "account",
          "type": "address"
        }
      ],
      "name": "revokeRole",
      "outputs": [],
      "stateMutability": "nonpayable",
      "type": "function"
    },
    {
      "inputs": [
        {
          "internalType": "address",
          "name": "from",
          "type": "address"
        },
        {
          "internalType": "address",
          "name": "to",
          "type": "address"
        },
        {
          "internalType": "uint256",
          "name": "tokenId",
          "type": "uint256"
        }
      ],
      "name": "safeTransferFrom",
      "outputs": [],
      "stateMutability": "nonpayable",
      "type": "function"
    },
    {
      "inputs": [
        {
          "internalType": "address",
          "name": "from",
          "type": "address"
        },
        {
          "internalType": "address",
          "name": "to",
          "type": "address"
        },
        {
          "internalType": "uint256",
          "name": "tokenId",
          "type": "uint256"
        },
        {
          "internalType": "bytes",
          "name": "_data",
          "type": "bytes"
        }
      ],
      "name": "safeTransferFrom",
      "outputs": [],
      "stateMutability": "nonpayable",
      "type": "function"
    },
    {
      "inputs": [
        {
          "internalType": "address",
          "name": "operator",
          "type": "address"
        },
        {
          "internalType": "bool",
          "name": "approved",
          "type": "bool"
        }
      ],
      "name": "setApprovalForAll",
      "outputs": [],
      "stateMutability": "nonpayable",
      "type": "function"
    },
    {
      "inputs": [
        {
          "internalType": "bytes4",
          "name": "interfaceId",
          "type": "bytes4"
        }
      ],
      "name": "supportsInterface",
      "outputs": [
        {
          "internalType": "bool",
          "name": "",
          "type": "bool"
        }
      ],
      "stateMutability": "view",
      "type": "function"
    },
    {
      "inputs": [],
      "name": "symbol",
      "outputs": [
        {
          "internalType": "string",
          "name": "",
          "type": "string"
        }
      ],
      "stateMutability": "view",
      "type": "function"
    },
    {
      "inputs": [
        {
          "internalType": "uint256",
          "name": "tokenId",
          "type": "uint256"
        }
      ],
      "name": "tokenURI",
      "outputs": [
        {
          "internalType": "string",
          "name": "",
          "type": "string"
        }
      ],
      "stateMutability": "view",
      "type": "function"
    },
    {
      "inputs": [
        {
          "internalType": "address",
          "name": "from",
          "type": "address"
        },
        {
          "internalType": "address",
          "name": "to",
          "type": "address"
        },
        {
          "internalType": "uint256",
          "name": "tokenId",
          "type": "uint256"
        }
      ],
      "name": "transferFrom",
      "outputs": [],
      "stateMutability": "nonpayable",
      "type": "function"
    }
  ],
  "bytecode": "0x6080604081815234620003a657620020788038038091620000218286620003ab565b843982018183820312620003a65782516001600160401b039290838111620003a6578262000051918601620003cf565b9360209283820151858111620003a6576200006d9201620003cf565b9380519184831162000390576000928354906001938483811c9316801562000385575b87841014620002a3578190601f9384811162000332575b508790848311600114620002ce578792620002c2575b5050600019600383901b1c191690841b1784555b865190868211620001d55783548481811c91168015620002b7575b87821014620002a3578181116200025b575b5085908211600114620001f557849596978293949592620001e9575b5050600019600383901b1c191690831b1782555b805184810190686f776e6572526f6c6560b81b8252600981528281019681881090881117620001d5578683525190209384845260068152818420338552815260ff82852054161562000188575b611c328681620004468239f35b84845260068152818420903385525282209060ff1982541617905533917f2f8788117e7eff1d82e926ec794901d17c78024a50270940304540a733656f0d339280a438808080806200017b565b634e487b7160e01b85526041600452602485fd5b0151905038806200011a565b83855285852090601f198316865b8181106200024557509883869798999a969596106200022b575b505050811b0182556200012e565b015160001960f88460031b161c191690553880806200021d565b8a83015184559286019291880191880162000203565b8486528686208280850160051c82019289861062000299575b0160051c019085905b8281106200028d575050620000fe565b8781550185906200027d565b9250819262000274565b634e487b7160e01b86526022600452602486fd5b90607f1690620000ec565b015190503880620000bd565b8780528888208794509190601f198416895b8b8282106200031b575050841162000301575b505050811b018455620000d1565b015160001960f88460031b161c19169055388080620002f3565b8385015186558a97909501949384019301620002e0565b9091508680528787208480850160051c8201928a86106200037b575b918891869594930160051c01915b8281106200036c575050620000a7565b8981558594508891016200035c565b925081926200034e565b92607f169262000090565b634e487b7160e01b600052604160045260246000fd5b600080fd5b601f909101601f19168101906001600160401b038211908210176200039057604052565b919080601f84011215620003a65782516001600160401b0381116200039057602090604051926200040a83601f19601f8501160185620003ab565b818452828287010111620003a65760005b8181106200043157508260009394955001015290565b85810183015184820184015282016200041b56fe6080604052600436101561001257600080fd5b60003560e01c806301ffc9a71461016757806306fdde0314610162578063081812fc1461015d578063095ea7b31461015857806323b872dd14610153578063248a9ca31461014e5780632f2ff15d1461014957806336568abe146101445780633b8162b71461013f57806340c10f191461013a57806342842e0e146101355780636352211e1461013057806370a082311461012b57806391d148541461012657806395d89b4114610121578063a217fddf1461011c578063a22cb46514610117578063b88d4fde14610112578063c87b56dd1461010d578063d547741f146101085763e985e9c51461010357600080fd5b610e8e565b610e4d565b610d4f565b610cc6565b610bbe565b610ba2565b610add565b610a8a565b6109d6565b6109b8565b610990565b61084c565b610829565b6106d7565b610600565b6105d1565b6105a8565b610464565b610409565b6102fc565b61019b565b7fffffffff0000000000000000000000000000000000000000000000000000000081160361019657565b600080fd5b346101965760203660031901126101965760207fffffffff000000000000000000000000000000000000000000000000000000006004356101db8161016c565b167f7965db0b000000000000000000000000000000000000000000000000000000008114908115610212575b506040519015158152f35b7f80ac58cd00000000000000000000000000000000000000000000000000000000811491508115610276575b811561024c575b5038610207565b7f01ffc9a70000000000000000000000000000000000000000000000000000000091501438610245565b7f5b5e139f000000000000000000000000000000000000000000000000000000008114915061023e565b60005b8381106102b35750506000910152565b81810151838201526020016102a3565b906020916102dc815180928185528580860191016102a0565b601f01601f1916010190565b9060206102f99281815201906102c3565b90565b34610196576000806003193601126104065760405190808054906001918060011c92600182169283156103fc575b6020926020861085146103e85785885260208801949081156103c7575060011461036f575b61036b8761035f818903826107c9565b604051918291826102e8565b0390f35b6000805294509192917f290decd9548b62a8d60345a988386fc84ba6bc95484008f6362f93160ef3e5635b8386106103b6575050509101905061035f8261036b388061034f565b80548587015294820194810161039a565b60ff191685525050505090151560051b01905061035f8261036b388061034f565b602482634e487b7160e01b81526022600452fd5b93607f169361032a565b80fd5b34610196576020366003190112610196576020610427600435610ee4565b6001600160a01b0360405191168152f35b600435906001600160a01b038216820361019657565b602435906001600160a01b038216820361019657565b346101965760403660031901126101965761047d610438565b60243561048981611082565b916001600160a01b038084168091831614610509576104bb936104b69133149081156104bd575b50610f8d565b611220565b005b61050391506104fc906104e433916001600160a01b03166000526005602052604060002090565b906001600160a01b0316600052602052604060002090565b5460ff1690565b386104b0565b608460405162461bcd60e51b815260206004820152602160248201527f4552433732313a20617070726f76616c20746f2063757272656e74206f776e6560448201527f72000000000000000000000000000000000000000000000000000000000000006064820152fd5b6060906003190112610196576001600160a01b0390600435828116810361019657916024359081168103610196579060443590565b34610196576104bb6105b936610573565b916105cc6105c78433611297565b610ffe565b61144e565b346101965760203660031901126101965760043560005260066020526020600160406000200154604051908152f35b346101965760403660031901126101965760043561061c61044e565b600091808352600660205261063960016040852001543390611580565b808352600660205260ff6106638360408620906001600160a01b0316600052602052604060002090565b54161561066e578280f35b80835260066020526106968260408520906001600160a01b0316600052602052604060002090565b805460ff1916600117905533916001600160a01b0316907f2f8788117e7eff1d82e926ec794901d17c78024a50270940304540a733656f0d8480a438808280f35b34610196576040366003190112610196576106f061044e565b336001600160a01b0382160361070c576104bb906004356116dc565b608460405162461bcd60e51b815260206004820152602f60248201527f416363657373436f6e74726f6c3a2063616e206f6e6c792072656e6f756e636560448201527f20726f6c657320666f722073656c6600000000000000000000000000000000006064820152fd5b634e487b7160e01b600052604160045260246000fd5b6040810190811067ffffffffffffffff8211176107a857604052565b610776565b6020810190811067ffffffffffffffff8211176107a857604052565b90601f8019910116810190811067ffffffffffffffff8211176107a857604052565b60405160208101907f6f776e6572526f6c6500000000000000000000000000000000000000000000008252600981526108238161078c565b51902090565b346101965760003660031901126101965760206108446107eb565b604051908152f35b3461019657604036600319011261019657610865610438565b6024359061087b6108746107eb565b3390611580565b6001600160a01b03811690811561094c57610924906108bf6108ba6108b68660005260026020526001600160a01b0360406000205416151590565b1590565b611775565b6108dc816001600160a01b03166000526003602052604060002090565b6108e68154611432565b90556108fc846000526002602052604060002090565b906001600160a01b031673ffffffffffffffffffffffffffffffffffffffff19825416179055565b60007fddf252ad1be2c89b69c2b068fc378daa952ba7f163c4a11628f55a4df523b3ef8180a4005b606460405162461bcd60e51b815260206004820152602060248201527f4552433732313a206d696e7420746f20746865207a65726f20616464726573736044820152fd5b34610196576104bb6109a136610573565b90604051926109af846107ad565b6000845261110c565b34610196576020366003190112610196576020610427600435611082565b34610196576020366003190112610196576001600160a01b036109f7610438565b168015610a2057600052600360205261036b604060002054604051918291829190602083019252565b608460405162461bcd60e51b815260206004820152602a60248201527f4552433732313a2062616c616e636520717565727920666f7220746865207a6560448201527f726f2061646472657373000000000000000000000000000000000000000000006064820152fd5b3461019657604036600319011261019657602060ff610ad1610aaa61044e565b600435600052600684526040600020906001600160a01b0316600052602052604060002090565b54166040519015158152f35b34610196576000806003193601126104065760405190806001906001548060011c9260018216928315610b98575b6020926020861085146103e85785885260208801949081156103c75750600114610b3f5761036b8761035f818903826107c9565b600160005294509192917fb10e2d527612073b26eecdfd717e6a320cf44b4afac2b0732d9fcbe2b7fa0cf65b838610610b87575050509101905061035f8261036b388061034f565b805485870152948201948101610b6b565b93607f1693610b0b565b3461019657600036600319011261019657602060405160008152f35b3461019657604036600319011261019657610bd7610438565b6024358015158103610196576001600160a01b03821691338314610c665781610c23610c34923360005260056020526040600020906001600160a01b0316600052602052604060002090565b9060ff801983541691151516179055565b604051901515815233907f17307eab39ab6107e8899845ad3d59bd9653f200f220920489ca2b5937696c3190602090a3005b606460405162461bcd60e51b815260206004820152601960248201527f4552433732313a20617070726f766520746f2063616c6c6572000000000000006044820152fd5b67ffffffffffffffff81116107a857601f01601f191660200190565b3461019657608036600319011261019657610cdf610438565b610ce761044e565b6064359167ffffffffffffffff8311610196573660238401121561019657826004013591610d1483610caa565b92610d2260405194856107c9565b80845236602482870101116101965760208160009260246104bb980183880137850101526044359161110c565b3461019657602036600319011261019657600435610d838160005260026020526001600160a01b0360406000205416151590565b15610de357610d9061106f565b805115610dd15761035f610dbd91610dc3610dad61036b95611872565b60405194859360208501906111a6565b906111a6565b03601f1981018352826107c9565b505061036b610dde61106f565b61035f565b608460405162461bcd60e51b815260206004820152602f60248201527f4552433732314d657461646174613a2055524920717565727920666f72206e6f60448201527f6e6578697374656e7420746f6b656e00000000000000000000000000000000006064820152fd5b34610196576040366003190112610196576104bb600435610e6c61044e565b90806000526006602052610e896001604060002001543390611580565b6116dc565b3461019657604036600319011261019657602060ff610ad1610eae610438565b6001600160a01b03610ebe61044e565b9116600052600584526040600020906001600160a01b0316600052602052604060002090565b610f048160005260026020526001600160a01b0360406000205416151590565b15610f235760005260046020526001600160a01b036040600020541690565b608460405162461bcd60e51b815260206004820152602c60248201527f4552433732313a20617070726f76656420717565727920666f72206e6f6e657860448201527f697374656e7420746f6b656e00000000000000000000000000000000000000006064820152fd5b15610f9457565b608460405162461bcd60e51b815260206004820152603860248201527f4552433732313a20617070726f76652063616c6c6572206973206e6f74206f7760448201527f6e6572206e6f7220617070726f76656420666f7220616c6c00000000000000006064820152fd5b1561100557565b608460405162461bcd60e51b815260206004820152603160248201527f4552433732313a207472616e736665722063616c6c6572206973206e6f74206f60448201527f776e6572206e6f7220617070726f7665640000000000000000000000000000006064820152fd5b6040519061107c826107ad565b60008252565b60005260026020526001600160a01b036040600020541680156110a25790565b608460405162461bcd60e51b815260206004820152602960248201527f4552433732313a206f776e657220717565727920666f72206e6f6e657869737460448201527f656e7420746f6b656e00000000000000000000000000000000000000000000006064820152fd5b906111309392916111206105c78433611297565b61112b83838361144e565b611ab5565b1561113757565b60405162461bcd60e51b815260206004820152603260248201527f4552433732313a207472616e7366657220746f206e6f6e20455243373231526560448201527f63656976657220696d706c656d656e74657200000000000000000000000000006064820152608490fd5b0390fd5b906111b9602092828151948592016102a0565b0190565b806000526004602052604060002073ffffffffffffffffffffffffffffffffffffffff19815416905560006001600160a01b036111f983611082565b167f8c5be1e5ebec7d5bd14f71427d1e84f3dd0314c0f7b2291e5b200ac8c7c3b9258280a4565b81600052600460205261125a816040600020906001600160a01b031673ffffffffffffffffffffffffffffffffffffffff19825416179055565b6001600160a01b038061126c84611082565b169116907f8c5be1e5ebec7d5bd14f71427d1e84f3dd0314c0f7b2291e5b200ac8c7c3b925600080a4565b6112b78260005260026020526001600160a01b0360406000205416151590565b1561132e576112c582611082565b6001600160a01b03808316908083168214948515611316575b50505082156112ec57505090565b60ff9250906104e4611311926001600160a01b03166000526005602052604060002090565b541690565b6113239192939550610ee4565b1614913880806112de565b608460405162461bcd60e51b815260206004820152602c60248201527f4552433732313a206f70657261746f7220717565727920666f72206e6f6e657860448201527f697374656e7420746f6b656e00000000000000000000000000000000000000006064820152fd5b1561139f57565b608460405162461bcd60e51b8152602060048201526024808201527f4552433732313a207472616e7366657220746f20746865207a65726f2061646460448201527f72657373000000000000000000000000000000000000000000000000000000006064820152fd5b634e487b7160e01b600052601160045260246000fd5b60001981019190821161142d57565b611408565b906001820180921161142d57565b603001908160301161142d57565b9061145883611082565b6001600160a01b039182918285169384911603611516576114a66114ef92821694611484861515611398565b61148d876111bd565b6001600160a01b03166000526003602052604060002090565b6114b0815461141e565b90556114cf816001600160a01b03166000526003602052604060002090565b6114d98154611432565b90556108fc856000526002602052604060002090565b7fddf252ad1be2c89b69c2b068fc378daa952ba7f163c4a11628f55a4df523b3ef600080a4565b608460405162461bcd60e51b815260206004820152602960248201527f4552433732313a207472616e73666572206f6620746f6b656e2074686174206960448201527f73206e6f74206f776e00000000000000000000000000000000000000000000006064820152fd5b9081600052600660205260ff6115ad826040600020906001600160a01b0316600052602052604060002090565b5416156115b8575050565b6001600160a01b0316906115ca6117cf565b9160306115d684611844565b5360786115e284611851565b5360295b60018111611689576111a261164861167186610dc361160e886116098915611959565b6119a4565b610dbd604051958694610dbd602087016017907f416363657373436f6e74726f6c3a206163636f756e742000000000000000000081520190565b7f206973206d697373696e6720726f6c6520000000000000000000000000000000815260110190565b60405191829162461bcd60e51b8352600483016102e8565b90600f81169060108210156116d7577f30313233343536373839616263646566000000000000000000000000000000006116d2921a6116c88487611861565b5360041c9161194c565b6115e6565b61182e565b600090808252600660205260ff6117098460408520906001600160a01b0316600052602052604060002090565b541661171457505050565b808252600660205261173c8360408420906001600160a01b0316600052602052604060002090565b60ff1981541690557ff6391f5c32d9c69d2a47ea670b442974b53935d1edc7fd64eb21e047a839171b6001600160a01b033394169280a4565b1561177c57565b606460405162461bcd60e51b815260206004820152601c60248201527f4552433732313a20746f6b656e20616c7265616479206d696e746564000000006044820152fd5b600019811461142d5760010190565b604051906060820182811067ffffffffffffffff8211176107a857604052602a8252604082602036910137565b9061180682610caa565b61181360405191826107c9565b8281528092611824601f1991610caa565b0190602036910137565b634e487b7160e01b600052603260045260246000fd5b8051156116d75760200190565b8051600110156116d75760210190565b9081518110156116d7570160200190565b8015611912576000818181805b6118fa575061188d816117fc565b935b6118995750505090565b6118a29061141e565b90600a906118e56118bd6118b7848406611440565b60ff1690565b60f81b7fff000000000000000000000000000000000000000000000000000000000000001690565b841a6118f18487611861565b5304908161188f565b9150611907600a916117c0565b91048084929161187f565b5060405161191f8161078c565b600181527f3000000000000000000000000000000000000000000000000000000000000000602082015290565b801561142d576000190190565b1561196057565b606460405162461bcd60e51b815260206004820152602060248201527f537472696e67733a20686578206c656e67746820696e73756666696369656e746044820152fd5b604051906080820182811067ffffffffffffffff8211176107a85760405260428252606036602084013760306119d983611844565b5360786119e583611851565b536041905b600182116119fd576102f9915015611959565b600f81169060108210156116d7577f3031323334353637383961626364656600000000000000000000000000000000611a3b921a6116c88486611861565b906119ea565b9081602091031261019657516102f98161016c565b90926102f994936080936001600160a01b038092168452166020830152604082015281606082015201906102c3565b3d15611ab0573d90611a9682610caa565b91611aa460405193846107c9565b82523d6000602084013e565b606090565b92909190823b15611bf357611b099260209260006001600160a01b036040518097819682957f150b7a02000000000000000000000000000000000000000000000000000000009b8c85523360048601611a56565b0393165af160009181611bc2575b50611b9c57611b24611a85565b80519081611b975760405162461bcd60e51b815260206004820152603260248201527f4552433732313a207472616e7366657220746f206e6f6e20455243373231526560448201527f63656976657220696d706c656d656e74657200000000000000000000000000006064820152608490fd5b602001fd5b7fffffffff00000000000000000000000000000000000000000000000000000000161490565b611be591925060203d602011611bec575b611bdd81836107c9565b810190611a41565b9038611b17565b503d611bd3565b5050505060019056fea2646970667358221220bbd8117c68c00117ccea41ecb81b2275f655ea1be023971bfba8a291905b551264736f6c63430008180033",
  "linkReferences": {},
  "deployedLinkReferences": {}
}