{
  "_format": "hh-sol-artifact-1",
  "contractName": "RaylsERC1155",
  "sourceName": "contracts/erc1155/contracts/RaylsERC1155.sol",
  "abi": [
    {
      "inputs": [
        {
          "internalType": "string",
          "name": "_uri",
          "type": "string"
        }
      ],
      "stateMutability": "nonpayable",
      "type": "constructor"
    },
    {
      "inputs": [],
      "name": "BondDoesNotExist",
      "type": "error"
    },
    {
      "inputs": [],
      "name": "IdsValuesLengthMismatch",
      "type": "error"
    },
    {
      "inputs": [],
      "name": "IdsValuesMismatch",
      "type": "error"
    },
    {
      "inputs": [],
      "name": "InvalidMaxSupply",
      "type": "error"
    },
    {
      "inputs": [],
      "name": "InvalidMintData",
      "type": "error"
    },
    {
      "inputs": [],
      "name": "MaxSupplyExceeded",
      "type": "error"
    },
    {
      "inputs": [],
      "name": "NotEnoughSubTokens",
      "type": "error"
    },
    {
      "inputs": [],
      "name": "NotImplemented",
      "type": "error"
    },
    {
      "inputs": [],
      "name": "TokenAlreadyRegistered",
      "type": "error"
    },
    {
      "inputs": [],
      "name": "ValueFungibilityInconsistency",
      "type": "error"
    },
    {
      "inputs": [],
      "name": "ZeroIdNotAllowed",
      "type": "error"
    },
    {
      "inputs": [],
      "name": "ZeroValueMintNotAllowed",
      "type": "error"
    },
    {
      "anonymous": false,
      "inputs": [
        {
          "indexed": true,
          "internalType": "address",
          "name": "account",
          "type": "address"
        },
        {
          "indexed": true,
          "internalType": "address",
          "name": "operator",
          "type": "address"
        },
        {
          "indexed": false,
          "internalType": "bool",
          "name": "approved",
          "type": "bool"
        }
      ],
      "name": "ApprovalForAll",
      "type": "event"
    },
    {
      "anonymous": false,
      "inputs": [
        {
          "indexed": true,
          "internalType": "uint256",
          "name": "onchainId",
          "type": "uint256"
        },
        {
          "indexed": true,
          "internalType": "uint256",
          "name": "offchainId",
          "type": "uint256"
        },
        {
          "indexed": false,
          "internalType": "uint256",
          "name": "maxTotalSupply",
          "type": "uint256"
        }
      ],
      "name": "NewTokenRegistered",
      "type": "event"
    },
    {
      "anonymous": false,
      "inputs": [
        {
          "indexed": true,
          "internalType": "bytes32",
          "name": "role",
          "type": "bytes32"
        },
        {
          "indexed": true,
          "internalType": "bytes32",
          "name": "previousAdminRole",
          "type": "bytes32"
        },
        {
          "indexed": true,
          "internalType": "bytes32",
          "name": "newAdminRole",
          "type": "bytes32"
        }
      ],
      "name": "RoleAdminChanged",
      "type": "event"
    },
    {
      "anonymous": false,
      "inputs": [
        {
          "indexed": true,
          "internalType": "bytes32",
          "name": "role",
          "type": "bytes32"
        },
        {
          "indexed": true,
          "internalType": "address",
          "name": "account",
          "type": "address"
        },
        {
          "indexed": true,
          "internalType": "address",
          "name": "sender",
          "type": "address"
        }
      ],
      "name": "RoleGranted",
      "type": "event"
    },
    {
      "anonymous": false,
      "inputs": [
        {
          "indexed": true,
          "internalType": "bytes32",
          "name": "role",
          "type": "bytes32"
        },
        {
          "indexed": true,
          "internalType": "address",
          "name": "account",
          "type": "address"
        },
        {
          "indexed": true,
          "internalType": "address",
          "name": "sender",
          "type": "address"
        }
      ],
      "name": "RoleRevoked",
      "type": "event"
    },
    {
      "anonymous": false,
      "inputs": [
        {
          "indexed": true,
          "internalType": "address",
          "name": "operator",
          "type": "address"
        },
        {
          "indexed": true,
          "internalType": "address",
          "name": "from",
          "type": "address"
        },
        {
          "indexed": true,
          "internalType": "address",
          "name": "to",
          "type": "address"
        },
        {
          "indexed": false,
          "internalType": "uint256[]",
          "name": "ids",
          "type": "uint256[]"
        },
        {
          "indexed": false,
          "internalType": "uint256[]",
          "name": "values",
          "type": "uint256[]"
        }
      ],
      "name": "TransferBatch",
      "type": "event"
    },
    {
      "anonymous": false,
      "inputs": [
        {
          "indexed": true,
          "internalType": "address",
          "name": "operator",
          "type": "address"
        },
        {
          "indexed": true,
          "internalType": "address",
          "name": "from",
          "type": "address"
        },
        {
          "indexed": true,
          "internalType": "address",
          "name": "to",
          "type": "address"
        },
        {
          "indexed": false,
          "internalType": "uint256",
          "name": "id",
          "type": "uint256"
        },
        {
          "indexed": false,
          "internalType": "uint256",
          "name": "value",
          "type": "uint256"
        }
      ],
      "name": "TransferSingle",
      "type": "event"
    },
    {
      "anonymous": false,
      "inputs": [
        {
          "indexed": false,
          "internalType": "string",
          "name": "value",
          "type": "string"
        },
        {
          "indexed": true,
          "internalType": "uint256",
          "name": "id",
          "type": "uint256"
        }
      ],
      "name": "URI",
      "type": "event"
    },
    {
      "inputs": [],
      "name": "DEFAULT_ADMIN_ROLE",
      "outputs": [
        {
          "internalType": "bytes32",
          "name": "",
          "type": "bytes32"
        }
      ],
      "stateMutability": "view",
      "type": "function"
    },
    {
      "inputs": [],
      "name": "DEFAULT_FUNGIBLE_DECIMALS",
      "outputs": [
        {
          "internalType": "uint256",
          "name": "",
          "type": "uint256"
        }
      ],
      "stateMutability": "view",
      "type": "function"
    },
    {
      "inputs": [],
      "name": "DEFAULT_FUNGIBLE_MAX",
      "outputs": [
        {
          "internalType": "uint256",
          "name": "",
          "type": "uint256"
        }
      ],
      "stateMutability": "view",
      "type": "function"
    },
    {
      "inputs": [],
      "name": "DEFAULT_OWNER_ROLE",
      "outputs": [
        {
          "internalType": "bytes32",
          "name": "",
          "type": "bytes32"
        }
      ],
      "stateMutability": "view",
      "type": "function"
    },
    {
      "inputs": [
        {
          "internalType": "address",
          "name": "account",
          "type": "address"
        },
        {
          "internalType": "uint256",
          "name": "id",
          "type": "uint256"
        }
      ],
      "name": "balanceOf",
      "outputs": [
        {
          "internalType": "uint256",
          "name": "",
          "type": "uint256"
        }
      ],
      "stateMutability": "view",
      "type": "function"
    },
    {
      "inputs": [
        {
          "internalType": "address[]",
          "name": "accounts",
          "type": "address[]"
        },
        {
          "internalType": "uint256[]",
          "name": "ids",
          "type": "uint256[]"
        }
      ],
      "name": "balanceOfBatch",
      "outputs": [
        {
          "internalType": "uint256[]",
          "name": "",
          "type": "uint256[]"
        }
      ],
      "stateMutability": "view",
      "type": "function"
    },
    {
      "inputs": [
        {
          "internalType": "bytes32",
          "name": "role",
          "type": "bytes32"
        }
      ],
      "name": "getRoleAdmin",
      "outputs": [
        {
          "internalType": "bytes32",
          "name": "",
          "type": "bytes32"
        }
      ],
      "stateMutability": "view",
      "type": "function"
    },
    {
      "inputs": [
        {
          "internalType": "bytes32",
          "name": "role",
          "type": "bytes32"
        },
        {
          "internalType": "address",
          "name": "account",
          "type": "address"
        }
      ],
      "name": "grantRole",
      "outputs": [],
      "stateMutability": "nonpayable",
      "type": "function"
    },
    {
      "inputs": [
        {
          "internalType": "bytes32",
          "name": "role",
          "type": "bytes32"
        },
        {
          "internalType": "address",
          "name": "account",
          "type": "address"
        }
      ],
      "name": "hasRole",
      "outputs": [
        {
          "internalType": "bool",
          "name": "",
          "type": "bool"
        }
      ],
      "stateMutability": "view",
      "type": "function"
    },
    {
      "inputs": [
        {
          "internalType": "address",
          "name": "account",
          "type": "address"
        },
        {
          "internalType": "address",
          "name": "operator",
          "type": "address"
        }
      ],
      "name": "isApprovedForAll",
      "outputs": [
        {
          "internalType": "bool",
          "name": "",
          "type": "bool"
        }
      ],
      "stateMutability": "view",
      "type": "function"
    },
    {
      "inputs": [
        {
          "internalType": "uint256",
          "name": "_tokenId",
          "type": "uint256"
        }
      ],
      "name": "isFungible",
      "outputs": [
        {
          "internalType": "bool",
          "name": "",
          "type": "bool"
        }
      ],
      "stateMutability": "view",
      "type": "function"
    },
    {
      "inputs": [
        {
          "internalType": "uint256",
          "name": "_tokenId",
          "type": "uint256"
        }
      ],
      "name": "metadata",
      "outputs": [
        {
          "components": [
            {
              "internalType": "enum IRaylsERC1155.TokenType",
              "name": "tType",
              "type": "uint8"
            },
            {
              "internalType": "enum IRaylsERC1155.TokenState",
              "name": "tState",
              "type": "uint8"
            },
            {
              "internalType": "enum IRaylsERC1155.TokenFungibility",
              "name": "tFungibility",
              "type": "uint8"
            },
            {
              "internalType": "string",
              "name": "name",
              "type": "string"
            },
            {
              "internalType": "string",
              "name": "symbol",
              "type": "string"
            },
            {
              "internalType": "uint256",
              "name": "offchainId",
              "type": "uint256"
            },
            {
              "internalType": "uint256[]",
              "name": "subTokenIds",
              "type": "uint256[]"
            },
            {
              "internalType": "uint256[]",
              "name": "subTokenValues",
              "type": "uint256[]"
            },
            {
              "internalType": "uint256",
              "name": "totalSupply",
              "type": "uint256"
            },
            {
              "internalType": "uint256",
              "name": "maxTotalSupply",
              "type": "uint256"
            },
            {
              "internalType": "uint256",
              "name": "decimals",
              "type": "uint256"
            },
            {
              "internalType": "bytes",
              "name": "data",
              "type": "bytes"
            },
            {
              "internalType": "uint256[]",
              "name": "attrs",
              "type": "uint256[]"
            }
          ],
          "internalType": "struct IRaylsERC1155.Metadata",
          "name": "",
          "type": "tuple"
        }
      ],
      "stateMutability": "view",
      "type": "function"
    },
    {
      "inputs": [
        {
          "internalType": "address",
          "name": "_to",
          "type": "address"
        },
        {
          "internalType": "uint256",
          "name": "_id",
          "type": "uint256"
        },
        {
          "internalType": "uint256",
          "name": "_value",
          "type": "uint256"
        },
        {
          "internalType": "bytes",
          "name": "_data",
          "type": "bytes"
        }
      ],
      "name": "mint",
      "outputs": [],
      "stateMutability": "nonpayable",
      "type": "function"
    },
    {
      "inputs": [
        {
          "internalType": "address",
          "name": "_to",
          "type": "address"
        },
        {
          "internalType": "uint256[]",
          "name": "_ids",
          "type": "uint256[]"
        },
        {
          "internalType": "uint256[]",
          "name": "_values",
          "type": "uint256[]"
        },
        {
          "internalType": "bytes",
          "name": "_data",
          "type": "bytes"
        }
      ],
      "name": "mintBatch",
      "outputs": [],
      "stateMutability": "nonpayable",
      "type": "function"
    },
    {
      "inputs": [
        {
          "internalType": "enum IRaylsERC1155.TokenType",
          "name": "tType",
          "type": "uint8"
        },
        {
          "internalType": "enum IRaylsERC1155.TokenFungibility",
          "name": "tFungibility",
          "type": "uint8"
        },
        {
          "internalType": "string",
          "name": "name",
          "type": "string"
        },
        {
          "internalType": "string",
          "name": "symbol",
          "type": "string"
        },
        {
          "internalType": "uint256",
          "name": "offchainId",
          "type": "uint256"
        },
        {
          "internalType": "uint256",
          "name": "maxTotalSupply",
          "type": "uint256"
        },
        {
          "internalType": "uint256",
          "name": "decimals",
          "type": "uint256"
        },
        {
          "internalType": "uint256[]",
          "name": "subTokenIds",
          "type": "uint256[]"
        },
        {
          "internalType": "uint256[]",
          "name": "subTokenValues",
          "type": "uint256[]"
        },
        {
          "internalType": "bytes",
          "name": "data",
          "type": "bytes"
        },
        {
          "internalType": "uint256[]",
          "name": "additionalAttrs",
          "type": "uint256[]"
        }
      ],
      "name": "registerNewToken",
      "outputs": [
        {
          "internalType": "bool",
          "name": "",
          "type": "bool"
        }
      ],
      "stateMutability": "nonpayable",
      "type": "function"
    },
    {
      "inputs": [
        {
          "internalType": "bytes32",
          "name": "role",
          "type": "bytes32"
        },
        {
          "internalType": "address",
          "name": "account",
          "type": "address"
        }
      ],
      "name": "renounceRole",
      "outputs": [],
      "stateMutability": "nonpayable",
      "type": "function"
    },
    {
      "inputs": [
        {
          "internalType": "bytes32",
          "name": "role",
          "type": "bytes32"
        },
        {
          "internalType": "address",
          "name": "account",
          "type": "address"
        }
      ],
      "name": "revokeRole",
      "outputs": [],
      "stateMutability": "nonpayable",
      "type": "function"
    },
    {
      "inputs": [
        {
          "internalType": "address",
          "name": "from",
          "type": "address"
        },
        {
          "internalType": "address",
          "name": "to",
          "type": "address"
        },
        {
          "internalType": "uint256[]",
          "name": "ids",
          "type": "uint256[]"
        },
        {
          "internalType": "uint256[]",
          "name": "values",
          "type": "uint256[]"
        },
        {
          "internalType": "bytes",
          "name": "data",
          "type": "bytes"
        }
      ],
      "name": "safeBatchTransferFrom",
      "outputs": [],
      "stateMutability": "nonpayable",
      "type": "function"
    },
    {
      "inputs": [
        {
          "internalType": "address",
          "name": "from",
          "type": "address"
        },
        {
          "internalType": "address",
          "name": "to",
          "type": "address"
        },
        {
          "internalType": "uint256",
          "name": "id",
          "type": "uint256"
        },
        {
          "internalType": "uint256",
          "name": "value",
          "type": "uint256"
        },
        {
          "internalType": "bytes",
          "name": "data",
          "type": "bytes"
        }
      ],
      "name": "safeTransferFrom",
      "outputs": [],
      "stateMutability": "nonpayable",
      "type": "function"
    },
    {
      "inputs": [
        {
          "internalType": "address",
          "name": "operator",
          "type": "address"
        },
        {
          "internalType": "bool",
          "name": "approved",
          "type": "bool"
        }
      ],
      "name": "setApprovalForAll",
      "outputs": [],
      "stateMutability": "nonpayable",
      "type": "function"
    },
    {
      "inputs": [
        {
          "internalType": "bytes4",
          "name": "interfaceId",
          "type": "bytes4"
        }
      ],
      "name": "supportsInterface",
      "outputs": [
        {
          "internalType": "bool",
          "name": "",
          "type": "bool"
        }
      ],
      "stateMutability": "view",
      "type": "function"
    },
    {
      "inputs": [
        {
          "internalType": "uint256",
          "name": "_tokenId",
          "type": "uint256"
        }
      ],
      "name": "tokenFungibility",
      "outputs": [
        {
          "internalType": "enum IRaylsERC1155.TokenFungibility",
          "name": "",
          "type": "uint8"
        }
      ],
      "stateMutability": "view",
      "type": "function"
    },
    {
      "inputs": [
        {
          "components": [
            {
              "internalType": "enum IRaylsERC1155.TokenType",
              "name": "tType",
              "type": "uint8"
            },
            {
              "internalType": "enum IRaylsERC1155.TokenState",
              "name": "tState",
              "type": "uint8"
            },
            {
              "internalType": "enum IRaylsERC1155.TokenFungibility",
              "name": "tFungibility",
              "type": "uint8"
            },
            {
              "internalType": "string",
              "name": "name",
              "type": "string"
            },
            {
              "internalType": "string",
              "name": "symbol",
              "type": "string"
            },
            {
              "internalType": "uint256",
              "name": "offchainId",
              "type": "uint256"
            },
            {
              "internalType": "uint256[]",
              "name": "subTokenIds",
              "type": "uint256[]"
            },
            {
              "internalType": "uint256[]",
              "name": "subTokenValues",
              "type": "uint256[]"
            },
            {
              "internalType": "uint256",
              "name": "totalSupply",
              "type": "uint256"
            },
            {
              "internalType": "uint256",
              "name": "maxTotalSupply",
              "type": "uint256"
            },
            {
              "internalType": "uint256",
              "name": "decimals",
              "type": "uint256"
            },
            {
              "internalType": "bytes",
              "name": "data",
              "type": "bytes"
            },
            {
              "internalType": "uint256[]",
              "name": "attrs",
              "type": "uint256[]"
            }
          ],
          "internalType": "struct IRaylsERC1155.Metadata",
          "name": "metadata",
          "type": "tuple"
        }
      ],
      "name": "tokenId",
      "outputs": [
        {
          "internalType": "uint256",
          "name": "",
          "type": "uint256"
        }
      ],
      "stateMutability": "pure",
      "type": "function"
    },
    {
      "inputs": [
        {
          "internalType": "uint256",
          "name": "_tokenId",
          "type": "uint256"
        }
      ],
      "name": "tokenState",
      "outputs": [
        {
          "internalType": "enum IRaylsERC1155.TokenState",
          "name": "",
          "type": "uint8"
        }
      ],
      "stateMutability": "view",
      "type": "function"
    },
    {
      "inputs": [
        {
          "internalType": "uint256",
          "name": "_tokenId",
          "type": "uint256"
        }
      ],
      "name": "tokenType",
      "outputs": [
        {
          "internalType": "enum IRaylsERC1155.TokenType",
          "name": "",
          "type": "uint8"
        }
      ],
      "stateMutability": "view",
      "type": "function"
    },
    {
      "inputs": [
        {
          "internalType": "uint256",
          "name": "",
          "type": "uint256"
        }
      ],
      "name": "uri",
      "outputs": [
        {
          "internalType": "string",
          "name": "",
          "type": "string"
        }
      ],
      "stateMutability": "view",
      "type": "function"
    }
  ],
  "bytecode": "0x6080604081815234620002c657620038438038038091620000218286620002cb565b843982016020918284830312620002c65783516001600160401b0394858211620002c6570191601f90808285011215620002c6578351868111620001ac57601f1994845192620000788888878601160185620002cb565b828452878383010111620002c657869060005b838110620002b157505060009183010152805191868311620001ac57600254916001958684811c94168015620002a6575b888510146200029057838386951162000235575b5087928411600114620001ce5750600092620001c2575b5050600019600383901b1c191690831b176002555b805183810190686f776e6572526f6c6560b81b8252600981528281019581871090871117620001ac578583525190209283600052600381528160002033600052815260ff826000205416156200015a575b6135538581620002f08239f35b8360005260038152816000209033600052526000209060ff19825416179055339033907f2f8788117e7eff1d82e926ec794901d17c78024a50270940304540a733656f0d600080a4388080806200014d565b634e487b7160e01b600052604160045260246000fd5b015190503880620000e7565b869492919216916002600052876000209260005b898282106200021e575050841162000204575b505050811b01600255620000fc565b015160001960f88460031b161c19169055388080620001f5565b8385015186558997909501949384019301620001e2565b90919293506002600052876000208480870160051c8201928a881062000286575b9187968a92969594930160051c01915b82811062000276575050620000d0565b6000815587965089910162000266565b9250819262000256565b634e487b7160e01b600052602260045260246000fd5b93607f1693620000bc565b8181018301518582018401528892016200008b565b600080fd5b601f909101601f19168101906001600160401b03821190821017620001ac5760405256fe6080604052600436101561001257600080fd5b60003560e01c8062fdd58e146121b957806301ffc9a7146120b45780630e89341c14611fd1578063185a816914611fb55780631f7fdffa14611a6e578063248a9ca314611a3f5780632eb2c2d6146118ec5780632f2ff15d1461183657806336568abe146117975780633b8162b71461177c5780634e1273f4146115f35780634e2460f714610dbb578063731133e9146107fc578063759daabe146107cc57806391d148541461077e5780639745cc3d14610745578063a217fddf14610729578063a22cb46514610632578063adebf6f2146105f6578063aed90581146105cc578063d547741f1461058b578063e3684e391461046a578063e6c3b1f614610432578063e985e9c5146103db578063f242432a146102bd5763fd7df2601461013957600080fd5b346102b8576003196020368201126102b85760043567ffffffffffffffff918282116102b8576101a09082360301126102b85760405161017881612254565b816004013560048110156102b8578152602482013560038110156102b8576020820152604482013560028110156102b857604082015260648201358381116102b8576101ca9060043691850101612343565b606082015260848201358381116102b8576101eb9060043691850101612343565b608082015260a482013560a082015260c48201358381116102b85761021690600436918501016122e3565b60c082015260e48201358381116102b85761023790600436918501016122e3565b60e08201526101048201356101008201526101248201356101208201526101448201356101408201526101648201358381116102b85761027d9060043691850101612343565b6101608201526101848201359283116102b8576102a56102b0926004602095369201016122e3565b61018082015261286c565b604051908152f35b600080fd5b346102b85760a03660031901126102b8576102d66121e0565b6102de6121f6565b9060643560443560843567ffffffffffffffff81116102b857610305903690600401612343565b5080156103b15780600052600460205260ff6040600020541693600485101561039b578461034a5761034894506040519361033f85612271565b60008552612d43565b005b600185036103645761034894506040519361033f85612271565b6002850361037e5761034894506040519361033f85612271565b50505050600303610348575b600460405163d623472560e01b8152fd5b634e487b7160e01b600052602160045260246000fd5b60046040517f3357558d000000000000000000000000000000000000000000000000000000008152fd5b346102b85760403660031901126102b8576103f46121e0565b6103fc6121f6565b906001600160a01b03809116600052600160205260406000209116600052602052602060ff604060002054166040519015158152f35b346102b85760203660031901126102b85761044e600435612733565b51600481101561039b576020906104686040518092612426565bf35b346102b85760203660031901126102b857610587610489600435612733565b604051918291602083526104a1602084018251612426565b6104b360208201516040850190612419565b6104c56040820151606085019061240c565b60608101516104e26101a0918260808701526101c086019061222f565b90610520610502608085015193601f1994858983030160a08a015261222f565b60a085015160c088015260c0850151848883030160e08901526123d8565b61057661053e60e08601519261010093868a830301858b01526123d8565b9185015161012090818901528501516101409081890152850151610160908189015285015191610180928589830301848a015261222f565b9301519185840301908501526123d8565b0390f35b346102b85760403660031901126102b8576103486004356105aa6121f6565b908060005260036020526105c760016040600020015433906129c0565b61319d565b346102b85760003660031901126102b85760206040516ec097ce7bc90715b34b9f10000000008152f35b346102b85760203660031901126102b85761061d6040610617600435612733565b0161264e565b600281101561039b5760209060405190158152f35b346102b85760403660031901126102b85761064b6121e0565b602435908115158092036102b8576001600160a01b0316908133146106bf57336000526001602052604060002082600052602052604060002060ff1981541660ff83161790556040519081527f17307eab39ab6107e8899845ad3d59bd9653f200f220920489ca2b5937696c3160203392a3005b608460405162461bcd60e51b815260206004820152602960248201527f455243313135353a2073657474696e6720617070726f76616c2073746174757360448201527f20666f722073656c6600000000000000000000000000000000000000000000006064820152fd5b346102b85760003660031901126102b857602060405160008152f35b346102b85760203660031901126102b8576020610763600435612733565b0151600381101561039b576020906104686040518092612419565b346102b85760403660031901126102b8576107976121f6565b60043560005260036020526001600160a01b0360406000209116600052602052602060ff604060002054166040519015158152f35b346102b85760203660031901126102b85760206107ef6040610617600435612733565b610468604051809261240c565b346102b85760803660031901126102b8576108156121e0565b60249060643567ffffffffffffffff81116102b857610838903690600401612343565b5061084b61084461239a565b33906129c0565b8135156103b15760443515610d91578135600052600460205260ff60406000205460081c166003811015610ce95715610d545781356000526004602052604060002060ff815460101c169060066007820154910154916002811015610d3f576001149182610d28575b5050610cfe575b8135600052600460205260ff604060002054166004811015610ce9578061091f57506040516108fd916108ed82612271565b6000825260443590843590613225565b356000526004602052600660406000200161091b6044358254612d29565b9055005b6001810361093857506040516108fd916108ed82612271565b60028103610ccd57506040519061094e82612271565b600082528235600052600460205260ff60406000205460081c166003811015610cb857600103610c8e5782356000526004602052604060002061099c60066007830154920154604435612d29565b11610c6457823560005260046020526109bb60046040600020016126e2565b906109c682516125ae565b9160005b8351811015610a2e57853560005260046020526005604060002001908154811015610a1957600191600052610a0860443582602060002001546126b9565b610a12828761259a565b52016109ca565b86634e487b7160e01b60005260326004526000fd5b5090923315610c14578151835103610baa576000604051610a4e81612271565b5260005b8251811015610b1257610a65818461259a565b51610a70828661259a565b51816000526000602052604060002033600052602052604060002054818110610ac2576001939291610aa191612d36565b90600052600060205260406000203360005260205260406000205501610a52565b6084896040519062461bcd60e51b825260206004830152808201527f455243313135353a206275726e20616d6f756e7420657863656564732062616c604482015263616e636560e01b6064820152fd5b5091610b7793916000917f4a39dc06d4c0dbc64b70af90fd698a233a518aa5d07e595d983b8c0526c8f7fb610b52604051936040855260408501906123d8565b92808403602082015280610b68339533956123d8565b0390a460443590843590613225565b80356000526004602052610b95604435600660406000200154612d29565b90356000526004602052600660406000200155005b60848560286040519162461bcd60e51b8352602060048401528201527f455243313135353a2069647320616e6420616d6f756e7473206c656e6774682060448201527f6d69736d617463680000000000000000000000000000000000000000000000006064820152fd5b60848560236040519162461bcd60e51b8352602060048401528201527f455243313135353a206275726e2066726f6d20746865207a65726f206164647260448201526265737360e81b6064820152fd5b60046040517f8a164f63000000000000000000000000000000000000000000000000000000008152fd5b60046040517fa1e549e9000000000000000000000000000000000000000000000000000000008152fd5b83634e487b7160e01b60005260216004526000fd5b9050600391500361034857600460405163d623472560e01b8152fd5b82634e487b7160e01b60005260216004526000fd5b60046040517f1cfee6ae000000000000000000000000000000000000000000000000000000008152fd5b610d3791925060443590612d29565b1183806108b4565b84634e487b7160e01b60005260216004526000fd5b813560005260046020526ec097ce7bc90715b34b9f10000000006007604060002061010062ffff00198254161781556012600882015501556108bb565b60046040517f4194cffc000000000000000000000000000000000000000000000000000000008152fd5b346102b8576101603660031901126102b85760043560048110156102b85760243560028110156102b85760443567ffffffffffffffff81116102b857610e05903690600401612343565b9060643567ffffffffffffffff81116102b857610e26903690600401612343565b9160e43567ffffffffffffffff81116102b857610e479036906004016122e3565b906101043567ffffffffffffffff81116102b857610e699036906004016122e3565b926101243567ffffffffffffffff81116102b857610e8b903690600401612343565b506101443567ffffffffffffffff81116102b857610ead9036906004016122e3565b9483518551036115c957600192610ecc610ec56125e0565b9889612642565b6060880152608087015260843560a0870152036115585760016040850152600061014085015260016101208501525b610f0581516125ae565b60c0850152610f1482516125ae565b60e085015260005b8151811015610f885780610f326001928461259a565b51610f418260c089015161259a565b52610f4c818561259a565b51610f5b8260e089015161259a565b52610f6a8160c088015161259a565b51600052600460205260406000208260ff1982541617905501610f1c565b505050610f9581516125ae565b61018083015260005b8151811015610fcb5780610fb46001928461259a565b51610fc48261018087015161259a565b5201610f9e565b82610fd58161286c565b8060005260046020526040600020908251600481101561039b578254602085015190600382101561039b57604086015190600282101561039b5760ff62ff000061ff009360101b1694169062ffffff1916179160081b1617178255606083015192835167ffffffffffffffff8111611370576110618161105860018701546124ca565b60018701612672565b6020601f82116001146114e95781906110949394959660009261146f575b50508160011b916000199060031b1c19161790565b60018401555b608081015192835167ffffffffffffffff8111611370576110cb816110c260028501546124ca565b60028501612672565b6020601f821160011461147a5781906110fd9394959660009261146f5750508160011b916000199060031b1c19161790565b60028201555b60a0820151600382015560c082015180519067ffffffffffffffff82116113705768010000000000000000821161137057602090600484015483600486015580841061144f575b500160048301600052602060002060005b83811061143b575050505060e082015180519067ffffffffffffffff82116113705768010000000000000000821161137057602090600584015483600586015580841061141b575b500160058301600052602060002060005b838110611407575050505061010082015160068201556101208201516007820155610140820151600882015561016082015180519067ffffffffffffffff8211611370576112128261120960098601546124ca565b60098601612672565b602090601f83116001146113915782600a936101809593611249936000926113865750508160011b916000199060031b1c19161790565b60098201555b019101519081519167ffffffffffffffff831161137057680100000000000000008311611370576020908254848455808510611353575b500190600052602060002060005b83811061133f578480600052600460205260ff60406000205460081c16600381101561039b5761131557806000526004602052604060002061010061ff00198254161790556040519060a43582527fd0c979013bcb70b351be3f550f0c16d113cf152290dec940b08aad6691883a36602060843593a3602060405160018152f35b60046040517f7d4fffb2000000000000000000000000000000000000000000000000000000008152fd5b600190602084519401938184015501611294565b61136a90846000528584600020918201910161265b565b85611286565b634e487b7160e01b600052604160045260246000fd5b01519050888061107f565b906009840160005260206000209160005b601f19851681106113ef5750926101809492600192600a9583601f198116106113d6575b505050811b01600982015561124f565b015160001960f88460031b161c191690558780806113c6565b919260206001819286850151815501940192016113a2565b6001906020845194019381840155016111b4565b61143590600586016000528484600020918201910161265b565b866111a3565b60019060208451940193818401550161115b565b61146990600486016000528484600020918201910161265b565b8661114a565b01519050868061107f565b6002830160005260206000209060005b601f19841681106114d1575060019394959683601f198116106114b8575b505050811b016002820155611103565b015160001960f88460031b161c191690558580806114a8565b9091602060018192858b01518155019301910161148a565b6001850160005260206000209060005b601f1984168110611540575060019394959683601f19811610611527575b505050811b01600184015561109a565b015160001960f88460031b161c19169055858080611517565b9091602060018192858b0151815501930191016114f9565b6000604085015260a4351580156115af575b6115855760a43561012085015260c435610140850152610efb565b60046040517f19bcc14c000000000000000000000000000000000000000000000000000000008152fd5b506ec097ce7bc90715b34b9f100000000060a4351161156a565b60046040517f8530615f000000000000000000000000000000000000000000000000000000008152fd5b346102b85760403660031901126102b85760043567ffffffffffffffff8082116102b857366023830112156102b857816004013590611631826122cb565b9261163f60405194856122a9565b82845260209260248486019160051b830101913683116102b857602401905b82821061175d575050506024359081116102b8576116809036906004016122e3565b82518151036116f35761169383516125ae565b9260005b81518110156116dc57806116cb6001600160a01b036116b86001948661259a565b51166116c4838761259a565b5190612433565b6116d5828861259a565b5201611697565b5050506105876040519282849384528301906123d8565b6084826040519062461bcd60e51b82526004820152602960248201527f455243313135353a206163636f756e747320616e6420696473206c656e67746860448201527f206d69736d6174636800000000000000000000000000000000000000000000006064820152fd5b81356001600160a01b03811681036102b857815290840190840161165e565b346102b85760003660031901126102b85760206102b061239a565b346102b85760403660031901126102b8576117b06121f6565b336001600160a01b038216036117cc576103489060043561319d565b608460405162461bcd60e51b815260206004820152602f60248201527f416363657373436f6e74726f6c3a2063616e206f6e6c792072656e6f756e636560448201527f20726f6c657320666f722073656c6600000000000000000000000000000000006064820152fd5b346102b85760403660031901126102b8576004356118526121f6565b81600052600360205261186e60016040600020015433906129c0565b8160005260036020526001600160a01b0360406000209116908160005260205260ff604060002054161561189e57005b8160005260036020526040600020816000526020526040600020600160ff1982541617905533917f2f8788117e7eff1d82e926ec794901d17c78024a50270940304540a733656f0d600080a4005b346102b85760a03660031901126102b8576119056121e0565b61190d6121f6565b67ffffffffffffffff91906044358381116102b8576119309036906004016122e3565b926064358181116102b8576119499036906004016122e3565b906084359081116102b857611962903690600401612343565b5060005b845181101561034857611979818661259a565b51600052602060048152600460ff6040600020541691611999848961259a565b5160005252604060002061010061ff0019825416179055600481101561039b57806119f95750806119f36119cf6001938861259a565b516119da838661259a565b51604051916119e883612271565b600083528789612d43565b01611966565b60018103611a17575080611a126119cf6001938861259a565b6119f3565b60028103611a30575080611a126119cf6001938861259a565b60031461038a576001906119f3565b346102b85760203660031901126102b85760043560005260036020526020600160406000200154604051908152f35b346102b85760803660031901126102b857611a876121e0565b67ffffffffffffffff6024358181116102b857611aa89036906004016122e3565b906044358181116102b857611ac19036906004016122e3565b906064359081116102b857611ada903690600401612343565b50611ae661084461239a565b60005b825181101561034857611afc818461259a565b51611b07828461259a565b519080156103b1578115610d915780600052600460205260ff60406000205460081c16600381101561039b5715611f7957806000526004602052604060002060ff815460101c16906006600782015491015491600281101561039b5760018591149283611f65575b505050610cfe575b80600052600460205260ff60406000205416600481101561039b5780611bdc57509060019291611bb8604051611bac81612271565b6000815283838a613225565b6000526004602052611bd36006604060002001918254612d29565b90555b01611ae9565b60018103611c1b57509060019291611bf9604051611bac81612271565b6000526004602052611c146006604060002001918254612d29565b9055611bd6565b9195929490929160028103611f50575060405194611c3886612271565b6000865283600052600460205260ff60406000205460081c16600381101561039b57600103610c8e578360005260046020526040600020611c826006600783015492015489612d29565b11610c6457836000526004602052611ca060046040600020016126e2565b91611cab83516125ae565b9560005b8751811015611d11578660005260046020526005604060002001908154811015611cfb57600191600052611cea8b82602060002001546126b9565b611cf4828b61259a565b5201611caf565b634e487b7160e01b600052603260045260246000fd5b50909792959796919493963315611f00578651895103611e96576000604051611d3981612271565b5260005b8751811015611dfd57611d50818961259a565b5190611d5c818c61259a565b5191806000526000602052604060002033600052602052604060002054838110611dad57600193611d8c91612d36565b90600052600060205260406000203360005260205260406000205501611d3d565b608460405162461bcd60e51b8152602060048201526024808201527f455243313135353a206275726e20616d6f756e7420657863656564732062616c604482015263616e636560e01b6064820152fd5b509697611e7f92600060019796959398611e68937f4a39dc06d4c0dbc64b70af90fd698a233a518aa5d07e595d983b8c0526c8f7fb611e47604051936040855260408501906123d8565b92808403602082015280611e5d339533956123d8565b0390a482858b613225565b826000526004602052600660406000200154612d29565b906000526004602052600660406000200155611bd6565b608460405162461bcd60e51b815260206004820152602860248201527f455243313135353a2069647320616e6420616d6f756e7473206c656e6774682060448201527f6d69736d617463680000000000000000000000000000000000000000000000006064820152fd5b608460405162461bcd60e51b815260206004820152602360248201527f455243313135353a206275726e2066726f6d20746865207a65726f206164647260448201526265737360e81b6064820152fd5b91955093915060031461038a57600190611bd6565b611f70929350612d29565b11878381611b6f565b8060005260046020526ec097ce7bc90715b34b9f10000000006007604060002061010062ffff0019825416178155601260088201550155611b77565b346102b85760003660031901126102b857602060405160128152f35b346102b8576020806003193601126102b8576040519060008260025491611ff7836124ca565b9283835260019085600182169182600014612094575050600114612037575b50612023925003836122a9565b61058760405192828493845283019061222f565b84915060026000527f405787fa12a823e0f2b7631cc41b3ba8828b3321ca811111fa75cd3aa3bb5ace906000915b85831061207c575050612023935082010185612016565b80548389018501528794508693909201918101612065565b60ff19168582015261202395151560051b85010192508791506120169050565b346102b85760203660031901126102b8576004357fffffffff0000000000000000000000000000000000000000000000000000000081168091036102b857807f7965db0b000000000000000000000000000000000000000000000000000000006020921490811561212b575b506040519015158152f35b7fd9b67a260000000000000000000000000000000000000000000000000000000081149150811561218f575b8115612165575b5082612120565b7f01ffc9a7000000000000000000000000000000000000000000000000000000009150148261215e565b7f0e89341c0000000000000000000000000000000000000000000000000000000081149150612157565b346102b85760403660031901126102b85760206102b06121d76121e0565b60243590612433565b600435906001600160a01b03821682036102b857565b602435906001600160a01b03821682036102b857565b60005b83811061221f5750506000910152565b818101518382015260200161220f565b906020916122488151809281855285808601910161220c565b601f01601f1916010190565b6101a0810190811067ffffffffffffffff82111761137057604052565b6020810190811067ffffffffffffffff82111761137057604052565b6040810190811067ffffffffffffffff82111761137057604052565b90601f8019910116810190811067ffffffffffffffff82111761137057604052565b67ffffffffffffffff81116113705760051b60200190565b9080601f830112156102b85760209082356122fd816122cb565b9361230b60405195866122a9565b81855260208086019260051b8201019283116102b857602001905b828210612334575050505090565b81358152908301908301612326565b81601f820112156102b85780359067ffffffffffffffff82116113705760405192612378601f8401601f1916602001856122a9565b828452602083830101116102b857816000926020809301838601378301015290565b60405160208101907f6f776e6572526f6c6500000000000000000000000000000000000000000000008252600981526123d28161228d565b51902090565b90815180825260208080930193019160005b8281106123f8575050505090565b8351855293810193928101926001016123ea565b90600282101561039b5752565b90600382101561039b5752565b90600482101561039b5752565b6001600160a01b031690811561246057600052600060205260406000209060005260205260406000205490565b608460405162461bcd60e51b815260206004820152602b60248201527f455243313135353a2062616c616e636520717565727920666f7220746865207a60448201527f65726f20616464726573730000000000000000000000000000000000000000006064820152fd5b90600182811c921680156124fa575b60208310146124e457565b634e487b7160e01b600052602260045260246000fd5b91607f16916124d9565b805460009392612513826124ca565b9182825260209360019160018116908160001461257b575060011461253a575b5050505050565b90939495506000929192528360002092846000945b83861061256757505050500101903880808080612533565b80548587018301529401938590820161254f565b60ff19168685015250505090151560051b010191503880808080612533565b8051821015611cfb5760209160051b010190565b906125b8826122cb565b6125c560405191826122a9565b82815280926125d6601f19916122cb565b0190602036910137565b604051906125ed82612254565b8161018060009182815282602082015282604082015260609283808301528360808301528060a08301528360c08301528360e08301528061010083015280610120830152610140820152826101608201520152565b600482101561039b5752565b51600281101561039b5790565b818110612666575050565b6000815560010161265b565b9190601f811161268157505050565b6126ad926000526020600020906020601f840160051c830193106126af575b601f0160051c019061265b565b565b90915081906126a0565b818102929181159184041417156126cc57565b634e487b7160e01b600052601160045260246000fd5b90604051918281549182825260209260208301916000526020600020936000905b828210612719575050506126ad925003836122a9565b855484526001958601958895509381019390910190612703565b61273b6125e0565b506000908152600460205260408082209080519261275884612254565b825461276760ff821686612642565b60ff8160081c16600381101561285857602086015260101c60ff169060028210156128445750918161283b93600a9386015280516127b3816127ac8160018701612504565b03826122a9565b606086015280516127cb816127ac8160028701612504565b6080860152600382015460a08601526127e6600483016126e2565b60c08601526127f7600583016126e2565b60e08601526006820154610100860152600782015461012086015260088201546101408601525161282f816127ac8160098601612504565b610160850152016126e2565b61018082015290565b80634e487b7160e01b602492526021600452fd5b602483634e487b7160e01b81526021600452fd5b8051600481101561039b576128825760a0015190565b9060609160608101519260808201519360a08301516128df6040809781519384916020966128b8815180928a808801910161220c565b83016128cc825180938a808501910161220c565b01908682015203848101845201826122a9565b906000915b60c0850151805184101561294c5790612944856129038660019561259a565b51926129138760e08b015161259a565b51938b51948261292c87945180928b808801910161220c565b830191888301528c820152038a8101845201826122a9565b9201916128e4565b509394915091506000925b61018085015180518510156129b157610180916129a78861297a8860019561259a565b51928151938161299386935180928c808701910161220c565b8201908982015203878101845201826122a9565b9401939050612957565b50935093509050815191012090565b600090808252602091600383526040936001600160a01b03858320911690818352845260ff8583205416156129f6575050505050565b84519267ffffffffffffffff916060850183811186821017612d15578752602a85528585019187368437855115612d01576030835385519160019260011015612ced576078602188015360295b838111612c765750612c345790875193608085019085821090821117612c2057885260428452868401946060368737845115612c0c5760308653845160011015612c0c5790607860218601536041915b818311612b9157505050612b4f57612b4b938693612b2f93612b20604894612aeb9a519a8b957f416363657373436f6e74726f6c3a206163636f756e74200000000000000000008c880152518092603788019061220c565b8401917f206973206d697373696e6720726f6c652000000000000000000000000000000060378401525180938684019061220c565b010360288101875201856122a9565b5192839262461bcd60e51b84526004840152602483019061222f565b0390fd5b60648587519062461bcd60e51b825280600483015260248201527f537472696e67733a20686578206c656e67746820696e73756666696369656e746044820152fd5b909192600f81166010811015612bf8577f3031323334353637383961626364656600000000000000000000000000000000901a612bce8588613214565b5360041c928015612be457600019019190612a93565b602482634e487b7160e01b81526011600452fd5b602483634e487b7160e01b81526032600452fd5b80634e487b7160e01b602492526032600452fd5b602486634e487b7160e01b81526041600452fd5b60648789519062461bcd60e51b825280600483015260248201527f537472696e67733a20686578206c656e67746820696e73756666696369656e746044820152fd5b90600f81166010811015612cd9577f3031323334353637383961626364656600000000000000000000000000000000901a612cb1838a613214565b5360041c908015612cc55760001901612a43565b602487634e487b7160e01b81526011600452fd5b602488634e487b7160e01b81526032600452fd5b602486634e487b7160e01b81526032600452fd5b602485634e487b7160e01b81526032600452fd5b602485634e487b7160e01b81526041600452fd5b919082018092116126cc57565b919082039182116126cc57565b90939291926001600160a01b03808616928315613133571691338314801561310f575b156130a557612d7485613486565b50612d7e84613486565b5060009385855260209585875260409788872086885288528887205483811061303c5783612dab91612d36565b8288528789528988208789528952898820558187528688528887208488528852888720612dd9848254612d29565b905583868a51848152858b8201527fc3d58168c5ae7397731d063d5bbf3d657854427343f4c083240f7aacaa2d0f628c3392a43b612e1c575b5050505050505050565b91612e6493918688999a9798948b519687958694859363f23a6e6160e01b9b8c865233600487015260248601526044850152606484015260a0608484015260a483019061222f565b03925af1849181612fe0575b50612f3c575050508060033d11612f2b575b506308c379a014612ef6575b608491519062461bcd60e51b82526004820152603460248201527f455243313135353a207472616e7366657220746f206e6f6e204552433131353560448201527f526563656976657220696d706c656d656e7465720000000000000000000000006064820152fd5b612efe6134ab565b9182612f0b579150612e8e565b612b4b905192839262461bcd60e51b84526004840152602483019061222f565b9050600481803e5160e01c38612e82565b7fffffffff0000000000000000000000000000000000000000000000000000000091929593501603612f775750503880808080808080612e12565b60849250519062461bcd60e51b82526004820152602860248201527f455243313135353a204552433131353552656365697665722072656a6563746560448201527f6420746f6b656e730000000000000000000000000000000000000000000000006064820152fd5b9091508581813d8311613035575b612ff881836122a9565b8101031261303157517fffffffff0000000000000000000000000000000000000000000000000000000081168103613031579038612e70565b8480fd5b503d612fee565b6084898b519062461bcd60e51b82526004820152602a60248201527f455243313135353a20696e73756666696369656e742062616c616e636520666f60448201527f72207472616e73666572000000000000000000000000000000000000000000006064820152fd5b608460405162461bcd60e51b815260206004820152602960248201527f455243313135353a2063616c6c6572206973206e6f74206f776e6572206e6f7260448201527f20617070726f76656400000000000000000000000000000000000000000000006064820152fd5b5082600052600160205260406000203360005260205260ff60406000205416612d66565b608460405162461bcd60e51b815260206004820152602560248201527f455243313135353a207472616e7366657220746f20746865207a65726f20616460448201527f64726573730000000000000000000000000000000000000000000000000000006064820152fd5b9060009180835260036020526001600160a01b036040842092169182845260205260ff6040842054166131cf57505050565b8083526003602052604083208284526020526040832060ff1981541690557ff6391f5c32d9c69d2a47ea670b442974b53935d1edc7fd64eb21e047a839171b339380a4565b908151811015611cfb570160200190565b92906001600160a01b03841691821561341c5761324182613486565b5061324b84613486565b506000928284526020948486526040968786208387528752878620613271838254612d29565b905582868951878152848a8201527fc3d58168c5ae7397731d063d5bbf3d657854427343f4c083240f7aacaa2d0f628b3392a43b6132b3575b50505050505050565b918596979495916132fa93878a5180968195829463f23a6e6160e01b9a8b85523360048601528560248601526044850152606484015260a0608484015260a483019061222f565b03925af18491816133c4575b5061338a575050508060033d11612f2b57506308c379a014612ef657608491519062461bcd60e51b82526004820152603460248201527f455243313135353a207472616e7366657220746f206e6f6e204552433131353560448201527f526563656976657220696d706c656d656e7465720000000000000000000000006064820152fd5b7fffffffff0000000000000000000000000000000000000000000000000000000091929593501603612f77575050388080808080806132aa565b9091508581813d8311613415575b6133dc81836122a9565b8101031261303157517fffffffff0000000000000000000000000000000000000000000000000000000081168103613031579038613306565b503d6133d2565b608460405162461bcd60e51b815260206004820152602160248201527f455243313135353a206d696e7420746f20746865207a65726f2061646472657360448201527f73000000000000000000000000000000000000000000000000000000000000006064820152fd5b604051906134938261228d565b60018252602082016020368237825115611cfb575290565b600060443d1061350957604051600319913d83016004833e815167ffffffffffffffff918282113d60248401111761350c57818401948551938411613514573d8501016020848701011161350c5750613509929101602001906122a9565b90565b949350505050565b5094935050505056fea2646970667358221220940bfb674e215cfa2d9673423536f7141a8b4bff16d78ac295d5e6117e53124264736f6c63430008180033",
  "linkReferences": {},
  "deployedLinkReferences": {}
}