{
  "_format": "hh-sol-artifact-1",
  "contractName": "UserRegistry",
  "sourceName": "contracts/core/contracts/UserRegistry.sol",
  "abi": [
    {
      "inputs": [
        {
          "internalType": "address",
          "name": "user",
          "type": "address"
        }
      ],
      "name": "AlreadyRegistered",
      "type": "error"
    },
    {
      "inputs": [
        {
          "internalType": "address",
          "name": "user",
          "type": "address"
        }
      ],
      "name": "NotRegistered",
      "type": "error"
    },
    {
      "anonymous": false,
      "inputs": [
        {
          "indexed": true,
          "internalType": "address",
          "name": "user",
          "type": "address"
        },
        {
          "indexed": false,
          "internalType": "uint256",
          "name": "pkSpend",
          "type": "uint256"
        },
        {
          "indexed": false,
          "internalType": "bytes",
          "name": "pkView",
          "type": "bytes"
        }
      ],
      "name": "UserRegistered",
      "type": "event"
    },
    {
      "inputs": [
        {
          "internalType": "address",
          "name": "user",
          "type": "address"
        }
      ],
      "name": "getKeys",
      "outputs": [
        {
          "internalType": "uint256",
          "name": "pkSpend",
          "type": "uint256"
        },
        {
          "internalType": "bytes",
          "name": "pkView",
          "type": "bytes"
        }
      ],
      "stateMutability": "view",
      "type": "function"
    },
    {
      "inputs": [
        {
          "internalType": "address",
          "name": "user",
          "type": "address"
        }
      ],
      "name": "isRegistered",
      "outputs": [
        {
          "internalType": "bool",
          "name": "",
          "type": "bool"
        }
      ],
      "stateMutability": "view",
      "type": "function"
    },
    {
      "inputs": [
        {
          "internalType": "uint256",
          "name": "pkSpend",
          "type": "uint256"
        },
        {
          "internalType": "bytes",
          "name": "pkView",
          "type": "bytes"
        }
      ],
      "name": "register",
      "outputs": [],
      "stateMutability": "nonpayable",
      "type": "function"
    }
  ],
  "bytecode": "0x608080604052346100165761053e908161001c8239f35b600080fdfe6080604081815260048036101561001557600080fd5b600092833560e01c90816334e80c341461032657508063765718d71461008d5763c3c5a5471461004457600080fd5b34610089576020366003190112610089573573ffffffffffffffffffffffffffffffffffffffff81168091036100895782829160209452808452205415159051908152f35b8280fd5b50919034610322578060031936011261032257823560249081359167ffffffffffffffff9384841161031e573660238501121561031e57838701359185831161031a57808501948184369201011161031a57338752602090878252828820546102ee57825196838801888110828211176102dc578452858852601f199788601f87011698855193610120868c01866104d0565b878552878a878701378b868987010152858301948552338c528b8652868c2092518355600180930194519c8d519485116102cb5750506101608454610496565b601f8111610289575b508a9b8b98999a9b508591601f85116001146101f85750947f8b2e9f00b4a645879f7a839750c8c5fffbcf4cb43abc3b6d17712118c23106449a9484808a9995968a9997879660609d998f946101ed575b50501b916000199060031b1c19161790555b8151998a52890152870152838601378301015260608133948101030190a280f35b0151925038806101ba565b84929b979695941690848a52858a20918a5b818110610271575093838a9997937f8b2e9f00b4a645879f7a839750c8c5fffbcf4cb43abc3b6d17712118c23106449e8b9a9794889760609e9a9610610258575b505050811b0190556101cc565b015160001960f88460031b161c1916905538808061024b565b828e015184559c87019c8f9b5092850192870161020a565b848c52858c20601f850160051c8101918786106102c1575b601f0160051c01905b8181106102b75750610169565b8c815583016102aa565b90915081906102a1565b60418d91634e487b7160e01b835252fd5b828a60418d634e487b7160e01b835252fd5b82517f45ed80e900000000000000000000000000000000000000000000000000000000815233818b0152fd5b8680fd5b8580fd5b5080fd5b838584923461032257602090816003193601126100895784359073ffffffffffffffffffffffffffffffffffffffff82168092036104925781845283835284842091825496871561046657505050600180910184518092859083549361038b85610496565b9485855287600182169182600014610444575050600114610408575b50506103bb925096949295939603856104d0565b81519485938452828185015284518093850152815b8381106103f157505060608094508284010152601f80199101168101030190f35b8086018201518782016060015286945081016103d0565b86925087528187209087915b85831061042c5750506103bb935082010188806103a7565b80548388018501528694508793909201918101610414565b92509350506103bb94915060ff191682840152151560051b82010188806103a7565b602493507fbfc6c337000000000000000000000000000000000000000000000000000000008352820152fd5b8380fd5b90600182811c921680156104c6575b60208310146104b057565b634e487b7160e01b600052602260045260246000fd5b91607f16916104a5565b90601f8019910116810190811067ffffffffffffffff8211176104f257604052565b634e487b7160e01b600052604160045260246000fdfea26469706673582212208b5447a12a6ba9f7dac91fa5704648e503619c0cb00469f3704049805332b2d364736f6c63430008180033",
  "linkReferences": {},
  "deployedLinkReferences": {}
}