{
  "_format": "hh-sol-artifact-1",
  "contractName": "Verifier",
  "sourceName": "contracts/core/contracts/Verifier.sol",
  "abi": [
    {
      "inputs": [],
      "stateMutability": "nonpayable",
      "type": "constructor"
    },
    {
      "inputs": [],
      "name": "MaxNumberOfCircuitsExceeded",
      "type": "error"
    },
    {
      "anonymous": false,
      "inputs": [
        {
          "indexed": true,
          "internalType": "bytes32",
          "name": "role",
          "type": "bytes32"
        },
        {
          "indexed": true,
          "internalType": "bytes32",
          "name": "previousAdminRole",
          "type": "bytes32"
        },
        {
          "indexed": true,
          "internalType": "bytes32",
          "name": "newAdminRole",
          "type": "bytes32"
        }
      ],
      "name": "RoleAdminChanged",
      "type": "event"
    },
    {
      "anonymous": false,
      "inputs": [
        {
          "indexed": true,
          "internalType": "bytes32",
          "name": "role",
          "type": "bytes32"
        },
        {
          "indexed": true,
          "internalType": "address",
          "name": "account",
          "type": "address"
        },
        {
          "indexed": true,
          "internalType": "address",
          "name": "sender",
          "type": "address"
        }
      ],
      "name": "RoleGranted",
      "type": "event"
    },
    {
      "anonymous": false,
      "inputs": [
        {
          "indexed": true,
          "internalType": "bytes32",
          "name": "role",
          "type": "bytes32"
        },
        {
          "indexed": true,
          "internalType": "address",
          "name": "account",
          "type": "address"
        },
        {
          "indexed": true,
          "internalType": "address",
          "name": "sender",
          "type": "address"
        }
      ],
      "name": "RoleRevoked",
      "type": "event"
    },
    {
      "inputs": [],
      "name": "DEFAULT_ADMIN_ROLE",
      "outputs": [
        {
          "internalType": "bytes32",
          "name": "",
          "type": "bytes32"
        }
      ],
      "stateMutability": "view",
      "type": "function"
    },
    {
      "inputs": [],
      "name": "DEFAULT_OWNER_ROLE",
      "outputs": [
        {
          "internalType": "bytes32",
          "name": "",
          "type": "bytes32"
        }
      ],
      "stateMutability": "view",
      "type": "function"
    },
    {
      "inputs": [
        {
          "components": [
            {
              "components": [
                {
                  "internalType": "uint256",
                  "name": "x",
                  "type": "uint256"
                },
                {
                  "internalType": "uint256",
                  "name": "y",
                  "type": "uint256"
                }
              ],
              "internalType": "struct IEnygmaDvp.G1Point",
              "name": "alpha1",
              "type": "tuple"
            },
            {
              "components": [
                {
                  "internalType": "uint256[2]",
                  "name": "x",
                  "type": "uint256[2]"
                },
                {
                  "internalType": "uint256[2]",
                  "name": "y",
                  "type": "uint256[2]"
                }
              ],
              "internalType": "struct IEnygmaDvp.G2Point",
              "name": "beta2",
              "type": "tuple"
            },
            {
              "components": [
                {
                  "internalType": "uint256[2]",
                  "name": "x",
                  "type": "uint256[2]"
                },
                {
                  "internalType": "uint256[2]",
                  "name": "y",
                  "type": "uint256[2]"
                }
              ],
              "internalType": "struct IEnygmaDvp.G2Point",
              "name": "gamma2",
              "type": "tuple"
            },
            {
              "components": [
                {
                  "internalType": "uint256[2]",
                  "name": "x",
                  "type": "uint256[2]"
                },
                {
                  "internalType": "uint256[2]",
                  "name": "y",
                  "type": "uint256[2]"
                }
              ],
              "internalType": "struct IEnygmaDvp.G2Point",
              "name": "delta2",
              "type": "tuple"
            },
            {
              "components": [
                {
                  "internalType": "uint256",
                  "name": "x",
                  "type": "uint256"
                },
                {
                  "internalType": "uint256",
                  "name": "y",
                  "type": "uint256"
                }
              ],
              "internalType": "struct IEnygmaDvp.G1Point[]",
              "name": "ic",
              "type": "tuple[]"
            }
          ],
          "internalType": "struct IEnygmaDvp.VerifyingKey",
          "name": "vKey_",
          "type": "tuple"
        }
      ],
      "name": "addVerificationKey",
      "outputs": [
        {
          "internalType": "bool",
          "name": "",
          "type": "bool"
        }
      ],
      "stateMutability": "nonpayable",
      "type": "function"
    },
    {
      "inputs": [
        {
          "internalType": "bytes32",
          "name": "role",
          "type": "bytes32"
        }
      ],
      "name": "getRoleAdmin",
      "outputs": [
        {
          "internalType": "bytes32",
          "name": "",
          "type": "bytes32"
        }
      ],
      "stateMutability": "view",
      "type": "function"
    },
    {
      "inputs": [
        {
          "internalType": "bytes32",
          "name": "role",
          "type": "bytes32"
        },
        {
          "internalType": "address",
          "name": "account",
          "type": "address"
        }
      ],
      "name": "grantRole",
      "outputs": [],
      "stateMutability": "nonpayable",
      "type": "function"
    },
    {
      "inputs": [
        {
          "internalType": "bytes32",
          "name": "role",
          "type": "bytes32"
        },
        {
          "internalType": "address",
          "name": "account",
          "type": "address"
        }
      ],
      "name": "hasRole",
      "outputs": [
        {
          "internalType": "bool",
          "name": "",
          "type": "bool"
        }
      ],
      "stateMutability": "view",
      "type": "function"
    },
    {
      "inputs": [
        {
          "internalType": "address",
          "name": "groth16Verifier_",
          "type": "address"
        }
      ],
      "name": "initializeVerifier",
      "outputs": [
        {
          "internalType": "bool",
          "name": "",
          "type": "bool"
        }
      ],
      "stateMutability": "nonpayable",
      "type": "function"
    },
    {
      "inputs": [
        {
          "internalType": "bytes32",
          "name": "role",
          "type": "bytes32"
        },
        {
          "internalType": "address",
          "name": "account",
          "type": "address"
        }
      ],
      "name": "renounceRole",
      "outputs": [],
      "stateMutability": "nonpayable",
      "type": "function"
    },
    {
      "inputs": [
        {
          "internalType": "bytes32",
          "name": "role",
          "type": "bytes32"
        },
        {
          "internalType": "address",
          "name": "account",
          "type": "address"
        }
      ],
      "name": "revokeRole",
      "outputs": [],
      "stateMutability": "nonpayable",
      "type": "function"
    },
    {
      "inputs": [
        {
          "internalType": "bytes4",
          "name": "interfaceId",
          "type": "bytes4"
        }
      ],
      "name": "supportsInterface",
      "outputs": [
        {
          "internalType": "bool",
          "name": "",
          "type": "bool"
        }
      ],
      "stateMutability": "view",
      "type": "function"
    },
    {
      "inputs": [
        {
          "internalType": "uint256",
          "name": "verificationKeyIndex_",
          "type": "uint256"
        },
        {
          "components": [
            {
              "components": [
                {
                  "internalType": "uint256",
                  "name": "x",
                  "type": "uint256"
                },
                {
                  "internalType": "uint256",
                  "name": "y",
                  "type": "uint256"
                }
              ],
              "internalType": "struct IEnygmaDvp.G1Point",
              "name": "a",
              "type": "tuple"
            },
            {
              "components": [
                {
                  "internalType": "uint256[2]",
                  "name": "x",
                  "type": "uint256[2]"
                },
                {
                  "internalType": "uint256[2]",
                  "name": "y",
                  "type": "uint256[2]"
                }
              ],
              "internalType": "struct IEnygmaDvp.G2Point",
              "name": "b",
              "type": "tuple"
            },
            {
              "components": [
                {
                  "internalType": "uint256",
                  "name": "x",
                  "type": "uint256"
                },
                {
                  "internalType": "uint256",
                  "name": "y",
                  "type": "uint256"
                }
              ],
              "internalType": "struct IEnygmaDvp.G1Point",
              "name": "c",
              "type": "tuple"
            }
          ],
          "internalType": "struct IEnygmaDvp.SnarkProof",
          "name": "proof_",
          "type": "tuple"
        },
        {
          "internalType": "uint256[]",
          "name": "inputs_",
          "type": "uint256[]"
        }
      ],
      "name": "verifyProof",
      "outputs": [
        {
          "internalType": "bool",
          "name": "",
          "type": "bool"
        }
      ],
      "stateMutability": "view",
      "type": "function"
    }
  ],
  "bytecode": "0x6080806040523461001c576000613a995561122f90816100228239f35b600080fdfe608080604052600436101561001357600080fd5b60003560e01c90816301ffc9a714610b5d5750806312ad43aa146107ef578063248a9ca3146107c05780632f2ff15d1461070a57806336568abe1461066b5780633b8162b7146106485780638b85e6fe146102215780638c2a4d531461014a57806391d14854146100fc578063a217fddf146100e05763d547741f1461009857600080fd5b346100db5760403660031901126100db576100d96004356100b7610cf7565b908060005260006020526100d46001604060002001543390610df3565b611173565b005b600080fd5b346100db5760003660031901126100db57602060405160008152f35b346100db5760403660031901126100db57610115610cf7565b60043560005260006020526001600160a01b0360406000209116600052602052602060ff604060002054166040519015158152f35b346100db576020806003193601126100db576004356001600160a01b0381168091036100db57613a9a907fffffffffffffffffffffffff00000000000000000000000000000000000000008254161790556101a3610d0d565b8060005260008252604060002033600052825260ff60406000205416156101cf575b5060405160018152f35b806000526000825260406000203360005282526040600020600160ff19825416179055339033907f2f8788117e7eff1d82e926ec794901d17c78024a50270940304540a733656f0d600080a4816101c5565b346100db576101403660031901126100db57366023190161010081126100db57604051906060820167ffffffffffffffff918382108383111761063257604090828252126100db5761027281610bfb565b60243581526044356080840152825260806063193601126100db5760405161029981610bfb565b36608312156100db576040516102ae81610bfb565b60a4813682116100db576064905b8282106106225750505081523660c312156100db576040516102dd81610bfb565b60e4813682116100db5760a4905b8282106106125750505060208201526020830152604060e3193601126100db5760405161031781610bfb565b60e4358152610104356020820152604083015261012435116100db57366023610124350112156100db5761012435600401359061035382610cdf565b916103616040519384610c17565b8083526020830190813660248360051b610124350101116100db5760246101243501905b60248360051b6101243501018210610602575050506001600160a01b03613a9a5416916103e860043510156105ec5792906040519384927f8de16fe3000000000000000000000000000000000000000000000000000000008452610140600485015261032484019161040e6101448601600f600435026001016001602091805484520154910152565b61042461018486016003600f6004350201610d80565b61043a6101c486016005600f6004350201610d80565b61045061020486016007600f6004350201610d80565b61046661024486016009600f6004350201610d80565b61047c6102848601600b600f6004350201610d80565b6104926102c48601600d600f6004350201610d80565b600f806004350201926101e0610304870152835480915261034486019360005260206000209060005b8181106105b85750505090602060408382809551805160248b0152015160448901526104ff83808301516104f360648c018251610da8565b015160a48a0190610da8565b0151805160e4880152015161010486015284830360031901610124860152518083529101919060005b81811061059f5750505091818060209403915afa801561059357600090610557575b6020906040519015158152f35b506020813d60201161058b575b8161057160209383610c17565b810103126100db575180151581036100db5760209061054a565b3d9150610564565b6040513d6000823e3d90fd5b8251845286945060209384019390920191600101610528565b9195965091929360026040826105db6001948a6001602091805484520154910152565b0196019101918896959493926104bb565b634e487b7160e01b600052603260045260246000fd5b8135815260209182019101610385565b81358152602091820191016102eb565b81358152602091820191016102bc565b634e487b7160e01b600052604160045260246000fd5b346100db5760003660031901126100db576020610663610d0d565b604051908152f35b346100db5760403660031901126100db57610684610cf7565b336001600160a01b038216036106a0576100d990600435611173565b608460405162461bcd60e51b815260206004820152602f60248201527f416363657373436f6e74726f6c3a2063616e206f6e6c792072656e6f756e636560448201527f20726f6c657320666f722073656c6600000000000000000000000000000000006064820152fd5b346100db5760403660031901126100db57600435610726610cf7565b8160005260006020526107426001604060002001543390610df3565b8160005260006020526001600160a01b0360406000209116908160005260205260ff604060002054161561077257005b8160005260006020526040600020816000526020526040600020600160ff1982541617905533917f2f8788117e7eff1d82e926ec794901d17c78024a50270940304540a733656f0d600080a4005b346100db5760203660031901126100db5760043560005260006020526020600160406000200154604051908152f35b346100db576003196020368201126100db576004359067ffffffffffffffff908183116100db576101e09083360301126100db576040519160a0830183811083821117610632576040526108463682600401610c39565b83526108553660448301610ca6565b60208401526108673660c48301610ca6565b604084015261087a366101448301610ca6565b60608401526101c48101359182116100db5701366023820112156100db576004810135906108a782610cdf565b916108b56040519384610c17565b8083526024602084019160061b830101913683116100db57602401905b828210610b435750505060808201526108f36108ec610d0d565b3390610df3565b613a9954906103e8808314610b1957815151908310156105ec57600f830260010155602081510151916000926002600f8302015560005b60028110610a0f5750600f9081020160005b60808301515160ff8216908110156109f057846105ec576020610973610966836080880151610d6c565b5151926080870151610d6c565b5101516040519161098383610bfb565b8252602082019081528354906801000000000000000082101561063257600182018086558210156105ec5760019185600052602060002090831b01925183555191015560ff8091169081146109da5760010161093c565b634e487b7160e01b600052601160045260246000fd5b613a995460001981146109da57600101613a9955602060405160008152f35b9092610a2082602085015151610d4b565b51906105ec57610a5390610a3a836003600f880201610d5c565b90919082549060031b91821b91600019901b1916179055565b610a78610a67826020808601510151610d4b565b51610a3a836005600f880201610d5c565b610a9b610a8a82604085015151610d4b565b51610a3a836007600f880201610d5c565b610ac1610ab082602060408601510151610d4b565b51610a3a836009600f880201610d5c565b610ae4610ad382606085015151610d4b565b51610a3a83600b600f880201610d5c565b6001610af882602060608601510151610d4b565b5191610b10600093610a3a83600d600f8a0201610d5c565b0192909261092a565b60046040517f1041e596000000000000000000000000000000000000000000000000000000008152fd5b6020604091610b523685610c39565b8152019101906108d2565b346100db5760203660031901126100db57600435907fffffffff0000000000000000000000000000000000000000000000000000000082168092036100db57817f7965db0b0000000000000000000000000000000000000000000000000000000060209314908115610bd1575b5015158152f35b7f01ffc9a70000000000000000000000000000000000000000000000000000000091501483610bca565b6040810190811067ffffffffffffffff82111761063257604052565b90601f8019910116810190811067ffffffffffffffff82111761063257604052565b91908260409103126100db57604051610c5181610bfb565b6020808294803584520135910152565b9080601f830112156100db5760405191610c7a83610bfb565b8290604081019283116100db57905b828210610c965750505090565b8135815260209182019101610c89565b91906080838203126100db576020610cda60405192610cc484610bfb565b60408496610cd28382610c61565b865201610c61565b910152565b67ffffffffffffffff81116106325760051b60200190565b602435906001600160a01b03821682036100db57565b60405160208101907f6f776e6572526f6c650000000000000000000000000000000000000000000000825260098152610d4581610bfb565b51902090565b9060028110156105ec5760051b0190565b60028210156105ec570190600090565b80518210156105ec5760209160051b010190565b906000905b60028210610d9257505050565b6001602081928554815201930191019091610d85565b6000915b60028310610db957505050565b600190825181526020809101920192019190610dac565b60005b838110610de35750506000910152565b8181015183820152602001610dd3565b6000918183526020918383526040916001600160a01b03838620911690818652845260ff838620541615610e28575050505050565b8251949067ffffffffffffffff90606087018281118882101761115f578552602a8752858701938536863787511561114b57603085538751916001926001101561113757607860218a015360295b8381116110c0575061107e579085519260808401908482109082111761106a5786526042835286830193606036863783511561105657603085538351600110156110565790607860218501536041915b818311610fdb57505050610f995792610f676048610f589794610f8b946044989785519a8b93610f238b86019a7f416363657373436f6e74726f6c3a206163636f756e74200000000000000000008c525180926037880190610dd0565b8401917f206973206d697373696e6720726f6c6520000000000000000000000000000000603784015251809386840190610dd0565b01036028810189520187610c17565b5194859362461bcd60e51b8552600485015251809281602486015285850190610dd0565b601f01601f19168101030190fd5b60648585519062461bcd60e51b825280600483015260248201527f537472696e67733a20686578206c656e67746820696e73756666696369656e746044820152fd5b909192600f81166010811015611042577f3031323334353637383961626364656600000000000000000000000000000000901a61101885876111e8565b5360041c92801561102e57600019019190610ec6565b602482634e487b7160e01b81526011600452fd5b602483634e487b7160e01b81526032600452fd5b80634e487b7160e01b602492526032600452fd5b602485634e487b7160e01b81526041600452fd5b60648787519062461bcd60e51b825280600483015260248201527f537472696e67733a20686578206c656e67746820696e73756666696369656e746044820152fd5b90600f81166010811015611123577f3031323334353637383961626364656600000000000000000000000000000000901a6110fb838c6111e8565b5360041c90801561110f5760001901610e76565b602486634e487b7160e01b81526011600452fd5b602487634e487b7160e01b81526032600452fd5b602485634e487b7160e01b81526032600452fd5b602484634e487b7160e01b81526032600452fd5b602484634e487b7160e01b81526041600452fd5b90600091808352826020526001600160a01b036040842092169182845260205260ff6040842054166111a457505050565b80835282602052604083208284526020526040832060ff1981541690557ff6391f5c32d9c69d2a47ea670b442974b53935d1edc7fd64eb21e047a839171b339380a4565b9081518110156105ec57016020019056fea264697066735822122000fa580297cebca891eb869b253c7d3964068af922e28329194cf8a0426c920264736f6c63430008180033",
  "linkReferences": {},
  "deployedLinkReferences": {}
}