{
  "_format": "hh-sol-artifact-1",
  "contractName": "RaylsERC721",
  "sourceName": "contracts/erc721/contracts/RaylsERC721.sol",
  "abi": [
    {
      "inputs": [
        {
          "internalType": "string",
          "name": "_name",
          "type": "string"
        },
        {
          "internalType": "string",
          "name": "_symbol",
          "type": "string"
        }
      ],
      "stateMutability": "nonpayable",
      "type": "constructor"
    },
    {
      "anonymous": false,
      "inputs": [
        {
          "indexed": true,
          "internalType": "address",
          "name": "owner",
          "type": "address"
        },
        {
          "indexed": true,
          "internalType": "address",
          "name": "approved",
          "type": "address"
        },
        {
          "indexed": true,
          "internalType": "uint256",
          "name": "tokenId",
          "type": "uint256"
        }
      ],
      "name": "Approval",
      "type": "event"
    },
    {
      "anonymous": false,
      "inputs": [
        {
          "indexed": true,
          "internalType": "address",
          "name": "owner",
          "type": "address"
        },
        {
          "indexed": true,
          "internalType": "address",
          "name": "operator",
          "type": "address"
        },
        {
          "indexed": false,
          "internalType": "bool",
          "name": "approved",
          "type": "bool"
        }
      ],
      "name": "ApprovalForAll",
      "type": "event"
    },
    {
      "anonymous": false,
      "inputs": [
        {
          "indexed": true,
          "internalType": "bytes32",
          "name": "role",
          "type": "bytes32"
        },
        {
          "indexed": true,
          "internalType": "bytes32",
          "name": "previousAdminRole",
          "type": "bytes32"
        },
        {
          "indexed": true,
          "internalType": "bytes32",
          "name": "newAdminRole",
          "type": "bytes32"
        }
      ],
      "name": "RoleAdminChanged",
      "type": "event"
    },
    {
      "anonymous": false,
      "inputs": [
        {
          "indexed": true,
          "internalType": "bytes32",
          "name": "role",
          "type": "bytes32"
        },
        {
          "indexed": true,
          "internalType": "address",
          "name": "account",
          "type": "address"
        },
        {
          "indexed": true,
          "internalType": "address",
          "name": "sender",
          "type": "address"
        }
      ],
      "name": "RoleGranted",
      "type": "event"
    },
    {
      "anonymous": false,
      "inputs": [
        {
          "indexed": true,
          "internalType": "bytes32",
          "name": "role",
          "type": "bytes32"
        },
        {
          "indexed": true,
          "internalType": "address",
          "name": "account",
          "type": "address"
        },
        {
          "indexed": true,
          "internalType": "address",
          "name": "sender",
          "type": "address"
        }
      ],
      "name": "RoleRevoked",
      "type": "event"
    },
    {
      "anonymous": false,
      "inputs": [
        {
          "indexed": true,
          "internalType": "address",
          "name": "from",
          "type": "address"
        },
        {
          "indexed": true,
          "internalType": "address",
          "name": "to",
          "type": "address"
        },
        {
          "indexed": true,
          "internalType": "uint256",
          "name": "tokenId",
          "type": "uint256"
        }
      ],
      "name": "Transfer",
      "type": "event"
    },
    {
      "inputs": [],
      "name": "DEFAULT_ADMIN_ROLE",
      "outputs": [
        {
          "internalType": "bytes32",
          "name": "",
          "type": "bytes32"
        }
      ],
      "stateMutability": "view",
      "type": "function"
    },
    {
      "inputs": [],
      "name": "DEFAULT_OWNER_ROLE",
      "outputs": [
        {
          "internalType": "bytes32",
          "name": "",
          "type": "bytes32"
        }
      ],
      "stateMutability": "view",
      "type": "function"
    },
    {
      "inputs": [
        {
          "internalType": "address",
          "name": "to",
          "type": "address"
        },
        {
          "internalType": "uint256",
          "name": "tokenId",
          "type": "uint256"
        }
      ],
      "name": "approve",
      "outputs": [],
      "stateMutability": "nonpayable",
      "type": "function"
    },
    {
      "inputs": [
        {
          "internalType": "address",
          "name": "owner",
          "type": "address"
        }
      ],
      "name": "balanceOf",
      "outputs": [
        {
          "internalType": "uint256",
          "name": "",
          "type": "uint256"
        }
      ],
      "stateMutability": "view",
      "type": "function"
    },
    {
      "inputs": [
        {
          "internalType": "uint256",
          "name": "tokenId",
          "type": "uint256"
        }
      ],
      "name": "getApproved",
      "outputs": [
        {
          "internalType": "address",
          "name": "",
          "type": "address"
        }
      ],
      "stateMutability": "view",
      "type": "function"
    },
    {
      "inputs": [
        {
          "internalType": "bytes32",
          "name": "role",
          "type": "bytes32"
        }
      ],
      "name": "getRoleAdmin",
      "outputs": [
        {
          "internalType": "bytes32",
          "name": "",
          "type": "bytes32"
        }
      ],
      "stateMutability": "view",
      "type": "function"
    },
    {
      "inputs": [
        {
          "internalType": "bytes32",
          "name": "role",
          "type": "bytes32"
        },
        {
          "internalType": "address",
          "name": "account",
          "type": "address"
        }
      ],
      "name": "grantRole",
      "outputs": [],
      "stateMutability": "nonpayable",
      "type": "function"
    },
    {
      "inputs": [
        {
          "internalType": "bytes32",
          "name": "role",
          "type": "bytes32"
        },
        {
          "internalType": "address",
          "name": "account",
          "type": "address"
        }
      ],
      "name": "hasRole",
      "outputs": [
        {
          "internalType": "bool",
          "name": "",
          "type": "bool"
        }
      ],
      "stateMutability": "view",
      "type": "function"
    },
    {
      "inputs": [
        {
          "internalType": "address",
          "name": "owner",
          "type": "address"
        },
        {
          "internalType": "address",
          "name": "operator",
          "type": "address"
        }
      ],
      "name": "isApprovedForAll",
      "outputs": [
        {
          "internalType": "bool",
          "name": "",
          "type": "bool"
        }
      ],
      "stateMutability": "view",
      "type": "function"
    },
    {
      "inputs": [
        {
          "internalType": "address",
          "name": "_to",
          "type": "address"
        },
        {
          "internalType": "uint256",
          "name": "_tokenId",
          "type": "uint256"
        }
      ],
      "name": "mint",
      "outputs": [],
      "stateMutability": "nonpayable",
      "type": "function"
    },
    {
      "inputs": [],
      "name": "name",
      "outputs": [
        {
          "internalType": "string",
          "name": "",
          "type": "string"
        }
      ],
      "stateMutability": "view",
      "type": "function"
    },
    {
      "inputs": [
        {
          "internalType": "uint256",
          "name": "tokenId",
          "type": "uint256"
        }
      ],
      "name": "ownerOf",
      "outputs": [
        {
          "internalType": "address",
          "name": "",
          "type": "address"
        }
      ],
      "stateMutability": "view",
      "type": "function"
    },
    {
      "inputs": [
        {
          "internalType": "bytes32",
          "name": "role",
          "type": "bytes32"
        },
        {
          "internalType": "address",
          "name": "account",
          "type": "address"
        }
      ],
      "name": "renounceRole",
      "outputs": [],
      "stateMutability": "nonpayable",
      "type": "function"
    },
    {
      "inputs": [
        {
          "internalType": "bytes32",
          "name": "role",
          "type": "bytes32"
        },
        {
          "internalType": "address",
          "name": "account",
          "type": "address"
        }
      ],
      "name": "revokeRole",
      "outputs": [],
      "stateMutability": "nonpayable",
      "type": "function"
    },
    {
      "inputs": [
        {
          "internalType": "address",
          "name": "from",
          "type": "address"
        },
        {
          "internalType": "address",
          "name": "to",
          "type": "address"
        },
        {
          "internalType": "uint256",
          "name": "tokenId",
          "type": "uint256"
        }
      ],
      "name": "safeTransferFrom",
      "outputs": [],
      "stateMutability": "nonpayable",
      "type": "function"
    },
    {
      "inputs": [
        {
          "internalType": "address",
          "name": "from",
          "type": "address"
        },
        {
          "internalType": "address",
          "name": "to",
          "type": "address"
        },
        {
          "internalType": "uint256",
          "name": "tokenId",
          "type": "uint256"
        },
        {
          "internalType": "bytes",
          "name": "_data",
          "type": "bytes"
        }
      ],
      "name": "safeTransferFrom",
      "outputs": [],
      "stateMutability": "nonpayable",
      "type": "function"
    },
    {
      "inputs": [
        {
          "internalType": "address",
          "name": "operator",
          "type": "address"
        },
        {
          "internalType": "bool",
          "name": "approved",
          "type": "bool"
        }
      ],
      "name": "setApprovalForAll",
      "outputs": [],
      "stateMutability": "nonpayable",
      "type": "function"
    },
    {
      "inputs": [
        {
          "internalType": "bytes4",
          "name": "interfaceId",
          "type": "bytes4"
        }
      ],
      "name": "supportsInterface",
      "outputs": [
        {
          "internalType": "bool",
          "name": "",
          "type": "bool"
        }
      ],
      "stateMutability": "view",
      "type": "function"
    },
    {
      "inputs": [],
      "name": "symbol",
      "outputs": [
        {
          "internalType": "string",
          "name": "",
          "type": "string"
        }
      ],
      "stateMutability": "view",
      "type": "function"
    },
    {
      "inputs": [
        {
          "internalType": "uint256",
          "name": "tokenId",
          "type": "uint256"
        }
      ],
      "name": "tokenURI",
      "outputs": [
        {
          "internalType": "string",
          "name": "",
          "type": "string"
        }
      ],
      "stateMutability": "view",
      "type": "function"
    },
    {
      "inputs": [
        {
          "internalType": "address",
          "name": "from",
          "type": "address"
        },
        {
          "internalType": "address",
          "name": "to",
          "type": "address"
        },
        {
          "internalType": "uint256",
          "name": "tokenId",
          "type": "uint256"
        }
      ],
      "name": "transferFrom",
      "outputs": [],
      "stateMutability": "nonpayable",
      "type": "function"
    }
  ],
  "bytecode": "0x60806040523480156200001157600080fd5b50604051620020dd380380620020dd83398101604081905262000034916200021a565b8181600062000044838262000315565b50600162000053828262000315565b5050604051686f776e6572526f6c6560b81b602082015262000096915060290160405160208183030381529060405280519060200120336200009e60201b60201c565b5050620003e1565b620000aa8282620000ae565b5050565b60008281526006602090815260408083206001600160a01b038516845290915290205460ff16620000aa5760008281526006602090815260408083206001600160a01b03851684529091529020805460ff191660011790556200010e3390565b6001600160a01b0316816001600160a01b0316837f2f8788117e7eff1d82e926ec794901d17c78024a50270940304540a733656f0d60405160405180910390a45050565b634e487b7160e01b600052604160045260246000fd5b600082601f8301126200017a57600080fd5b81516001600160401b038082111562000197576200019762000152565b604051601f8301601f19908116603f01168101908282118183101715620001c257620001c262000152565b8160405283815260209250866020858801011115620001e057600080fd5b600091505b83821015620002045785820183015181830184015290820190620001e5565b6000602085830101528094505050505092915050565b600080604083850312156200022e57600080fd5b82516001600160401b03808211156200024657600080fd5b620002548683870162000168565b935060208501519150808211156200026b57600080fd5b506200027a8582860162000168565b9150509250929050565b600181811c908216806200029957607f821691505b602082108103620002ba57634e487b7160e01b600052602260045260246000fd5b50919050565b601f82111562000310576000816000526020600020601f850160051c81016020861015620002eb5750805b601f850160051c820191505b818110156200030c57828155600101620002f7565b5050505b505050565b81516001600160401b0381111562000331576200033162000152565b620003498162000342845462000284565b84620002c0565b602080601f831160018114620003815760008415620003685750858301515b600019600386901b1c1916600185901b1785556200030c565b600085815260208120601f198616915b82811015620003b25788860151825594840194600190910190840162000391565b5085821015620003d15787850151600019600388901b60f8161c191681555b5050505050600190811b01905550565b611cec80620003f16000396000f3fe608060405234801561001057600080fd5b50600436106101775760003560e01c806342842e0e116100d8578063a217fddf1161008c578063c87b56dd11610066578063c87b56dd14610366578063d547741f14610379578063e985e9c51461038c57600080fd5b8063a217fddf14610338578063a22cb46514610340578063b88d4fde1461035357600080fd5b806370a08231116100bd57806370a08231146102e457806391d14854146102f757806395d89b411461033057600080fd5b806342842e0e146102be5780636352211e146102d157600080fd5b8063248a9ca31161012f57806336568abe1161011457806336568abe146102505780633b8162b71461026357806340c10f19146102ab57600080fd5b8063248a9ca31461020c5780632f2ff15d1461023d57600080fd5b8063081812fc11610160578063081812fc146101b9578063095ea7b3146101e457806323b872dd146101f957600080fd5b806301ffc9a71461017c57806306fdde03146101a4575b600080fd5b61018f61018a3660046117e2565b6103c8565b60405190151581526020015b60405180910390f35b6101ac6103d9565b60405161019b919061184f565b6101cc6101c7366004611862565b61046b565b6040516001600160a01b03909116815260200161019b565b6101f76101f2366004611897565b610516565b005b6101f76102073660046118c1565b610647565b61022f61021a366004611862565b60009081526006602052604090206001015490565b60405190815260200161019b565b6101f761024b3660046118fd565b6106ce565b6101f761025e3660046118fd565b6106f9565b61022f6040517f6f776e6572526f6c65000000000000000000000000000000000000000000000060208201526029016040516020818303038152906040528051906020012081565b6101f76102b9366004611897565b610785565b6101f76102cc3660046118c1565b6107dc565b6101cc6102df366004611862565b6107f7565b61022f6102f2366004611929565b610882565b61018f6103053660046118fd565b60009182526006602090815260408084206001600160a01b0393909316845291905290205460ff1690565b6101ac61091c565b61022f600081565b6101f761034e366004611944565b61092b565b6101f7610361366004611996565b6109ef565b6101ac610374366004611862565b610a7d565b6101f76103873660046118fd565b610b73565b61018f61039a366004611a72565b6001600160a01b03918216600090815260056020908152604080832093909416825291909152205460ff1690565b60006103d382610b99565b92915050565b6060600080546103e890611a9c565b80601f016020809104026020016040519081016040528092919081815260200182805461041490611a9c565b80156104615780601f1061043657610100808354040283529160200191610461565b820191906000526020600020905b81548152906001019060200180831161044457829003601f168201915b5050505050905090565b6000818152600260205260408120546001600160a01b03166104fa5760405162461bcd60e51b815260206004820152602c60248201527f4552433732313a20617070726f76656420717565727920666f72206e6f6e657860448201527f697374656e7420746f6b656e000000000000000000000000000000000000000060648201526084015b60405180910390fd5b506000908152600460205260409020546001600160a01b031690565b6000610521826107f7565b9050806001600160a01b0316836001600160a01b0316036105aa5760405162461bcd60e51b815260206004820152602160248201527f4552433732313a20617070726f76616c20746f2063757272656e74206f776e6560448201527f720000000000000000000000000000000000000000000000000000000000000060648201526084016104f1565b336001600160a01b03821614806105c657506105c6813361039a565b6106385760405162461bcd60e51b815260206004820152603860248201527f4552433732313a20617070726f76652063616c6c6572206973206e6f74206f7760448201527f6e6572206e6f7220617070726f76656420666f7220616c6c000000000000000060648201526084016104f1565b6106428383610bd7565b505050565b6106513382610c52565b6106c35760405162461bcd60e51b815260206004820152603160248201527f4552433732313a207472616e736665722063616c6c6572206973206e6f74206f60448201527f776e6572206e6f7220617070726f76656400000000000000000000000000000060648201526084016104f1565b610642838383610d5a565b6000828152600660205260409020600101546106ef8133610f34565b610f34565b6106428383610fb4565b6001600160a01b03811633146107775760405162461bcd60e51b815260206004820152602f60248201527f416363657373436f6e74726f6c3a2063616e206f6e6c792072656e6f756e636560448201527f20726f6c657320666f722073656c66000000000000000000000000000000000060648201526084016104f1565b6107818282611056565b5050565b6040517f6f776e6572526f6c6500000000000000000000000000000000000000000000006020820152602901604051602081830303815290604052805190602001206107d2816106ea3390565b61064283836110d9565b610642838383604051806020016040528060008152506109ef565b6000818152600260205260408120546001600160a01b0316806103d35760405162461bcd60e51b815260206004820152602960248201527f4552433732313a206f776e657220717565727920666f72206e6f6e657869737460448201527f656e7420746f6b656e000000000000000000000000000000000000000000000060648201526084016104f1565b60006001600160a01b0382166109005760405162461bcd60e51b815260206004820152602a60248201527f4552433732313a2062616c616e636520717565727920666f7220746865207a6560448201527f726f20616464726573730000000000000000000000000000000000000000000060648201526084016104f1565b506001600160a01b031660009081526003602052604090205490565b6060600180546103e890611a9c565b336001600160a01b038316036109835760405162461bcd60e51b815260206004820152601960248201527f4552433732313a20617070726f766520746f2063616c6c65720000000000000060448201526064016104f1565b3360008181526005602090815260408083206001600160a01b03871680855290835292819020805460ff191686151590811790915590519081529192917f17307eab39ab6107e8899845ad3d59bd9653f200f220920489ca2b5937696c31910160405180910390a35050565b6109f93383610c52565b610a6b5760405162461bcd60e51b815260206004820152603160248201527f4552433732313a207472616e736665722063616c6c6572206973206e6f74206f60448201527f776e6572206e6f7220617070726f76656400000000000000000000000000000060648201526084016104f1565b610a7784848484611228565b50505050565b6000818152600260205260409020546060906001600160a01b0316610b0a5760405162461bcd60e51b815260206004820152602f60248201527f4552433732314d657461646174613a2055524920717565727920666f72206e6f60448201527f6e6578697374656e7420746f6b656e000000000000000000000000000000000060648201526084016104f1565b6000610b2160408051602081019091526000815290565b90506000815111610b415760405180602001604052806000815250610b6c565b80610b4b846112b1565b604051602001610b5c929190611ad6565b6040516020818303038152906040525b9392505050565b600082815260066020526040902060010154610b8f8133610f34565b6106428383611056565b60006001600160e01b031982167f7965db0b0000000000000000000000000000000000000000000000000000000014806103d357506103d3826113ca565b6000818152600460205260409020805473ffffffffffffffffffffffffffffffffffffffff19166001600160a01b0384169081179091558190610c19826107f7565b6001600160a01b03167f8c5be1e5ebec7d5bd14f71427d1e84f3dd0314c0f7b2291e5b200ac8c7c3b92560405160405180910390a45050565b6000818152600260205260408120546001600160a01b0316610cdc5760405162461bcd60e51b815260206004820152602c60248201527f4552433732313a206f70657261746f7220717565727920666f72206e6f6e657860448201527f697374656e7420746f6b656e000000000000000000000000000000000000000060648201526084016104f1565b6000610ce7836107f7565b9050806001600160a01b0316846001600160a01b03161480610d225750836001600160a01b0316610d178461046b565b6001600160a01b0316145b80610d5257506001600160a01b0380821660009081526005602090815260408083209388168352929052205460ff165b949350505050565b826001600160a01b0316610d6d826107f7565b6001600160a01b031614610de95760405162461bcd60e51b815260206004820152602960248201527f4552433732313a207472616e73666572206f6620746f6b656e2074686174206960448201527f73206e6f74206f776e000000000000000000000000000000000000000000000060648201526084016104f1565b6001600160a01b038216610e645760405162461bcd60e51b8152602060048201526024808201527f4552433732313a207472616e7366657220746f20746865207a65726f2061646460448201527f726573730000000000000000000000000000000000000000000000000000000060648201526084016104f1565b610e6f600082610bd7565b6001600160a01b0383166000908152600360205260408120805460019290610e98908490611b1b565b90915550506001600160a01b0382166000908152600360205260408120805460019290610ec6908490611b2e565b9091555050600081815260026020526040808220805473ffffffffffffffffffffffffffffffffffffffff19166001600160a01b0386811691821790925591518493918716917fddf252ad1be2c89b69c2b068fc378daa952ba7f163c4a11628f55a4df523b3ef91a4505050565b60008281526006602090815260408083206001600160a01b038516845290915290205460ff1661078157610f72816001600160a01b03166014611465565b610f7d836020611465565b604051602001610f8e929190611b41565b60408051601f198184030181529082905262461bcd60e51b82526104f19160040161184f565b60008281526006602090815260408083206001600160a01b038516845290915290205460ff166107815760008281526006602090815260408083206001600160a01b03851684529091529020805460ff191660011790556110123390565b6001600160a01b0316816001600160a01b0316837f2f8788117e7eff1d82e926ec794901d17c78024a50270940304540a733656f0d60405160405180910390a45050565b60008281526006602090815260408083206001600160a01b038516845290915290205460ff16156107815760008281526006602090815260408083206001600160a01b0385168085529252808320805460ff1916905551339285917ff6391f5c32d9c69d2a47ea670b442974b53935d1edc7fd64eb21e047a839171b9190a45050565b6001600160a01b03821661112f5760405162461bcd60e51b815260206004820181905260248201527f4552433732313a206d696e7420746f20746865207a65726f206164647265737360448201526064016104f1565b6000818152600260205260409020546001600160a01b0316156111945760405162461bcd60e51b815260206004820152601c60248201527f4552433732313a20746f6b656e20616c7265616479206d696e7465640000000060448201526064016104f1565b6001600160a01b03821660009081526003602052604081208054600192906111bd908490611b2e565b9091555050600081815260026020526040808220805473ffffffffffffffffffffffffffffffffffffffff19166001600160a01b03861690811790915590518392907fddf252ad1be2c89b69c2b068fc378daa952ba7f163c4a11628f55a4df523b3ef908290a45050565b611233848484610d5a565b61123f84848484611672565b610a775760405162461bcd60e51b815260206004820152603260248201527f4552433732313a207472616e7366657220746f206e6f6e20455243373231526560448201527f63656976657220696d706c656d656e746572000000000000000000000000000060648201526084016104f1565b6060816000036112d85750506040805180820190915260018152600360fc1b602082015290565b8160005b811561130257806112ec81611bc2565b91506112fb9050600a83611bf1565b91506112dc565b60008167ffffffffffffffff81111561131d5761131d611980565b6040519080825280601f01601f191660200182016040528015611347576020820181803683370190505b5090505b8415610d525761135c600183611b1b565b9150611369600a86611c05565b611374906030611b2e565b60f81b81838151811061138957611389611c19565b60200101907effffffffffffffffffffffffffffffffffffffffffffffffffffffffffffff1916908160001a9053506113c3600a86611bf1565b945061134b565b60006001600160e01b031982167f80ac58cd00000000000000000000000000000000000000000000000000000000148061142d57506001600160e01b031982167f5b5e139f00000000000000000000000000000000000000000000000000000000145b806103d357507f01ffc9a7000000000000000000000000000000000000000000000000000000006001600160e01b03198316146103d3565b60606000611474836002611c2f565b61147f906002611b2e565b67ffffffffffffffff81111561149757611497611980565b6040519080825280601f01601f1916602001820160405280156114c1576020820181803683370190505b509050600360fc1b816000815181106114dc576114dc611c19565b60200101907effffffffffffffffffffffffffffffffffffffffffffffffffffffffffffff1916908160001a9053507f78000000000000000000000000000000000000000000000000000000000000008160018151811061153f5761153f611c19565b60200101907effffffffffffffffffffffffffffffffffffffffffffffffffffffffffffff1916908160001a905350600061157b846002611c2f565b611586906001611b2e565b90505b6001811115611623577f303132333435363738396162636465660000000000000000000000000000000085600f16601081106115c7576115c7611c19565b1a60f81b8282815181106115dd576115dd611c19565b60200101907effffffffffffffffffffffffffffffffffffffffffffffffffffffffffffff1916908160001a90535060049490941c9361161c81611c46565b9050611589565b508315610b6c5760405162461bcd60e51b815260206004820181905260248201527f537472696e67733a20686578206c656e67746820696e73756666696369656e7460448201526064016104f1565b60006001600160a01b0384163b156117be57604051630a85bd0160e11b81526001600160a01b0385169063150b7a02906116b6903390899088908890600401611c5d565b6020604051808303816000875af19250505080156116f1575060408051601f3d908101601f191682019092526116ee91810190611c99565b60015b6117a4573d80801561171f576040519150601f19603f3d011682016040523d82523d6000602084013e611724565b606091505b50805160000361179c5760405162461bcd60e51b815260206004820152603260248201527f4552433732313a207472616e7366657220746f206e6f6e20455243373231526560448201527f63656976657220696d706c656d656e746572000000000000000000000000000060648201526084016104f1565b805181602001fd5b6001600160e01b031916630a85bd0160e11b149050610d52565b506001949350505050565b6001600160e01b0319811681146117df57600080fd5b50565b6000602082840312156117f457600080fd5b8135610b6c816117c9565b60005b8381101561181a578181015183820152602001611802565b50506000910152565b6000815180845261183b8160208601602086016117ff565b601f01601f19169290920160200192915050565b602081526000610b6c6020830184611823565b60006020828403121561187457600080fd5b5035919050565b80356001600160a01b038116811461189257600080fd5b919050565b600080604083850312156118aa57600080fd5b6118b38361187b565b946020939093013593505050565b6000806000606084860312156118d657600080fd5b6118df8461187b565b92506118ed6020850161187b565b9150604084013590509250925092565b6000806040838503121561191057600080fd5b823591506119206020840161187b565b90509250929050565b60006020828403121561193b57600080fd5b610b6c8261187b565b6000806040838503121561195757600080fd5b6119608361187b565b91506020830135801515811461197557600080fd5b809150509250929050565b634e487b7160e01b600052604160045260246000fd5b600080600080608085870312156119ac57600080fd5b6119b58561187b565b93506119c36020860161187b565b925060408501359150606085013567ffffffffffffffff808211156119e757600080fd5b818701915087601f8301126119fb57600080fd5b813581811115611a0d57611a0d611980565b604051601f8201601f19908116603f01168101908382118183101715611a3557611a35611980565b816040528281528a6020848701011115611a4e57600080fd5b82602086016020830137600060208483010152809550505050505092959194509250565b60008060408385031215611a8557600080fd5b611a8e8361187b565b91506119206020840161187b565b600181811c90821680611ab057607f821691505b602082108103611ad057634e487b7160e01b600052602260045260246000fd5b50919050565b60008351611ae88184602088016117ff565b835190830190611afc8183602088016117ff565b01949350505050565b634e487b7160e01b600052601160045260246000fd5b818103818111156103d3576103d3611b05565b808201808211156103d3576103d3611b05565b7f416363657373436f6e74726f6c3a206163636f756e7420000000000000000000815260008351611b798160178501602088016117ff565b7f206973206d697373696e6720726f6c65200000000000000000000000000000006017918401918201528351611bb68160288401602088016117ff565b01602801949350505050565b600060018201611bd457611bd4611b05565b5060010190565b634e487b7160e01b600052601260045260246000fd5b600082611c0057611c00611bdb565b500490565b600082611c1457611c14611bdb565b500690565b634e487b7160e01b600052603260045260246000fd5b80820281158282048414176103d3576103d3611b05565b600081611c5557611c55611b05565b506000190190565b60006001600160a01b03808716835280861660208401525083604083015260806060830152611c8f6080830184611823565b9695505050505050565b600060208284031215611cab57600080fd5b8151610b6c816117c956fea2646970667358221220ebb1c349f76648b567b45a18aae86f6e991df51d802b8b01ac36b7b3890595ce64736f6c63430008180033",
  "linkReferences": {},
  "deployedLinkReferences": {}
}