{
  "_format": "hh-sol-artifact-1",
  "contractName": "RaylsERC20",
  "sourceName": "contracts/erc20/contracts/RaylsERC20.sol",
  "abi": [
    {
      "inputs": [
        {
          "internalType": "string",
          "name": "_name",
          "type": "string"
        },
        {
          "internalType": "string",
          "name": "_symbol",
          "type": "string"
        }
      ],
      "stateMutability": "nonpayable",
      "type": "constructor"
    },
    {
      "anonymous": false,
      "inputs": [
        {
          "indexed": true,
          "internalType": "address",
          "name": "owner",
          "type": "address"
        },
        {
          "indexed": true,
          "internalType": "address",
          "name": "spender",
          "type": "address"
        },
        {
          "indexed": false,
          "internalType": "uint256",
          "name": "value",
          "type": "uint256"
        }
      ],
      "name": "Approval",
      "type": "event"
    },
    {
      "anonymous": false,
      "inputs": [
        {
          "indexed": true,
          "internalType": "bytes32",
          "name": "role",
          "type": "bytes32"
        },
        {
          "indexed": true,
          "internalType": "bytes32",
          "name": "previousAdminRole",
          "type": "bytes32"
        },
        {
          "indexed": true,
          "internalType": "bytes32",
          "name": "newAdminRole",
          "type": "bytes32"
        }
      ],
      "name": "RoleAdminChanged",
      "type": "event"
    },
    {
      "anonymous": false,
      "inputs": [
        {
          "indexed": true,
          "internalType": "bytes32",
          "name": "role",
          "type": "bytes32"
        },
        {
          "indexed": true,
          "internalType": "address",
          "name": "account",
          "type": "address"
        },
        {
          "indexed": true,
          "internalType": "address",
          "name": "sender",
          "type": "address"
        }
      ],
      "name": "RoleGranted",
      "type": "event"
    },
    {
      "anonymous": false,
      "inputs": [
        {
          "indexed": true,
          "internalType": "bytes32",
          "name": "role",
          "type": "bytes32"
        },
        {
          "indexed": true,
          "internalType": "address",
          "name": "account",
          "type": "address"
        },
        {
          "indexed": true,
          "internalType": "address",
          "name": "sender",
          "type": "address"
        }
      ],
      "name": "RoleRevoked",
      "type": "event"
    },
    {
      "anonymous": false,
      "inputs": [
        {
          "indexed": true,
          "internalType": "address",
          "name": "from",
          "type": "address"
        },
        {
          "indexed": true,
          "internalType": "address",
          "name": "to",
          "type": "address"
        },
        {
          "indexed": false,
          "internalType": "uint256",
          "name": "value",
          "type": "uint256"
        }
      ],
      "name": "Transfer",
      "type": "event"
    },
    {
      "inputs": [],
      "name": "DEFAULT_ADMIN_ROLE",
      "outputs": [
        {
          "internalType": "bytes32",
          "name": "",
          "type": "bytes32"
        }
      ],
      "stateMutability": "view",
      "type": "function"
    },
    {
      "inputs": [],
      "name": "DEFAULT_OWNER_ROLE",
      "outputs": [
        {
          "internalType": "bytes32",
          "name": "",
          "type": "bytes32"
        }
      ],
      "stateMutability": "view",
      "type": "function"
    },
    {
      "inputs": [
        {
          "internalType": "address",
          "name": "owner",
          "type": "address"
        },
        {
          "internalType": "address",
          "name": "spender",
          "type": "address"
        }
      ],
      "name": "allowance",
      "outputs": [
        {
          "internalType": "uint256",
          "name": "",
          "type": "uint256"
        }
      ],
      "stateMutability": "view",
      "type": "function"
    },
    {
      "inputs": [
        {
          "internalType": "address",
          "name": "spender",
          "type": "address"
        },
        {
          "internalType": "uint256",
          "name": "amount",
          "type": "uint256"
        }
      ],
      "name": "approve",
      "outputs": [
        {
          "internalType": "bool",
          "name": "",
          "type": "bool"
        }
      ],
      "stateMutability": "nonpayable",
      "type": "function"
    },
    {
      "inputs": [
        {
          "internalType": "address",
          "name": "account",
          "type": "address"
        }
      ],
      "name": "balanceOf",
      "outputs": [
        {
          "internalType": "uint256",
          "name": "",
          "type": "uint256"
        }
      ],
      "stateMutability": "view",
      "type": "function"
    },
    {
      "inputs": [],
      "name": "decimals",
      "outputs": [
        {
          "internalType": "uint8",
          "name": "",
          "type": "uint8"
        }
      ],
      "stateMutability": "view",
      "type": "function"
    },
    {
      "inputs": [
        {
          "internalType": "address",
          "name": "spender",
          "type": "address"
        },
        {
          "internalType": "uint256",
          "name": "subtractedValue",
          "type": "uint256"
        }
      ],
      "name": "decreaseAllowance",
      "outputs": [
        {
          "internalType": "bool",
          "name": "",
          "type": "bool"
        }
      ],
      "stateMutability": "nonpayable",
      "type": "function"
    },
    {
      "inputs": [
        {
          "internalType": "bytes32",
          "name": "role",
          "type": "bytes32"
        }
      ],
      "name": "getRoleAdmin",
      "outputs": [
        {
          "internalType": "bytes32",
          "name": "",
          "type": "bytes32"
        }
      ],
      "stateMutability": "view",
      "type": "function"
    },
    {
      "inputs": [
        {
          "internalType": "bytes32",
          "name": "role",
          "type": "bytes32"
        },
        {
          "internalType": "address",
          "name": "account",
          "type": "address"
        }
      ],
      "name": "grantRole",
      "outputs": [],
      "stateMutability": "nonpayable",
      "type": "function"
    },
    {
      "inputs": [
        {
          "internalType": "bytes32",
          "name": "role",
          "type": "bytes32"
        },
        {
          "internalType": "address",
          "name": "account",
          "type": "address"
        }
      ],
      "name": "hasRole",
      "outputs": [
        {
          "internalType": "bool",
          "name": "",
          "type": "bool"
        }
      ],
      "stateMutability": "view",
      "type": "function"
    },
    {
      "inputs": [
        {
          "internalType": "address",
          "name": "spender",
          "type": "address"
        },
        {
          "internalType": "uint256",
          "name": "addedValue",
          "type": "uint256"
        }
      ],
      "name": "increaseAllowance",
      "outputs": [
        {
          "internalType": "bool",
          "name": "",
          "type": "bool"
        }
      ],
      "stateMutability": "nonpayable",
      "type": "function"
    },
    {
      "inputs": [
        {
          "internalType": "address",
          "name": "to_",
          "type": "address"
        },
        {
          "internalType": "uint256",
          "name": "value_",
          "type": "uint256"
        }
      ],
      "name": "mint",
      "outputs": [],
      "stateMutability": "nonpayable",
      "type": "function"
    },
    {
      "inputs": [],
      "name": "name",
      "outputs": [
        {
          "internalType": "string",
          "name": "",
          "type": "string"
        }
      ],
      "stateMutability": "view",
      "type": "function"
    },
    {
      "inputs": [
        {
          "internalType": "bytes32",
          "name": "role",
          "type": "bytes32"
        },
        {
          "internalType": "address",
          "name": "account",
          "type": "address"
        }
      ],
      "name": "renounceRole",
      "outputs": [],
      "stateMutability": "nonpayable",
      "type": "function"
    },
    {
      "inputs": [
        {
          "internalType": "bytes32",
          "name": "role",
          "type": "bytes32"
        },
        {
          "internalType": "address",
          "name": "account",
          "type": "address"
        }
      ],
      "name": "revokeRole",
      "outputs": [],
      "stateMutability": "nonpayable",
      "type": "function"
    },
    {
      "inputs": [
        {
          "internalType": "bytes4",
          "name": "interfaceId",
          "type": "bytes4"
        }
      ],
      "name": "supportsInterface",
      "outputs": [
        {
          "internalType": "bool",
          "name": "",
          "type": "bool"
        }
      ],
      "stateMutability": "view",
      "type": "function"
    },
    {
      "inputs": [],
      "name": "symbol",
      "outputs": [
        {
          "internalType": "string",
          "name": "",
          "type": "string"
        }
      ],
      "stateMutability": "view",
      "type": "function"
    },
    {
      "inputs": [],
      "name": "totalSupply",
      "outputs": [
        {
          "internalType": "uint256",
          "name": "",
          "type": "uint256"
        }
      ],
      "stateMutability": "view",
      "type": "function"
    },
    {
      "inputs": [
        {
          "internalType": "address",
          "name": "recipient",
          "type": "address"
        },
        {
          "internalType": "uint256",
          "name": "amount",
          "type": "uint256"
        }
      ],
      "name": "transfer",
      "outputs": [
        {
          "internalType": "bool",
          "name": "",
          "type": "bool"
        }
      ],
      "stateMutability": "nonpayable",
      "type": "function"
    },
    {
      "inputs": [
        {
          "internalType": "address",
          "name": "sender",
          "type": "address"
        },
        {
          "internalType": "address",
          "name": "recipient",
          "type": "address"
        },
        {
          "internalType": "uint256",
          "name": "amount",
          "type": "uint256"
        }
      ],
      "name": "transferFrom",
      "outputs": [
        {
          "internalType": "bool",
          "name": "",
          "type": "bool"
        }
      ],
      "stateMutability": "nonpayable",
      "type": "function"
    }
  ],
  "bytecode": "0x60806040523480156200001157600080fd5b50604051620017273803806200172783398101604081905262000034916200021a565b8181600362000044838262000315565b50600462000053828262000315565b5050604051686f776e6572526f6c6560b81b602082015262000096915060290160405160208183030381529060405280519060200120336200009e60201b60201c565b5050620003e1565b620000aa8282620000ae565b5050565b60008281526005602090815260408083206001600160a01b038516845290915290205460ff16620000aa5760008281526005602090815260408083206001600160a01b03851684529091529020805460ff191660011790556200010e3390565b6001600160a01b0316816001600160a01b0316837f2f8788117e7eff1d82e926ec794901d17c78024a50270940304540a733656f0d60405160405180910390a45050565b634e487b7160e01b600052604160045260246000fd5b600082601f8301126200017a57600080fd5b81516001600160401b038082111562000197576200019762000152565b604051601f8301601f19908116603f01168101908282118183101715620001c257620001c262000152565b8160405283815260209250866020858801011115620001e057600080fd5b600091505b83821015620002045785820183015181830184015290820190620001e5565b6000602085830101528094505050505092915050565b600080604083850312156200022e57600080fd5b82516001600160401b03808211156200024657600080fd5b620002548683870162000168565b935060208501519150808211156200026b57600080fd5b506200027a8582860162000168565b9150509250929050565b600181811c908216806200029957607f821691505b602082108103620002ba57634e487b7160e01b600052602260045260246000fd5b50919050565b601f82111562000310576000816000526020600020601f850160051c81016020861015620002eb5750805b601f850160051c820191505b818110156200030c57828155600101620002f7565b5050505b505050565b81516001600160401b0381111562000331576200033162000152565b620003498162000342845462000284565b84620002c0565b602080601f831160018114620003815760008415620003685750858301515b600019600386901b1c1916600185901b1785556200030c565b600085815260208120601f198616915b82811015620003b25788860151825594840194600190910190840162000391565b5085821015620003d15787850151600019600388901b60f8161c191681555b5050505050600190811b01905550565b61133680620003f16000396000f3fe608060405234801561001057600080fd5b506004361061016c5760003560e01c80633b8162b7116100cd578063a217fddf11610081578063a9059cbb11610066578063a9059cbb14610333578063d547741f14610346578063dd62ed3e1461035957600080fd5b8063a217fddf14610318578063a457c2d71461032057600080fd5b806370a08231116100b257806370a08231146102ae57806391d14854146102d757806395d89b411461031057600080fd5b80633b8162b71461025357806340c10f191461029b57600080fd5b8063248a9ca311610124578063313ce56711610109578063313ce5671461021e57806336568abe1461022d578063395093511461024057600080fd5b8063248a9ca3146101e65780632f2ff15d1461020957600080fd5b8063095ea7b311610155578063095ea7b3146101ae57806318160ddd146101c157806323b872dd146101d357600080fd5b806301ffc9a71461017157806306fdde0314610199575b600080fd5b61018461017f36600461100a565b610392565b60405190151581526020015b60405180910390f35b6101a161042b565b6040516101909190611070565b6101846101bc3660046110bf565b6104bd565b6002545b604051908152602001610190565b6101846101e13660046110e9565b6104d3565b6101c56101f4366004611125565b60009081526005602052604090206001015490565b61021c61021736600461113e565b61059e565b005b60405160128152602001610190565b61021c61023b36600461113e565b6105ce565b61018461024e3660046110bf565b61065a565b6101c56040517f6f776e6572526f6c65000000000000000000000000000000000000000000000060208201526029016040516020818303038152906040528051906020012081565b61021c6102a93660046110bf565b610691565b6101c56102bc36600461116a565b6001600160a01b031660009081526020819052604090205490565b6101846102e536600461113e565b60009182526005602090815260408084206001600160a01b0393909316845291905290205460ff1690565b6101a16106e8565b6101c5600081565b61018461032e3660046110bf565b6106f7565b6101846103413660046110bf565b6107aa565b61021c61035436600461113e565b6107b7565b6101c5610367366004611185565b6001600160a01b03918216600090815260016020908152604080832093909416825291909152205490565b60007fffffffff0000000000000000000000000000000000000000000000000000000082167f7965db0b00000000000000000000000000000000000000000000000000000000148061042557507f01ffc9a7000000000000000000000000000000000000000000000000000000007fffffffff000000000000000000000000000000000000000000000000000000008316145b92915050565b60606003805461043a906111af565b80601f0160208091040260200160405190810160405280929190818152602001828054610466906111af565b80156104b35780601f10610488576101008083540402835291602001916104b3565b820191906000526020600020905b81548152906001019060200180831161049657829003601f168201915b5050505050905090565b60006104ca3384846107dd565b50600192915050565b60006104e0848484610935565b6001600160a01b03841660009081526001602090815260408083203384529091529020548281101561057f5760405162461bcd60e51b815260206004820152602860248201527f45524332303a207472616e7366657220616d6f756e742065786365656473206160448201527f6c6c6f77616e636500000000000000000000000000000000000000000000000060648201526084015b60405180910390fd5b610593853361058e86856111ff565b6107dd565b506001949350505050565b6000828152600560205260409020600101546105bf8133610b56565b610b56565b6105c98383610bd6565b505050565b6001600160a01b038116331461064c5760405162461bcd60e51b815260206004820152602f60248201527f416363657373436f6e74726f6c3a2063616e206f6e6c792072656e6f756e636560448201527f20726f6c657320666f722073656c6600000000000000000000000000000000006064820152608401610576565b6106568282610c78565b5050565b3360008181526001602090815260408083206001600160a01b038716845290915281205490916104ca91859061058e908690611212565b6040517f6f776e6572526f6c6500000000000000000000000000000000000000000000006020820152602901604051602081830303815290604052805190602001206106de816105ba3390565b6105c98383610cfb565b60606004805461043a906111af565b3360009081526001602090815260408083206001600160a01b0386168452909152812054828110156107915760405162461bcd60e51b815260206004820152602560248201527f45524332303a2064656372656173656420616c6c6f77616e63652062656c6f7760448201527f207a65726f0000000000000000000000000000000000000000000000000000006064820152608401610576565b6107a0338561058e86856111ff565b5060019392505050565b60006104ca338484610935565b6000828152600560205260409020600101546107d38133610b56565b6105c98383610c78565b6001600160a01b0383166108585760405162461bcd60e51b8152602060048201526024808201527f45524332303a20617070726f76652066726f6d20746865207a65726f2061646460448201527f72657373000000000000000000000000000000000000000000000000000000006064820152608401610576565b6001600160a01b0382166108d45760405162461bcd60e51b815260206004820152602260248201527f45524332303a20617070726f766520746f20746865207a65726f20616464726560448201527f73730000000000000000000000000000000000000000000000000000000000006064820152608401610576565b6001600160a01b0383811660008181526001602090815260408083209487168084529482529182902085905590518481527f8c5be1e5ebec7d5bd14f71427d1e84f3dd0314c0f7b2291e5b200ac8c7c3b925910160405180910390a3505050565b6001600160a01b0383166109b15760405162461bcd60e51b815260206004820152602560248201527f45524332303a207472616e736665722066726f6d20746865207a65726f20616460448201527f64726573730000000000000000000000000000000000000000000000000000006064820152608401610576565b6001600160a01b038216610a2d5760405162461bcd60e51b815260206004820152602360248201527f45524332303a207472616e7366657220746f20746865207a65726f206164647260448201527f65737300000000000000000000000000000000000000000000000000000000006064820152608401610576565b6001600160a01b03831660009081526020819052604090205481811015610abc5760405162461bcd60e51b815260206004820152602660248201527f45524332303a207472616e7366657220616d6f756e742065786365656473206260448201527f616c616e636500000000000000000000000000000000000000000000000000006064820152608401610576565b610ac682826111ff565b6001600160a01b038086166000908152602081905260408082209390935590851681529081208054849290610afc908490611212565b92505081905550826001600160a01b0316846001600160a01b03167fddf252ad1be2c89b69c2b068fc378daa952ba7f163c4a11628f55a4df523b3ef84604051610b4891815260200190565b60405180910390a350505050565b60008281526005602090815260408083206001600160a01b038516845290915290205460ff1661065657610b94816001600160a01b03166014610dda565b610b9f836020610dda565b604051602001610bb0929190611225565b60408051601f198184030181529082905262461bcd60e51b825261057691600401611070565b60008281526005602090815260408083206001600160a01b038516845290915290205460ff166106565760008281526005602090815260408083206001600160a01b03851684529091529020805460ff19166001179055610c343390565b6001600160a01b0316816001600160a01b0316837f2f8788117e7eff1d82e926ec794901d17c78024a50270940304540a733656f0d60405160405180910390a45050565b60008281526005602090815260408083206001600160a01b038516845290915290205460ff16156106565760008281526005602090815260408083206001600160a01b0385168085529252808320805460ff1916905551339285917ff6391f5c32d9c69d2a47ea670b442974b53935d1edc7fd64eb21e047a839171b9190a45050565b6001600160a01b038216610d515760405162461bcd60e51b815260206004820152601f60248201527f45524332303a206d696e7420746f20746865207a65726f2061646472657373006044820152606401610576565b8060026000828254610d639190611212565b90915550506001600160a01b03821660009081526020819052604081208054839290610d90908490611212565b90915550506040518181526001600160a01b038316906000907fddf252ad1be2c89b69c2b068fc378daa952ba7f163c4a11628f55a4df523b3ef9060200160405180910390a35050565b60606000610de98360026112a6565b610df4906002611212565b67ffffffffffffffff811115610e0c57610e0c6112bd565b6040519080825280601f01601f191660200182016040528015610e36576020820181803683370190505b5090507f300000000000000000000000000000000000000000000000000000000000000081600081518110610e6d57610e6d6112d3565b60200101907effffffffffffffffffffffffffffffffffffffffffffffffffffffffffffff1916908160001a9053507f780000000000000000000000000000000000000000000000000000000000000081600181518110610ed057610ed06112d3565b60200101907effffffffffffffffffffffffffffffffffffffffffffffffffffffffffffff1916908160001a9053506000610f0c8460026112a6565b610f17906001611212565b90505b6001811115610fb4577f303132333435363738396162636465660000000000000000000000000000000085600f1660108110610f5857610f586112d3565b1a60f81b828281518110610f6e57610f6e6112d3565b60200101907effffffffffffffffffffffffffffffffffffffffffffffffffffffffffffff1916908160001a90535060049490941c93610fad816112e9565b9050610f1a565b5083156110035760405162461bcd60e51b815260206004820181905260248201527f537472696e67733a20686578206c656e67746820696e73756666696369656e746044820152606401610576565b9392505050565b60006020828403121561101c57600080fd5b81357fffffffff000000000000000000000000000000000000000000000000000000008116811461100357600080fd5b60005b8381101561106757818101518382015260200161104f565b50506000910152565b602081526000825180602084015261108f81604085016020870161104c565b601f01601f19169190910160400192915050565b80356001600160a01b03811681146110ba57600080fd5b919050565b600080604083850312156110d257600080fd5b6110db836110a3565b946020939093013593505050565b6000806000606084860312156110fe57600080fd5b611107846110a3565b9250611115602085016110a3565b9150604084013590509250925092565b60006020828403121561113757600080fd5b5035919050565b6000806040838503121561115157600080fd5b82359150611161602084016110a3565b90509250929050565b60006020828403121561117c57600080fd5b611003826110a3565b6000806040838503121561119857600080fd5b6111a1836110a3565b9150611161602084016110a3565b600181811c908216806111c357607f821691505b6020821081036111e357634e487b7160e01b600052602260045260246000fd5b50919050565b634e487b7160e01b600052601160045260246000fd5b81810381811115610425576104256111e9565b80820180821115610425576104256111e9565b7f416363657373436f6e74726f6c3a206163636f756e742000000000000000000081526000835161125d81601785016020880161104c565b7f206973206d697373696e6720726f6c6520000000000000000000000000000000601791840191820152835161129a81602884016020880161104c565b01602801949350505050565b8082028115828204841417610425576104256111e9565b634e487b7160e01b600052604160045260246000fd5b634e487b7160e01b600052603260045260246000fd5b6000816112f8576112f86111e9565b50600019019056fea26469706673582212202af74ba3cc1832d2de4f60360b55a03b75c9042d06caa46e29f09f1eead8194464736f6c63430008180033",
  "linkReferences": {},
  "deployedLinkReferences": {}
}